{
	"task1/question3.sol": {
		"RomanNumber2Int": {
			"abi": [
				{
					"inputs": [],
					"stateMutability": "nonpayable",
					"type": "constructor"
				},
				{
					"inputs": [
						{
							"internalType": "string",
							"name": "input",
							"type": "string"
						}
					],
					"name": "parse",
					"outputs": [
						{
							"internalType": "uint256",
							"name": "",
							"type": "uint256"
						}
					],
					"stateMutability": "view",
					"type": "function"
				}
			],
			"devdoc": {
				"kind": "dev",
				"methods": {},
				"version": 1
			},
			"evm": {
				"assembly": "    /* \"task1/question3.sol\":1067:2926  contract RomanNumber2Int {... */\n  mstore(0x40, 0x80)\n    /* \"task1/question3.sol\":1151:1391  constructor() {... */\n  callvalue\n  dup1\n  iszero\n  tag_1\n  jumpi\n  revert(0x00, 0x00)\ntag_1:\n  pop\n    /* \"task1/question3.sol\":1194:1195  1 */\n  0x01\n    /* \"task1/question3.sol\":1175:1186  charMapping */\n  0x00\n    /* \"task1/question3.sol\":1175:1191  charMapping[\"I\"] */\n  0x00\n  and(not(0xffffffffffffffffffffffffffffffffffffffffffffffffffffffffffffff), 0x4900000000000000000000000000000000000000000000000000000000000000)\n  dup2\n  mstore\n  0x20\n  add\n  swap1\n  dup2\n  mstore\n  0x20\n  add\n  0x00\n  keccak256\n    /* \"task1/question3.sol\":1175:1195  charMapping[\"I\"] = 1 */\n  dup2\n  swap1\n  sstore\n  pop\n    /* \"task1/question3.sol\":1224:1225  5 */\n  0x05\n    /* \"task1/question3.sol\":1205:1216  charMapping */\n  0x00\n    /* \"task1/question3.sol\":1205:1221  charMapping[\"V\"] */\n  0x00\n  and(not(0xffffffffffffffffffffffffffffffffffffffffffffffffffffffffffffff), 0x5600000000000000000000000000000000000000000000000000000000000000)\n  dup2\n  mstore\n  0x20\n  add\n  swap1\n  dup2\n  mstore\n  0x20\n  add\n  0x00\n  keccak256\n    /* \"task1/question3.sol\":1205:1225  charMapping[\"V\"] = 5 */\n  dup2\n  swap1\n  sstore\n  pop\n    /* \"task1/question3.sol\":1254:1256  10 */\n  0x0a\n    /* \"task1/question3.sol\":1235:1246  charMapping */\n  0x00\n    /* \"task1/question3.sol\":1235:1251  charMapping[\"X\"] */\n  0x00\n  and(not(0xffffffffffffffffffffffffffffffffffffffffffffffffffffffffffffff), 0x5800000000000000000000000000000000000000000000000000000000000000)\n  dup2\n  mstore\n  0x20\n  add\n  swap1\n  dup2\n  mstore\n  0x20\n  add\n  0x00\n  keccak256\n    /* \"task1/question3.sol\":1235:1256  charMapping[\"X\"] = 10 */\n  dup2\n  swap1\n  sstore\n  pop\n    /* \"task1/question3.sol\":1285:1287  50 */\n  0x32\n    /* \"task1/question3.sol\":1266:1277  charMapping */\n  0x00\n    /* \"task1/question3.sol\":1266:1282  charMapping[\"L\"] */\n  0x00\n  and(not(0xffffffffffffffffffffffffffffffffffffffffffffffffffffffffffffff), 0x4c00000000000000000000000000000000000000000000000000000000000000)\n  dup2\n  mstore\n  0x20\n  add\n  swap1\n  dup2\n  mstore\n  0x20\n  add\n  0x00\n  keccak256\n    /* \"task1/question3.sol\":1266:1287  charMapping[\"L\"] = 50 */\n  dup2\n  swap1\n  sstore\n  pop\n    /* \"task1/question3.sol\":1316:1319  100 */\n  0x64\n    /* \"task1/question3.sol\":1297:1308  charMapping */\n  0x00\n    /* \"task1/question3.sol\":1297:1313  charMapping[\"C\"] */\n  0x00\n  and(not(0xffffffffffffffffffffffffffffffffffffffffffffffffffffffffffffff), 0x4300000000000000000000000000000000000000000000000000000000000000)\n  dup2\n  mstore\n  0x20\n  add\n  swap1\n  dup2\n  mstore\n  0x20\n  add\n  0x00\n  keccak256\n    /* \"task1/question3.sol\":1297:1319  charMapping[\"C\"] = 100 */\n  dup2\n  swap1\n  sstore\n  pop\n    /* \"task1/question3.sol\":1348:1351  500 */\n  0x01f4\n    /* \"task1/question3.sol\":1329:1340  charMapping */\n  0x00\n    /* \"task1/question3.sol\":1329:1345  charMapping[\"D\"] */\n  0x00\n  and(not(0xffffffffffffffffffffffffffffffffffffffffffffffffffffffffffffff), 0x4400000000000000000000000000000000000000000000000000000000000000)\n  dup2\n  mstore\n  0x20\n  add\n  swap1\n  dup2\n  mstore\n  0x20\n  add\n  0x00\n  keccak256\n    /* \"task1/question3.sol\":1329:1351  charMapping[\"D\"] = 500 */\n  dup2\n  swap1\n  sstore\n  pop\n    /* \"task1/question3.sol\":1380:1384  1000 */\n  0x03e8\n    /* \"task1/question3.sol\":1361:1372  charMapping */\n  0x00\n    /* \"task1/question3.sol\":1361:1377  charMapping[\"M\"] */\n  0x00\n  and(not(0xffffffffffffffffffffffffffffffffffffffffffffffffffffffffffffff), 0x4d00000000000000000000000000000000000000000000000000000000000000)\n  dup2\n  mstore\n  0x20\n  add\n  swap1\n  dup2\n  mstore\n  0x20\n  add\n  0x00\n  keccak256\n    /* \"task1/question3.sol\":1361:1384  charMapping[\"M\"] = 1000 */\n  dup2\n  swap1\n  sstore\n  pop\n    /* \"task1/question3.sol\":1067:2926  contract RomanNumber2Int {... */\n  dataSize(sub_0)\n  dup1\n  dataOffset(sub_0)\n  0x00\n  codecopy\n  0x00\n  return\nstop\n\nsub_0: assembly {\n        /* \"task1/question3.sol\":1067:2926  contract RomanNumber2Int {... */\n      mstore(0x40, 0x80)\n      callvalue\n      dup1\n      iszero\n      tag_1\n      jumpi\n      revert(0x00, 0x00)\n    tag_1:\n      pop\n      jumpi(tag_2, lt(calldatasize, 0x04))\n      shr(0xe0, calldataload(0x00))\n      dup1\n      0xbc62d8d8\n      eq\n      tag_3\n      jumpi\n    tag_2:\n      revert(0x00, 0x00)\n        /* \"task1/question3.sol\":1397:2924  function parse(string calldata input) public view returns (uint256) {... */\n    tag_3:\n      tag_4\n      0x04\n      dup1\n      calldatasize\n      sub\n      dup2\n      add\n      swap1\n      tag_5\n      swap2\n      swap1\n      tag_6\n      jump\t// in\n    tag_5:\n      tag_7\n      jump\t// in\n    tag_4:\n      mload(0x40)\n      tag_8\n      swap2\n      swap1\n      tag_9\n      jump\t// in\n    tag_8:\n      mload(0x40)\n      dup1\n      swap2\n      sub\n      swap1\n      return\n    tag_7:\n        /* \"task1/question3.sol\":1456:1463  uint256 */\n      0x00\n        /* \"task1/question3.sol\":1475:1498  bytes memory inputBytes */\n      0x00\n        /* \"task1/question3.sol\":1507:1512  input */\n      dup4\n      dup4\n        /* \"task1/question3.sol\":1475:1513  bytes memory inputBytes = bytes(input) */\n      dup1\n      dup1\n      0x1f\n      add\n      0x20\n      dup1\n      swap2\n      div\n      mul\n      0x20\n      add\n      mload(0x40)\n      swap1\n      dup2\n      add\n      0x40\n      mstore\n      dup1\n      swap4\n      swap3\n      swap2\n      swap1\n      dup2\n      dup2\n      mstore\n      0x20\n      add\n      dup4\n      dup4\n      dup1\n      dup3\n      dup5\n      calldatacopy\n      0x00\n      dup2\n      dup5\n      add\n      mstore\n      not(0x1f)\n      0x1f\n      dup3\n      add\n      and\n      swap1\n      pop\n      dup1\n      dup4\n      add\n      swap3\n      pop\n      pop\n      pop\n      pop\n      pop\n      pop\n      pop\n      swap1\n      pop\n        /* \"task1/question3.sol\":1523:1536  uint256 total */\n      0x00\n        /* \"task1/question3.sol\":1539:1540  0 */\n      0x00\n        /* \"task1/question3.sol\":1523:1540  uint256 total = 0 */\n      swap1\n      pop\n        /* \"task1/question3.sol\":1556:1565  uint256 i */\n      0x00\n        /* \"task1/question3.sol\":1568:1569  0 */\n      0x00\n        /* \"task1/question3.sol\":1556:1569  uint256 i = 0 */\n      swap1\n      pop\n        /* \"task1/question3.sol\":1551:2896  for (uint256 i = 0; i < inputBytes.length; i++) {... */\n    tag_11:\n        /* \"task1/question3.sol\":1575:1585  inputBytes */\n      dup3\n        /* \"task1/question3.sol\":1575:1592  inputBytes.length */\n      mload\n        /* \"task1/question3.sol\":1571:1572  i */\n      dup2\n        /* \"task1/question3.sol\":1571:1592  i < inputBytes.length */\n      lt\n        /* \"task1/question3.sol\":1551:2896  for (uint256 i = 0; i < inputBytes.length; i++) {... */\n      iszero\n      tag_12\n      jumpi\n        /* \"task1/question3.sol\":1613:1624  bytes1 char */\n      0x00\n        /* \"task1/question3.sol\":1627:1637  inputBytes */\n      dup4\n        /* \"task1/question3.sol\":1638:1639  i */\n      dup3\n        /* \"task1/question3.sol\":1627:1640  inputBytes[i] */\n      dup2\n      mload\n      dup2\n      lt\n      tag_14\n      jumpi\n      tag_15\n      tag_16\n      jump\t// in\n    tag_15:\n    tag_14:\n      0x20\n      add\n      add\n      mload\n      0xf8\n      shr\n      0xf8\n      shl\n        /* \"task1/question3.sol\":1613:1640  bytes1 char = inputBytes[i] */\n      swap1\n      pop\n        /* \"task1/question3.sol\":1654:1667  uint256 value */\n      0x00\n        /* \"task1/question3.sol\":1670:1681  charMapping */\n      0x00\n        /* \"task1/question3.sol\":1670:1687  charMapping[char] */\n      0x00\n        /* \"task1/question3.sol\":1682:1686  char */\n      dup4\n        /* \"task1/question3.sol\":1670:1687  charMapping[char] */\n      not(0xffffffffffffffffffffffffffffffffffffffffffffffffffffffffffffff)\n      and\n      not(0xffffffffffffffffffffffffffffffffffffffffffffffffffffffffffffff)\n      and\n      dup2\n      mstore\n      0x20\n      add\n      swap1\n      dup2\n      mstore\n      0x20\n      add\n      0x00\n      keccak256\n      sload\n        /* \"task1/question3.sol\":1654:1687  uint256 value = charMapping[char] */\n      swap1\n      pop\n        /* \"task1/question3.sol\":1714:1715  0 */\n      0x00\n        /* \"task1/question3.sol\":1705:1710  value */\n      dup2\n        /* \"task1/question3.sol\":1705:1715  value == 0 */\n      sub\n        /* \"task1/question3.sol\":1701:1758  if (value == 0) {... */\n      tag_17\n      jumpi\n        /* \"task1/question3.sol\":1742:1743  0 */\n      0x00\n        /* \"task1/question3.sol\":1735:1743  return 0 */\n      swap6\n      pop\n      pop\n      pop\n      pop\n      pop\n      pop\n      jump(tag_10)\n        /* \"task1/question3.sol\":1701:1758  if (value == 0) {... */\n    tag_17:\n        /* \"task1/question3.sol\":1771:1788  uint256 valueNext */\n      0x00\n        /* \"task1/question3.sol\":1791:1792  0 */\n      0x00\n        /* \"task1/question3.sol\":1771:1792  uint256 valueNext = 0 */\n      swap1\n      pop\n        /* \"task1/question3.sol\":1834:1835  1 */\n      0x01\n        /* \"task1/question3.sol\":1814:1824  inputBytes */\n      dup7\n        /* \"task1/question3.sol\":1814:1831  inputBytes.length */\n      mload\n        /* \"task1/question3.sol\":1814:1835  inputBytes.length - 1 */\n      tag_18\n      swap2\n      swap1\n      tag_19\n      jump\t// in\n    tag_18:\n        /* \"task1/question3.sol\":1810:1811  i */\n      dup5\n        /* \"task1/question3.sol\":1810:1835  i < inputBytes.length - 1 */\n      lt\n        /* \"task1/question3.sol\":1806:1912  if (i < inputBytes.length - 1) {... */\n      iszero\n      tag_20\n      jumpi\n        /* \"task1/question3.sol\":1867:1878  charMapping */\n      0x00\n        /* \"task1/question3.sol\":1867:1897  charMapping[inputBytes[i + 1]] */\n      0x00\n        /* \"task1/question3.sol\":1879:1889  inputBytes */\n      dup8\n        /* \"task1/question3.sol\":1894:1895  1 */\n      0x01\n        /* \"task1/question3.sol\":1890:1891  i */\n      dup8\n        /* \"task1/question3.sol\":1890:1895  i + 1 */\n      tag_21\n      swap2\n      swap1\n      tag_22\n      jump\t// in\n    tag_21:\n        /* \"task1/question3.sol\":1879:1896  inputBytes[i + 1] */\n      dup2\n      mload\n      dup2\n      lt\n      tag_23\n      jumpi\n      tag_24\n      tag_16\n      jump\t// in\n    tag_24:\n    tag_23:\n      0x20\n      add\n      add\n      mload\n      0xf8\n      shr\n      0xf8\n      shl\n        /* \"task1/question3.sol\":1867:1897  charMapping[inputBytes[i + 1]] */\n      not(0xffffffffffffffffffffffffffffffffffffffffffffffffffffffffffffff)\n      and\n      not(0xffffffffffffffffffffffffffffffffffffffffffffffffffffffffffffff)\n      and\n      dup2\n      mstore\n      0x20\n      add\n      swap1\n      dup2\n      mstore\n      0x20\n      add\n      0x00\n      keccak256\n      sload\n        /* \"task1/question3.sol\":1855:1897  valueNext = charMapping[inputBytes[i + 1]] */\n      swap1\n      pop\n        /* \"task1/question3.sol\":1806:1912  if (i < inputBytes.length - 1) {... */\n    tag_20:\n        /* \"task1/question3.sol\":1938:1947  valueNext */\n      dup1\n        /* \"task1/question3.sol\":1930:1935  value */\n      dup3\n        /* \"task1/question3.sol\":1930:1947  value < valueNext */\n      lt\n        /* \"task1/question3.sol\":1926:2811  if (value < valueNext) {... */\n      iszero\n      tag_25\n      jumpi\n        /* \"task1/question3.sol\":1967:1983  uint256 twoValue */\n      0x00\n        /* \"task1/question3.sol\":1986:1987  0 */\n      0x00\n        /* \"task1/question3.sol\":1967:1987  uint256 twoValue = 0 */\n      swap1\n      pop\n        /* \"task1/question3.sol\":2079:2080  1 */\n      0x01\n        /* \"task1/question3.sol\":2070:2075  value */\n      dup4\n        /* \"task1/question3.sol\":2070:2080  value == 1 */\n      eq\n        /* \"task1/question3.sol\":2070:2119  value == 1 && (valueNext == 5 || valueNext == 10) */\n      dup1\n      iszero\n      tag_26\n      jumpi\n      pop\n        /* \"task1/question3.sol\":2098:2099  5 */\n      0x05\n        /* \"task1/question3.sol\":2085:2094  valueNext */\n      dup3\n        /* \"task1/question3.sol\":2085:2099  valueNext == 5 */\n      eq\n        /* \"task1/question3.sol\":2085:2118  valueNext == 5 || valueNext == 10 */\n      dup1\n      tag_27\n      jumpi\n      pop\n        /* \"task1/question3.sol\":2116:2118  10 */\n      0x0a\n        /* \"task1/question3.sol\":2103:2112  valueNext */\n      dup3\n        /* \"task1/question3.sol\":2103:2118  valueNext == 10 */\n      eq\n        /* \"task1/question3.sol\":2085:2118  valueNext == 5 || valueNext == 10 */\n    tag_27:\n        /* \"task1/question3.sol\":2070:2119  value == 1 && (valueNext == 5 || valueNext == 10) */\n    tag_26:\n        /* \"task1/question3.sol\":2066:2657  if (value == 1 && (valueNext == 5 || valueNext == 10)) {... */\n      iszero\n      tag_28\n      jumpi\n        /* \"task1/question3.sol\":2166:2171  value */\n      dup3\n        /* \"task1/question3.sol\":2154:2163  valueNext */\n      dup3\n        /* \"task1/question3.sol\":2154:2171  valueNext - value */\n      tag_29\n      swap2\n      swap1\n      tag_19\n      jump\t// in\n    tag_29:\n        /* \"task1/question3.sol\":2143:2171  twoValue = valueNext - value */\n      swap1\n      pop\n        /* \"task1/question3.sol\":2066:2657  if (value == 1 && (valueNext == 5 || valueNext == 10)) {... */\n      jump(tag_30)\n    tag_28:\n        /* \"task1/question3.sol\":2288:2290  10 */\n      0x0a\n        /* \"task1/question3.sol\":2279:2284  value */\n      dup4\n        /* \"task1/question3.sol\":2279:2290  value == 10 */\n      eq\n        /* \"task1/question3.sol\":2279:2331  value == 10 && (valueNext == 50 || valueNext == 100) */\n      dup1\n      iszero\n      tag_31\n      jumpi\n      pop\n        /* \"task1/question3.sol\":2308:2310  50 */\n      0x32\n        /* \"task1/question3.sol\":2295:2304  valueNext */\n      dup3\n        /* \"task1/question3.sol\":2295:2310  valueNext == 50 */\n      eq\n        /* \"task1/question3.sol\":2295:2330  valueNext == 50 || valueNext == 100 */\n      dup1\n      tag_32\n      jumpi\n      pop\n        /* \"task1/question3.sol\":2327:2330  100 */\n      0x64\n        /* \"task1/question3.sol\":2314:2323  valueNext */\n      dup3\n        /* \"task1/question3.sol\":2314:2330  valueNext == 100 */\n      eq\n        /* \"task1/question3.sol\":2295:2330  valueNext == 50 || valueNext == 100 */\n    tag_32:\n        /* \"task1/question3.sol\":2279:2331  value == 10 && (valueNext == 50 || valueNext == 100) */\n    tag_31:\n        /* \"task1/question3.sol\":2275:2657  if (value == 10 && (valueNext == 50 || valueNext == 100)) {... */\n      iszero\n      tag_33\n      jumpi\n        /* \"task1/question3.sol\":2378:2383  value */\n      dup3\n        /* \"task1/question3.sol\":2366:2375  valueNext */\n      dup3\n        /* \"task1/question3.sol\":2366:2383  valueNext - value */\n      tag_34\n      swap2\n      swap1\n      tag_19\n      jump\t// in\n    tag_34:\n        /* \"task1/question3.sol\":2355:2383  twoValue = valueNext - value */\n      swap1\n      pop\n        /* \"task1/question3.sol\":2275:2657  if (value == 10 && (valueNext == 50 || valueNext == 100)) {... */\n      jump(tag_35)\n    tag_33:\n        /* \"task1/question3.sol\":2523:2526  100 */\n      0x64\n        /* \"task1/question3.sol\":2514:2519  value */\n      dup4\n        /* \"task1/question3.sol\":2514:2526  value == 100 */\n      eq\n        /* \"task1/question3.sol\":2514:2569  value == 100 && (valueNext == 500 || valueNext == 1000) */\n      dup1\n      iszero\n      tag_36\n      jumpi\n      pop\n        /* \"task1/question3.sol\":2544:2547  500 */\n      0x01f4\n        /* \"task1/question3.sol\":2531:2540  valueNext */\n      dup3\n        /* \"task1/question3.sol\":2531:2547  valueNext == 500 */\n      eq\n        /* \"task1/question3.sol\":2531:2568  valueNext == 500 || valueNext == 1000 */\n      dup1\n      tag_37\n      jumpi\n      pop\n        /* \"task1/question3.sol\":2564:2568  1000 */\n      0x03e8\n        /* \"task1/question3.sol\":2551:2560  valueNext */\n      dup3\n        /* \"task1/question3.sol\":2551:2568  valueNext == 1000 */\n      eq\n        /* \"task1/question3.sol\":2531:2568  valueNext == 500 || valueNext == 1000 */\n    tag_37:\n        /* \"task1/question3.sol\":2514:2569  value == 100 && (valueNext == 500 || valueNext == 1000) */\n    tag_36:\n        /* \"task1/question3.sol\":2489:2657  if (... */\n      iszero\n      tag_38\n      jumpi\n        /* \"task1/question3.sol\":2633:2638  value */\n      dup3\n        /* \"task1/question3.sol\":2621:2630  valueNext */\n      dup3\n        /* \"task1/question3.sol\":2621:2638  valueNext - value */\n      tag_39\n      swap2\n      swap1\n      tag_19\n      jump\t// in\n    tag_39:\n        /* \"task1/question3.sol\":2610:2638  twoValue = valueNext - value */\n      swap1\n      pop\n        /* \"task1/question3.sol\":2489:2657  if (... */\n    tag_38:\n        /* \"task1/question3.sol\":2275:2657  if (value == 10 && (valueNext == 50 || valueNext == 100)) {... */\n    tag_35:\n        /* \"task1/question3.sol\":2066:2657  if (value == 1 && (valueNext == 5 || valueNext == 10)) {... */\n    tag_30:\n        /* \"task1/question3.sol\":2690:2691  0 */\n      0x00\n        /* \"task1/question3.sol\":2678:2686  twoValue */\n      dup2\n        /* \"task1/question3.sol\":2678:2691  twoValue == 0 */\n      sub\n        /* \"task1/question3.sol\":2674:2742  if (twoValue == 0) {... */\n      tag_40\n      jumpi\n        /* \"task1/question3.sol\":2722:2723  0 */\n      0x00\n        /* \"task1/question3.sol\":2715:2723  return 0 */\n      swap8\n      pop\n      pop\n      pop\n      pop\n      pop\n      pop\n      pop\n      pop\n      jump(tag_10)\n        /* \"task1/question3.sol\":2674:2742  if (twoValue == 0) {... */\n    tag_40:\n        /* \"task1/question3.sol\":2767:2775  twoValue */\n      dup1\n        /* \"task1/question3.sol\":2759:2775  value = twoValue */\n      swap3\n      pop\n        /* \"task1/question3.sol\":2793:2796  i++ */\n      dup5\n      dup1\n      tag_41\n      swap1\n      tag_42\n      jump\t// in\n    tag_41:\n      swap6\n      pop\n      pop\n        /* \"task1/question3.sol\":1949:2811  {... */\n      pop\n        /* \"task1/question3.sol\":1926:2811  if (value < valueNext) {... */\n    tag_25:\n        /* \"task1/question3.sol\":2836:2837  0 */\n      0x00\n        /* \"task1/question3.sol\":2828:2833  value */\n      dup3\n        /* \"task1/question3.sol\":2828:2837  value > 0 */\n      gt\n        /* \"task1/question3.sol\":2824:2886  if (value > 0) {... */\n      iszero\n      tag_43\n      jumpi\n        /* \"task1/question3.sol\":2866:2871  value */\n      dup2\n        /* \"task1/question3.sol\":2857:2871  total += value */\n      dup6\n      tag_44\n      swap2\n      swap1\n      tag_22\n      jump\t// in\n    tag_44:\n      swap5\n      pop\n        /* \"task1/question3.sol\":2824:2886  if (value > 0) {... */\n    tag_43:\n        /* \"task1/question3.sol\":1599:2896  {... */\n      pop\n      pop\n      pop\n        /* \"task1/question3.sol\":1594:1597  i++ */\n      dup1\n      dup1\n      tag_45\n      swap1\n      tag_42\n      jump\t// in\n    tag_45:\n      swap2\n      pop\n      pop\n        /* \"task1/question3.sol\":1551:2896  for (uint256 i = 0; i < inputBytes.length; i++) {... */\n      jump(tag_11)\n    tag_12:\n      pop\n        /* \"task1/question3.sol\":2912:2917  total */\n      dup1\n        /* \"task1/question3.sol\":2905:2917  return total */\n      swap3\n      pop\n      pop\n      pop\n        /* \"task1/question3.sol\":1397:2924  function parse(string calldata input) public view returns (uint256) {... */\n    tag_10:\n      swap3\n      swap2\n      pop\n      pop\n      jump\t// out\n        /* \"#utility.yul\":88:205   */\n    tag_47:\n        /* \"#utility.yul\":197:198   */\n      0x00\n        /* \"#utility.yul\":194:195   */\n      0x00\n        /* \"#utility.yul\":187:199   */\n      revert\n        /* \"#utility.yul\":211:328   */\n    tag_48:\n        /* \"#utility.yul\":320:321   */\n      0x00\n        /* \"#utility.yul\":317:318   */\n      0x00\n        /* \"#utility.yul\":310:322   */\n      revert\n        /* \"#utility.yul\":334:451   */\n    tag_49:\n        /* \"#utility.yul\":443:444   */\n      0x00\n        /* \"#utility.yul\":440:441   */\n      0x00\n        /* \"#utility.yul\":433:445   */\n      revert\n        /* \"#utility.yul\":457:574   */\n    tag_50:\n        /* \"#utility.yul\":566:567   */\n      0x00\n        /* \"#utility.yul\":563:564   */\n      0x00\n        /* \"#utility.yul\":556:568   */\n      revert\n        /* \"#utility.yul\":580:697   */\n    tag_51:\n        /* \"#utility.yul\":689:690   */\n      0x00\n        /* \"#utility.yul\":686:687   */\n      0x00\n        /* \"#utility.yul\":679:691   */\n      revert\n        /* \"#utility.yul\":717:1270   */\n    tag_52:\n        /* \"#utility.yul\":775:783   */\n      0x00\n        /* \"#utility.yul\":785:791   */\n      0x00\n        /* \"#utility.yul\":835:838   */\n      dup4\n        /* \"#utility.yul\":828:832   */\n      0x1f\n        /* \"#utility.yul\":820:826   */\n      dup5\n        /* \"#utility.yul\":816:833   */\n      add\n        /* \"#utility.yul\":812:839   */\n      slt\n        /* \"#utility.yul\":802:924   */\n      tag_64\n      jumpi\n        /* \"#utility.yul\":843:922   */\n      tag_65\n      tag_49\n      jump\t// in\n    tag_65:\n        /* \"#utility.yul\":802:924   */\n    tag_64:\n        /* \"#utility.yul\":956:962   */\n      dup3\n        /* \"#utility.yul\":943:963   */\n      calldataload\n        /* \"#utility.yul\":933:963   */\n      swap1\n      pop\n        /* \"#utility.yul\":986:1004   */\n      0xffffffffffffffff\n        /* \"#utility.yul\":978:984   */\n      dup2\n        /* \"#utility.yul\":975:1005   */\n      gt\n        /* \"#utility.yul\":972:1089   */\n      iszero\n      tag_66\n      jumpi\n        /* \"#utility.yul\":1008:1087   */\n      tag_67\n      tag_50\n      jump\t// in\n    tag_67:\n        /* \"#utility.yul\":972:1089   */\n    tag_66:\n        /* \"#utility.yul\":1122:1126   */\n      0x20\n        /* \"#utility.yul\":1114:1120   */\n      dup4\n        /* \"#utility.yul\":1110:1127   */\n      add\n        /* \"#utility.yul\":1098:1127   */\n      swap2\n      pop\n        /* \"#utility.yul\":1176:1179   */\n      dup4\n        /* \"#utility.yul\":1168:1172   */\n      0x01\n        /* \"#utility.yul\":1160:1166   */\n      dup3\n        /* \"#utility.yul\":1156:1173   */\n      mul\n        /* \"#utility.yul\":1146:1154   */\n      dup4\n        /* \"#utility.yul\":1142:1174   */\n      add\n        /* \"#utility.yul\":1139:1180   */\n      gt\n        /* \"#utility.yul\":1136:1264   */\n      iszero\n      tag_68\n      jumpi\n        /* \"#utility.yul\":1183:1262   */\n      tag_69\n      tag_51\n      jump\t// in\n    tag_69:\n        /* \"#utility.yul\":1136:1264   */\n    tag_68:\n        /* \"#utility.yul\":717:1270   */\n      swap3\n      pop\n      swap3\n      swap1\n      pop\n      jump\t// out\n        /* \"#utility.yul\":1276:1805   */\n    tag_6:\n        /* \"#utility.yul\":1347:1353   */\n      0x00\n        /* \"#utility.yul\":1355:1361   */\n      0x00\n        /* \"#utility.yul\":1404:1406   */\n      0x20\n        /* \"#utility.yul\":1392:1401   */\n      dup4\n        /* \"#utility.yul\":1383:1390   */\n      dup6\n        /* \"#utility.yul\":1379:1402   */\n      sub\n        /* \"#utility.yul\":1375:1407   */\n      slt\n        /* \"#utility.yul\":1372:1491   */\n      iszero\n      tag_71\n      jumpi\n        /* \"#utility.yul\":1410:1489   */\n      tag_72\n      tag_47\n      jump\t// in\n    tag_72:\n        /* \"#utility.yul\":1372:1491   */\n    tag_71:\n        /* \"#utility.yul\":1558:1559   */\n      0x00\n        /* \"#utility.yul\":1547:1556   */\n      dup4\n        /* \"#utility.yul\":1543:1560   */\n      add\n        /* \"#utility.yul\":1530:1561   */\n      calldataload\n        /* \"#utility.yul\":1588:1606   */\n      0xffffffffffffffff\n        /* \"#utility.yul\":1580:1586   */\n      dup2\n        /* \"#utility.yul\":1577:1607   */\n      gt\n        /* \"#utility.yul\":1574:1691   */\n      iszero\n      tag_73\n      jumpi\n        /* \"#utility.yul\":1610:1689   */\n      tag_74\n      tag_48\n      jump\t// in\n    tag_74:\n        /* \"#utility.yul\":1574:1691   */\n    tag_73:\n        /* \"#utility.yul\":1723:1788   */\n      tag_75\n        /* \"#utility.yul\":1780:1787   */\n      dup6\n        /* \"#utility.yul\":1771:1777   */\n      dup3\n        /* \"#utility.yul\":1760:1769   */\n      dup7\n        /* \"#utility.yul\":1756:1778   */\n      add\n        /* \"#utility.yul\":1723:1788   */\n      tag_52\n      jump\t// in\n    tag_75:\n        /* \"#utility.yul\":1705:1788   */\n      swap3\n      pop\n      swap3\n      pop\n        /* \"#utility.yul\":1501:1798   */\n      pop\n        /* \"#utility.yul\":1276:1805   */\n      swap3\n      pop\n      swap3\n      swap1\n      pop\n      jump\t// out\n        /* \"#utility.yul\":1811:1888   */\n    tag_53:\n        /* \"#utility.yul\":1848:1855   */\n      0x00\n        /* \"#utility.yul\":1877:1882   */\n      dup2\n        /* \"#utility.yul\":1866:1882   */\n      swap1\n      pop\n        /* \"#utility.yul\":1811:1888   */\n      swap2\n      swap1\n      pop\n      jump\t// out\n        /* \"#utility.yul\":1894:2012   */\n    tag_54:\n        /* \"#utility.yul\":1981:2005   */\n      tag_78\n        /* \"#utility.yul\":1999:2004   */\n      dup2\n        /* \"#utility.yul\":1981:2005   */\n      tag_53\n      jump\t// in\n    tag_78:\n        /* \"#utility.yul\":1976:1979   */\n      dup3\n        /* \"#utility.yul\":1969:2006   */\n      mstore\n        /* \"#utility.yul\":1894:2012   */\n      pop\n      pop\n      jump\t// out\n        /* \"#utility.yul\":2018:2240   */\n    tag_9:\n        /* \"#utility.yul\":2111:2115   */\n      0x00\n        /* \"#utility.yul\":2149:2151   */\n      0x20\n        /* \"#utility.yul\":2138:2147   */\n      dup3\n        /* \"#utility.yul\":2134:2152   */\n      add\n        /* \"#utility.yul\":2126:2152   */\n      swap1\n      pop\n        /* \"#utility.yul\":2162:2233   */\n      tag_80\n        /* \"#utility.yul\":2230:2231   */\n      0x00\n        /* \"#utility.yul\":2219:2228   */\n      dup4\n        /* \"#utility.yul\":2215:2232   */\n      add\n        /* \"#utility.yul\":2206:2212   */\n      dup5\n        /* \"#utility.yul\":2162:2233   */\n      tag_54\n      jump\t// in\n    tag_80:\n        /* \"#utility.yul\":2018:2240   */\n      swap3\n      swap2\n      pop\n      pop\n      jump\t// out\n        /* \"#utility.yul\":2246:2426   */\n    tag_16:\n        /* \"#utility.yul\":2294:2371   */\n      0x4e487b7100000000000000000000000000000000000000000000000000000000\n        /* \"#utility.yul\":2291:2292   */\n      0x00\n        /* \"#utility.yul\":2284:2372   */\n      mstore\n        /* \"#utility.yul\":2391:2395   */\n      0x32\n        /* \"#utility.yul\":2388:2389   */\n      0x04\n        /* \"#utility.yul\":2381:2396   */\n      mstore\n        /* \"#utility.yul\":2415:2419   */\n      0x24\n        /* \"#utility.yul\":2412:2413   */\n      0x00\n        /* \"#utility.yul\":2405:2420   */\n      revert\n        /* \"#utility.yul\":2432:2612   */\n    tag_55:\n        /* \"#utility.yul\":2480:2557   */\n      0x4e487b7100000000000000000000000000000000000000000000000000000000\n        /* \"#utility.yul\":2477:2478   */\n      0x00\n        /* \"#utility.yul\":2470:2558   */\n      mstore\n        /* \"#utility.yul\":2577:2581   */\n      0x11\n        /* \"#utility.yul\":2574:2575   */\n      0x04\n        /* \"#utility.yul\":2567:2582   */\n      mstore\n        /* \"#utility.yul\":2601:2605   */\n      0x24\n        /* \"#utility.yul\":2598:2599   */\n      0x00\n        /* \"#utility.yul\":2591:2606   */\n      revert\n        /* \"#utility.yul\":2618:2812   */\n    tag_19:\n        /* \"#utility.yul\":2658:2662   */\n      0x00\n        /* \"#utility.yul\":2678:2698   */\n      tag_84\n        /* \"#utility.yul\":2696:2697   */\n      dup3\n        /* \"#utility.yul\":2678:2698   */\n      tag_53\n      jump\t// in\n    tag_84:\n        /* \"#utility.yul\":2673:2698   */\n      swap2\n      pop\n        /* \"#utility.yul\":2712:2732   */\n      tag_85\n        /* \"#utility.yul\":2730:2731   */\n      dup4\n        /* \"#utility.yul\":2712:2732   */\n      tag_53\n      jump\t// in\n    tag_85:\n        /* \"#utility.yul\":2707:2732   */\n      swap3\n      pop\n        /* \"#utility.yul\":2756:2757   */\n      dup3\n        /* \"#utility.yul\":2753:2754   */\n      dup3\n        /* \"#utility.yul\":2749:2758   */\n      sub\n        /* \"#utility.yul\":2741:2758   */\n      swap1\n      pop\n        /* \"#utility.yul\":2780:2781   */\n      dup2\n        /* \"#utility.yul\":2774:2778   */\n      dup2\n        /* \"#utility.yul\":2771:2782   */\n      gt\n        /* \"#utility.yul\":2768:2805   */\n      iszero\n      tag_86\n      jumpi\n        /* \"#utility.yul\":2785:2803   */\n      tag_87\n      tag_55\n      jump\t// in\n    tag_87:\n        /* \"#utility.yul\":2768:2805   */\n    tag_86:\n        /* \"#utility.yul\":2618:2812   */\n      swap3\n      swap2\n      pop\n      pop\n      jump\t// out\n        /* \"#utility.yul\":2818:3009   */\n    tag_22:\n        /* \"#utility.yul\":2858:2861   */\n      0x00\n        /* \"#utility.yul\":2877:2897   */\n      tag_89\n        /* \"#utility.yul\":2895:2896   */\n      dup3\n        /* \"#utility.yul\":2877:2897   */\n      tag_53\n      jump\t// in\n    tag_89:\n        /* \"#utility.yul\":2872:2897   */\n      swap2\n      pop\n        /* \"#utility.yul\":2911:2931   */\n      tag_90\n        /* \"#utility.yul\":2929:2930   */\n      dup4\n        /* \"#utility.yul\":2911:2931   */\n      tag_53\n      jump\t// in\n    tag_90:\n        /* \"#utility.yul\":2906:2931   */\n      swap3\n      pop\n        /* \"#utility.yul\":2954:2955   */\n      dup3\n        /* \"#utility.yul\":2951:2952   */\n      dup3\n        /* \"#utility.yul\":2947:2956   */\n      add\n        /* \"#utility.yul\":2940:2956   */\n      swap1\n      pop\n        /* \"#utility.yul\":2975:2978   */\n      dup1\n        /* \"#utility.yul\":2972:2973   */\n      dup3\n        /* \"#utility.yul\":2969:2979   */\n      gt\n        /* \"#utility.yul\":2966:3002   */\n      iszero\n      tag_91\n      jumpi\n        /* \"#utility.yul\":2982:3000   */\n      tag_92\n      tag_55\n      jump\t// in\n    tag_92:\n        /* \"#utility.yul\":2966:3002   */\n    tag_91:\n        /* \"#utility.yul\":2818:3009   */\n      swap3\n      swap2\n      pop\n      pop\n      jump\t// out\n        /* \"#utility.yul\":3015:3248   */\n    tag_42:\n        /* \"#utility.yul\":3054:3057   */\n      0x00\n        /* \"#utility.yul\":3077:3101   */\n      tag_94\n        /* \"#utility.yul\":3095:3100   */\n      dup3\n        /* \"#utility.yul\":3077:3101   */\n      tag_53\n      jump\t// in\n    tag_94:\n        /* \"#utility.yul\":3068:3101   */\n      swap2\n      pop\n        /* \"#utility.yul\":3123:3189   */\n      0xffffffffffffffffffffffffffffffffffffffffffffffffffffffffffffffff\n        /* \"#utility.yul\":3116:3121   */\n      dup3\n        /* \"#utility.yul\":3113:3190   */\n      sub\n        /* \"#utility.yul\":3110:3213   */\n      tag_95\n      jumpi\n        /* \"#utility.yul\":3193:3211   */\n      tag_96\n      tag_55\n      jump\t// in\n    tag_96:\n        /* \"#utility.yul\":3110:3213   */\n    tag_95:\n        /* \"#utility.yul\":3240:3241   */\n      0x01\n        /* \"#utility.yul\":3233:3238   */\n      dup3\n        /* \"#utility.yul\":3229:3242   */\n      add\n        /* \"#utility.yul\":3222:3242   */\n      swap1\n      pop\n        /* \"#utility.yul\":3015:3248   */\n      swap2\n      swap1\n      pop\n      jump\t// out\n\n    auxdata: 0xa2646970667358221220edf5064433e593702d3e0836501005bd645184fcbbe2437ca83c947c42e7a86b64736f6c634300081e0033\n}\n",
				"bytecode": {
					"linkReferences": {},
					"object": "608060405234801561000f575f5ffd5b5060015f5f7f49000000000000000000000000000000000000000000000000000000000000007effffffffffffffffffffffffffffffffffffffffffffffffffffffffffffff191681526020019081526020015f208190555060055f5f7f56000000000000000000000000000000000000000000000000000000000000007effffffffffffffffffffffffffffffffffffffffffffffffffffffffffffff191681526020019081526020015f2081905550600a5f5f7f58000000000000000000000000000000000000000000000000000000000000007effffffffffffffffffffffffffffffffffffffffffffffffffffffffffffff191681526020019081526020015f208190555060325f5f7f4c000000000000000000000000000000000000000000000000000000000000007effffffffffffffffffffffffffffffffffffffffffffffffffffffffffffff191681526020019081526020015f208190555060645f5f7f43000000000000000000000000000000000000000000000000000000000000007effffffffffffffffffffffffffffffffffffffffffffffffffffffffffffff191681526020019081526020015f20819055506101f45f5f7f44000000000000000000000000000000000000000000000000000000000000007effffffffffffffffffffffffffffffffffffffffffffffffffffffffffffff191681526020019081526020015f20819055506103e85f5f7f4d000000000000000000000000000000000000000000000000000000000000007effffffffffffffffffffffffffffffffffffffffffffffffffffffffffffff191681526020019081526020015f2081905550610508806102875f395ff3fe608060405234801561000f575f5ffd5b5060043610610029575f3560e01c8063bc62d8d81461002d575b5f5ffd5b6100476004803603810190610042919061034f565b61005d565b60405161005491906103b2565b60405180910390f35b5f5f83838080601f0160208091040260200160405190810160405280939291908181526020018383808284375f81840152601f19601f8201169050808301925050505050505090505f5f90505f5f90505b82518110156102d9575f8382815181106100cb576100ca6103cb565b5b602001015160f81c60f81b90505f5f5f837effffffffffffffffffffffffffffffffffffffffffffffffffffffffffffff19167effffffffffffffffffffffffffffffffffffffffffffffffffffffffffffff191681526020019081526020015f205490505f8103610144575f955050505050506102e0565b5f5f9050600186516101569190610425565b8410156101de575f5f8760018761016d9190610458565b8151811061017e5761017d6103cb565b5b602001015160f81c60f81b7effffffffffffffffffffffffffffffffffffffffffffffffffffffffffffff19167effffffffffffffffffffffffffffffffffffffffffffffffffffffffffffff191681526020019081526020015f205490505b808210156102ac575f5f9050600183148015610205575060058214806102045750600a82145b5b1561021d5782826102169190610425565b9050610283565b600a83148015610238575060328214806102375750606482145b5b156102505782826102499190610425565b9050610282565b60648314801561026d57506101f482148061026c57506103e882145b5b1561028157828261027e9190610425565b90505b5b5b5f8103610299575f9750505050505050506102e0565b80925084806102a79061048b565b955050505b5f8211156102c35781856102c09190610458565b94505b50505080806102d19061048b565b9150506100ae565b5080925050505b92915050565b5f5ffd5b5f5ffd5b5f5ffd5b5f5ffd5b5f5ffd5b5f5f83601f84011261030f5761030e6102ee565b5b8235905067ffffffffffffffff81111561032c5761032b6102f2565b5b602083019150836001820283011115610348576103476102f6565b5b9250929050565b5f5f60208385031215610365576103646102e6565b5b5f83013567ffffffffffffffff811115610382576103816102ea565b5b61038e858286016102fa565b92509250509250929050565b5f819050919050565b6103ac8161039a565b82525050565b5f6020820190506103c55f8301846103a3565b92915050565b7f4e487b71000000000000000000000000000000000000000000000000000000005f52603260045260245ffd5b7f4e487b71000000000000000000000000000000000000000000000000000000005f52601160045260245ffd5b5f61042f8261039a565b915061043a8361039a565b9250828203905081811115610452576104516103f8565b5b92915050565b5f6104628261039a565b915061046d8361039a565b9250828201905080821115610485576104846103f8565b5b92915050565b5f6104958261039a565b91507fffffffffffffffffffffffffffffffffffffffffffffffffffffffffffffffff82036104c7576104c66103f8565b5b60018201905091905056fea2646970667358221220edf5064433e593702d3e0836501005bd645184fcbbe2437ca83c947c42e7a86b64736f6c634300081e0033",
					"opcodes": "PUSH1 0x80 PUSH1 0x40 MSTORE CALLVALUE DUP1 ISZERO PUSH2 0xF JUMPI PUSH0 PUSH0 REVERT JUMPDEST POP PUSH1 0x1 PUSH0 PUSH0 PUSH32 0x4900000000000000000000000000000000000000000000000000000000000000 PUSH31 0xFFFFFFFFFFFFFFFFFFFFFFFFFFFFFFFFFFFFFFFFFFFFFFFFFFFFFFFFFFFFFF NOT AND DUP2 MSTORE PUSH1 0x20 ADD SWAP1 DUP2 MSTORE PUSH1 0x20 ADD PUSH0 KECCAK256 DUP2 SWAP1 SSTORE POP PUSH1 0x5 PUSH0 PUSH0 PUSH32 0x5600000000000000000000000000000000000000000000000000000000000000 PUSH31 0xFFFFFFFFFFFFFFFFFFFFFFFFFFFFFFFFFFFFFFFFFFFFFFFFFFFFFFFFFFFFFF NOT AND DUP2 MSTORE PUSH1 0x20 ADD SWAP1 DUP2 MSTORE PUSH1 0x20 ADD PUSH0 KECCAK256 DUP2 SWAP1 SSTORE POP PUSH1 0xA PUSH0 PUSH0 PUSH32 0x5800000000000000000000000000000000000000000000000000000000000000 PUSH31 0xFFFFFFFFFFFFFFFFFFFFFFFFFFFFFFFFFFFFFFFFFFFFFFFFFFFFFFFFFFFFFF NOT AND DUP2 MSTORE PUSH1 0x20 ADD SWAP1 DUP2 MSTORE PUSH1 0x20 ADD PUSH0 KECCAK256 DUP2 SWAP1 SSTORE POP PUSH1 0x32 PUSH0 PUSH0 PUSH32 0x4C00000000000000000000000000000000000000000000000000000000000000 PUSH31 0xFFFFFFFFFFFFFFFFFFFFFFFFFFFFFFFFFFFFFFFFFFFFFFFFFFFFFFFFFFFFFF NOT AND DUP2 MSTORE PUSH1 0x20 ADD SWAP1 DUP2 MSTORE PUSH1 0x20 ADD PUSH0 KECCAK256 DUP2 SWAP1 SSTORE POP PUSH1 0x64 PUSH0 PUSH0 PUSH32 0x4300000000000000000000000000000000000000000000000000000000000000 PUSH31 0xFFFFFFFFFFFFFFFFFFFFFFFFFFFFFFFFFFFFFFFFFFFFFFFFFFFFFFFFFFFFFF NOT AND DUP2 MSTORE PUSH1 0x20 ADD SWAP1 DUP2 MSTORE PUSH1 0x20 ADD PUSH0 KECCAK256 DUP2 SWAP1 SSTORE POP PUSH2 0x1F4 PUSH0 PUSH0 PUSH32 0x4400000000000000000000000000000000000000000000000000000000000000 PUSH31 0xFFFFFFFFFFFFFFFFFFFFFFFFFFFFFFFFFFFFFFFFFFFFFFFFFFFFFFFFFFFFFF NOT AND DUP2 MSTORE PUSH1 0x20 ADD SWAP1 DUP2 MSTORE PUSH1 0x20 ADD PUSH0 KECCAK256 DUP2 SWAP1 SSTORE POP PUSH2 0x3E8 PUSH0 PUSH0 PUSH32 0x4D00000000000000000000000000000000000000000000000000000000000000 PUSH31 0xFFFFFFFFFFFFFFFFFFFFFFFFFFFFFFFFFFFFFFFFFFFFFFFFFFFFFFFFFFFFFF NOT AND DUP2 MSTORE PUSH1 0x20 ADD SWAP1 DUP2 MSTORE PUSH1 0x20 ADD PUSH0 KECCAK256 DUP2 SWAP1 SSTORE POP PUSH2 0x508 DUP1 PUSH2 0x287 PUSH0 CODECOPY PUSH0 RETURN INVALID PUSH1 0x80 PUSH1 0x40 MSTORE CALLVALUE DUP1 ISZERO PUSH2 0xF JUMPI PUSH0 PUSH0 REVERT JUMPDEST POP PUSH1 0x4 CALLDATASIZE LT PUSH2 0x29 JUMPI PUSH0 CALLDATALOAD PUSH1 0xE0 SHR DUP1 PUSH4 0xBC62D8D8 EQ PUSH2 0x2D JUMPI JUMPDEST PUSH0 PUSH0 REVERT JUMPDEST PUSH2 0x47 PUSH1 0x4 DUP1 CALLDATASIZE SUB DUP2 ADD SWAP1 PUSH2 0x42 SWAP2 SWAP1 PUSH2 0x34F JUMP JUMPDEST PUSH2 0x5D JUMP JUMPDEST PUSH1 0x40 MLOAD PUSH2 0x54 SWAP2 SWAP1 PUSH2 0x3B2 JUMP JUMPDEST PUSH1 0x40 MLOAD DUP1 SWAP2 SUB SWAP1 RETURN JUMPDEST PUSH0 PUSH0 DUP4 DUP4 DUP1 DUP1 PUSH1 0x1F ADD PUSH1 0x20 DUP1 SWAP2 DIV MUL PUSH1 0x20 ADD PUSH1 0x40 MLOAD SWAP1 DUP2 ADD PUSH1 0x40 MSTORE DUP1 SWAP4 SWAP3 SWAP2 SWAP1 DUP2 DUP2 MSTORE PUSH1 0x20 ADD DUP4 DUP4 DUP1 DUP3 DUP5 CALLDATACOPY PUSH0 DUP2 DUP5 ADD MSTORE PUSH1 0x1F NOT PUSH1 0x1F DUP3 ADD AND SWAP1 POP DUP1 DUP4 ADD SWAP3 POP POP POP POP POP POP POP SWAP1 POP PUSH0 PUSH0 SWAP1 POP PUSH0 PUSH0 SWAP1 POP JUMPDEST DUP3 MLOAD DUP2 LT ISZERO PUSH2 0x2D9 JUMPI PUSH0 DUP4 DUP3 DUP2 MLOAD DUP2 LT PUSH2 0xCB JUMPI PUSH2 0xCA PUSH2 0x3CB JUMP JUMPDEST JUMPDEST PUSH1 0x20 ADD ADD MLOAD PUSH1 0xF8 SHR PUSH1 0xF8 SHL SWAP1 POP PUSH0 PUSH0 PUSH0 DUP4 PUSH31 0xFFFFFFFFFFFFFFFFFFFFFFFFFFFFFFFFFFFFFFFFFFFFFFFFFFFFFFFFFFFFFF NOT AND PUSH31 0xFFFFFFFFFFFFFFFFFFFFFFFFFFFFFFFFFFFFFFFFFFFFFFFFFFFFFFFFFFFFFF NOT AND DUP2 MSTORE PUSH1 0x20 ADD SWAP1 DUP2 MSTORE PUSH1 0x20 ADD PUSH0 KECCAK256 SLOAD SWAP1 POP PUSH0 DUP2 SUB PUSH2 0x144 JUMPI PUSH0 SWAP6 POP POP POP POP POP POP PUSH2 0x2E0 JUMP JUMPDEST PUSH0 PUSH0 SWAP1 POP PUSH1 0x1 DUP7 MLOAD PUSH2 0x156 SWAP2 SWAP1 PUSH2 0x425 JUMP JUMPDEST DUP5 LT ISZERO PUSH2 0x1DE JUMPI PUSH0 PUSH0 DUP8 PUSH1 0x1 DUP8 PUSH2 0x16D SWAP2 SWAP1 PUSH2 0x458 JUMP JUMPDEST DUP2 MLOAD DUP2 LT PUSH2 0x17E JUMPI PUSH2 0x17D PUSH2 0x3CB JUMP JUMPDEST JUMPDEST PUSH1 0x20 ADD ADD MLOAD PUSH1 0xF8 SHR PUSH1 0xF8 SHL PUSH31 0xFFFFFFFFFFFFFFFFFFFFFFFFFFFFFFFFFFFFFFFFFFFFFFFFFFFFFFFFFFFFFF NOT AND PUSH31 0xFFFFFFFFFFFFFFFFFFFFFFFFFFFFFFFFFFFFFFFFFFFFFFFFFFFFFFFFFFFFFF NOT AND DUP2 MSTORE PUSH1 0x20 ADD SWAP1 DUP2 MSTORE PUSH1 0x20 ADD PUSH0 KECCAK256 SLOAD SWAP1 POP JUMPDEST DUP1 DUP3 LT ISZERO PUSH2 0x2AC JUMPI PUSH0 PUSH0 SWAP1 POP PUSH1 0x1 DUP4 EQ DUP1 ISZERO PUSH2 0x205 JUMPI POP PUSH1 0x5 DUP3 EQ DUP1 PUSH2 0x204 JUMPI POP PUSH1 0xA DUP3 EQ JUMPDEST JUMPDEST ISZERO PUSH2 0x21D JUMPI DUP3 DUP3 PUSH2 0x216 SWAP2 SWAP1 PUSH2 0x425 JUMP JUMPDEST SWAP1 POP PUSH2 0x283 JUMP JUMPDEST PUSH1 0xA DUP4 EQ DUP1 ISZERO PUSH2 0x238 JUMPI POP PUSH1 0x32 DUP3 EQ DUP1 PUSH2 0x237 JUMPI POP PUSH1 0x64 DUP3 EQ JUMPDEST JUMPDEST ISZERO PUSH2 0x250 JUMPI DUP3 DUP3 PUSH2 0x249 SWAP2 SWAP1 PUSH2 0x425 JUMP JUMPDEST SWAP1 POP PUSH2 0x282 JUMP JUMPDEST PUSH1 0x64 DUP4 EQ DUP1 ISZERO PUSH2 0x26D JUMPI POP PUSH2 0x1F4 DUP3 EQ DUP1 PUSH2 0x26C JUMPI POP PUSH2 0x3E8 DUP3 EQ JUMPDEST JUMPDEST ISZERO PUSH2 0x281 JUMPI DUP3 DUP3 PUSH2 0x27E SWAP2 SWAP1 PUSH2 0x425 JUMP JUMPDEST SWAP1 POP JUMPDEST JUMPDEST JUMPDEST PUSH0 DUP2 SUB PUSH2 0x299 JUMPI PUSH0 SWAP8 POP POP POP POP POP POP POP POP PUSH2 0x2E0 JUMP JUMPDEST DUP1 SWAP3 POP DUP5 DUP1 PUSH2 0x2A7 SWAP1 PUSH2 0x48B JUMP JUMPDEST SWAP6 POP POP POP JUMPDEST PUSH0 DUP3 GT ISZERO PUSH2 0x2C3 JUMPI DUP2 DUP6 PUSH2 0x2C0 SWAP2 SWAP1 PUSH2 0x458 JUMP JUMPDEST SWAP5 POP JUMPDEST POP POP POP DUP1 DUP1 PUSH2 0x2D1 SWAP1 PUSH2 0x48B JUMP JUMPDEST SWAP2 POP POP PUSH2 0xAE JUMP JUMPDEST POP DUP1 SWAP3 POP POP POP JUMPDEST SWAP3 SWAP2 POP POP JUMP JUMPDEST PUSH0 PUSH0 REVERT JUMPDEST PUSH0 PUSH0 REVERT JUMPDEST PUSH0 PUSH0 REVERT JUMPDEST PUSH0 PUSH0 REVERT JUMPDEST PUSH0 PUSH0 REVERT JUMPDEST PUSH0 PUSH0 DUP4 PUSH1 0x1F DUP5 ADD SLT PUSH2 0x30F JUMPI PUSH2 0x30E PUSH2 0x2EE JUMP JUMPDEST JUMPDEST DUP3 CALLDATALOAD SWAP1 POP PUSH8 0xFFFFFFFFFFFFFFFF DUP2 GT ISZERO PUSH2 0x32C JUMPI PUSH2 0x32B PUSH2 0x2F2 JUMP JUMPDEST JUMPDEST PUSH1 0x20 DUP4 ADD SWAP2 POP DUP4 PUSH1 0x1 DUP3 MUL DUP4 ADD GT ISZERO PUSH2 0x348 JUMPI PUSH2 0x347 PUSH2 0x2F6 JUMP JUMPDEST JUMPDEST SWAP3 POP SWAP3 SWAP1 POP JUMP JUMPDEST PUSH0 PUSH0 PUSH1 0x20 DUP4 DUP6 SUB SLT ISZERO PUSH2 0x365 JUMPI PUSH2 0x364 PUSH2 0x2E6 JUMP JUMPDEST JUMPDEST PUSH0 DUP4 ADD CALLDATALOAD PUSH8 0xFFFFFFFFFFFFFFFF DUP2 GT ISZERO PUSH2 0x382 JUMPI PUSH2 0x381 PUSH2 0x2EA JUMP JUMPDEST JUMPDEST PUSH2 0x38E DUP6 DUP3 DUP7 ADD PUSH2 0x2FA JUMP JUMPDEST SWAP3 POP SWAP3 POP POP SWAP3 POP SWAP3 SWAP1 POP JUMP JUMPDEST PUSH0 DUP2 SWAP1 POP SWAP2 SWAP1 POP JUMP JUMPDEST PUSH2 0x3AC DUP2 PUSH2 0x39A JUMP JUMPDEST DUP3 MSTORE POP POP JUMP JUMPDEST PUSH0 PUSH1 0x20 DUP3 ADD SWAP1 POP PUSH2 0x3C5 PUSH0 DUP4 ADD DUP5 PUSH2 0x3A3 JUMP JUMPDEST SWAP3 SWAP2 POP POP JUMP JUMPDEST PUSH32 0x4E487B7100000000000000000000000000000000000000000000000000000000 PUSH0 MSTORE PUSH1 0x32 PUSH1 0x4 MSTORE PUSH1 0x24 PUSH0 REVERT JUMPDEST PUSH32 0x4E487B7100000000000000000000000000000000000000000000000000000000 PUSH0 MSTORE PUSH1 0x11 PUSH1 0x4 MSTORE PUSH1 0x24 PUSH0 REVERT JUMPDEST PUSH0 PUSH2 0x42F DUP3 PUSH2 0x39A JUMP JUMPDEST SWAP2 POP PUSH2 0x43A DUP4 PUSH2 0x39A JUMP JUMPDEST SWAP3 POP DUP3 DUP3 SUB SWAP1 POP DUP2 DUP2 GT ISZERO PUSH2 0x452 JUMPI PUSH2 0x451 PUSH2 0x3F8 JUMP JUMPDEST JUMPDEST SWAP3 SWAP2 POP POP JUMP JUMPDEST PUSH0 PUSH2 0x462 DUP3 PUSH2 0x39A JUMP JUMPDEST SWAP2 POP PUSH2 0x46D DUP4 PUSH2 0x39A JUMP JUMPDEST SWAP3 POP DUP3 DUP3 ADD SWAP1 POP DUP1 DUP3 GT ISZERO PUSH2 0x485 JUMPI PUSH2 0x484 PUSH2 0x3F8 JUMP JUMPDEST JUMPDEST SWAP3 SWAP2 POP POP JUMP JUMPDEST PUSH0 PUSH2 0x495 DUP3 PUSH2 0x39A JUMP JUMPDEST SWAP2 POP PUSH32 0xFFFFFFFFFFFFFFFFFFFFFFFFFFFFFFFFFFFFFFFFFFFFFFFFFFFFFFFFFFFFFFFF DUP3 SUB PUSH2 0x4C7 JUMPI PUSH2 0x4C6 PUSH2 0x3F8 JUMP JUMPDEST JUMPDEST PUSH1 0x1 DUP3 ADD SWAP1 POP SWAP2 SWAP1 POP JUMP INVALID LOG2 PUSH5 0x6970667358 0x22 SLT KECCAK256 0xED CREATE2 MOD PREVRANDAO CALLER JUMPF 0x9370 0x2D RETURNDATACOPY ADDMOD CALLDATASIZE POP LT SDIV 0xBD PUSH5 0x5184FCBBE2 NUMBER PUSH29 0xA83C947C42E7A86B64736F6C634300081E003300000000000000000000 "
				},
				"gasEstimates": {
					"creation": {
						"codeDepositCost": "257600",
						"executionCost": "155684",
						"totalCost": "413284"
					},
					"external": {
						"parse(string)": "infinite"
					}
				},
				"methodIdentifiers": {
					"parse(string)": "bc62d8d8"
				}
			},
			"storageLayout": {
				"storage": [
					{
						"astId": 5,
						"contract": "task1/question3.sol:RomanNumber2Int",
						"label": "charMapping",
						"offset": 0,
						"slot": "0",
						"type": "t_mapping(t_bytes1,t_uint256)"
					}
				],
				"types": {
					"t_bytes1": {
						"encoding": "inplace",
						"label": "bytes1",
						"numberOfBytes": "1"
					},
					"t_mapping(t_bytes1,t_uint256)": {
						"encoding": "mapping",
						"key": "t_bytes1",
						"label": "mapping(bytes1 => uint256)",
						"numberOfBytes": "32",
						"value": "t_uint256"
					},
					"t_uint256": {
						"encoding": "inplace",
						"label": "uint256",
						"numberOfBytes": "32"
					}
				}
			},
			"userdoc": {
				"kind": "user",
				"methods": {},
				"version": 1
			}
		}
	}
}