{
	"task1/test.sol": {
		"OptimizedIntegerToRoman": {
			"abi": [
				{
					"inputs": [],
					"stateMutability": "nonpayable",
					"type": "constructor"
				},
				{
					"inputs": [
						{
							"internalType": "uint256",
							"name": "num",
							"type": "uint256"
						}
					],
					"name": "intToRoman",
					"outputs": [
						{
							"internalType": "string",
							"name": "",
							"type": "string"
						}
					],
					"stateMutability": "view",
					"type": "function"
				}
			],
			"devdoc": {
				"kind": "dev",
				"methods": {},
				"version": 1
			},
			"evm": {
				"assembly": "    /* \"task1/test.sol\":1861:2753  contract OptimizedIntegerToRoman {... */\n  mstore(0x40, 0x80)\n    /* \"task1/test.sol\":2018:2203  constructor() {... */\n  callvalue\n  dup1\n  iszero\n  tag_1\n  jumpi\n  revert(0x00, 0x00)\ntag_1:\n  pop\n    /* \"task1/test.sol\":2042:2105  values = [1000, 900, 500, 400, 100, 90, 50, 40, 10, 9, 5, 4, 1] */\n  mload(0x40)\n  dup1\n  0x01a0\n  add\n  0x40\n  mstore\n  dup1\n    /* \"task1/test.sol\":2052:2056  1000 */\n  0x03e8\n    /* \"task1/test.sol\":2042:2105  values = [1000, 900, 500, 400, 100, 90, 50, 40, 10, 9, 5, 4, 1] */\n  0xffff\n  and\n  dup2\n  mstore\n  0x20\n  add\n    /* \"task1/test.sol\":2058:2061  900 */\n  0x0384\n    /* \"task1/test.sol\":2042:2105  values = [1000, 900, 500, 400, 100, 90, 50, 40, 10, 9, 5, 4, 1] */\n  0xffff\n  and\n  dup2\n  mstore\n  0x20\n  add\n    /* \"task1/test.sol\":2063:2066  500 */\n  0x01f4\n    /* \"task1/test.sol\":2042:2105  values = [1000, 900, 500, 400, 100, 90, 50, 40, 10, 9, 5, 4, 1] */\n  0xffff\n  and\n  dup2\n  mstore\n  0x20\n  add\n    /* \"task1/test.sol\":2068:2071  400 */\n  0x0190\n    /* \"task1/test.sol\":2042:2105  values = [1000, 900, 500, 400, 100, 90, 50, 40, 10, 9, 5, 4, 1] */\n  0xffff\n  and\n  dup2\n  mstore\n  0x20\n  add\n    /* \"task1/test.sol\":2073:2076  100 */\n  0x64\n    /* \"task1/test.sol\":2042:2105  values = [1000, 900, 500, 400, 100, 90, 50, 40, 10, 9, 5, 4, 1] */\n  0xffff\n  and\n  dup2\n  mstore\n  0x20\n  add\n    /* \"task1/test.sol\":2078:2080  90 */\n  0x5a\n    /* \"task1/test.sol\":2042:2105  values = [1000, 900, 500, 400, 100, 90, 50, 40, 10, 9, 5, 4, 1] */\n  0xffff\n  and\n  dup2\n  mstore\n  0x20\n  add\n    /* \"task1/test.sol\":2082:2084  50 */\n  0x32\n    /* \"task1/test.sol\":2042:2105  values = [1000, 900, 500, 400, 100, 90, 50, 40, 10, 9, 5, 4, 1] */\n  0xffff\n  and\n  dup2\n  mstore\n  0x20\n  add\n    /* \"task1/test.sol\":2086:2088  40 */\n  0x28\n    /* \"task1/test.sol\":2042:2105  values = [1000, 900, 500, 400, 100, 90, 50, 40, 10, 9, 5, 4, 1] */\n  0xffff\n  and\n  dup2\n  mstore\n  0x20\n  add\n    /* \"task1/test.sol\":2090:2092  10 */\n  0x0a\n    /* \"task1/test.sol\":2042:2105  values = [1000, 900, 500, 400, 100, 90, 50, 40, 10, 9, 5, 4, 1] */\n  0xffff\n  and\n  dup2\n  mstore\n  0x20\n  add\n    /* \"task1/test.sol\":2094:2095  9 */\n  0x09\n    /* \"task1/test.sol\":2042:2105  values = [1000, 900, 500, 400, 100, 90, 50, 40, 10, 9, 5, 4, 1] */\n  0xffff\n  and\n  dup2\n  mstore\n  0x20\n  add\n    /* \"task1/test.sol\":2097:2098  5 */\n  0x05\n    /* \"task1/test.sol\":2042:2105  values = [1000, 900, 500, 400, 100, 90, 50, 40, 10, 9, 5, 4, 1] */\n  0xffff\n  and\n  dup2\n  mstore\n  0x20\n  add\n    /* \"task1/test.sol\":2100:2101  4 */\n  0x04\n    /* \"task1/test.sol\":2042:2105  values = [1000, 900, 500, 400, 100, 90, 50, 40, 10, 9, 5, 4, 1] */\n  0xffff\n  and\n  dup2\n  mstore\n  0x20\n  add\n    /* \"task1/test.sol\":2103:2104  1 */\n  0x01\n    /* \"task1/test.sol\":2042:2105  values = [1000, 900, 500, 400, 100, 90, 50, 40, 10, 9, 5, 4, 1] */\n  0xffff\n  and\n  dup2\n  mstore\n  pop\n    /* \"task1/test.sol\":2042:2048  values */\n  0x00\n    /* \"task1/test.sol\":2042:2105  values = [1000, 900, 500, 400, 100, 90, 50, 40, 10, 9, 5, 4, 1] */\n  swap1\n  0x0d\n  tag_4\n  swap3\n  swap2\n  swap1\n  tag_5\n  jump\t// in\ntag_4:\n  pop\n    /* \"task1/test.sol\":2115:2196  symbols = [\"M\", \"CM\", \"D\", \"CD\", \"C\", \"XC\", \"L\", \"XL\", \"X\", \"IX\", \"V\", \"IV\", \"I\"] */\n  mload(0x40)\n  dup1\n  0x01a0\n  add\n  0x40\n  mstore\n  dup1\n  mload(0x40)\n  dup1\n  0x40\n  add\n  0x40\n  mstore\n  dup1\n  0x01\n  dup2\n  mstore\n  0x20\n  add\n  0x4d00000000000000000000000000000000000000000000000000000000000000\n  dup2\n  mstore\n  pop\n  dup2\n  mstore\n  0x20\n  add\n  mload(0x40)\n  dup1\n  0x40\n  add\n  0x40\n  mstore\n  dup1\n  0x02\n  dup2\n  mstore\n  0x20\n  add\n  0x434d000000000000000000000000000000000000000000000000000000000000\n  dup2\n  mstore\n  pop\n  dup2\n  mstore\n  0x20\n  add\n  mload(0x40)\n  dup1\n  0x40\n  add\n  0x40\n  mstore\n  dup1\n  0x01\n  dup2\n  mstore\n  0x20\n  add\n  0x4400000000000000000000000000000000000000000000000000000000000000\n  dup2\n  mstore\n  pop\n  dup2\n  mstore\n  0x20\n  add\n  mload(0x40)\n  dup1\n  0x40\n  add\n  0x40\n  mstore\n  dup1\n  0x02\n  dup2\n  mstore\n  0x20\n  add\n  0x4344000000000000000000000000000000000000000000000000000000000000\n  dup2\n  mstore\n  pop\n  dup2\n  mstore\n  0x20\n  add\n  mload(0x40)\n  dup1\n  0x40\n  add\n  0x40\n  mstore\n  dup1\n  0x01\n  dup2\n  mstore\n  0x20\n  add\n  0x4300000000000000000000000000000000000000000000000000000000000000\n  dup2\n  mstore\n  pop\n  dup2\n  mstore\n  0x20\n  add\n  mload(0x40)\n  dup1\n  0x40\n  add\n  0x40\n  mstore\n  dup1\n  0x02\n  dup2\n  mstore\n  0x20\n  add\n  0x5843000000000000000000000000000000000000000000000000000000000000\n  dup2\n  mstore\n  pop\n  dup2\n  mstore\n  0x20\n  add\n  mload(0x40)\n  dup1\n  0x40\n  add\n  0x40\n  mstore\n  dup1\n  0x01\n  dup2\n  mstore\n  0x20\n  add\n  0x4c00000000000000000000000000000000000000000000000000000000000000\n  dup2\n  mstore\n  pop\n  dup2\n  mstore\n  0x20\n  add\n  mload(0x40)\n  dup1\n  0x40\n  add\n  0x40\n  mstore\n  dup1\n  0x02\n  dup2\n  mstore\n  0x20\n  add\n  0x584c000000000000000000000000000000000000000000000000000000000000\n  dup2\n  mstore\n  pop\n  dup2\n  mstore\n  0x20\n  add\n  mload(0x40)\n  dup1\n  0x40\n  add\n  0x40\n  mstore\n  dup1\n  0x01\n  dup2\n  mstore\n  0x20\n  add\n  0x5800000000000000000000000000000000000000000000000000000000000000\n  dup2\n  mstore\n  pop\n  dup2\n  mstore\n  0x20\n  add\n  mload(0x40)\n  dup1\n  0x40\n  add\n  0x40\n  mstore\n  dup1\n  0x02\n  dup2\n  mstore\n  0x20\n  add\n  0x4958000000000000000000000000000000000000000000000000000000000000\n  dup2\n  mstore\n  pop\n  dup2\n  mstore\n  0x20\n  add\n  mload(0x40)\n  dup1\n  0x40\n  add\n  0x40\n  mstore\n  dup1\n  0x01\n  dup2\n  mstore\n  0x20\n  add\n  0x5600000000000000000000000000000000000000000000000000000000000000\n  dup2\n  mstore\n  pop\n  dup2\n  mstore\n  0x20\n  add\n  mload(0x40)\n  dup1\n  0x40\n  add\n  0x40\n  mstore\n  dup1\n  0x02\n  dup2\n  mstore\n  0x20\n  add\n  0x4956000000000000000000000000000000000000000000000000000000000000\n  dup2\n  mstore\n  pop\n  dup2\n  mstore\n  0x20\n  add\n  mload(0x40)\n  dup1\n  0x40\n  add\n  0x40\n  mstore\n  dup1\n  0x01\n  dup2\n  mstore\n  0x20\n  add\n  0x4900000000000000000000000000000000000000000000000000000000000000\n  dup2\n  mstore\n  pop\n  dup2\n  mstore\n  pop\n    /* \"task1/test.sol\":2115:2122  symbols */\n  0x01\n    /* \"task1/test.sol\":2115:2196  symbols = [\"M\", \"CM\", \"D\", \"CD\", \"C\", \"XC\", \"L\", \"XL\", \"X\", \"IX\", \"V\", \"IV\", \"I\"] */\n  swap1\n  0x0d\n  tag_6\n  swap3\n  swap2\n  swap1\n  tag_7\n  jump\t// in\ntag_6:\n  pop\n    /* \"task1/test.sol\":1861:2753  contract OptimizedIntegerToRoman {... */\n  jump(tag_8)\ntag_5:\n  dup3\n  dup1\n  sload\n  dup3\n  dup3\n  sstore\n  swap1\n  0x00\n  mstore\n  keccak256(0x00, 0x20)\n  swap1\n  dup2\n  add\n  swap3\n  dup3\n  iszero\n  tag_9\n  jumpi\n  swap2\n  0x20\n  mul\n  dup3\n  add\ntag_10:\n  dup3\n  dup2\n  gt\n  iszero\n  tag_11\n  jumpi\n  dup3\n  mload\n  dup3\n  swap1\n  0xffff\n  and\n  swap1\n  sstore\n  swap2\n  0x20\n  add\n  swap2\n  swap1\n  0x01\n  add\n  swap1\n  jump(tag_10)\ntag_11:\ntag_9:\n  pop\n  swap1\n  pop\n  tag_12\n  swap2\n  swap1\n  tag_13\n  jump\t// in\ntag_12:\n  pop\n  swap1\n  jump\t// out\ntag_7:\n  dup3\n  dup1\n  sload\n  dup3\n  dup3\n  sstore\n  swap1\n  0x00\n  mstore\n  keccak256(0x00, 0x20)\n  swap1\n  dup2\n  add\n  swap3\n  dup3\n  iszero\n  tag_14\n  jumpi\n  swap2\n  0x20\n  mul\n  dup3\n  add\ntag_15:\n  dup3\n  dup2\n  gt\n  iszero\n  tag_16\n  jumpi\n  dup3\n  mload\n  dup3\n  swap1\n  dup2\n  tag_17\n  swap2\n  swap1\n  tag_18\n  jump\t// in\ntag_17:\n  pop\n  swap2\n  0x20\n  add\n  swap2\n  swap1\n  0x01\n  add\n  swap1\n  jump(tag_15)\ntag_16:\ntag_14:\n  pop\n  swap1\n  pop\n  tag_19\n  swap2\n  swap1\n  tag_20\n  jump\t// in\ntag_19:\n  pop\n  swap1\n  jump\t// out\ntag_13:\ntag_21:\n  dup1\n  dup3\n  gt\n  iszero\n  tag_22\n  jumpi\n  0x00\n  dup2\n  0x00\n  swap1\n  sstore\n  pop\n  0x01\n  add\n  jump(tag_21)\ntag_22:\n  pop\n  swap1\n  jump\t// out\ntag_20:\ntag_23:\n  dup1\n  dup3\n  gt\n  iszero\n  tag_24\n  jumpi\n  0x00\n  dup2\n  dup2\n  tag_25\n  swap2\n  swap1\n  tag_26\n  jump\t// in\ntag_25:\n  pop\n  0x01\n  add\n  jump(tag_23)\ntag_24:\n  pop\n  swap1\n  jump\t// out\ntag_26:\n  pop\n  dup1\n  sload\n  tag_27\n  swap1\n  tag_28\n  jump\t// in\ntag_27:\n  0x00\n  dup3\n  sstore\n  dup1\n  0x1f\n  lt\n  tag_30\n  jumpi\n  pop\n  jump(tag_29)\ntag_30:\n  0x1f\n  add\n  0x20\n  swap1\n  div\n  swap1\n  0x00\n  mstore\n  keccak256(0x00, 0x20)\n  swap1\n  dup2\n  add\n  swap1\n  tag_31\n  swap2\n  swap1\n  tag_13\n  jump\t// in\ntag_31:\ntag_29:\n  pop\n  jump\t// out\n    /* \"#utility.yul\":7:106   */\ntag_32:\n    /* \"#utility.yul\":59:65   */\n  0x00\n    /* \"#utility.yul\":93:98   */\n  dup2\n    /* \"#utility.yul\":87:99   */\n  mload\n    /* \"#utility.yul\":77:99   */\n  swap1\n  pop\n    /* \"#utility.yul\":7:106   */\n  swap2\n  swap1\n  pop\n  jump\t// out\n    /* \"#utility.yul\":112:292   */\ntag_33:\n    /* \"#utility.yul\":160:237   */\n  0x4e487b7100000000000000000000000000000000000000000000000000000000\n    /* \"#utility.yul\":157:158   */\n  0x00\n    /* \"#utility.yul\":150:238   */\n  mstore\n    /* \"#utility.yul\":257:261   */\n  0x41\n    /* \"#utility.yul\":254:255   */\n  0x04\n    /* \"#utility.yul\":247:262   */\n  mstore\n    /* \"#utility.yul\":281:285   */\n  0x24\n    /* \"#utility.yul\":278:279   */\n  0x00\n    /* \"#utility.yul\":271:286   */\n  revert\n    /* \"#utility.yul\":298:478   */\ntag_34:\n    /* \"#utility.yul\":346:423   */\n  0x4e487b7100000000000000000000000000000000000000000000000000000000\n    /* \"#utility.yul\":343:344   */\n  0x00\n    /* \"#utility.yul\":336:424   */\n  mstore\n    /* \"#utility.yul\":443:447   */\n  0x22\n    /* \"#utility.yul\":440:441   */\n  0x04\n    /* \"#utility.yul\":433:448   */\n  mstore\n    /* \"#utility.yul\":467:471   */\n  0x24\n    /* \"#utility.yul\":464:465   */\n  0x00\n    /* \"#utility.yul\":457:472   */\n  revert\n    /* \"#utility.yul\":484:804   */\ntag_28:\n    /* \"#utility.yul\":528:534   */\n  0x00\n    /* \"#utility.yul\":565:566   */\n  0x02\n    /* \"#utility.yul\":559:563   */\n  dup3\n    /* \"#utility.yul\":555:567   */\n  div\n    /* \"#utility.yul\":545:567   */\n  swap1\n  pop\n    /* \"#utility.yul\":612:613   */\n  0x01\n    /* \"#utility.yul\":606:610   */\n  dup3\n    /* \"#utility.yul\":602:614   */\n  and\n    /* \"#utility.yul\":633:651   */\n  dup1\n    /* \"#utility.yul\":623:704   */\n  tag_56\n  jumpi\n    /* \"#utility.yul\":689:693   */\n  0x7f\n    /* \"#utility.yul\":681:687   */\n  dup3\n    /* \"#utility.yul\":677:694   */\n  and\n    /* \"#utility.yul\":667:694   */\n  swap2\n  pop\n    /* \"#utility.yul\":623:704   */\ntag_56:\n    /* \"#utility.yul\":751:753   */\n  0x20\n    /* \"#utility.yul\":743:749   */\n  dup3\n    /* \"#utility.yul\":740:754   */\n  lt\n    /* \"#utility.yul\":720:738   */\n  dup2\n    /* \"#utility.yul\":717:755   */\n  sub\n    /* \"#utility.yul\":714:798   */\n  tag_57\n  jumpi\n    /* \"#utility.yul\":770:788   */\n  tag_58\n  tag_34\n  jump\t// in\ntag_58:\n    /* \"#utility.yul\":714:798   */\ntag_57:\n    /* \"#utility.yul\":535:804   */\n  pop\n    /* \"#utility.yul\":484:804   */\n  swap2\n  swap1\n  pop\n  jump\t// out\n    /* \"#utility.yul\":810:951   */\ntag_35:\n    /* \"#utility.yul\":859:863   */\n  0x00\n    /* \"#utility.yul\":882:885   */\n  dup2\n    /* \"#utility.yul\":874:885   */\n  swap1\n  pop\n    /* \"#utility.yul\":905:908   */\n  dup2\n    /* \"#utility.yul\":902:903   */\n  0x00\n    /* \"#utility.yul\":895:909   */\n  mstore\n    /* \"#utility.yul\":939:943   */\n  0x20\n    /* \"#utility.yul\":936:937   */\n  0x00\n    /* \"#utility.yul\":926:944   */\n  keccak256\n    /* \"#utility.yul\":918:944   */\n  swap1\n  pop\n    /* \"#utility.yul\":810:951   */\n  swap2\n  swap1\n  pop\n  jump\t// out\n    /* \"#utility.yul\":957:1050   */\ntag_36:\n    /* \"#utility.yul\":994:1000   */\n  0x00\n    /* \"#utility.yul\":1041:1043   */\n  0x20\n    /* \"#utility.yul\":1036:1038   */\n  0x1f\n    /* \"#utility.yul\":1029:1034   */\n  dup4\n    /* \"#utility.yul\":1025:1039   */\n  add\n    /* \"#utility.yul\":1021:1044   */\n  div\n    /* \"#utility.yul\":1011:1044   */\n  swap1\n  pop\n    /* \"#utility.yul\":957:1050   */\n  swap2\n  swap1\n  pop\n  jump\t// out\n    /* \"#utility.yul\":1056:1163   */\ntag_37:\n    /* \"#utility.yul\":1100:1108   */\n  0x00\n    /* \"#utility.yul\":1150:1155   */\n  dup3\n    /* \"#utility.yul\":1144:1148   */\n  dup3\n    /* \"#utility.yul\":1140:1156   */\n  shl\n    /* \"#utility.yul\":1119:1156   */\n  swap1\n  pop\n    /* \"#utility.yul\":1056:1163   */\n  swap3\n  swap2\n  pop\n  pop\n  jump\t// out\n    /* \"#utility.yul\":1169:1562   */\ntag_38:\n    /* \"#utility.yul\":1238:1244   */\n  0x00\n    /* \"#utility.yul\":1288:1289   */\n  0x08\n    /* \"#utility.yul\":1276:1286   */\n  dup4\n    /* \"#utility.yul\":1272:1290   */\n  mul\n    /* \"#utility.yul\":1311:1408   */\n  tag_63\n    /* \"#utility.yul\":1341:1407   */\n  0xffffffffffffffffffffffffffffffffffffffffffffffffffffffffffffffff\n    /* \"#utility.yul\":1330:1339   */\n  dup3\n    /* \"#utility.yul\":1311:1408   */\n  tag_37\n  jump\t// in\ntag_63:\n    /* \"#utility.yul\":1429:1468   */\n  tag_64\n    /* \"#utility.yul\":1459:1467   */\n  dup7\n    /* \"#utility.yul\":1448:1457   */\n  dup4\n    /* \"#utility.yul\":1429:1468   */\n  tag_37\n  jump\t// in\ntag_64:\n    /* \"#utility.yul\":1417:1468   */\n  swap6\n  pop\n    /* \"#utility.yul\":1501:1505   */\n  dup1\n    /* \"#utility.yul\":1497:1506   */\n  not\n    /* \"#utility.yul\":1490:1495   */\n  dup5\n    /* \"#utility.yul\":1486:1507   */\n  and\n    /* \"#utility.yul\":1477:1507   */\n  swap4\n  pop\n    /* \"#utility.yul\":1550:1554   */\n  dup1\n    /* \"#utility.yul\":1540:1548   */\n  dup7\n    /* \"#utility.yul\":1536:1555   */\n  and\n    /* \"#utility.yul\":1529:1534   */\n  dup5\n    /* \"#utility.yul\":1526:1556   */\n  or\n    /* \"#utility.yul\":1516:1556   */\n  swap3\n  pop\n    /* \"#utility.yul\":1245:1562   */\n  pop\n  pop\n    /* \"#utility.yul\":1169:1562   */\n  swap4\n  swap3\n  pop\n  pop\n  pop\n  jump\t// out\n    /* \"#utility.yul\":1568:1645   */\ntag_39:\n    /* \"#utility.yul\":1605:1612   */\n  0x00\n    /* \"#utility.yul\":1634:1639   */\n  dup2\n    /* \"#utility.yul\":1623:1639   */\n  swap1\n  pop\n    /* \"#utility.yul\":1568:1645   */\n  swap2\n  swap1\n  pop\n  jump\t// out\n    /* \"#utility.yul\":1651:1711   */\ntag_40:\n    /* \"#utility.yul\":1679:1682   */\n  0x00\n    /* \"#utility.yul\":1700:1705   */\n  dup2\n    /* \"#utility.yul\":1693:1705   */\n  swap1\n  pop\n    /* \"#utility.yul\":1651:1711   */\n  swap2\n  swap1\n  pop\n  jump\t// out\n    /* \"#utility.yul\":1717:1859   */\ntag_41:\n    /* \"#utility.yul\":1767:1776   */\n  0x00\n    /* \"#utility.yul\":1800:1853   */\n  tag_68\n    /* \"#utility.yul\":1818:1852   */\n  tag_69\n    /* \"#utility.yul\":1827:1851   */\n  tag_70\n    /* \"#utility.yul\":1845:1850   */\n  dup5\n    /* \"#utility.yul\":1827:1851   */\n  tag_39\n  jump\t// in\ntag_70:\n    /* \"#utility.yul\":1818:1852   */\n  tag_40\n  jump\t// in\ntag_69:\n    /* \"#utility.yul\":1800:1853   */\n  tag_39\n  jump\t// in\ntag_68:\n    /* \"#utility.yul\":1787:1853   */\n  swap1\n  pop\n    /* \"#utility.yul\":1717:1859   */\n  swap2\n  swap1\n  pop\n  jump\t// out\n    /* \"#utility.yul\":1865:1940   */\ntag_42:\n    /* \"#utility.yul\":1908:1911   */\n  0x00\n    /* \"#utility.yul\":1929:1934   */\n  dup2\n    /* \"#utility.yul\":1922:1934   */\n  swap1\n  pop\n    /* \"#utility.yul\":1865:1940   */\n  swap2\n  swap1\n  pop\n  jump\t// out\n    /* \"#utility.yul\":1946:2215   */\ntag_43:\n    /* \"#utility.yul\":2056:2095   */\n  tag_73\n    /* \"#utility.yul\":2087:2094   */\n  dup4\n    /* \"#utility.yul\":2056:2095   */\n  tag_41\n  jump\t// in\ntag_73:\n    /* \"#utility.yul\":2117:2208   */\n  tag_74\n    /* \"#utility.yul\":2166:2207   */\n  tag_75\n    /* \"#utility.yul\":2190:2206   */\n  dup3\n    /* \"#utility.yul\":2166:2207   */\n  tag_42\n  jump\t// in\ntag_75:\n    /* \"#utility.yul\":2158:2164   */\n  dup5\n    /* \"#utility.yul\":2151:2155   */\n  dup5\n    /* \"#utility.yul\":2145:2156   */\n  sload\n    /* \"#utility.yul\":2117:2208   */\n  tag_38\n  jump\t// in\ntag_74:\n    /* \"#utility.yul\":2111:2115   */\n  dup3\n    /* \"#utility.yul\":2104:2209   */\n  sstore\n    /* \"#utility.yul\":2022:2215   */\n  pop\n    /* \"#utility.yul\":1946:2215   */\n  pop\n  pop\n  pop\n  jump\t// out\n    /* \"#utility.yul\":2221:2294   */\ntag_44:\n    /* \"#utility.yul\":2266:2269   */\n  0x00\n    /* \"#utility.yul\":2287:2288   */\n  0x00\n    /* \"#utility.yul\":2280:2288   */\n  swap1\n  pop\n    /* \"#utility.yul\":2221:2294   */\n  swap1\n  jump\t// out\n    /* \"#utility.yul\":2300:2489   */\ntag_45:\n    /* \"#utility.yul\":2377:2409   */\n  tag_78\n  tag_44\n  jump\t// in\ntag_78:\n    /* \"#utility.yul\":2418:2483   */\n  tag_79\n    /* \"#utility.yul\":2476:2482   */\n  dup2\n    /* \"#utility.yul\":2468:2474   */\n  dup5\n    /* \"#utility.yul\":2462:2466   */\n  dup5\n    /* \"#utility.yul\":2418:2483   */\n  tag_43\n  jump\t// in\ntag_79:\n    /* \"#utility.yul\":2353:2489   */\n  pop\n    /* \"#utility.yul\":2300:2489   */\n  pop\n  pop\n  jump\t// out\n    /* \"#utility.yul\":2495:2681   */\ntag_46:\n    /* \"#utility.yul\":2555:2675   */\ntag_81:\n    /* \"#utility.yul\":2572:2575   */\n  dup2\n    /* \"#utility.yul\":2565:2570   */\n  dup2\n    /* \"#utility.yul\":2562:2576   */\n  lt\n    /* \"#utility.yul\":2555:2675   */\n  iszero\n  tag_83\n  jumpi\n    /* \"#utility.yul\":2626:2665   */\n  tag_84\n    /* \"#utility.yul\":2663:2664   */\n  0x00\n    /* \"#utility.yul\":2656:2661   */\n  dup3\n    /* \"#utility.yul\":2626:2665   */\n  tag_45\n  jump\t// in\ntag_84:\n    /* \"#utility.yul\":2599:2600   */\n  0x01\n    /* \"#utility.yul\":2592:2597   */\n  dup2\n    /* \"#utility.yul\":2588:2601   */\n  add\n    /* \"#utility.yul\":2579:2601   */\n  swap1\n  pop\n    /* \"#utility.yul\":2555:2675   */\n  jump(tag_81)\ntag_83:\n    /* \"#utility.yul\":2495:2681   */\n  pop\n  pop\n  jump\t// out\n    /* \"#utility.yul\":2687:3230   */\ntag_47:\n    /* \"#utility.yul\":2788:2790   */\n  0x1f\n    /* \"#utility.yul\":2783:2786   */\n  dup3\n    /* \"#utility.yul\":2780:2791   */\n  gt\n    /* \"#utility.yul\":2777:3223   */\n  iszero\n  tag_86\n  jumpi\n    /* \"#utility.yul\":2822:2860   */\n  tag_87\n    /* \"#utility.yul\":2854:2859   */\n  dup2\n    /* \"#utility.yul\":2822:2860   */\n  tag_35\n  jump\t// in\ntag_87:\n    /* \"#utility.yul\":2906:2935   */\n  tag_88\n    /* \"#utility.yul\":2924:2934   */\n  dup5\n    /* \"#utility.yul\":2906:2935   */\n  tag_36\n  jump\t// in\ntag_88:\n    /* \"#utility.yul\":2896:2904   */\n  dup2\n    /* \"#utility.yul\":2892:2936   */\n  add\n    /* \"#utility.yul\":3089:3091   */\n  0x20\n    /* \"#utility.yul\":3077:3087   */\n  dup6\n    /* \"#utility.yul\":3074:3092   */\n  lt\n    /* \"#utility.yul\":3071:3120   */\n  iszero\n  tag_89\n  jumpi\n    /* \"#utility.yul\":3110:3118   */\n  dup2\n    /* \"#utility.yul\":3095:3118   */\n  swap1\n  pop\n    /* \"#utility.yul\":3071:3120   */\ntag_89:\n    /* \"#utility.yul\":3133:3213   */\n  tag_90\n    /* \"#utility.yul\":3189:3211   */\n  tag_91\n    /* \"#utility.yul\":3207:3210   */\n  dup6\n    /* \"#utility.yul\":3189:3211   */\n  tag_36\n  jump\t// in\ntag_91:\n    /* \"#utility.yul\":3179:3187   */\n  dup4\n    /* \"#utility.yul\":3175:3212   */\n  add\n    /* \"#utility.yul\":3162:3173   */\n  dup3\n    /* \"#utility.yul\":3133:3213   */\n  tag_46\n  jump\t// in\ntag_90:\n    /* \"#utility.yul\":2792:3223   */\n  pop\n  pop\n    /* \"#utility.yul\":2777:3223   */\ntag_86:\n    /* \"#utility.yul\":2687:3230   */\n  pop\n  pop\n  pop\n  jump\t// out\n    /* \"#utility.yul\":3236:3353   */\ntag_48:\n    /* \"#utility.yul\":3290:3298   */\n  0x00\n    /* \"#utility.yul\":3340:3345   */\n  dup3\n    /* \"#utility.yul\":3334:3338   */\n  dup3\n    /* \"#utility.yul\":3330:3346   */\n  shr\n    /* \"#utility.yul\":3309:3346   */\n  swap1\n  pop\n    /* \"#utility.yul\":3236:3353   */\n  swap3\n  swap2\n  pop\n  pop\n  jump\t// out\n    /* \"#utility.yul\":3359:3528   */\ntag_49:\n    /* \"#utility.yul\":3403:3409   */\n  0x00\n    /* \"#utility.yul\":3436:3487   */\n  tag_94\n    /* \"#utility.yul\":3484:3485   */\n  0x00\n    /* \"#utility.yul\":3480:3486   */\n  not\n    /* \"#utility.yul\":3472:3477   */\n  dup5\n    /* \"#utility.yul\":3469:3470   */\n  0x08\n    /* \"#utility.yul\":3465:3478   */\n  mul\n    /* \"#utility.yul\":3436:3487   */\n  tag_48\n  jump\t// in\ntag_94:\n    /* \"#utility.yul\":3432:3488   */\n  not\n    /* \"#utility.yul\":3517:3521   */\n  dup1\n    /* \"#utility.yul\":3511:3515   */\n  dup4\n    /* \"#utility.yul\":3507:3522   */\n  and\n    /* \"#utility.yul\":3497:3522   */\n  swap2\n  pop\n    /* \"#utility.yul\":3410:3528   */\n  pop\n    /* \"#utility.yul\":3359:3528   */\n  swap3\n  swap2\n  pop\n  pop\n  jump\t// out\n    /* \"#utility.yul\":3533:3828   */\ntag_50:\n    /* \"#utility.yul\":3609:3613   */\n  0x00\n    /* \"#utility.yul\":3755:3784   */\n  tag_96\n    /* \"#utility.yul\":3780:3783   */\n  dup4\n    /* \"#utility.yul\":3774:3778   */\n  dup4\n    /* \"#utility.yul\":3755:3784   */\n  tag_49\n  jump\t// in\ntag_96:\n    /* \"#utility.yul\":3747:3784   */\n  swap2\n  pop\n    /* \"#utility.yul\":3817:3820   */\n  dup3\n    /* \"#utility.yul\":3814:3815   */\n  0x02\n    /* \"#utility.yul\":3810:3821   */\n  mul\n    /* \"#utility.yul\":3804:3808   */\n  dup3\n    /* \"#utility.yul\":3801:3822   */\n  or\n    /* \"#utility.yul\":3793:3822   */\n  swap1\n  pop\n    /* \"#utility.yul\":3533:3828   */\n  swap3\n  swap2\n  pop\n  pop\n  jump\t// out\n    /* \"#utility.yul\":3833:5228   */\ntag_18:\n    /* \"#utility.yul\":3950:3987   */\n  tag_98\n    /* \"#utility.yul\":3983:3986   */\n  dup3\n    /* \"#utility.yul\":3950:3987   */\n  tag_32\n  jump\t// in\ntag_98:\n    /* \"#utility.yul\":4052:4070   */\n  0xffffffffffffffff\n    /* \"#utility.yul\":4044:4050   */\n  dup2\n    /* \"#utility.yul\":4041:4071   */\n  gt\n    /* \"#utility.yul\":4038:4094   */\n  iszero\n  tag_99\n  jumpi\n    /* \"#utility.yul\":4074:4092   */\n  tag_100\n  tag_33\n  jump\t// in\ntag_100:\n    /* \"#utility.yul\":4038:4094   */\ntag_99:\n    /* \"#utility.yul\":4118:4156   */\n  tag_101\n    /* \"#utility.yul\":4150:4154   */\n  dup3\n    /* \"#utility.yul\":4144:4155   */\n  sload\n    /* \"#utility.yul\":4118:4156   */\n  tag_28\n  jump\t// in\ntag_101:\n    /* \"#utility.yul\":4203:4270   */\n  tag_102\n    /* \"#utility.yul\":4263:4269   */\n  dup3\n    /* \"#utility.yul\":4255:4261   */\n  dup3\n    /* \"#utility.yul\":4249:4253   */\n  dup6\n    /* \"#utility.yul\":4203:4270   */\n  tag_47\n  jump\t// in\ntag_102:\n    /* \"#utility.yul\":4297:4298   */\n  0x00\n    /* \"#utility.yul\":4321:4325   */\n  0x20\n    /* \"#utility.yul\":4308:4325   */\n  swap1\n  pop\n    /* \"#utility.yul\":4353:4355   */\n  0x1f\n    /* \"#utility.yul\":4345:4351   */\n  dup4\n    /* \"#utility.yul\":4342:4356   */\n  gt\n    /* \"#utility.yul\":4370:4371   */\n  0x01\n    /* \"#utility.yul\":4365:4983   */\n  dup2\n  eq\n  tag_104\n  jumpi\n    /* \"#utility.yul\":5027:5028   */\n  0x00\n    /* \"#utility.yul\":5044:5050   */\n  dup5\n    /* \"#utility.yul\":5041:5118   */\n  iszero\n  tag_105\n  jumpi\n    /* \"#utility.yul\":5093:5102   */\n  dup3\n    /* \"#utility.yul\":5088:5091   */\n  dup8\n    /* \"#utility.yul\":5084:5103   */\n  add\n    /* \"#utility.yul\":5078:5104   */\n  mload\n    /* \"#utility.yul\":5069:5104   */\n  swap1\n  pop\n    /* \"#utility.yul\":5041:5118   */\ntag_105:\n    /* \"#utility.yul\":5144:5211   */\n  tag_106\n    /* \"#utility.yul\":5204:5210   */\n  dup6\n    /* \"#utility.yul\":5197:5202   */\n  dup3\n    /* \"#utility.yul\":5144:5211   */\n  tag_50\n  jump\t// in\ntag_106:\n    /* \"#utility.yul\":5138:5142   */\n  dup7\n    /* \"#utility.yul\":5131:5212   */\n  sstore\n    /* \"#utility.yul\":5000:5222   */\n  pop\n    /* \"#utility.yul\":4335:5222   */\n  jump(tag_103)\n    /* \"#utility.yul\":4365:4983   */\ntag_104:\n    /* \"#utility.yul\":4417:4421   */\n  0x1f\n    /* \"#utility.yul\":4413:4422   */\n  not\n    /* \"#utility.yul\":4405:4411   */\n  dup5\n    /* \"#utility.yul\":4401:4423   */\n  and\n    /* \"#utility.yul\":4451:4488   */\n  tag_107\n    /* \"#utility.yul\":4483:4487   */\n  dup7\n    /* \"#utility.yul\":4451:4488   */\n  tag_35\n  jump\t// in\ntag_107:\n    /* \"#utility.yul\":4510:4511   */\n  0x00\n    /* \"#utility.yul\":4524:4732   */\ntag_108:\n    /* \"#utility.yul\":4538:4545   */\n  dup3\n    /* \"#utility.yul\":4535:4536   */\n  dup2\n    /* \"#utility.yul\":4532:4546   */\n  lt\n    /* \"#utility.yul\":4524:4732   */\n  iszero\n  tag_110\n  jumpi\n    /* \"#utility.yul\":4617:4626   */\n  dup5\n    /* \"#utility.yul\":4612:4615   */\n  dup10\n    /* \"#utility.yul\":4608:4627   */\n  add\n    /* \"#utility.yul\":4602:4628   */\n  mload\n    /* \"#utility.yul\":4594:4600   */\n  dup3\n    /* \"#utility.yul\":4587:4629   */\n  sstore\n    /* \"#utility.yul\":4668:4669   */\n  0x01\n    /* \"#utility.yul\":4660:4666   */\n  dup3\n    /* \"#utility.yul\":4656:4670   */\n  add\n    /* \"#utility.yul\":4646:4670   */\n  swap2\n  pop\n    /* \"#utility.yul\":4715:4717   */\n  0x20\n    /* \"#utility.yul\":4704:4713   */\n  dup6\n    /* \"#utility.yul\":4700:4718   */\n  add\n    /* \"#utility.yul\":4687:4718   */\n  swap5\n  pop\n    /* \"#utility.yul\":4561:4565   */\n  0x20\n    /* \"#utility.yul\":4558:4559   */\n  dup2\n    /* \"#utility.yul\":4554:4566   */\n  add\n    /* \"#utility.yul\":4549:4566   */\n  swap1\n  pop\n    /* \"#utility.yul\":4524:4732   */\n  jump(tag_108)\ntag_110:\n    /* \"#utility.yul\":4760:4766   */\n  dup7\n    /* \"#utility.yul\":4751:4758   */\n  dup4\n    /* \"#utility.yul\":4748:4767   */\n  lt\n    /* \"#utility.yul\":4745:4924   */\n  iszero\n  tag_111\n  jumpi\n    /* \"#utility.yul\":4818:4827   */\n  dup5\n    /* \"#utility.yul\":4813:4816   */\n  dup10\n    /* \"#utility.yul\":4809:4828   */\n  add\n    /* \"#utility.yul\":4803:4829   */\n  mload\n    /* \"#utility.yul\":4861:4909   */\n  tag_112\n    /* \"#utility.yul\":4903:4907   */\n  0x1f\n    /* \"#utility.yul\":4895:4901   */\n  dup10\n    /* \"#utility.yul\":4891:4908   */\n  and\n    /* \"#utility.yul\":4880:4889   */\n  dup3\n    /* \"#utility.yul\":4861:4909   */\n  tag_49\n  jump\t// in\ntag_112:\n    /* \"#utility.yul\":4853:4859   */\n  dup4\n    /* \"#utility.yul\":4846:4910   */\n  sstore\n    /* \"#utility.yul\":4768:4924   */\n  pop\n    /* \"#utility.yul\":4745:4924   */\ntag_111:\n    /* \"#utility.yul\":4970:4971   */\n  0x01\n    /* \"#utility.yul\":4966:4967   */\n  0x02\n    /* \"#utility.yul\":4958:4964   */\n  dup9\n    /* \"#utility.yul\":4954:4968   */\n  mul\n    /* \"#utility.yul\":4950:4972   */\n  add\n    /* \"#utility.yul\":4944:4948   */\n  dup9\n    /* \"#utility.yul\":4937:4973   */\n  sstore\n    /* \"#utility.yul\":4372:4983   */\n  pop\n  pop\n  pop\n    /* \"#utility.yul\":4335:5222   */\ntag_103:\n  pop\n    /* \"#utility.yul\":3925:5228   */\n  pop\n  pop\n  pop\n    /* \"#utility.yul\":3833:5228   */\n  pop\n  pop\n  jump\t// out\n    /* \"task1/test.sol\":1861:2753  contract OptimizedIntegerToRoman {... */\ntag_8:\n  dataSize(sub_0)\n  dup1\n  dataOffset(sub_0)\n  0x00\n  codecopy\n  0x00\n  return\nstop\n\nsub_0: assembly {\n        /* \"task1/test.sol\":1861:2753  contract OptimizedIntegerToRoman {... */\n      mstore(0x40, 0x80)\n      callvalue\n      dup1\n      iszero\n      tag_1\n      jumpi\n      revert(0x00, 0x00)\n    tag_1:\n      pop\n      jumpi(tag_2, lt(calldatasize, 0x04))\n      shr(0xe0, calldataload(0x00))\n      dup1\n      0x0cbc513a\n      eq\n      tag_3\n      jumpi\n    tag_2:\n      revert(0x00, 0x00)\n        /* \"task1/test.sol\":2213:2751  function intToRoman(uint256 num) public view returns (string memory) {... */\n    tag_3:\n      tag_4\n      0x04\n      dup1\n      calldatasize\n      sub\n      dup2\n      add\n      swap1\n      tag_5\n      swap2\n      swap1\n      tag_6\n      jump\t// in\n    tag_5:\n      tag_7\n      jump\t// in\n    tag_4:\n      mload(0x40)\n      tag_8\n      swap2\n      swap1\n      tag_9\n      jump\t// in\n    tag_8:\n      mload(0x40)\n      dup1\n      swap2\n      sub\n      swap1\n      return\n    tag_7:\n        /* \"task1/test.sol\":2267:2280  string memory */\n      0x60\n        /* \"task1/test.sol\":2306:2307  0 */\n      0x00\n        /* \"task1/test.sol\":2300:2303  num */\n      dup3\n        /* \"task1/test.sol\":2300:2307  num > 0 */\n      gt\n        /* \"task1/test.sol\":2300:2321  num > 0 && num < 4000 */\n      dup1\n      iszero\n      tag_11\n      jumpi\n      pop\n        /* \"task1/test.sol\":2317:2321  4000 */\n      0x0fa0\n        /* \"task1/test.sol\":2311:2314  num */\n      dup3\n        /* \"task1/test.sol\":2311:2321  num < 4000 */\n      lt\n        /* \"task1/test.sol\":2300:2321  num > 0 && num < 4000 */\n    tag_11:\n        /* \"task1/test.sol\":2292:2359  require(num > 0 && num < 4000, \"Number must be between 1 and 3999\") */\n      tag_12\n      jumpi\n      mload(0x40)\n      0x08c379a000000000000000000000000000000000000000000000000000000000\n      dup2\n      mstore\n      0x04\n      add\n      tag_13\n      swap1\n      tag_14\n      jump\t// in\n    tag_13:\n      mload(0x40)\n      dup1\n      swap2\n      sub\n      swap1\n      revert\n    tag_12:\n        /* \"task1/test.sol\":2378:2397  bytes memory result */\n      0x60\n        /* \"task1/test.sol\":2407:2424  uint256 remaining */\n      0x00\n        /* \"task1/test.sol\":2427:2430  num */\n      dup4\n        /* \"task1/test.sol\":2407:2430  uint256 remaining = num */\n      swap1\n      pop\n        /* \"task1/test.sol\":2454:2463  uint256 i */\n      0x00\n        /* \"task1/test.sol\":2466:2467  0 */\n      0x00\n        /* \"task1/test.sol\":2454:2467  uint256 i = 0 */\n      swap1\n      pop\n        /* \"task1/test.sol\":2449:2705  for (uint256 i = 0; i < values.length; i++) {... */\n    tag_15:\n        /* \"task1/test.sol\":2473:2479  values */\n      0x00\n        /* \"task1/test.sol\":2473:2486  values.length */\n      dup1\n      sload\n      swap1\n      pop\n        /* \"task1/test.sol\":2469:2470  i */\n      dup2\n        /* \"task1/test.sol\":2469:2486  i < values.length */\n      lt\n        /* \"task1/test.sol\":2449:2705  for (uint256 i = 0; i < values.length; i++) {... */\n      iszero\n      tag_16\n      jumpi\n        /* \"task1/test.sol\":2507:2656  while (remaining >= values[i]) {... */\n    tag_18:\n        /* \"task1/test.sol\":2527:2533  values */\n      0x00\n        /* \"task1/test.sol\":2534:2535  i */\n      dup2\n        /* \"task1/test.sol\":2527:2536  values[i] */\n      dup2\n      sload\n      dup2\n      lt\n      tag_20\n      jumpi\n      tag_21\n      tag_22\n      jump\t// in\n    tag_21:\n    tag_20:\n      swap1\n      0x00\n      mstore\n      keccak256(0x00, 0x20)\n      add\n      sload\n        /* \"task1/test.sol\":2514:2523  remaining */\n      dup3\n        /* \"task1/test.sol\":2514:2536  remaining >= values[i] */\n      lt\n        /* \"task1/test.sol\":2507:2656  while (remaining >= values[i]) {... */\n      tag_19\n      jumpi\n        /* \"task1/test.sol\":2582:2588  result */\n      dup3\n        /* \"task1/test.sol\":2590:2597  symbols */\n      0x01\n        /* \"task1/test.sol\":2598:2599  i */\n      dup3\n        /* \"task1/test.sol\":2590:2600  symbols[i] */\n      dup2\n      sload\n      dup2\n      lt\n      tag_24\n      jumpi\n      tag_25\n      tag_22\n      jump\t// in\n    tag_25:\n    tag_24:\n      swap1\n      0x00\n      mstore\n      keccak256(0x00, 0x20)\n      add\n        /* \"task1/test.sol\":2565:2601  abi.encodePacked(result, symbols[i]) */\n      add(0x20, mload(0x40))\n      tag_27\n      swap3\n      swap2\n      swap1\n      tag_28\n      jump\t// in\n    tag_27:\n      mload(0x40)\n      0x20\n      dup2\n      dup4\n      sub\n      sub\n      dup2\n      mstore\n      swap1\n      0x40\n      mstore\n        /* \"task1/test.sol\":2556:2601  result = abi.encodePacked(result, symbols[i]) */\n      swap3\n      pop\n        /* \"task1/test.sol\":2632:2638  values */\n      0x00\n        /* \"task1/test.sol\":2639:2640  i */\n      dup2\n        /* \"task1/test.sol\":2632:2641  values[i] */\n      dup2\n      sload\n      dup2\n      lt\n      tag_29\n      jumpi\n      tag_30\n      tag_22\n      jump\t// in\n    tag_30:\n    tag_29:\n      swap1\n      0x00\n      mstore\n      keccak256(0x00, 0x20)\n      add\n      sload\n        /* \"task1/test.sol\":2619:2641  remaining -= values[i] */\n      dup3\n      tag_32\n      swap2\n      swap1\n      tag_33\n      jump\t// in\n    tag_32:\n      swap2\n      pop\n        /* \"task1/test.sol\":2507:2656  while (remaining >= values[i]) {... */\n      jump(tag_18)\n    tag_19:\n        /* \"task1/test.sol\":2686:2687  0 */\n      0x00\n        /* \"task1/test.sol\":2673:2682  remaining */\n      dup3\n        /* \"task1/test.sol\":2673:2687  remaining == 0 */\n      sub\n        /* \"task1/test.sol\":2669:2694  if (remaining == 0) break */\n      iszero\n        /* \"task1/test.sol\":2689:2694  break */\n      tag_16\n        /* \"task1/test.sol\":2669:2694  if (remaining == 0) break */\n      jumpi\n        /* \"task1/test.sol\":2488:2491  i++ */\n      dup1\n      dup1\n      0x01\n      add\n      swap2\n      pop\n      pop\n        /* \"task1/test.sol\":2449:2705  for (uint256 i = 0; i < values.length; i++) {... */\n      jump(tag_15)\n    tag_16:\n      pop\n        /* \"task1/test.sol\":2737:2743  result */\n      dup2\n        /* \"task1/test.sol\":2723:2744  return string(result) */\n      swap3\n      pop\n      pop\n      pop\n        /* \"task1/test.sol\":2213:2751  function intToRoman(uint256 num) public view returns (string memory) {... */\n      swap2\n      swap1\n      pop\n      jump\t// out\n        /* \"#utility.yul\":88:205   */\n    tag_36:\n        /* \"#utility.yul\":197:198   */\n      0x00\n        /* \"#utility.yul\":194:195   */\n      0x00\n        /* \"#utility.yul\":187:199   */\n      revert\n        /* \"#utility.yul\":334:411   */\n    tag_38:\n        /* \"#utility.yul\":371:378   */\n      0x00\n        /* \"#utility.yul\":400:405   */\n      dup2\n        /* \"#utility.yul\":389:405   */\n      swap1\n      pop\n        /* \"#utility.yul\":334:411   */\n      swap2\n      swap1\n      pop\n      jump\t// out\n        /* \"#utility.yul\":417:539   */\n    tag_39:\n        /* \"#utility.yul\":490:514   */\n      tag_63\n        /* \"#utility.yul\":508:513   */\n      dup2\n        /* \"#utility.yul\":490:514   */\n      tag_38\n      jump\t// in\n    tag_63:\n        /* \"#utility.yul\":483:488   */\n      dup2\n        /* \"#utility.yul\":480:515   */\n      eq\n        /* \"#utility.yul\":470:533   */\n      tag_64\n      jumpi\n        /* \"#utility.yul\":529:530   */\n      0x00\n        /* \"#utility.yul\":526:527   */\n      0x00\n        /* \"#utility.yul\":519:531   */\n      revert\n        /* \"#utility.yul\":470:533   */\n    tag_64:\n        /* \"#utility.yul\":417:539   */\n      pop\n      jump\t// out\n        /* \"#utility.yul\":545:684   */\n    tag_40:\n        /* \"#utility.yul\":591:596   */\n      0x00\n        /* \"#utility.yul\":629:635   */\n      dup2\n        /* \"#utility.yul\":616:636   */\n      calldataload\n        /* \"#utility.yul\":607:636   */\n      swap1\n      pop\n        /* \"#utility.yul\":645:678   */\n      tag_66\n        /* \"#utility.yul\":672:677   */\n      dup2\n        /* \"#utility.yul\":645:678   */\n      tag_39\n      jump\t// in\n    tag_66:\n        /* \"#utility.yul\":545:684   */\n      swap3\n      swap2\n      pop\n      pop\n      jump\t// out\n        /* \"#utility.yul\":690:1019   */\n    tag_6:\n        /* \"#utility.yul\":749:755   */\n      0x00\n        /* \"#utility.yul\":798:800   */\n      0x20\n        /* \"#utility.yul\":786:795   */\n      dup3\n        /* \"#utility.yul\":777:784   */\n      dup5\n        /* \"#utility.yul\":773:796   */\n      sub\n        /* \"#utility.yul\":769:801   */\n      slt\n        /* \"#utility.yul\":766:885   */\n      iszero\n      tag_68\n      jumpi\n        /* \"#utility.yul\":804:883   */\n      tag_69\n      tag_36\n      jump\t// in\n    tag_69:\n        /* \"#utility.yul\":766:885   */\n    tag_68:\n        /* \"#utility.yul\":924:925   */\n      0x00\n        /* \"#utility.yul\":949:1002   */\n      tag_70\n        /* \"#utility.yul\":994:1001   */\n      dup5\n        /* \"#utility.yul\":985:991   */\n      dup3\n        /* \"#utility.yul\":974:983   */\n      dup6\n        /* \"#utility.yul\":970:992   */\n      add\n        /* \"#utility.yul\":949:1002   */\n      tag_40\n      jump\t// in\n    tag_70:\n        /* \"#utility.yul\":939:1002   */\n      swap2\n      pop\n        /* \"#utility.yul\":895:1012   */\n      pop\n        /* \"#utility.yul\":690:1019   */\n      swap3\n      swap2\n      pop\n      pop\n      jump\t// out\n        /* \"#utility.yul\":1025:1124   */\n    tag_41:\n        /* \"#utility.yul\":1077:1083   */\n      0x00\n        /* \"#utility.yul\":1111:1116   */\n      dup2\n        /* \"#utility.yul\":1105:1117   */\n      mload\n        /* \"#utility.yul\":1095:1117   */\n      swap1\n      pop\n        /* \"#utility.yul\":1025:1124   */\n      swap2\n      swap1\n      pop\n      jump\t// out\n        /* \"#utility.yul\":1130:1299   */\n    tag_42:\n        /* \"#utility.yul\":1214:1225   */\n      0x00\n        /* \"#utility.yul\":1248:1254   */\n      dup3\n        /* \"#utility.yul\":1243:1246   */\n      dup3\n        /* \"#utility.yul\":1236:1255   */\n      mstore\n        /* \"#utility.yul\":1288:1292   */\n      0x20\n        /* \"#utility.yul\":1283:1286   */\n      dup3\n        /* \"#utility.yul\":1279:1293   */\n      add\n        /* \"#utility.yul\":1264:1293   */\n      swap1\n      pop\n        /* \"#utility.yul\":1130:1299   */\n      swap3\n      swap2\n      pop\n      pop\n      jump\t// out\n        /* \"#utility.yul\":1305:1444   */\n    tag_43:\n        /* \"#utility.yul\":1394:1400   */\n      dup3\n        /* \"#utility.yul\":1389:1392   */\n      dup2\n        /* \"#utility.yul\":1384:1387   */\n      dup4\n        /* \"#utility.yul\":1378:1401   */\n      mcopy\n        /* \"#utility.yul\":1435:1436   */\n      0x00\n        /* \"#utility.yul\":1426:1432   */\n      dup4\n        /* \"#utility.yul\":1421:1424   */\n      dup4\n        /* \"#utility.yul\":1417:1433   */\n      add\n        /* \"#utility.yul\":1410:1437   */\n      mstore\n        /* \"#utility.yul\":1305:1444   */\n      pop\n      pop\n      pop\n      jump\t// out\n        /* \"#utility.yul\":1450:1552   */\n    tag_44:\n        /* \"#utility.yul\":1491:1497   */\n      0x00\n        /* \"#utility.yul\":1542:1544   */\n      0x1f\n        /* \"#utility.yul\":1538:1545   */\n      not\n        /* \"#utility.yul\":1533:1535   */\n      0x1f\n        /* \"#utility.yul\":1526:1531   */\n      dup4\n        /* \"#utility.yul\":1522:1536   */\n      add\n        /* \"#utility.yul\":1518:1546   */\n      and\n        /* \"#utility.yul\":1508:1546   */\n      swap1\n      pop\n        /* \"#utility.yul\":1450:1552   */\n      swap2\n      swap1\n      pop\n      jump\t// out\n        /* \"#utility.yul\":1558:1935   */\n    tag_45:\n        /* \"#utility.yul\":1646:1649   */\n      0x00\n        /* \"#utility.yul\":1674:1713   */\n      tag_76\n        /* \"#utility.yul\":1707:1712   */\n      dup3\n        /* \"#utility.yul\":1674:1713   */\n      tag_41\n      jump\t// in\n    tag_76:\n        /* \"#utility.yul\":1729:1800   */\n      tag_77\n        /* \"#utility.yul\":1793:1799   */\n      dup2\n        /* \"#utility.yul\":1788:1791   */\n      dup6\n        /* \"#utility.yul\":1729:1800   */\n      tag_42\n      jump\t// in\n    tag_77:\n        /* \"#utility.yul\":1722:1800   */\n      swap4\n      pop\n        /* \"#utility.yul\":1809:1874   */\n      tag_78\n        /* \"#utility.yul\":1867:1873   */\n      dup2\n        /* \"#utility.yul\":1862:1865   */\n      dup6\n        /* \"#utility.yul\":1855:1859   */\n      0x20\n        /* \"#utility.yul\":1848:1853   */\n      dup7\n        /* \"#utility.yul\":1844:1860   */\n      add\n        /* \"#utility.yul\":1809:1874   */\n      tag_43\n      jump\t// in\n    tag_78:\n        /* \"#utility.yul\":1899:1928   */\n      tag_79\n        /* \"#utility.yul\":1921:1927   */\n      dup2\n        /* \"#utility.yul\":1899:1928   */\n      tag_44\n      jump\t// in\n    tag_79:\n        /* \"#utility.yul\":1894:1897   */\n      dup5\n        /* \"#utility.yul\":1890:1929   */\n      add\n        /* \"#utility.yul\":1883:1929   */\n      swap2\n      pop\n        /* \"#utility.yul\":1650:1935   */\n      pop\n        /* \"#utility.yul\":1558:1935   */\n      swap3\n      swap2\n      pop\n      pop\n      jump\t// out\n        /* \"#utility.yul\":1941:2254   */\n    tag_9:\n        /* \"#utility.yul\":2054:2058   */\n      0x00\n        /* \"#utility.yul\":2092:2094   */\n      0x20\n        /* \"#utility.yul\":2081:2090   */\n      dup3\n        /* \"#utility.yul\":2077:2095   */\n      add\n        /* \"#utility.yul\":2069:2095   */\n      swap1\n      pop\n        /* \"#utility.yul\":2141:2150   */\n      dup2\n        /* \"#utility.yul\":2135:2139   */\n      dup2\n        /* \"#utility.yul\":2131:2151   */\n      sub\n        /* \"#utility.yul\":2127:2128   */\n      0x00\n        /* \"#utility.yul\":2116:2125   */\n      dup4\n        /* \"#utility.yul\":2112:2129   */\n      add\n        /* \"#utility.yul\":2105:2152   */\n      mstore\n        /* \"#utility.yul\":2169:2247   */\n      tag_81\n        /* \"#utility.yul\":2242:2246   */\n      dup2\n        /* \"#utility.yul\":2233:2239   */\n      dup5\n        /* \"#utility.yul\":2169:2247   */\n      tag_45\n      jump\t// in\n    tag_81:\n        /* \"#utility.yul\":2161:2247   */\n      swap1\n      pop\n        /* \"#utility.yul\":1941:2254   */\n      swap3\n      swap2\n      pop\n      pop\n      jump\t// out\n        /* \"#utility.yul\":2260:2480   */\n    tag_46:\n        /* \"#utility.yul\":2400:2434   */\n      0x4e756d626572206d757374206265206265747765656e203120616e6420333939\n        /* \"#utility.yul\":2396:2397   */\n      0x00\n        /* \"#utility.yul\":2388:2394   */\n      dup3\n        /* \"#utility.yul\":2384:2398   */\n      add\n        /* \"#utility.yul\":2377:2435   */\n      mstore\n        /* \"#utility.yul\":2469:2472   */\n      0x3900000000000000000000000000000000000000000000000000000000000000\n        /* \"#utility.yul\":2464:2466   */\n      0x20\n        /* \"#utility.yul\":2456:2462   */\n      dup3\n        /* \"#utility.yul\":2452:2467   */\n      add\n        /* \"#utility.yul\":2445:2473   */\n      mstore\n        /* \"#utility.yul\":2260:2480   */\n      pop\n      jump\t// out\n        /* \"#utility.yul\":2486:2852   */\n    tag_47:\n        /* \"#utility.yul\":2628:2631   */\n      0x00\n        /* \"#utility.yul\":2649:2716   */\n      tag_84\n        /* \"#utility.yul\":2713:2715   */\n      0x21\n        /* \"#utility.yul\":2708:2711   */\n      dup4\n        /* \"#utility.yul\":2649:2716   */\n      tag_42\n      jump\t// in\n    tag_84:\n        /* \"#utility.yul\":2642:2716   */\n      swap2\n      pop\n        /* \"#utility.yul\":2725:2818   */\n      tag_85\n        /* \"#utility.yul\":2814:2817   */\n      dup3\n        /* \"#utility.yul\":2725:2818   */\n      tag_46\n      jump\t// in\n    tag_85:\n        /* \"#utility.yul\":2843:2845   */\n      0x40\n        /* \"#utility.yul\":2838:2841   */\n      dup3\n        /* \"#utility.yul\":2834:2846   */\n      add\n        /* \"#utility.yul\":2827:2846   */\n      swap1\n      pop\n        /* \"#utility.yul\":2486:2852   */\n      swap2\n      swap1\n      pop\n      jump\t// out\n        /* \"#utility.yul\":2858:3277   */\n    tag_14:\n        /* \"#utility.yul\":3024:3028   */\n      0x00\n        /* \"#utility.yul\":3062:3064   */\n      0x20\n        /* \"#utility.yul\":3051:3060   */\n      dup3\n        /* \"#utility.yul\":3047:3065   */\n      add\n        /* \"#utility.yul\":3039:3065   */\n      swap1\n      pop\n        /* \"#utility.yul\":3111:3120   */\n      dup2\n        /* \"#utility.yul\":3105:3109   */\n      dup2\n        /* \"#utility.yul\":3101:3121   */\n      sub\n        /* \"#utility.yul\":3097:3098   */\n      0x00\n        /* \"#utility.yul\":3086:3095   */\n      dup4\n        /* \"#utility.yul\":3082:3099   */\n      add\n        /* \"#utility.yul\":3075:3122   */\n      mstore\n        /* \"#utility.yul\":3139:3270   */\n      tag_87\n        /* \"#utility.yul\":3265:3269   */\n      dup2\n        /* \"#utility.yul\":3139:3270   */\n      tag_47\n      jump\t// in\n    tag_87:\n        /* \"#utility.yul\":3131:3270   */\n      swap1\n      pop\n        /* \"#utility.yul\":2858:3277   */\n      swap2\n      swap1\n      pop\n      jump\t// out\n        /* \"#utility.yul\":3283:3463   */\n    tag_22:\n        /* \"#utility.yul\":3331:3408   */\n      0x4e487b7100000000000000000000000000000000000000000000000000000000\n        /* \"#utility.yul\":3328:3329   */\n      0x00\n        /* \"#utility.yul\":3321:3409   */\n      mstore\n        /* \"#utility.yul\":3428:3432   */\n      0x32\n        /* \"#utility.yul\":3425:3426   */\n      0x04\n        /* \"#utility.yul\":3418:3433   */\n      mstore\n        /* \"#utility.yul\":3452:3456   */\n      0x24\n        /* \"#utility.yul\":3449:3450   */\n      0x00\n        /* \"#utility.yul\":3442:3457   */\n      revert\n        /* \"#utility.yul\":3469:3567   */\n    tag_48:\n        /* \"#utility.yul\":3520:3526   */\n      0x00\n        /* \"#utility.yul\":3554:3559   */\n      dup2\n        /* \"#utility.yul\":3548:3560   */\n      mload\n        /* \"#utility.yul\":3538:3560   */\n      swap1\n      pop\n        /* \"#utility.yul\":3469:3567   */\n      swap2\n      swap1\n      pop\n      jump\t// out\n        /* \"#utility.yul\":3573:3720   */\n    tag_49:\n        /* \"#utility.yul\":3674:3685   */\n      0x00\n        /* \"#utility.yul\":3711:3714   */\n      dup2\n        /* \"#utility.yul\":3696:3714   */\n      swap1\n      pop\n        /* \"#utility.yul\":3573:3720   */\n      swap3\n      swap2\n      pop\n      pop\n      jump\t// out\n        /* \"#utility.yul\":3726:4112   */\n    tag_50:\n        /* \"#utility.yul\":3830:3833   */\n      0x00\n        /* \"#utility.yul\":3858:3896   */\n      tag_92\n        /* \"#utility.yul\":3890:3895   */\n      dup3\n        /* \"#utility.yul\":3858:3896   */\n      tag_48\n      jump\t// in\n    tag_92:\n        /* \"#utility.yul\":3912:4000   */\n      tag_93\n        /* \"#utility.yul\":3993:3999   */\n      dup2\n        /* \"#utility.yul\":3988:3991   */\n      dup6\n        /* \"#utility.yul\":3912:4000   */\n      tag_49\n      jump\t// in\n    tag_93:\n        /* \"#utility.yul\":3905:4000   */\n      swap4\n      pop\n        /* \"#utility.yul\":4009:4074   */\n      tag_94\n        /* \"#utility.yul\":4067:4073   */\n      dup2\n        /* \"#utility.yul\":4062:4065   */\n      dup6\n        /* \"#utility.yul\":4055:4059   */\n      0x20\n        /* \"#utility.yul\":4048:4053   */\n      dup7\n        /* \"#utility.yul\":4044:4060   */\n      add\n        /* \"#utility.yul\":4009:4074   */\n      tag_43\n      jump\t// in\n    tag_94:\n        /* \"#utility.yul\":4099:4105   */\n      dup1\n        /* \"#utility.yul\":4094:4097   */\n      dup5\n        /* \"#utility.yul\":4090:4106   */\n      add\n        /* \"#utility.yul\":4083:4106   */\n      swap2\n      pop\n        /* \"#utility.yul\":3834:4112   */\n      pop\n        /* \"#utility.yul\":3726:4112   */\n      swap3\n      swap2\n      pop\n      pop\n      jump\t// out\n        /* \"#utility.yul\":4118:4298   */\n    tag_51:\n        /* \"#utility.yul\":4166:4243   */\n      0x4e487b7100000000000000000000000000000000000000000000000000000000\n        /* \"#utility.yul\":4163:4164   */\n      0x00\n        /* \"#utility.yul\":4156:4244   */\n      mstore\n        /* \"#utility.yul\":4263:4267   */\n      0x22\n        /* \"#utility.yul\":4260:4261   */\n      0x04\n        /* \"#utility.yul\":4253:4268   */\n      mstore\n        /* \"#utility.yul\":4287:4291   */\n      0x24\n        /* \"#utility.yul\":4284:4285   */\n      0x00\n        /* \"#utility.yul\":4277:4292   */\n      revert\n        /* \"#utility.yul\":4304:4624   */\n    tag_52:\n        /* \"#utility.yul\":4348:4354   */\n      0x00\n        /* \"#utility.yul\":4385:4386   */\n      0x02\n        /* \"#utility.yul\":4379:4383   */\n      dup3\n        /* \"#utility.yul\":4375:4387   */\n      div\n        /* \"#utility.yul\":4365:4387   */\n      swap1\n      pop\n        /* \"#utility.yul\":4432:4433   */\n      0x01\n        /* \"#utility.yul\":4426:4430   */\n      dup3\n        /* \"#utility.yul\":4422:4434   */\n      and\n        /* \"#utility.yul\":4453:4471   */\n      dup1\n        /* \"#utility.yul\":4443:4524   */\n      tag_97\n      jumpi\n        /* \"#utility.yul\":4509:4513   */\n      0x7f\n        /* \"#utility.yul\":4501:4507   */\n      dup3\n        /* \"#utility.yul\":4497:4514   */\n      and\n        /* \"#utility.yul\":4487:4514   */\n      swap2\n      pop\n        /* \"#utility.yul\":4443:4524   */\n    tag_97:\n        /* \"#utility.yul\":4571:4573   */\n      0x20\n        /* \"#utility.yul\":4563:4569   */\n      dup3\n        /* \"#utility.yul\":4560:4574   */\n      lt\n        /* \"#utility.yul\":4540:4558   */\n      dup2\n        /* \"#utility.yul\":4537:4575   */\n      sub\n        /* \"#utility.yul\":4534:4618   */\n      tag_98\n      jumpi\n        /* \"#utility.yul\":4590:4608   */\n      tag_99\n      tag_51\n      jump\t// in\n    tag_99:\n        /* \"#utility.yul\":4534:4618   */\n    tag_98:\n        /* \"#utility.yul\":4355:4624   */\n      pop\n        /* \"#utility.yul\":4304:4624   */\n      swap2\n      swap1\n      pop\n      jump\t// out\n        /* \"#utility.yul\":4630:4778   */\n    tag_53:\n        /* \"#utility.yul\":4732:4743   */\n      0x00\n        /* \"#utility.yul\":4769:4772   */\n      dup2\n        /* \"#utility.yul\":4754:4772   */\n      swap1\n      pop\n        /* \"#utility.yul\":4630:4778   */\n      swap3\n      swap2\n      pop\n      pop\n      jump\t// out\n        /* \"#utility.yul\":4784:4925   */\n    tag_54:\n        /* \"#utility.yul\":4833:4837   */\n      0x00\n        /* \"#utility.yul\":4856:4859   */\n      dup2\n        /* \"#utility.yul\":4848:4859   */\n      swap1\n      pop\n        /* \"#utility.yul\":4879:4882   */\n      dup2\n        /* \"#utility.yul\":4876:4877   */\n      0x00\n        /* \"#utility.yul\":4869:4883   */\n      mstore\n        /* \"#utility.yul\":4913:4917   */\n      0x20\n        /* \"#utility.yul\":4910:4911   */\n      0x00\n        /* \"#utility.yul\":4900:4918   */\n      keccak256\n        /* \"#utility.yul\":4892:4918   */\n      swap1\n      pop\n        /* \"#utility.yul\":4784:4925   */\n      swap2\n      swap1\n      pop\n      jump\t// out\n        /* \"#utility.yul\":4955:5829   */\n    tag_55:\n        /* \"#utility.yul\":5058:5061   */\n      0x00\n        /* \"#utility.yul\":5095:5100   */\n      dup2\n        /* \"#utility.yul\":5089:5101   */\n      sload\n        /* \"#utility.yul\":5124:5160   */\n      tag_103\n        /* \"#utility.yul\":5150:5159   */\n      dup2\n        /* \"#utility.yul\":5124:5160   */\n      tag_52\n      jump\t// in\n    tag_103:\n        /* \"#utility.yul\":5176:5265   */\n      tag_104\n        /* \"#utility.yul\":5258:5264   */\n      dup2\n        /* \"#utility.yul\":5253:5256   */\n      dup7\n        /* \"#utility.yul\":5176:5265   */\n      tag_53\n      jump\t// in\n    tag_104:\n        /* \"#utility.yul\":5169:5265   */\n      swap5\n      pop\n        /* \"#utility.yul\":5296:5297   */\n      0x01\n        /* \"#utility.yul\":5285:5294   */\n      dup3\n        /* \"#utility.yul\":5281:5298   */\n      and\n        /* \"#utility.yul\":5312:5313   */\n      0x00\n        /* \"#utility.yul\":5307:5473   */\n      dup2\n      eq\n      tag_106\n      jumpi\n        /* \"#utility.yul\":5487:5488   */\n      0x01\n        /* \"#utility.yul\":5482:5823   */\n      dup2\n      eq\n      tag_107\n      jumpi\n        /* \"#utility.yul\":5274:5823   */\n      jump(tag_105)\n        /* \"#utility.yul\":5307:5473   */\n    tag_106:\n        /* \"#utility.yul\":5391:5395   */\n      0xff\n        /* \"#utility.yul\":5387:5396   */\n      not\n        /* \"#utility.yul\":5376:5385   */\n      dup4\n        /* \"#utility.yul\":5372:5397   */\n      and\n        /* \"#utility.yul\":5367:5370   */\n      dup7\n        /* \"#utility.yul\":5360:5398   */\n      mstore\n        /* \"#utility.yul\":5453:5459   */\n      dup2\n        /* \"#utility.yul\":5446:5460   */\n      iszero\n        /* \"#utility.yul\":5439:5461   */\n      iszero\n        /* \"#utility.yul\":5431:5437   */\n      dup3\n        /* \"#utility.yul\":5427:5462   */\n      mul\n        /* \"#utility.yul\":5422:5425   */\n      dup7\n        /* \"#utility.yul\":5418:5463   */\n      add\n        /* \"#utility.yul\":5411:5463   */\n      swap4\n      pop\n        /* \"#utility.yul\":5307:5473   */\n      jump(tag_105)\n        /* \"#utility.yul\":5482:5823   */\n    tag_107:\n        /* \"#utility.yul\":5549:5587   */\n      tag_108\n        /* \"#utility.yul\":5581:5586   */\n      dup6\n        /* \"#utility.yul\":5549:5587   */\n      tag_54\n      jump\t// in\n    tag_108:\n        /* \"#utility.yul\":5609:5610   */\n      0x00\n        /* \"#utility.yul\":5623:5777   */\n    tag_109:\n        /* \"#utility.yul\":5637:5643   */\n      dup4\n        /* \"#utility.yul\":5634:5635   */\n      dup2\n        /* \"#utility.yul\":5631:5644   */\n      lt\n        /* \"#utility.yul\":5623:5777   */\n      iszero\n      tag_111\n      jumpi\n        /* \"#utility.yul\":5711:5718   */\n      dup2\n        /* \"#utility.yul\":5705:5719   */\n      sload\n        /* \"#utility.yul\":5701:5702   */\n      dup2\n        /* \"#utility.yul\":5696:5699   */\n      dup10\n        /* \"#utility.yul\":5692:5703   */\n      add\n        /* \"#utility.yul\":5685:5720   */\n      mstore\n        /* \"#utility.yul\":5761:5762   */\n      0x01\n        /* \"#utility.yul\":5752:5759   */\n      dup3\n        /* \"#utility.yul\":5748:5763   */\n      add\n        /* \"#utility.yul\":5737:5763   */\n      swap2\n      pop\n        /* \"#utility.yul\":5659:5663   */\n      0x20\n        /* \"#utility.yul\":5656:5657   */\n      dup2\n        /* \"#utility.yul\":5652:5664   */\n      add\n        /* \"#utility.yul\":5647:5664   */\n      swap1\n      pop\n        /* \"#utility.yul\":5623:5777   */\n      jump(tag_109)\n    tag_111:\n        /* \"#utility.yul\":5806:5812   */\n      dup4\n        /* \"#utility.yul\":5801:5804   */\n      dup9\n        /* \"#utility.yul\":5797:5813   */\n      add\n        /* \"#utility.yul\":5790:5813   */\n      swap6\n      pop\n        /* \"#utility.yul\":5489:5823   */\n      pop\n      pop\n        /* \"#utility.yul\":5274:5823   */\n    tag_105:\n      pop\n        /* \"#utility.yul\":5062:5829   */\n      pop\n      pop\n        /* \"#utility.yul\":4955:5829   */\n      swap3\n      swap2\n      pop\n      pop\n      jump\t// out\n        /* \"#utility.yul\":5835:6260   */\n    tag_28:\n        /* \"#utility.yul\":6010:6013   */\n      0x00\n        /* \"#utility.yul\":6032:6125   */\n      tag_113\n        /* \"#utility.yul\":6121:6124   */\n      dup3\n        /* \"#utility.yul\":6112:6118   */\n      dup6\n        /* \"#utility.yul\":6032:6125   */\n      tag_50\n      jump\t// in\n    tag_113:\n        /* \"#utility.yul\":6025:6125   */\n      swap2\n      pop\n        /* \"#utility.yul\":6142:6234   */\n      tag_114\n        /* \"#utility.yul\":6230:6233   */\n      dup3\n        /* \"#utility.yul\":6221:6227   */\n      dup5\n        /* \"#utility.yul\":6142:6234   */\n      tag_55\n      jump\t// in\n    tag_114:\n        /* \"#utility.yul\":6135:6234   */\n      swap2\n      pop\n        /* \"#utility.yul\":6251:6254   */\n      dup2\n        /* \"#utility.yul\":6244:6254   */\n      swap1\n      pop\n        /* \"#utility.yul\":5835:6260   */\n      swap4\n      swap3\n      pop\n      pop\n      pop\n      jump\t// out\n        /* \"#utility.yul\":6266:6446   */\n    tag_56:\n        /* \"#utility.yul\":6314:6391   */\n      0x4e487b7100000000000000000000000000000000000000000000000000000000\n        /* \"#utility.yul\":6311:6312   */\n      0x00\n        /* \"#utility.yul\":6304:6392   */\n      mstore\n        /* \"#utility.yul\":6411:6415   */\n      0x11\n        /* \"#utility.yul\":6408:6409   */\n      0x04\n        /* \"#utility.yul\":6401:6416   */\n      mstore\n        /* \"#utility.yul\":6435:6439   */\n      0x24\n        /* \"#utility.yul\":6432:6433   */\n      0x00\n        /* \"#utility.yul\":6425:6440   */\n      revert\n        /* \"#utility.yul\":6452:6646   */\n    tag_33:\n        /* \"#utility.yul\":6492:6496   */\n      0x00\n        /* \"#utility.yul\":6512:6532   */\n      tag_117\n        /* \"#utility.yul\":6530:6531   */\n      dup3\n        /* \"#utility.yul\":6512:6532   */\n      tag_38\n      jump\t// in\n    tag_117:\n        /* \"#utility.yul\":6507:6532   */\n      swap2\n      pop\n        /* \"#utility.yul\":6546:6566   */\n      tag_118\n        /* \"#utility.yul\":6564:6565   */\n      dup4\n        /* \"#utility.yul\":6546:6566   */\n      tag_38\n      jump\t// in\n    tag_118:\n        /* \"#utility.yul\":6541:6566   */\n      swap3\n      pop\n        /* \"#utility.yul\":6590:6591   */\n      dup3\n        /* \"#utility.yul\":6587:6588   */\n      dup3\n        /* \"#utility.yul\":6583:6592   */\n      sub\n        /* \"#utility.yul\":6575:6592   */\n      swap1\n      pop\n        /* \"#utility.yul\":6614:6615   */\n      dup2\n        /* \"#utility.yul\":6608:6612   */\n      dup2\n        /* \"#utility.yul\":6605:6616   */\n      gt\n        /* \"#utility.yul\":6602:6639   */\n      iszero\n      tag_119\n      jumpi\n        /* \"#utility.yul\":6619:6637   */\n      tag_120\n      tag_56\n      jump\t// in\n    tag_120:\n        /* \"#utility.yul\":6602:6639   */\n    tag_119:\n        /* \"#utility.yul\":6452:6646   */\n      swap3\n      swap2\n      pop\n      pop\n      jump\t// out\n\n    auxdata: 0xa2646970667358221220be4a4b3f493da9de92679e104d2d18a2c7890948ae0643af0e549072475aa0c764736f6c634300081e0033\n}\n",
				"bytecode": {
					"linkReferences": {},
					"object": "608060405234801561000f575f5ffd5b50604051806101a001604052806103e861ffff16815260200161038461ffff1681526020016101f461ffff16815260200161019061ffff168152602001606461ffff168152602001605a61ffff168152602001603261ffff168152602001602861ffff168152602001600a61ffff168152602001600961ffff168152602001600561ffff168152602001600461ffff168152602001600161ffff168152505f90600d6100bc9291906103dc565b50604051806101a001604052806040518060400160405280600181526020017f4d0000000000000000000000000000000000000000000000000000000000000081525081526020016040518060400160405280600281526020017f434d00000000000000000000000000000000000000000000000000000000000081525081526020016040518060400160405280600181526020017f440000000000000000000000000000000000000000000000000000000000000081525081526020016040518060400160405280600281526020017f434400000000000000000000000000000000000000000000000000000000000081525081526020016040518060400160405280600181526020017f430000000000000000000000000000000000000000000000000000000000000081525081526020016040518060400160405280600281526020017f584300000000000000000000000000000000000000000000000000000000000081525081526020016040518060400160405280600181526020017f4c0000000000000000000000000000000000000000000000000000000000000081525081526020016040518060400160405280600281526020017f584c00000000000000000000000000000000000000000000000000000000000081525081526020016040518060400160405280600181526020017f580000000000000000000000000000000000000000000000000000000000000081525081526020016040518060400160405280600281526020017f495800000000000000000000000000000000000000000000000000000000000081525081526020016040518060400160405280600181526020017f560000000000000000000000000000000000000000000000000000000000000081525081526020016040518060400160405280600281526020017f495600000000000000000000000000000000000000000000000000000000000081525081526020016040518060400160405280600181526020017f4900000000000000000000000000000000000000000000000000000000000000815250815250600190600d6103d692919061042d565b5061080b565b828054828255905f5260205f2090810192821561041c579160200282015b8281111561041b578251829061ffff169055916020019190600101906103fa565b5b5090506104299190610484565b5090565b828054828255905f5260205f20908101928215610473579160200282015b82811115610472578251829081610462919061073c565b509160200191906001019061044b565b5b509050610480919061049f565b5090565b5b8082111561049b575f815f905550600101610485565b5090565b5b808211156104be575f81816104b591906104c2565b506001016104a0565b5090565b5080546104ce90610563565b5f825580601f106104df57506104fc565b601f0160209004905f5260205f20908101906104fb9190610484565b5b50565b5f81519050919050565b7f4e487b71000000000000000000000000000000000000000000000000000000005f52604160045260245ffd5b7f4e487b71000000000000000000000000000000000000000000000000000000005f52602260045260245ffd5b5f600282049050600182168061057a57607f821691505b60208210810361058d5761058c610536565b5b50919050565b5f819050815f5260205f209050919050565b5f6020601f8301049050919050565b5f82821b905092915050565b5f600883026105ef7fffffffffffffffffffffffffffffffffffffffffffffffffffffffffffffffff826105b4565b6105f986836105b4565b95508019841693508086168417925050509392505050565b5f819050919050565b5f819050919050565b5f61063d61063861063384610611565b61061a565b610611565b9050919050565b5f819050919050565b61065683610623565b61066a61066282610644565b8484546105c0565b825550505050565b5f5f905090565b610681610672565b61068c81848461064d565b505050565b5b818110156106af576106a45f82610679565b600181019050610692565b5050565b601f8211156106f4576106c581610593565b6106ce846105a5565b810160208510156106dd578190505b6106f16106e9856105a5565b830182610691565b50505b505050565b5f82821c905092915050565b5f6107145f19846008026106f9565b1980831691505092915050565b5f61072c8383610705565b9150826002028217905092915050565b610745826104ff565b67ffffffffffffffff81111561075e5761075d610509565b5b6107688254610563565b6107738282856106b3565b5f60209050601f8311600181146107a4575f8415610792578287015190505b61079c8582610721565b865550610803565b601f1984166107b286610593565b5f5b828110156107d9578489015182556001820191506020850194506020810190506107b4565b868310156107f657848901516107f2601f891682610705565b8355505b6001600288020188555050505b505050505050565b610518806108185f395ff3fe608060405234801561000f575f5ffd5b5060043610610029575f3560e01c80630cbc513a1461002d575b5f5ffd5b610047600480360381019061004291906101ac565b61005d565b6040516100549190610247565b60405180910390f35b60605f8211801561006f5750610fa082105b6100ae576040517f08c379a00000000000000000000000000000000000000000000000000000000081526004016100a5906102d7565b60405180910390fd5b60605f8390505f5f90505b5f8054905081101561016a575b5f81815481106100d9576100d86102f5565b5b905f5260205f20015482106101555782600182815481106100fd576100fc6102f5565b5b905f5260205f200160405160200161011692919061045f565b60405160208183030381529060405292505f818154811061013a576101396102f5565b5b905f5260205f2001548261014e91906104af565b91506100c6565b5f82031561016a5780806001019150506100b9565b508192505050919050565b5f5ffd5b5f819050919050565b61018b81610179565b8114610195575f5ffd5b50565b5f813590506101a681610182565b92915050565b5f602082840312156101c1576101c0610175565b5b5f6101ce84828501610198565b91505092915050565b5f81519050919050565b5f82825260208201905092915050565b8281835e5f83830152505050565b5f601f19601f8301169050919050565b5f610219826101d7565b61022381856101e1565b93506102338185602086016101f1565b61023c816101ff565b840191505092915050565b5f6020820190508181035f83015261025f818461020f565b905092915050565b7f4e756d626572206d757374206265206265747765656e203120616e64203339395f8201527f3900000000000000000000000000000000000000000000000000000000000000602082015250565b5f6102c16021836101e1565b91506102cc82610267565b604082019050919050565b5f6020820190508181035f8301526102ee816102b5565b9050919050565b7f4e487b71000000000000000000000000000000000000000000000000000000005f52603260045260245ffd5b5f81519050919050565b5f81905092915050565b5f61034082610322565b61034a818561032c565b935061035a8185602086016101f1565b80840191505092915050565b7f4e487b71000000000000000000000000000000000000000000000000000000005f52602260045260245ffd5b5f60028204905060018216806103aa57607f821691505b6020821081036103bd576103bc610366565b5b50919050565b5f81905092915050565b5f819050815f5260205f209050919050565b5f81546103eb81610393565b6103f581866103c3565b9450600182165f811461040f576001811461042457610456565b60ff1983168652811515820286019350610456565b61042d856103cd565b5f5b8381101561044e5781548189015260018201915060208101905061042f565b838801955050505b50505092915050565b5f61046a8285610336565b915061047682846103df565b91508190509392505050565b7f4e487b71000000000000000000000000000000000000000000000000000000005f52601160045260245ffd5b5f6104b982610179565b91506104c483610179565b92508282039050818111156104dc576104db610482565b5b9291505056fea2646970667358221220be4a4b3f493da9de92679e104d2d18a2c7890948ae0643af0e549072475aa0c764736f6c634300081e0033",
					"opcodes": "PUSH1 0x80 PUSH1 0x40 MSTORE CALLVALUE DUP1 ISZERO PUSH2 0xF JUMPI PUSH0 PUSH0 REVERT JUMPDEST POP PUSH1 0x40 MLOAD DUP1 PUSH2 0x1A0 ADD PUSH1 0x40 MSTORE DUP1 PUSH2 0x3E8 PUSH2 0xFFFF AND DUP2 MSTORE PUSH1 0x20 ADD PUSH2 0x384 PUSH2 0xFFFF AND DUP2 MSTORE PUSH1 0x20 ADD PUSH2 0x1F4 PUSH2 0xFFFF AND DUP2 MSTORE PUSH1 0x20 ADD PUSH2 0x190 PUSH2 0xFFFF AND DUP2 MSTORE PUSH1 0x20 ADD PUSH1 0x64 PUSH2 0xFFFF AND DUP2 MSTORE PUSH1 0x20 ADD PUSH1 0x5A PUSH2 0xFFFF AND DUP2 MSTORE PUSH1 0x20 ADD PUSH1 0x32 PUSH2 0xFFFF AND DUP2 MSTORE PUSH1 0x20 ADD PUSH1 0x28 PUSH2 0xFFFF AND DUP2 MSTORE PUSH1 0x20 ADD PUSH1 0xA PUSH2 0xFFFF AND DUP2 MSTORE PUSH1 0x20 ADD PUSH1 0x9 PUSH2 0xFFFF AND DUP2 MSTORE PUSH1 0x20 ADD PUSH1 0x5 PUSH2 0xFFFF AND DUP2 MSTORE PUSH1 0x20 ADD PUSH1 0x4 PUSH2 0xFFFF AND DUP2 MSTORE PUSH1 0x20 ADD PUSH1 0x1 PUSH2 0xFFFF AND DUP2 MSTORE POP PUSH0 SWAP1 PUSH1 0xD PUSH2 0xBC SWAP3 SWAP2 SWAP1 PUSH2 0x3DC JUMP JUMPDEST POP PUSH1 0x40 MLOAD DUP1 PUSH2 0x1A0 ADD PUSH1 0x40 MSTORE DUP1 PUSH1 0x40 MLOAD DUP1 PUSH1 0x40 ADD PUSH1 0x40 MSTORE DUP1 PUSH1 0x1 DUP2 MSTORE PUSH1 0x20 ADD PUSH32 0x4D00000000000000000000000000000000000000000000000000000000000000 DUP2 MSTORE POP DUP2 MSTORE PUSH1 0x20 ADD PUSH1 0x40 MLOAD DUP1 PUSH1 0x40 ADD PUSH1 0x40 MSTORE DUP1 PUSH1 0x2 DUP2 MSTORE PUSH1 0x20 ADD PUSH32 0x434D000000000000000000000000000000000000000000000000000000000000 DUP2 MSTORE POP DUP2 MSTORE PUSH1 0x20 ADD PUSH1 0x40 MLOAD DUP1 PUSH1 0x40 ADD PUSH1 0x40 MSTORE DUP1 PUSH1 0x1 DUP2 MSTORE PUSH1 0x20 ADD PUSH32 0x4400000000000000000000000000000000000000000000000000000000000000 DUP2 MSTORE POP DUP2 MSTORE PUSH1 0x20 ADD PUSH1 0x40 MLOAD DUP1 PUSH1 0x40 ADD PUSH1 0x40 MSTORE DUP1 PUSH1 0x2 DUP2 MSTORE PUSH1 0x20 ADD PUSH32 0x4344000000000000000000000000000000000000000000000000000000000000 DUP2 MSTORE POP DUP2 MSTORE PUSH1 0x20 ADD PUSH1 0x40 MLOAD DUP1 PUSH1 0x40 ADD PUSH1 0x40 MSTORE DUP1 PUSH1 0x1 DUP2 MSTORE PUSH1 0x20 ADD PUSH32 0x4300000000000000000000000000000000000000000000000000000000000000 DUP2 MSTORE POP DUP2 MSTORE PUSH1 0x20 ADD PUSH1 0x40 MLOAD DUP1 PUSH1 0x40 ADD PUSH1 0x40 MSTORE DUP1 PUSH1 0x2 DUP2 MSTORE PUSH1 0x20 ADD PUSH32 0x5843000000000000000000000000000000000000000000000000000000000000 DUP2 MSTORE POP DUP2 MSTORE PUSH1 0x20 ADD PUSH1 0x40 MLOAD DUP1 PUSH1 0x40 ADD PUSH1 0x40 MSTORE DUP1 PUSH1 0x1 DUP2 MSTORE PUSH1 0x20 ADD PUSH32 0x4C00000000000000000000000000000000000000000000000000000000000000 DUP2 MSTORE POP DUP2 MSTORE PUSH1 0x20 ADD PUSH1 0x40 MLOAD DUP1 PUSH1 0x40 ADD PUSH1 0x40 MSTORE DUP1 PUSH1 0x2 DUP2 MSTORE PUSH1 0x20 ADD PUSH32 0x584C000000000000000000000000000000000000000000000000000000000000 DUP2 MSTORE POP DUP2 MSTORE PUSH1 0x20 ADD PUSH1 0x40 MLOAD DUP1 PUSH1 0x40 ADD PUSH1 0x40 MSTORE DUP1 PUSH1 0x1 DUP2 MSTORE PUSH1 0x20 ADD PUSH32 0x5800000000000000000000000000000000000000000000000000000000000000 DUP2 MSTORE POP DUP2 MSTORE PUSH1 0x20 ADD PUSH1 0x40 MLOAD DUP1 PUSH1 0x40 ADD PUSH1 0x40 MSTORE DUP1 PUSH1 0x2 DUP2 MSTORE PUSH1 0x20 ADD PUSH32 0x4958000000000000000000000000000000000000000000000000000000000000 DUP2 MSTORE POP DUP2 MSTORE PUSH1 0x20 ADD PUSH1 0x40 MLOAD DUP1 PUSH1 0x40 ADD PUSH1 0x40 MSTORE DUP1 PUSH1 0x1 DUP2 MSTORE PUSH1 0x20 ADD PUSH32 0x5600000000000000000000000000000000000000000000000000000000000000 DUP2 MSTORE POP DUP2 MSTORE PUSH1 0x20 ADD PUSH1 0x40 MLOAD DUP1 PUSH1 0x40 ADD PUSH1 0x40 MSTORE DUP1 PUSH1 0x2 DUP2 MSTORE PUSH1 0x20 ADD PUSH32 0x4956000000000000000000000000000000000000000000000000000000000000 DUP2 MSTORE POP DUP2 MSTORE PUSH1 0x20 ADD PUSH1 0x40 MLOAD DUP1 PUSH1 0x40 ADD PUSH1 0x40 MSTORE DUP1 PUSH1 0x1 DUP2 MSTORE PUSH1 0x20 ADD PUSH32 0x4900000000000000000000000000000000000000000000000000000000000000 DUP2 MSTORE POP DUP2 MSTORE POP PUSH1 0x1 SWAP1 PUSH1 0xD PUSH2 0x3D6 SWAP3 SWAP2 SWAP1 PUSH2 0x42D JUMP JUMPDEST POP PUSH2 0x80B JUMP JUMPDEST DUP3 DUP1 SLOAD DUP3 DUP3 SSTORE SWAP1 PUSH0 MSTORE PUSH1 0x20 PUSH0 KECCAK256 SWAP1 DUP2 ADD SWAP3 DUP3 ISZERO PUSH2 0x41C JUMPI SWAP2 PUSH1 0x20 MUL DUP3 ADD JUMPDEST DUP3 DUP2 GT ISZERO PUSH2 0x41B JUMPI DUP3 MLOAD DUP3 SWAP1 PUSH2 0xFFFF AND SWAP1 SSTORE SWAP2 PUSH1 0x20 ADD SWAP2 SWAP1 PUSH1 0x1 ADD SWAP1 PUSH2 0x3FA JUMP JUMPDEST JUMPDEST POP SWAP1 POP PUSH2 0x429 SWAP2 SWAP1 PUSH2 0x484 JUMP JUMPDEST POP SWAP1 JUMP JUMPDEST DUP3 DUP1 SLOAD DUP3 DUP3 SSTORE SWAP1 PUSH0 MSTORE PUSH1 0x20 PUSH0 KECCAK256 SWAP1 DUP2 ADD SWAP3 DUP3 ISZERO PUSH2 0x473 JUMPI SWAP2 PUSH1 0x20 MUL DUP3 ADD JUMPDEST DUP3 DUP2 GT ISZERO PUSH2 0x472 JUMPI DUP3 MLOAD DUP3 SWAP1 DUP2 PUSH2 0x462 SWAP2 SWAP1 PUSH2 0x73C JUMP JUMPDEST POP SWAP2 PUSH1 0x20 ADD SWAP2 SWAP1 PUSH1 0x1 ADD SWAP1 PUSH2 0x44B JUMP JUMPDEST JUMPDEST POP SWAP1 POP PUSH2 0x480 SWAP2 SWAP1 PUSH2 0x49F JUMP JUMPDEST POP SWAP1 JUMP JUMPDEST JUMPDEST DUP1 DUP3 GT ISZERO PUSH2 0x49B JUMPI PUSH0 DUP2 PUSH0 SWAP1 SSTORE POP PUSH1 0x1 ADD PUSH2 0x485 JUMP JUMPDEST POP SWAP1 JUMP JUMPDEST JUMPDEST DUP1 DUP3 GT ISZERO PUSH2 0x4BE JUMPI PUSH0 DUP2 DUP2 PUSH2 0x4B5 SWAP2 SWAP1 PUSH2 0x4C2 JUMP JUMPDEST POP PUSH1 0x1 ADD PUSH2 0x4A0 JUMP JUMPDEST POP SWAP1 JUMP JUMPDEST POP DUP1 SLOAD PUSH2 0x4CE SWAP1 PUSH2 0x563 JUMP JUMPDEST PUSH0 DUP3 SSTORE DUP1 PUSH1 0x1F LT PUSH2 0x4DF JUMPI POP PUSH2 0x4FC JUMP JUMPDEST PUSH1 0x1F ADD PUSH1 0x20 SWAP1 DIV SWAP1 PUSH0 MSTORE PUSH1 0x20 PUSH0 KECCAK256 SWAP1 DUP2 ADD SWAP1 PUSH2 0x4FB SWAP2 SWAP1 PUSH2 0x484 JUMP JUMPDEST JUMPDEST POP JUMP JUMPDEST PUSH0 DUP2 MLOAD SWAP1 POP SWAP2 SWAP1 POP JUMP JUMPDEST PUSH32 0x4E487B7100000000000000000000000000000000000000000000000000000000 PUSH0 MSTORE PUSH1 0x41 PUSH1 0x4 MSTORE PUSH1 0x24 PUSH0 REVERT JUMPDEST PUSH32 0x4E487B7100000000000000000000000000000000000000000000000000000000 PUSH0 MSTORE PUSH1 0x22 PUSH1 0x4 MSTORE PUSH1 0x24 PUSH0 REVERT JUMPDEST PUSH0 PUSH1 0x2 DUP3 DIV SWAP1 POP PUSH1 0x1 DUP3 AND DUP1 PUSH2 0x57A JUMPI PUSH1 0x7F DUP3 AND SWAP2 POP JUMPDEST PUSH1 0x20 DUP3 LT DUP2 SUB PUSH2 0x58D JUMPI PUSH2 0x58C PUSH2 0x536 JUMP JUMPDEST JUMPDEST POP SWAP2 SWAP1 POP JUMP JUMPDEST PUSH0 DUP2 SWAP1 POP DUP2 PUSH0 MSTORE PUSH1 0x20 PUSH0 KECCAK256 SWAP1 POP SWAP2 SWAP1 POP JUMP JUMPDEST PUSH0 PUSH1 0x20 PUSH1 0x1F DUP4 ADD DIV SWAP1 POP SWAP2 SWAP1 POP JUMP JUMPDEST PUSH0 DUP3 DUP3 SHL SWAP1 POP SWAP3 SWAP2 POP POP JUMP JUMPDEST PUSH0 PUSH1 0x8 DUP4 MUL PUSH2 0x5EF PUSH32 0xFFFFFFFFFFFFFFFFFFFFFFFFFFFFFFFFFFFFFFFFFFFFFFFFFFFFFFFFFFFFFFFF DUP3 PUSH2 0x5B4 JUMP JUMPDEST PUSH2 0x5F9 DUP7 DUP4 PUSH2 0x5B4 JUMP JUMPDEST SWAP6 POP DUP1 NOT DUP5 AND SWAP4 POP DUP1 DUP7 AND DUP5 OR SWAP3 POP POP POP SWAP4 SWAP3 POP POP POP JUMP JUMPDEST PUSH0 DUP2 SWAP1 POP SWAP2 SWAP1 POP JUMP JUMPDEST PUSH0 DUP2 SWAP1 POP SWAP2 SWAP1 POP JUMP JUMPDEST PUSH0 PUSH2 0x63D PUSH2 0x638 PUSH2 0x633 DUP5 PUSH2 0x611 JUMP JUMPDEST PUSH2 0x61A JUMP JUMPDEST PUSH2 0x611 JUMP JUMPDEST SWAP1 POP SWAP2 SWAP1 POP JUMP JUMPDEST PUSH0 DUP2 SWAP1 POP SWAP2 SWAP1 POP JUMP JUMPDEST PUSH2 0x656 DUP4 PUSH2 0x623 JUMP JUMPDEST PUSH2 0x66A PUSH2 0x662 DUP3 PUSH2 0x644 JUMP JUMPDEST DUP5 DUP5 SLOAD PUSH2 0x5C0 JUMP JUMPDEST DUP3 SSTORE POP POP POP POP JUMP JUMPDEST PUSH0 PUSH0 SWAP1 POP SWAP1 JUMP JUMPDEST PUSH2 0x681 PUSH2 0x672 JUMP JUMPDEST PUSH2 0x68C DUP2 DUP5 DUP5 PUSH2 0x64D JUMP JUMPDEST POP POP POP JUMP JUMPDEST JUMPDEST DUP2 DUP2 LT ISZERO PUSH2 0x6AF JUMPI PUSH2 0x6A4 PUSH0 DUP3 PUSH2 0x679 JUMP JUMPDEST PUSH1 0x1 DUP2 ADD SWAP1 POP PUSH2 0x692 JUMP JUMPDEST POP POP JUMP JUMPDEST PUSH1 0x1F DUP3 GT ISZERO PUSH2 0x6F4 JUMPI PUSH2 0x6C5 DUP2 PUSH2 0x593 JUMP JUMPDEST PUSH2 0x6CE DUP5 PUSH2 0x5A5 JUMP JUMPDEST DUP2 ADD PUSH1 0x20 DUP6 LT ISZERO PUSH2 0x6DD JUMPI DUP2 SWAP1 POP JUMPDEST PUSH2 0x6F1 PUSH2 0x6E9 DUP6 PUSH2 0x5A5 JUMP JUMPDEST DUP4 ADD DUP3 PUSH2 0x691 JUMP JUMPDEST POP POP JUMPDEST POP POP POP JUMP JUMPDEST PUSH0 DUP3 DUP3 SHR SWAP1 POP SWAP3 SWAP2 POP POP JUMP JUMPDEST PUSH0 PUSH2 0x714 PUSH0 NOT DUP5 PUSH1 0x8 MUL PUSH2 0x6F9 JUMP JUMPDEST NOT DUP1 DUP4 AND SWAP2 POP POP SWAP3 SWAP2 POP POP JUMP JUMPDEST PUSH0 PUSH2 0x72C DUP4 DUP4 PUSH2 0x705 JUMP JUMPDEST SWAP2 POP DUP3 PUSH1 0x2 MUL DUP3 OR SWAP1 POP SWAP3 SWAP2 POP POP JUMP JUMPDEST PUSH2 0x745 DUP3 PUSH2 0x4FF JUMP JUMPDEST PUSH8 0xFFFFFFFFFFFFFFFF DUP2 GT ISZERO PUSH2 0x75E JUMPI PUSH2 0x75D PUSH2 0x509 JUMP JUMPDEST JUMPDEST PUSH2 0x768 DUP3 SLOAD PUSH2 0x563 JUMP JUMPDEST PUSH2 0x773 DUP3 DUP3 DUP6 PUSH2 0x6B3 JUMP JUMPDEST PUSH0 PUSH1 0x20 SWAP1 POP PUSH1 0x1F DUP4 GT PUSH1 0x1 DUP2 EQ PUSH2 0x7A4 JUMPI PUSH0 DUP5 ISZERO PUSH2 0x792 JUMPI DUP3 DUP8 ADD MLOAD SWAP1 POP JUMPDEST PUSH2 0x79C DUP6 DUP3 PUSH2 0x721 JUMP JUMPDEST DUP7 SSTORE POP PUSH2 0x803 JUMP JUMPDEST PUSH1 0x1F NOT DUP5 AND PUSH2 0x7B2 DUP7 PUSH2 0x593 JUMP JUMPDEST PUSH0 JUMPDEST DUP3 DUP2 LT ISZERO PUSH2 0x7D9 JUMPI DUP5 DUP10 ADD MLOAD DUP3 SSTORE PUSH1 0x1 DUP3 ADD SWAP2 POP PUSH1 0x20 DUP6 ADD SWAP5 POP PUSH1 0x20 DUP2 ADD SWAP1 POP PUSH2 0x7B4 JUMP JUMPDEST DUP7 DUP4 LT ISZERO PUSH2 0x7F6 JUMPI DUP5 DUP10 ADD MLOAD PUSH2 0x7F2 PUSH1 0x1F DUP10 AND DUP3 PUSH2 0x705 JUMP JUMPDEST DUP4 SSTORE POP JUMPDEST PUSH1 0x1 PUSH1 0x2 DUP9 MUL ADD DUP9 SSTORE POP POP POP JUMPDEST POP POP POP POP POP POP JUMP JUMPDEST PUSH2 0x518 DUP1 PUSH2 0x818 PUSH0 CODECOPY PUSH0 RETURN INVALID PUSH1 0x80 PUSH1 0x40 MSTORE CALLVALUE DUP1 ISZERO PUSH2 0xF JUMPI PUSH0 PUSH0 REVERT JUMPDEST POP PUSH1 0x4 CALLDATASIZE LT PUSH2 0x29 JUMPI PUSH0 CALLDATALOAD PUSH1 0xE0 SHR DUP1 PUSH4 0xCBC513A EQ PUSH2 0x2D JUMPI JUMPDEST PUSH0 PUSH0 REVERT JUMPDEST PUSH2 0x47 PUSH1 0x4 DUP1 CALLDATASIZE SUB DUP2 ADD SWAP1 PUSH2 0x42 SWAP2 SWAP1 PUSH2 0x1AC JUMP JUMPDEST PUSH2 0x5D JUMP JUMPDEST PUSH1 0x40 MLOAD PUSH2 0x54 SWAP2 SWAP1 PUSH2 0x247 JUMP JUMPDEST PUSH1 0x40 MLOAD DUP1 SWAP2 SUB SWAP1 RETURN JUMPDEST PUSH1 0x60 PUSH0 DUP3 GT DUP1 ISZERO PUSH2 0x6F JUMPI POP PUSH2 0xFA0 DUP3 LT JUMPDEST PUSH2 0xAE JUMPI PUSH1 0x40 MLOAD PUSH32 0x8C379A000000000000000000000000000000000000000000000000000000000 DUP2 MSTORE PUSH1 0x4 ADD PUSH2 0xA5 SWAP1 PUSH2 0x2D7 JUMP JUMPDEST PUSH1 0x40 MLOAD DUP1 SWAP2 SUB SWAP1 REVERT JUMPDEST PUSH1 0x60 PUSH0 DUP4 SWAP1 POP PUSH0 PUSH0 SWAP1 POP JUMPDEST PUSH0 DUP1 SLOAD SWAP1 POP DUP2 LT ISZERO PUSH2 0x16A JUMPI JUMPDEST PUSH0 DUP2 DUP2 SLOAD DUP2 LT PUSH2 0xD9 JUMPI PUSH2 0xD8 PUSH2 0x2F5 JUMP JUMPDEST JUMPDEST SWAP1 PUSH0 MSTORE PUSH1 0x20 PUSH0 KECCAK256 ADD SLOAD DUP3 LT PUSH2 0x155 JUMPI DUP3 PUSH1 0x1 DUP3 DUP2 SLOAD DUP2 LT PUSH2 0xFD JUMPI PUSH2 0xFC PUSH2 0x2F5 JUMP JUMPDEST JUMPDEST SWAP1 PUSH0 MSTORE PUSH1 0x20 PUSH0 KECCAK256 ADD PUSH1 0x40 MLOAD PUSH1 0x20 ADD PUSH2 0x116 SWAP3 SWAP2 SWAP1 PUSH2 0x45F JUMP JUMPDEST PUSH1 0x40 MLOAD PUSH1 0x20 DUP2 DUP4 SUB SUB DUP2 MSTORE SWAP1 PUSH1 0x40 MSTORE SWAP3 POP PUSH0 DUP2 DUP2 SLOAD DUP2 LT PUSH2 0x13A JUMPI PUSH2 0x139 PUSH2 0x2F5 JUMP JUMPDEST JUMPDEST SWAP1 PUSH0 MSTORE PUSH1 0x20 PUSH0 KECCAK256 ADD SLOAD DUP3 PUSH2 0x14E SWAP2 SWAP1 PUSH2 0x4AF JUMP JUMPDEST SWAP2 POP PUSH2 0xC6 JUMP JUMPDEST PUSH0 DUP3 SUB ISZERO PUSH2 0x16A JUMPI DUP1 DUP1 PUSH1 0x1 ADD SWAP2 POP POP PUSH2 0xB9 JUMP JUMPDEST POP DUP2 SWAP3 POP POP POP SWAP2 SWAP1 POP JUMP JUMPDEST PUSH0 PUSH0 REVERT JUMPDEST PUSH0 DUP2 SWAP1 POP SWAP2 SWAP1 POP JUMP JUMPDEST PUSH2 0x18B DUP2 PUSH2 0x179 JUMP JUMPDEST DUP2 EQ PUSH2 0x195 JUMPI PUSH0 PUSH0 REVERT JUMPDEST POP JUMP JUMPDEST PUSH0 DUP2 CALLDATALOAD SWAP1 POP PUSH2 0x1A6 DUP2 PUSH2 0x182 JUMP JUMPDEST SWAP3 SWAP2 POP POP JUMP JUMPDEST PUSH0 PUSH1 0x20 DUP3 DUP5 SUB SLT ISZERO PUSH2 0x1C1 JUMPI PUSH2 0x1C0 PUSH2 0x175 JUMP JUMPDEST JUMPDEST PUSH0 PUSH2 0x1CE DUP5 DUP3 DUP6 ADD PUSH2 0x198 JUMP JUMPDEST SWAP2 POP POP SWAP3 SWAP2 POP POP JUMP JUMPDEST PUSH0 DUP2 MLOAD SWAP1 POP SWAP2 SWAP1 POP JUMP JUMPDEST PUSH0 DUP3 DUP3 MSTORE PUSH1 0x20 DUP3 ADD SWAP1 POP SWAP3 SWAP2 POP POP JUMP JUMPDEST DUP3 DUP2 DUP4 MCOPY PUSH0 DUP4 DUP4 ADD MSTORE POP POP POP JUMP JUMPDEST PUSH0 PUSH1 0x1F NOT PUSH1 0x1F DUP4 ADD AND SWAP1 POP SWAP2 SWAP1 POP JUMP JUMPDEST PUSH0 PUSH2 0x219 DUP3 PUSH2 0x1D7 JUMP JUMPDEST PUSH2 0x223 DUP2 DUP6 PUSH2 0x1E1 JUMP JUMPDEST SWAP4 POP PUSH2 0x233 DUP2 DUP6 PUSH1 0x20 DUP7 ADD PUSH2 0x1F1 JUMP JUMPDEST PUSH2 0x23C DUP2 PUSH2 0x1FF JUMP JUMPDEST DUP5 ADD SWAP2 POP POP SWAP3 SWAP2 POP POP JUMP JUMPDEST PUSH0 PUSH1 0x20 DUP3 ADD SWAP1 POP DUP2 DUP2 SUB PUSH0 DUP4 ADD MSTORE PUSH2 0x25F DUP2 DUP5 PUSH2 0x20F JUMP JUMPDEST SWAP1 POP SWAP3 SWAP2 POP POP JUMP JUMPDEST PUSH32 0x4E756D626572206D757374206265206265747765656E203120616E6420333939 PUSH0 DUP3 ADD MSTORE PUSH32 0x3900000000000000000000000000000000000000000000000000000000000000 PUSH1 0x20 DUP3 ADD MSTORE POP JUMP JUMPDEST PUSH0 PUSH2 0x2C1 PUSH1 0x21 DUP4 PUSH2 0x1E1 JUMP JUMPDEST SWAP2 POP PUSH2 0x2CC DUP3 PUSH2 0x267 JUMP JUMPDEST PUSH1 0x40 DUP3 ADD SWAP1 POP SWAP2 SWAP1 POP JUMP JUMPDEST PUSH0 PUSH1 0x20 DUP3 ADD SWAP1 POP DUP2 DUP2 SUB PUSH0 DUP4 ADD MSTORE PUSH2 0x2EE DUP2 PUSH2 0x2B5 JUMP JUMPDEST SWAP1 POP SWAP2 SWAP1 POP JUMP JUMPDEST PUSH32 0x4E487B7100000000000000000000000000000000000000000000000000000000 PUSH0 MSTORE PUSH1 0x32 PUSH1 0x4 MSTORE PUSH1 0x24 PUSH0 REVERT JUMPDEST PUSH0 DUP2 MLOAD SWAP1 POP SWAP2 SWAP1 POP JUMP JUMPDEST PUSH0 DUP2 SWAP1 POP SWAP3 SWAP2 POP POP JUMP JUMPDEST PUSH0 PUSH2 0x340 DUP3 PUSH2 0x322 JUMP JUMPDEST PUSH2 0x34A DUP2 DUP6 PUSH2 0x32C JUMP JUMPDEST SWAP4 POP PUSH2 0x35A DUP2 DUP6 PUSH1 0x20 DUP7 ADD PUSH2 0x1F1 JUMP JUMPDEST DUP1 DUP5 ADD SWAP2 POP POP SWAP3 SWAP2 POP POP JUMP JUMPDEST PUSH32 0x4E487B7100000000000000000000000000000000000000000000000000000000 PUSH0 MSTORE PUSH1 0x22 PUSH1 0x4 MSTORE PUSH1 0x24 PUSH0 REVERT JUMPDEST PUSH0 PUSH1 0x2 DUP3 DIV SWAP1 POP PUSH1 0x1 DUP3 AND DUP1 PUSH2 0x3AA JUMPI PUSH1 0x7F DUP3 AND SWAP2 POP JUMPDEST PUSH1 0x20 DUP3 LT DUP2 SUB PUSH2 0x3BD JUMPI PUSH2 0x3BC PUSH2 0x366 JUMP JUMPDEST JUMPDEST POP SWAP2 SWAP1 POP JUMP JUMPDEST PUSH0 DUP2 SWAP1 POP SWAP3 SWAP2 POP POP JUMP JUMPDEST PUSH0 DUP2 SWAP1 POP DUP2 PUSH0 MSTORE PUSH1 0x20 PUSH0 KECCAK256 SWAP1 POP SWAP2 SWAP1 POP JUMP JUMPDEST PUSH0 DUP2 SLOAD PUSH2 0x3EB DUP2 PUSH2 0x393 JUMP JUMPDEST PUSH2 0x3F5 DUP2 DUP7 PUSH2 0x3C3 JUMP JUMPDEST SWAP5 POP PUSH1 0x1 DUP3 AND PUSH0 DUP2 EQ PUSH2 0x40F JUMPI PUSH1 0x1 DUP2 EQ PUSH2 0x424 JUMPI PUSH2 0x456 JUMP JUMPDEST PUSH1 0xFF NOT DUP4 AND DUP7 MSTORE DUP2 ISZERO ISZERO DUP3 MUL DUP7 ADD SWAP4 POP PUSH2 0x456 JUMP JUMPDEST PUSH2 0x42D DUP6 PUSH2 0x3CD JUMP JUMPDEST PUSH0 JUMPDEST DUP4 DUP2 LT ISZERO PUSH2 0x44E JUMPI DUP2 SLOAD DUP2 DUP10 ADD MSTORE PUSH1 0x1 DUP3 ADD SWAP2 POP PUSH1 0x20 DUP2 ADD SWAP1 POP PUSH2 0x42F JUMP JUMPDEST DUP4 DUP9 ADD SWAP6 POP POP POP JUMPDEST POP POP POP SWAP3 SWAP2 POP POP JUMP JUMPDEST PUSH0 PUSH2 0x46A DUP3 DUP6 PUSH2 0x336 JUMP JUMPDEST SWAP2 POP PUSH2 0x476 DUP3 DUP5 PUSH2 0x3DF JUMP JUMPDEST SWAP2 POP DUP2 SWAP1 POP SWAP4 SWAP3 POP POP POP JUMP JUMPDEST PUSH32 0x4E487B7100000000000000000000000000000000000000000000000000000000 PUSH0 MSTORE PUSH1 0x11 PUSH1 0x4 MSTORE PUSH1 0x24 PUSH0 REVERT JUMPDEST PUSH0 PUSH2 0x4B9 DUP3 PUSH2 0x179 JUMP JUMPDEST SWAP2 POP PUSH2 0x4C4 DUP4 PUSH2 0x179 JUMP JUMPDEST SWAP3 POP DUP3 DUP3 SUB SWAP1 POP DUP2 DUP2 GT ISZERO PUSH2 0x4DC JUMPI PUSH2 0x4DB PUSH2 0x482 JUMP JUMPDEST JUMPDEST SWAP3 SWAP2 POP POP JUMP INVALID LOG2 PUSH5 0x6970667358 0x22 SLT KECCAK256 0xBE BLOBBASEFEE 0x4B EXTCODEHASH BLOBHASH RETURNDATASIZE 0xA9 0xDE SWAP3 PUSH8 0x9E104D2D18A2C789 MULMOD BASEFEE 0xAE MOD NUMBER 0xAF 0xE SLOAD SWAP1 PUSH19 0x475AA0C764736F6C634300081E003300000000 "
				},
				"gasEstimates": {
					"creation": {
						"codeDepositCost": "260800",
						"executionCost": "infinite",
						"totalCost": "infinite"
					},
					"external": {
						"intToRoman(uint256)": "infinite"
					}
				},
				"methodIdentifiers": {
					"intToRoman(uint256)": "0cbc513a"
				}
			},
			"storageLayout": {
				"storage": [
					{
						"astId": 212,
						"contract": "task1/test.sol:OptimizedIntegerToRoman",
						"label": "values",
						"offset": 0,
						"slot": "0",
						"type": "t_array(t_uint256)dyn_storage"
					},
					{
						"astId": 215,
						"contract": "task1/test.sol:OptimizedIntegerToRoman",
						"label": "symbols",
						"offset": 0,
						"slot": "1",
						"type": "t_array(t_string_storage)dyn_storage"
					}
				],
				"types": {
					"t_array(t_string_storage)dyn_storage": {
						"base": "t_string_storage",
						"encoding": "dynamic_array",
						"label": "string[]",
						"numberOfBytes": "32"
					},
					"t_array(t_uint256)dyn_storage": {
						"base": "t_uint256",
						"encoding": "dynamic_array",
						"label": "uint256[]",
						"numberOfBytes": "32"
					},
					"t_string_storage": {
						"encoding": "bytes",
						"label": "string",
						"numberOfBytes": "32"
					},
					"t_uint256": {
						"encoding": "inplace",
						"label": "uint256",
						"numberOfBytes": "32"
					}
				}
			},
			"userdoc": {
				"kind": "user",
				"methods": {},
				"version": 1
			}
		}
	}
}