{
	"task1/question1.sol": {
		"Voting": {
			"abi": [
				{
					"inputs": [
						{
							"internalType": "string",
							"name": "name",
							"type": "string"
						}
					],
					"name": "getVotes",
					"outputs": [
						{
							"internalType": "uint256",
							"name": "",
							"type": "uint256"
						}
					],
					"stateMutability": "view",
					"type": "function"
				},
				{
					"inputs": [],
					"name": "resetVotes",
					"outputs": [],
					"stateMutability": "nonpayable",
					"type": "function"
				},
				{
					"inputs": [
						{
							"internalType": "string",
							"name": "name",
							"type": "string"
						},
						{
							"internalType": "uint256",
							"name": "voteCount",
							"type": "uint256"
						}
					],
					"name": "vote",
					"outputs": [],
					"stateMutability": "nonpayable",
					"type": "function"
				}
			],
			"devdoc": {
				"kind": "dev",
				"methods": {},
				"version": 1
			},
			"evm": {
				"assembly": "    /* \"task1/question1.sol\":58:809  contract Voting {... */\n  mstore(0x40, 0x80)\n  callvalue\n  dup1\n  iszero\n  tag_1\n  jumpi\n  revert(0x00, 0x00)\ntag_1:\n  pop\n  dataSize(sub_0)\n  dup1\n  dataOffset(sub_0)\n  0x00\n  codecopy\n  0x00\n  return\nstop\n\nsub_0: assembly {\n        /* \"task1/question1.sol\":58:809  contract Voting {... */\n      mstore(0x40, 0x80)\n      callvalue\n      dup1\n      iszero\n      tag_1\n      jumpi\n      revert(0x00, 0x00)\n    tag_1:\n      pop\n      jumpi(tag_2, lt(calldatasize, 0x04))\n      shr(0xe0, calldataload(0x00))\n      dup1\n      0x805265e5\n      eq\n      tag_3\n      jumpi\n      dup1\n      0xa6385803\n      eq\n      tag_4\n      jumpi\n      dup1\n      0xb9830ff1\n      eq\n      tag_5\n      jumpi\n    tag_2:\n      revert(0x00, 0x00)\n        /* \"task1/question1.sol\":484:593  function getVotes(string memory name) public view returns (uint256) {... */\n    tag_3:\n      tag_6\n      0x04\n      dup1\n      calldatasize\n      sub\n      dup2\n      add\n      swap1\n      tag_7\n      swap2\n      swap1\n      tag_8\n      jump\t// in\n    tag_7:\n      tag_9\n      jump\t// in\n    tag_6:\n      mload(0x40)\n      tag_10\n      swap2\n      swap1\n      tag_11\n      jump\t// in\n    tag_10:\n      mload(0x40)\n      dup1\n      swap2\n      sub\n      swap1\n      return\n        /* \"task1/question1.sol\":279:414  function vote(string memory name, uint256 voteCount) public {... */\n    tag_4:\n      tag_12\n      0x04\n      dup1\n      calldatasize\n      sub\n      dup2\n      add\n      swap1\n      tag_13\n      swap2\n      swap1\n      tag_14\n      jump\t// in\n    tag_13:\n      tag_15\n      jump\t// in\n    tag_12:\n      stop\n        /* \"task1/question1.sol\":665:807  function resetVotes() public {... */\n    tag_5:\n      tag_16\n      tag_17\n      jump\t// in\n    tag_16:\n      stop\n        /* \"task1/question1.sol\":484:593  function getVotes(string memory name) public view returns (uint256) {... */\n    tag_9:\n        /* \"task1/question1.sol\":543:550  uint256 */\n      0x00\n        /* \"task1/question1.sol\":569:580  voteMapping */\n      0x00\n        /* \"task1/question1.sol\":581:585  name */\n      dup3\n        /* \"task1/question1.sol\":569:586  voteMapping[name] */\n      mload(0x40)\n      tag_19\n      swap2\n      swap1\n      tag_20\n      jump\t// in\n    tag_19:\n      swap1\n      dup2\n      mstore\n      0x20\n      add\n      mload(0x40)\n      dup1\n      swap2\n      sub\n      swap1\n      keccak256\n      sload\n        /* \"task1/question1.sol\":562:586  return voteMapping[name] */\n      swap1\n      pop\n        /* \"task1/question1.sol\":484:593  function getVotes(string memory name) public view returns (uint256) {... */\n      swap2\n      swap1\n      pop\n      jump\t// out\n        /* \"task1/question1.sol\":279:414  function vote(string memory name, uint256 voteCount) public {... */\n    tag_15:\n        /* \"task1/question1.sol\":370:379  voteCount */\n      dup1\n        /* \"task1/question1.sol\":349:360  voteMapping */\n      0x00\n        /* \"task1/question1.sol\":361:365  name */\n      dup4\n        /* \"task1/question1.sol\":349:366  voteMapping[name] */\n      mload(0x40)\n      tag_22\n      swap2\n      swap1\n      tag_20\n      jump\t// in\n    tag_22:\n      swap1\n      dup2\n      mstore\n      0x20\n      add\n      mload(0x40)\n      dup1\n      swap2\n      sub\n      swap1\n      keccak256\n      0x00\n        /* \"task1/question1.sol\":349:379  voteMapping[name] += voteCount */\n      dup3\n      dup3\n      sload\n      tag_23\n      swap2\n      swap1\n      tag_24\n      jump\t// in\n    tag_23:\n      swap3\n      pop\n      pop\n      dup2\n      swap1\n      sstore\n      pop\n        /* \"task1/question1.sol\":389:396  allUser */\n      0x01\n        /* \"task1/question1.sol\":402:406  name */\n      dup3\n        /* \"task1/question1.sol\":389:407  allUser.push(name) */\n      swap1\n      dup1\n      0x01\n      dup2\n      sload\n      add\n      dup1\n      dup3\n      sstore\n      dup1\n      swap2\n      pop\n      pop\n      0x01\n      swap1\n      sub\n      swap1\n      0x00\n      mstore\n      keccak256(0x00, 0x20)\n      add\n      0x00\n      swap1\n      swap2\n      swap1\n      swap2\n      swap1\n      swap2\n      pop\n      swap1\n      dup2\n      tag_26\n      swap2\n      swap1\n      tag_27\n      jump\t// in\n    tag_26:\n      pop\n        /* \"task1/question1.sol\":279:414  function vote(string memory name, uint256 voteCount) public {... */\n      pop\n      pop\n      jump\t// out\n        /* \"task1/question1.sol\":665:807  function resetVotes() public {... */\n    tag_17:\n        /* \"task1/question1.sol\":709:718  uint256 i */\n      0x00\n        /* \"task1/question1.sol\":721:722  0 */\n      0x00\n        /* \"task1/question1.sol\":709:722  uint256 i = 0 */\n      swap1\n      pop\n        /* \"task1/question1.sol\":704:801  for (uint256 i = 0; i < allUser.length; i++) {... */\n    tag_29:\n        /* \"task1/question1.sol\":728:735  allUser */\n      0x01\n        /* \"task1/question1.sol\":728:742  allUser.length */\n      dup1\n      sload\n      swap1\n      pop\n        /* \"task1/question1.sol\":724:725  i */\n      dup2\n        /* \"task1/question1.sol\":724:742  i < allUser.length */\n      lt\n        /* \"task1/question1.sol\":704:801  for (uint256 i = 0; i < allUser.length; i++) {... */\n      iszero\n      tag_30\n      jumpi\n        /* \"task1/question1.sol\":789:790  0 */\n      0x00\n        /* \"task1/question1.sol\":763:774  voteMapping */\n      0x00\n        /* \"task1/question1.sol\":775:782  allUser */\n      0x01\n        /* \"task1/question1.sol\":783:784  i */\n      dup4\n        /* \"task1/question1.sol\":775:785  allUser[i] */\n      dup2\n      sload\n      dup2\n      lt\n      tag_32\n      jumpi\n      tag_33\n      tag_34\n      jump\t// in\n    tag_33:\n    tag_32:\n      swap1\n      0x00\n      mstore\n      keccak256(0x00, 0x20)\n      add\n        /* \"task1/question1.sol\":763:786  voteMapping[allUser[i]] */\n      mload(0x40)\n      tag_36\n      swap2\n      swap1\n      tag_37\n      jump\t// in\n    tag_36:\n      swap1\n      dup2\n      mstore\n      0x20\n      add\n      mload(0x40)\n      dup1\n      swap2\n      sub\n      swap1\n      keccak256\n        /* \"task1/question1.sol\":763:790  voteMapping[allUser[i]] = 0 */\n      dup2\n      swap1\n      sstore\n      pop\n        /* \"task1/question1.sol\":744:747  i++ */\n      dup1\n      dup1\n      0x01\n      add\n      swap2\n      pop\n      pop\n        /* \"task1/question1.sol\":704:801  for (uint256 i = 0; i < allUser.length; i++) {... */\n      jump(tag_29)\n    tag_30:\n      pop\n        /* \"task1/question1.sol\":665:807  function resetVotes() public {... */\n      jump\t// out\n        /* \"#utility.yul\":7:82   */\n    tag_38:\n        /* \"#utility.yul\":40:46   */\n      0x00\n        /* \"#utility.yul\":73:75   */\n      0x40\n        /* \"#utility.yul\":67:76   */\n      mload\n        /* \"#utility.yul\":57:76   */\n      swap1\n      pop\n        /* \"#utility.yul\":7:82   */\n      swap1\n      jump\t// out\n        /* \"#utility.yul\":88:205   */\n    tag_39:\n        /* \"#utility.yul\":197:198   */\n      0x00\n        /* \"#utility.yul\":194:195   */\n      0x00\n        /* \"#utility.yul\":187:199   */\n      revert\n        /* \"#utility.yul\":211:328   */\n    tag_40:\n        /* \"#utility.yul\":320:321   */\n      0x00\n        /* \"#utility.yul\":317:318   */\n      0x00\n        /* \"#utility.yul\":310:322   */\n      revert\n        /* \"#utility.yul\":334:451   */\n    tag_41:\n        /* \"#utility.yul\":443:444   */\n      0x00\n        /* \"#utility.yul\":440:441   */\n      0x00\n        /* \"#utility.yul\":433:445   */\n      revert\n        /* \"#utility.yul\":457:574   */\n    tag_42:\n        /* \"#utility.yul\":566:567   */\n      0x00\n        /* \"#utility.yul\":563:564   */\n      0x00\n        /* \"#utility.yul\":556:568   */\n      revert\n        /* \"#utility.yul\":580:682   */\n    tag_43:\n        /* \"#utility.yul\":621:627   */\n      0x00\n        /* \"#utility.yul\":672:674   */\n      0x1f\n        /* \"#utility.yul\":668:675   */\n      not\n        /* \"#utility.yul\":663:665   */\n      0x1f\n        /* \"#utility.yul\":656:661   */\n      dup4\n        /* \"#utility.yul\":652:666   */\n      add\n        /* \"#utility.yul\":648:676   */\n      and\n        /* \"#utility.yul\":638:676   */\n      swap1\n      pop\n        /* \"#utility.yul\":580:682   */\n      swap2\n      swap1\n      pop\n      jump\t// out\n        /* \"#utility.yul\":688:868   */\n    tag_44:\n        /* \"#utility.yul\":736:813   */\n      0x4e487b7100000000000000000000000000000000000000000000000000000000\n        /* \"#utility.yul\":733:734   */\n      0x00\n        /* \"#utility.yul\":726:814   */\n      mstore\n        /* \"#utility.yul\":833:837   */\n      0x41\n        /* \"#utility.yul\":830:831   */\n      0x04\n        /* \"#utility.yul\":823:838   */\n      mstore\n        /* \"#utility.yul\":857:861   */\n      0x24\n        /* \"#utility.yul\":854:855   */\n      0x00\n        /* \"#utility.yul\":847:862   */\n      revert\n        /* \"#utility.yul\":874:1155   */\n    tag_45:\n        /* \"#utility.yul\":957:984   */\n      tag_87\n        /* \"#utility.yul\":979:983   */\n      dup3\n        /* \"#utility.yul\":957:984   */\n      tag_43\n      jump\t// in\n    tag_87:\n        /* \"#utility.yul\":949:955   */\n      dup2\n        /* \"#utility.yul\":945:985   */\n      add\n        /* \"#utility.yul\":1087:1093   */\n      dup2\n        /* \"#utility.yul\":1075:1085   */\n      dup2\n        /* \"#utility.yul\":1072:1094   */\n      lt\n        /* \"#utility.yul\":1051:1069   */\n      0xffffffffffffffff\n        /* \"#utility.yul\":1039:1049   */\n      dup3\n        /* \"#utility.yul\":1036:1070   */\n      gt\n        /* \"#utility.yul\":1033:1095   */\n      or\n        /* \"#utility.yul\":1030:1118   */\n      iszero\n      tag_88\n      jumpi\n        /* \"#utility.yul\":1098:1116   */\n      tag_89\n      tag_44\n      jump\t// in\n    tag_89:\n        /* \"#utility.yul\":1030:1118   */\n    tag_88:\n        /* \"#utility.yul\":1138:1148   */\n      dup1\n        /* \"#utility.yul\":1134:1136   */\n      0x40\n        /* \"#utility.yul\":1127:1149   */\n      mstore\n        /* \"#utility.yul\":917:1155   */\n      pop\n        /* \"#utility.yul\":874:1155   */\n      pop\n      pop\n      jump\t// out\n        /* \"#utility.yul\":1161:1290   */\n    tag_46:\n        /* \"#utility.yul\":1195:1201   */\n      0x00\n        /* \"#utility.yul\":1222:1242   */\n      tag_91\n      tag_38\n      jump\t// in\n    tag_91:\n        /* \"#utility.yul\":1212:1242   */\n      swap1\n      pop\n        /* \"#utility.yul\":1251:1284   */\n      tag_92\n        /* \"#utility.yul\":1279:1283   */\n      dup3\n        /* \"#utility.yul\":1271:1277   */\n      dup3\n        /* \"#utility.yul\":1251:1284   */\n      tag_45\n      jump\t// in\n    tag_92:\n        /* \"#utility.yul\":1161:1290   */\n      swap2\n      swap1\n      pop\n      jump\t// out\n        /* \"#utility.yul\":1296:1604   */\n    tag_47:\n        /* \"#utility.yul\":1358:1362   */\n      0x00\n        /* \"#utility.yul\":1448:1466   */\n      0xffffffffffffffff\n        /* \"#utility.yul\":1440:1446   */\n      dup3\n        /* \"#utility.yul\":1437:1467   */\n      gt\n        /* \"#utility.yul\":1434:1490   */\n      iszero\n      tag_94\n      jumpi\n        /* \"#utility.yul\":1470:1488   */\n      tag_95\n      tag_44\n      jump\t// in\n    tag_95:\n        /* \"#utility.yul\":1434:1490   */\n    tag_94:\n        /* \"#utility.yul\":1508:1537   */\n      tag_96\n        /* \"#utility.yul\":1530:1536   */\n      dup3\n        /* \"#utility.yul\":1508:1537   */\n      tag_43\n      jump\t// in\n    tag_96:\n        /* \"#utility.yul\":1500:1537   */\n      swap1\n      pop\n        /* \"#utility.yul\":1592:1596   */\n      0x20\n        /* \"#utility.yul\":1586:1590   */\n      dup2\n        /* \"#utility.yul\":1582:1597   */\n      add\n        /* \"#utility.yul\":1574:1597   */\n      swap1\n      pop\n        /* \"#utility.yul\":1296:1604   */\n      swap2\n      swap1\n      pop\n      jump\t// out\n        /* \"#utility.yul\":1610:1758   */\n    tag_48:\n        /* \"#utility.yul\":1708:1714   */\n      dup3\n        /* \"#utility.yul\":1703:1706   */\n      dup2\n        /* \"#utility.yul\":1698:1701   */\n      dup4\n        /* \"#utility.yul\":1685:1715   */\n      calldatacopy\n        /* \"#utility.yul\":1749:1750   */\n      0x00\n        /* \"#utility.yul\":1740:1746   */\n      dup4\n        /* \"#utility.yul\":1735:1738   */\n      dup4\n        /* \"#utility.yul\":1731:1747   */\n      add\n        /* \"#utility.yul\":1724:1751   */\n      mstore\n        /* \"#utility.yul\":1610:1758   */\n      pop\n      pop\n      pop\n      jump\t// out\n        /* \"#utility.yul\":1764:2189   */\n    tag_49:\n        /* \"#utility.yul\":1842:1847   */\n      0x00\n        /* \"#utility.yul\":1867:1933   */\n      tag_99\n        /* \"#utility.yul\":1883:1932   */\n      tag_100\n        /* \"#utility.yul\":1925:1931   */\n      dup5\n        /* \"#utility.yul\":1883:1932   */\n      tag_47\n      jump\t// in\n    tag_100:\n        /* \"#utility.yul\":1867:1933   */\n      tag_46\n      jump\t// in\n    tag_99:\n        /* \"#utility.yul\":1858:1933   */\n      swap1\n      pop\n        /* \"#utility.yul\":1956:1962   */\n      dup3\n        /* \"#utility.yul\":1949:1954   */\n      dup2\n        /* \"#utility.yul\":1942:1963   */\n      mstore\n        /* \"#utility.yul\":1994:1998   */\n      0x20\n        /* \"#utility.yul\":1987:1992   */\n      dup2\n        /* \"#utility.yul\":1983:1999   */\n      add\n        /* \"#utility.yul\":2032:2035   */\n      dup5\n        /* \"#utility.yul\":2023:2029   */\n      dup5\n        /* \"#utility.yul\":2018:2021   */\n      dup5\n        /* \"#utility.yul\":2014:2030   */\n      add\n        /* \"#utility.yul\":2011:2036   */\n      gt\n        /* \"#utility.yul\":2008:2120   */\n      iszero\n      tag_101\n      jumpi\n        /* \"#utility.yul\":2039:2118   */\n      tag_102\n      tag_42\n      jump\t// in\n    tag_102:\n        /* \"#utility.yul\":2008:2120   */\n    tag_101:\n        /* \"#utility.yul\":2129:2183   */\n      tag_103\n        /* \"#utility.yul\":2176:2182   */\n      dup5\n        /* \"#utility.yul\":2171:2174   */\n      dup3\n        /* \"#utility.yul\":2166:2169   */\n      dup6\n        /* \"#utility.yul\":2129:2183   */\n      tag_48\n      jump\t// in\n    tag_103:\n        /* \"#utility.yul\":1848:2189   */\n      pop\n        /* \"#utility.yul\":1764:2189   */\n      swap4\n      swap3\n      pop\n      pop\n      pop\n      jump\t// out\n        /* \"#utility.yul\":2209:2549   */\n    tag_50:\n        /* \"#utility.yul\":2265:2270   */\n      0x00\n        /* \"#utility.yul\":2314:2317   */\n      dup3\n        /* \"#utility.yul\":2307:2311   */\n      0x1f\n        /* \"#utility.yul\":2299:2305   */\n      dup4\n        /* \"#utility.yul\":2295:2312   */\n      add\n        /* \"#utility.yul\":2291:2318   */\n      slt\n        /* \"#utility.yul\":2281:2403   */\n      tag_105\n      jumpi\n        /* \"#utility.yul\":2322:2401   */\n      tag_106\n      tag_41\n      jump\t// in\n    tag_106:\n        /* \"#utility.yul\":2281:2403   */\n    tag_105:\n        /* \"#utility.yul\":2439:2445   */\n      dup2\n        /* \"#utility.yul\":2426:2446   */\n      calldataload\n        /* \"#utility.yul\":2464:2543   */\n      tag_107\n        /* \"#utility.yul\":2539:2542   */\n      dup5\n        /* \"#utility.yul\":2531:2537   */\n      dup3\n        /* \"#utility.yul\":2524:2528   */\n      0x20\n        /* \"#utility.yul\":2516:2522   */\n      dup7\n        /* \"#utility.yul\":2512:2529   */\n      add\n        /* \"#utility.yul\":2464:2543   */\n      tag_49\n      jump\t// in\n    tag_107:\n        /* \"#utility.yul\":2455:2543   */\n      swap2\n      pop\n        /* \"#utility.yul\":2271:2549   */\n      pop\n        /* \"#utility.yul\":2209:2549   */\n      swap3\n      swap2\n      pop\n      pop\n      jump\t// out\n        /* \"#utility.yul\":2555:3064   */\n    tag_8:\n        /* \"#utility.yul\":2624:2630   */\n      0x00\n        /* \"#utility.yul\":2673:2675   */\n      0x20\n        /* \"#utility.yul\":2661:2670   */\n      dup3\n        /* \"#utility.yul\":2652:2659   */\n      dup5\n        /* \"#utility.yul\":2648:2671   */\n      sub\n        /* \"#utility.yul\":2644:2676   */\n      slt\n        /* \"#utility.yul\":2641:2760   */\n      iszero\n      tag_109\n      jumpi\n        /* \"#utility.yul\":2679:2758   */\n      tag_110\n      tag_39\n      jump\t// in\n    tag_110:\n        /* \"#utility.yul\":2641:2760   */\n    tag_109:\n        /* \"#utility.yul\":2827:2828   */\n      0x00\n        /* \"#utility.yul\":2816:2825   */\n      dup3\n        /* \"#utility.yul\":2812:2829   */\n      add\n        /* \"#utility.yul\":2799:2830   */\n      calldataload\n        /* \"#utility.yul\":2857:2875   */\n      0xffffffffffffffff\n        /* \"#utility.yul\":2849:2855   */\n      dup2\n        /* \"#utility.yul\":2846:2876   */\n      gt\n        /* \"#utility.yul\":2843:2960   */\n      iszero\n      tag_111\n      jumpi\n        /* \"#utility.yul\":2879:2958   */\n      tag_112\n      tag_40\n      jump\t// in\n    tag_112:\n        /* \"#utility.yul\":2843:2960   */\n    tag_111:\n        /* \"#utility.yul\":2984:3047   */\n      tag_113\n        /* \"#utility.yul\":3039:3046   */\n      dup5\n        /* \"#utility.yul\":3030:3036   */\n      dup3\n        /* \"#utility.yul\":3019:3028   */\n      dup6\n        /* \"#utility.yul\":3015:3037   */\n      add\n        /* \"#utility.yul\":2984:3047   */\n      tag_50\n      jump\t// in\n    tag_113:\n        /* \"#utility.yul\":2974:3047   */\n      swap2\n      pop\n        /* \"#utility.yul\":2770:3057   */\n      pop\n        /* \"#utility.yul\":2555:3064   */\n      swap3\n      swap2\n      pop\n      pop\n      jump\t// out\n        /* \"#utility.yul\":3070:3147   */\n    tag_51:\n        /* \"#utility.yul\":3107:3114   */\n      0x00\n        /* \"#utility.yul\":3136:3141   */\n      dup2\n        /* \"#utility.yul\":3125:3141   */\n      swap1\n      pop\n        /* \"#utility.yul\":3070:3147   */\n      swap2\n      swap1\n      pop\n      jump\t// out\n        /* \"#utility.yul\":3153:3271   */\n    tag_52:\n        /* \"#utility.yul\":3240:3264   */\n      tag_116\n        /* \"#utility.yul\":3258:3263   */\n      dup2\n        /* \"#utility.yul\":3240:3264   */\n      tag_51\n      jump\t// in\n    tag_116:\n        /* \"#utility.yul\":3235:3238   */\n      dup3\n        /* \"#utility.yul\":3228:3265   */\n      mstore\n        /* \"#utility.yul\":3153:3271   */\n      pop\n      pop\n      jump\t// out\n        /* \"#utility.yul\":3277:3499   */\n    tag_11:\n        /* \"#utility.yul\":3370:3374   */\n      0x00\n        /* \"#utility.yul\":3408:3410   */\n      0x20\n        /* \"#utility.yul\":3397:3406   */\n      dup3\n        /* \"#utility.yul\":3393:3411   */\n      add\n        /* \"#utility.yul\":3385:3411   */\n      swap1\n      pop\n        /* \"#utility.yul\":3421:3492   */\n      tag_118\n        /* \"#utility.yul\":3489:3490   */\n      0x00\n        /* \"#utility.yul\":3478:3487   */\n      dup4\n        /* \"#utility.yul\":3474:3491   */\n      add\n        /* \"#utility.yul\":3465:3471   */\n      dup5\n        /* \"#utility.yul\":3421:3492   */\n      tag_52\n      jump\t// in\n    tag_118:\n        /* \"#utility.yul\":3277:3499   */\n      swap3\n      swap2\n      pop\n      pop\n      jump\t// out\n        /* \"#utility.yul\":3505:3627   */\n    tag_53:\n        /* \"#utility.yul\":3578:3602   */\n      tag_120\n        /* \"#utility.yul\":3596:3601   */\n      dup2\n        /* \"#utility.yul\":3578:3602   */\n      tag_51\n      jump\t// in\n    tag_120:\n        /* \"#utility.yul\":3571:3576   */\n      dup2\n        /* \"#utility.yul\":3568:3603   */\n      eq\n        /* \"#utility.yul\":3558:3621   */\n      tag_121\n      jumpi\n        /* \"#utility.yul\":3617:3618   */\n      0x00\n        /* \"#utility.yul\":3614:3615   */\n      0x00\n        /* \"#utility.yul\":3607:3619   */\n      revert\n        /* \"#utility.yul\":3558:3621   */\n    tag_121:\n        /* \"#utility.yul\":3505:3627   */\n      pop\n      jump\t// out\n        /* \"#utility.yul\":3633:3772   */\n    tag_54:\n        /* \"#utility.yul\":3679:3684   */\n      0x00\n        /* \"#utility.yul\":3717:3723   */\n      dup2\n        /* \"#utility.yul\":3704:3724   */\n      calldataload\n        /* \"#utility.yul\":3695:3724   */\n      swap1\n      pop\n        /* \"#utility.yul\":3733:3766   */\n      tag_123\n        /* \"#utility.yul\":3760:3765   */\n      dup2\n        /* \"#utility.yul\":3733:3766   */\n      tag_53\n      jump\t// in\n    tag_123:\n        /* \"#utility.yul\":3633:3772   */\n      swap3\n      swap2\n      pop\n      pop\n      jump\t// out\n        /* \"#utility.yul\":3778:4432   */\n    tag_14:\n        /* \"#utility.yul\":3856:3862   */\n      0x00\n        /* \"#utility.yul\":3864:3870   */\n      0x00\n        /* \"#utility.yul\":3913:3915   */\n      0x40\n        /* \"#utility.yul\":3901:3910   */\n      dup4\n        /* \"#utility.yul\":3892:3899   */\n      dup6\n        /* \"#utility.yul\":3888:3911   */\n      sub\n        /* \"#utility.yul\":3884:3916   */\n      slt\n        /* \"#utility.yul\":3881:4000   */\n      iszero\n      tag_125\n      jumpi\n        /* \"#utility.yul\":3919:3998   */\n      tag_126\n      tag_39\n      jump\t// in\n    tag_126:\n        /* \"#utility.yul\":3881:4000   */\n    tag_125:\n        /* \"#utility.yul\":4067:4068   */\n      0x00\n        /* \"#utility.yul\":4056:4065   */\n      dup4\n        /* \"#utility.yul\":4052:4069   */\n      add\n        /* \"#utility.yul\":4039:4070   */\n      calldataload\n        /* \"#utility.yul\":4097:4115   */\n      0xffffffffffffffff\n        /* \"#utility.yul\":4089:4095   */\n      dup2\n        /* \"#utility.yul\":4086:4116   */\n      gt\n        /* \"#utility.yul\":4083:4200   */\n      iszero\n      tag_127\n      jumpi\n        /* \"#utility.yul\":4119:4198   */\n      tag_128\n      tag_40\n      jump\t// in\n    tag_128:\n        /* \"#utility.yul\":4083:4200   */\n    tag_127:\n        /* \"#utility.yul\":4224:4287   */\n      tag_129\n        /* \"#utility.yul\":4279:4286   */\n      dup6\n        /* \"#utility.yul\":4270:4276   */\n      dup3\n        /* \"#utility.yul\":4259:4268   */\n      dup7\n        /* \"#utility.yul\":4255:4277   */\n      add\n        /* \"#utility.yul\":4224:4287   */\n      tag_50\n      jump\t// in\n    tag_129:\n        /* \"#utility.yul\":4214:4287   */\n      swap3\n      pop\n        /* \"#utility.yul\":4010:4297   */\n      pop\n        /* \"#utility.yul\":4336:4338   */\n      0x20\n        /* \"#utility.yul\":4362:4415   */\n      tag_130\n        /* \"#utility.yul\":4407:4414   */\n      dup6\n        /* \"#utility.yul\":4398:4404   */\n      dup3\n        /* \"#utility.yul\":4387:4396   */\n      dup7\n        /* \"#utility.yul\":4383:4405   */\n      add\n        /* \"#utility.yul\":4362:4415   */\n      tag_54\n      jump\t// in\n    tag_130:\n        /* \"#utility.yul\":4352:4415   */\n      swap2\n      pop\n        /* \"#utility.yul\":4307:4425   */\n      pop\n        /* \"#utility.yul\":3778:4432   */\n      swap3\n      pop\n      swap3\n      swap1\n      pop\n      jump\t// out\n        /* \"#utility.yul\":4438:4537   */\n    tag_55:\n        /* \"#utility.yul\":4490:4496   */\n      0x00\n        /* \"#utility.yul\":4524:4529   */\n      dup2\n        /* \"#utility.yul\":4518:4530   */\n      mload\n        /* \"#utility.yul\":4508:4530   */\n      swap1\n      pop\n        /* \"#utility.yul\":4438:4537   */\n      swap2\n      swap1\n      pop\n      jump\t// out\n        /* \"#utility.yul\":4543:4691   */\n    tag_56:\n        /* \"#utility.yul\":4645:4656   */\n      0x00\n        /* \"#utility.yul\":4682:4685   */\n      dup2\n        /* \"#utility.yul\":4667:4685   */\n      swap1\n      pop\n        /* \"#utility.yul\":4543:4691   */\n      swap3\n      swap2\n      pop\n      pop\n      jump\t// out\n        /* \"#utility.yul\":4697:4836   */\n    tag_57:\n        /* \"#utility.yul\":4786:4792   */\n      dup3\n        /* \"#utility.yul\":4781:4784   */\n      dup2\n        /* \"#utility.yul\":4776:4779   */\n      dup4\n        /* \"#utility.yul\":4770:4793   */\n      mcopy\n        /* \"#utility.yul\":4827:4828   */\n      0x00\n        /* \"#utility.yul\":4818:4824   */\n      dup4\n        /* \"#utility.yul\":4813:4816   */\n      dup4\n        /* \"#utility.yul\":4809:4825   */\n      add\n        /* \"#utility.yul\":4802:4829   */\n      mstore\n        /* \"#utility.yul\":4697:4836   */\n      pop\n      pop\n      pop\n      jump\t// out\n        /* \"#utility.yul\":4842:5232   */\n    tag_58:\n        /* \"#utility.yul\":4948:4951   */\n      0x00\n        /* \"#utility.yul\":4976:5015   */\n      tag_135\n        /* \"#utility.yul\":5009:5014   */\n      dup3\n        /* \"#utility.yul\":4976:5015   */\n      tag_55\n      jump\t// in\n    tag_135:\n        /* \"#utility.yul\":5031:5120   */\n      tag_136\n        /* \"#utility.yul\":5113:5119   */\n      dup2\n        /* \"#utility.yul\":5108:5111   */\n      dup6\n        /* \"#utility.yul\":5031:5120   */\n      tag_56\n      jump\t// in\n    tag_136:\n        /* \"#utility.yul\":5024:5120   */\n      swap4\n      pop\n        /* \"#utility.yul\":5129:5194   */\n      tag_137\n        /* \"#utility.yul\":5187:5193   */\n      dup2\n        /* \"#utility.yul\":5182:5185   */\n      dup6\n        /* \"#utility.yul\":5175:5179   */\n      0x20\n        /* \"#utility.yul\":5168:5173   */\n      dup7\n        /* \"#utility.yul\":5164:5180   */\n      add\n        /* \"#utility.yul\":5129:5194   */\n      tag_57\n      jump\t// in\n    tag_137:\n        /* \"#utility.yul\":5219:5225   */\n      dup1\n        /* \"#utility.yul\":5214:5217   */\n      dup5\n        /* \"#utility.yul\":5210:5226   */\n      add\n        /* \"#utility.yul\":5203:5226   */\n      swap2\n      pop\n        /* \"#utility.yul\":4952:5232   */\n      pop\n        /* \"#utility.yul\":4842:5232   */\n      swap3\n      swap2\n      pop\n      pop\n      jump\t// out\n        /* \"#utility.yul\":5238:5513   */\n    tag_20:\n        /* \"#utility.yul\":5370:5373   */\n      0x00\n        /* \"#utility.yul\":5392:5487   */\n      tag_139\n        /* \"#utility.yul\":5483:5486   */\n      dup3\n        /* \"#utility.yul\":5474:5480   */\n      dup5\n        /* \"#utility.yul\":5392:5487   */\n      tag_58\n      jump\t// in\n    tag_139:\n        /* \"#utility.yul\":5385:5487   */\n      swap2\n      pop\n        /* \"#utility.yul\":5504:5507   */\n      dup2\n        /* \"#utility.yul\":5497:5507   */\n      swap1\n      pop\n        /* \"#utility.yul\":5238:5513   */\n      swap3\n      swap2\n      pop\n      pop\n      jump\t// out\n        /* \"#utility.yul\":5519:5699   */\n    tag_59:\n        /* \"#utility.yul\":5567:5644   */\n      0x4e487b7100000000000000000000000000000000000000000000000000000000\n        /* \"#utility.yul\":5564:5565   */\n      0x00\n        /* \"#utility.yul\":5557:5645   */\n      mstore\n        /* \"#utility.yul\":5664:5668   */\n      0x11\n        /* \"#utility.yul\":5661:5662   */\n      0x04\n        /* \"#utility.yul\":5654:5669   */\n      mstore\n        /* \"#utility.yul\":5688:5692   */\n      0x24\n        /* \"#utility.yul\":5685:5686   */\n      0x00\n        /* \"#utility.yul\":5678:5693   */\n      revert\n        /* \"#utility.yul\":5705:5896   */\n    tag_24:\n        /* \"#utility.yul\":5745:5748   */\n      0x00\n        /* \"#utility.yul\":5764:5784   */\n      tag_142\n        /* \"#utility.yul\":5782:5783   */\n      dup3\n        /* \"#utility.yul\":5764:5784   */\n      tag_51\n      jump\t// in\n    tag_142:\n        /* \"#utility.yul\":5759:5784   */\n      swap2\n      pop\n        /* \"#utility.yul\":5798:5818   */\n      tag_143\n        /* \"#utility.yul\":5816:5817   */\n      dup4\n        /* \"#utility.yul\":5798:5818   */\n      tag_51\n      jump\t// in\n    tag_143:\n        /* \"#utility.yul\":5793:5818   */\n      swap3\n      pop\n        /* \"#utility.yul\":5841:5842   */\n      dup3\n        /* \"#utility.yul\":5838:5839   */\n      dup3\n        /* \"#utility.yul\":5834:5843   */\n      add\n        /* \"#utility.yul\":5827:5843   */\n      swap1\n      pop\n        /* \"#utility.yul\":5862:5865   */\n      dup1\n        /* \"#utility.yul\":5859:5860   */\n      dup3\n        /* \"#utility.yul\":5856:5866   */\n      gt\n        /* \"#utility.yul\":5853:5889   */\n      iszero\n      tag_144\n      jumpi\n        /* \"#utility.yul\":5869:5887   */\n      tag_145\n      tag_59\n      jump\t// in\n    tag_145:\n        /* \"#utility.yul\":5853:5889   */\n    tag_144:\n        /* \"#utility.yul\":5705:5896   */\n      swap3\n      swap2\n      pop\n      pop\n      jump\t// out\n        /* \"#utility.yul\":5902:6082   */\n    tag_60:\n        /* \"#utility.yul\":5950:6027   */\n      0x4e487b7100000000000000000000000000000000000000000000000000000000\n        /* \"#utility.yul\":5947:5948   */\n      0x00\n        /* \"#utility.yul\":5940:6028   */\n      mstore\n        /* \"#utility.yul\":6047:6051   */\n      0x22\n        /* \"#utility.yul\":6044:6045   */\n      0x04\n        /* \"#utility.yul\":6037:6052   */\n      mstore\n        /* \"#utility.yul\":6071:6075   */\n      0x24\n        /* \"#utility.yul\":6068:6069   */\n      0x00\n        /* \"#utility.yul\":6061:6076   */\n      revert\n        /* \"#utility.yul\":6088:6408   */\n    tag_61:\n        /* \"#utility.yul\":6132:6138   */\n      0x00\n        /* \"#utility.yul\":6169:6170   */\n      0x02\n        /* \"#utility.yul\":6163:6167   */\n      dup3\n        /* \"#utility.yul\":6159:6171   */\n      div\n        /* \"#utility.yul\":6149:6171   */\n      swap1\n      pop\n        /* \"#utility.yul\":6216:6217   */\n      0x01\n        /* \"#utility.yul\":6210:6214   */\n      dup3\n        /* \"#utility.yul\":6206:6218   */\n      and\n        /* \"#utility.yul\":6237:6255   */\n      dup1\n        /* \"#utility.yul\":6227:6308   */\n      tag_148\n      jumpi\n        /* \"#utility.yul\":6293:6297   */\n      0x7f\n        /* \"#utility.yul\":6285:6291   */\n      dup3\n        /* \"#utility.yul\":6281:6298   */\n      and\n        /* \"#utility.yul\":6271:6298   */\n      swap2\n      pop\n        /* \"#utility.yul\":6227:6308   */\n    tag_148:\n        /* \"#utility.yul\":6355:6357   */\n      0x20\n        /* \"#utility.yul\":6347:6353   */\n      dup3\n        /* \"#utility.yul\":6344:6358   */\n      lt\n        /* \"#utility.yul\":6324:6342   */\n      dup2\n        /* \"#utility.yul\":6321:6359   */\n      sub\n        /* \"#utility.yul\":6318:6402   */\n      tag_149\n      jumpi\n        /* \"#utility.yul\":6374:6392   */\n      tag_150\n      tag_60\n      jump\t// in\n    tag_150:\n        /* \"#utility.yul\":6318:6402   */\n    tag_149:\n        /* \"#utility.yul\":6139:6408   */\n      pop\n        /* \"#utility.yul\":6088:6408   */\n      swap2\n      swap1\n      pop\n      jump\t// out\n        /* \"#utility.yul\":6414:6555   */\n    tag_62:\n        /* \"#utility.yul\":6463:6467   */\n      0x00\n        /* \"#utility.yul\":6486:6489   */\n      dup2\n        /* \"#utility.yul\":6478:6489   */\n      swap1\n      pop\n        /* \"#utility.yul\":6509:6512   */\n      dup2\n        /* \"#utility.yul\":6506:6507   */\n      0x00\n        /* \"#utility.yul\":6499:6513   */\n      mstore\n        /* \"#utility.yul\":6543:6547   */\n      0x20\n        /* \"#utility.yul\":6540:6541   */\n      0x00\n        /* \"#utility.yul\":6530:6548   */\n      keccak256\n        /* \"#utility.yul\":6522:6548   */\n      swap1\n      pop\n        /* \"#utility.yul\":6414:6555   */\n      swap2\n      swap1\n      pop\n      jump\t// out\n        /* \"#utility.yul\":6561:6654   */\n    tag_63:\n        /* \"#utility.yul\":6598:6604   */\n      0x00\n        /* \"#utility.yul\":6645:6647   */\n      0x20\n        /* \"#utility.yul\":6640:6642   */\n      0x1f\n        /* \"#utility.yul\":6633:6638   */\n      dup4\n        /* \"#utility.yul\":6629:6643   */\n      add\n        /* \"#utility.yul\":6625:6648   */\n      div\n        /* \"#utility.yul\":6615:6648   */\n      swap1\n      pop\n        /* \"#utility.yul\":6561:6654   */\n      swap2\n      swap1\n      pop\n      jump\t// out\n        /* \"#utility.yul\":6660:6767   */\n    tag_64:\n        /* \"#utility.yul\":6704:6712   */\n      0x00\n        /* \"#utility.yul\":6754:6759   */\n      dup3\n        /* \"#utility.yul\":6748:6752   */\n      dup3\n        /* \"#utility.yul\":6744:6760   */\n      shl\n        /* \"#utility.yul\":6723:6760   */\n      swap1\n      pop\n        /* \"#utility.yul\":6660:6767   */\n      swap3\n      swap2\n      pop\n      pop\n      jump\t// out\n        /* \"#utility.yul\":6773:7166   */\n    tag_65:\n        /* \"#utility.yul\":6842:6848   */\n      0x00\n        /* \"#utility.yul\":6892:6893   */\n      0x08\n        /* \"#utility.yul\":6880:6890   */\n      dup4\n        /* \"#utility.yul\":6876:6894   */\n      mul\n        /* \"#utility.yul\":6915:7012   */\n      tag_155\n        /* \"#utility.yul\":6945:7011   */\n      0xffffffffffffffffffffffffffffffffffffffffffffffffffffffffffffffff\n        /* \"#utility.yul\":6934:6943   */\n      dup3\n        /* \"#utility.yul\":6915:7012   */\n      tag_64\n      jump\t// in\n    tag_155:\n        /* \"#utility.yul\":7033:7072   */\n      tag_156\n        /* \"#utility.yul\":7063:7071   */\n      dup7\n        /* \"#utility.yul\":7052:7061   */\n      dup4\n        /* \"#utility.yul\":7033:7072   */\n      tag_64\n      jump\t// in\n    tag_156:\n        /* \"#utility.yul\":7021:7072   */\n      swap6\n      pop\n        /* \"#utility.yul\":7105:7109   */\n      dup1\n        /* \"#utility.yul\":7101:7110   */\n      not\n        /* \"#utility.yul\":7094:7099   */\n      dup5\n        /* \"#utility.yul\":7090:7111   */\n      and\n        /* \"#utility.yul\":7081:7111   */\n      swap4\n      pop\n        /* \"#utility.yul\":7154:7158   */\n      dup1\n        /* \"#utility.yul\":7144:7152   */\n      dup7\n        /* \"#utility.yul\":7140:7159   */\n      and\n        /* \"#utility.yul\":7133:7138   */\n      dup5\n        /* \"#utility.yul\":7130:7160   */\n      or\n        /* \"#utility.yul\":7120:7160   */\n      swap3\n      pop\n        /* \"#utility.yul\":6849:7166   */\n      pop\n      pop\n        /* \"#utility.yul\":6773:7166   */\n      swap4\n      swap3\n      pop\n      pop\n      pop\n      jump\t// out\n        /* \"#utility.yul\":7172:7232   */\n    tag_66:\n        /* \"#utility.yul\":7200:7203   */\n      0x00\n        /* \"#utility.yul\":7221:7226   */\n      dup2\n        /* \"#utility.yul\":7214:7226   */\n      swap1\n      pop\n        /* \"#utility.yul\":7172:7232   */\n      swap2\n      swap1\n      pop\n      jump\t// out\n        /* \"#utility.yul\":7238:7380   */\n    tag_67:\n        /* \"#utility.yul\":7288:7297   */\n      0x00\n        /* \"#utility.yul\":7321:7374   */\n      tag_159\n        /* \"#utility.yul\":7339:7373   */\n      tag_160\n        /* \"#utility.yul\":7348:7372   */\n      tag_161\n        /* \"#utility.yul\":7366:7371   */\n      dup5\n        /* \"#utility.yul\":7348:7372   */\n      tag_51\n      jump\t// in\n    tag_161:\n        /* \"#utility.yul\":7339:7373   */\n      tag_66\n      jump\t// in\n    tag_160:\n        /* \"#utility.yul\":7321:7374   */\n      tag_51\n      jump\t// in\n    tag_159:\n        /* \"#utility.yul\":7308:7374   */\n      swap1\n      pop\n        /* \"#utility.yul\":7238:7380   */\n      swap2\n      swap1\n      pop\n      jump\t// out\n        /* \"#utility.yul\":7386:7461   */\n    tag_68:\n        /* \"#utility.yul\":7429:7432   */\n      0x00\n        /* \"#utility.yul\":7450:7455   */\n      dup2\n        /* \"#utility.yul\":7443:7455   */\n      swap1\n      pop\n        /* \"#utility.yul\":7386:7461   */\n      swap2\n      swap1\n      pop\n      jump\t// out\n        /* \"#utility.yul\":7467:7736   */\n    tag_69:\n        /* \"#utility.yul\":7577:7616   */\n      tag_164\n        /* \"#utility.yul\":7608:7615   */\n      dup4\n        /* \"#utility.yul\":7577:7616   */\n      tag_67\n      jump\t// in\n    tag_164:\n        /* \"#utility.yul\":7638:7729   */\n      tag_165\n        /* \"#utility.yul\":7687:7728   */\n      tag_166\n        /* \"#utility.yul\":7711:7727   */\n      dup3\n        /* \"#utility.yul\":7687:7728   */\n      tag_68\n      jump\t// in\n    tag_166:\n        /* \"#utility.yul\":7679:7685   */\n      dup5\n        /* \"#utility.yul\":7672:7676   */\n      dup5\n        /* \"#utility.yul\":7666:7677   */\n      sload\n        /* \"#utility.yul\":7638:7729   */\n      tag_65\n      jump\t// in\n    tag_165:\n        /* \"#utility.yul\":7632:7636   */\n      dup3\n        /* \"#utility.yul\":7625:7730   */\n      sstore\n        /* \"#utility.yul\":7543:7736   */\n      pop\n        /* \"#utility.yul\":7467:7736   */\n      pop\n      pop\n      pop\n      jump\t// out\n        /* \"#utility.yul\":7742:7815   */\n    tag_70:\n        /* \"#utility.yul\":7787:7790   */\n      0x00\n        /* \"#utility.yul\":7808:7809   */\n      0x00\n        /* \"#utility.yul\":7801:7809   */\n      swap1\n      pop\n        /* \"#utility.yul\":7742:7815   */\n      swap1\n      jump\t// out\n        /* \"#utility.yul\":7821:8010   */\n    tag_71:\n        /* \"#utility.yul\":7898:7930   */\n      tag_169\n      tag_70\n      jump\t// in\n    tag_169:\n        /* \"#utility.yul\":7939:8004   */\n      tag_170\n        /* \"#utility.yul\":7997:8003   */\n      dup2\n        /* \"#utility.yul\":7989:7995   */\n      dup5\n        /* \"#utility.yul\":7983:7987   */\n      dup5\n        /* \"#utility.yul\":7939:8004   */\n      tag_69\n      jump\t// in\n    tag_170:\n        /* \"#utility.yul\":7874:8010   */\n      pop\n        /* \"#utility.yul\":7821:8010   */\n      pop\n      pop\n      jump\t// out\n        /* \"#utility.yul\":8016:8202   */\n    tag_72:\n        /* \"#utility.yul\":8076:8196   */\n    tag_172:\n        /* \"#utility.yul\":8093:8096   */\n      dup2\n        /* \"#utility.yul\":8086:8091   */\n      dup2\n        /* \"#utility.yul\":8083:8097   */\n      lt\n        /* \"#utility.yul\":8076:8196   */\n      iszero\n      tag_174\n      jumpi\n        /* \"#utility.yul\":8147:8186   */\n      tag_175\n        /* \"#utility.yul\":8184:8185   */\n      0x00\n        /* \"#utility.yul\":8177:8182   */\n      dup3\n        /* \"#utility.yul\":8147:8186   */\n      tag_71\n      jump\t// in\n    tag_175:\n        /* \"#utility.yul\":8120:8121   */\n      0x01\n        /* \"#utility.yul\":8113:8118   */\n      dup2\n        /* \"#utility.yul\":8109:8122   */\n      add\n        /* \"#utility.yul\":8100:8122   */\n      swap1\n      pop\n        /* \"#utility.yul\":8076:8196   */\n      jump(tag_172)\n    tag_174:\n        /* \"#utility.yul\":8016:8202   */\n      pop\n      pop\n      jump\t// out\n        /* \"#utility.yul\":8208:8751   */\n    tag_73:\n        /* \"#utility.yul\":8309:8311   */\n      0x1f\n        /* \"#utility.yul\":8304:8307   */\n      dup3\n        /* \"#utility.yul\":8301:8312   */\n      gt\n        /* \"#utility.yul\":8298:8744   */\n      iszero\n      tag_177\n      jumpi\n        /* \"#utility.yul\":8343:8381   */\n      tag_178\n        /* \"#utility.yul\":8375:8380   */\n      dup2\n        /* \"#utility.yul\":8343:8381   */\n      tag_62\n      jump\t// in\n    tag_178:\n        /* \"#utility.yul\":8427:8456   */\n      tag_179\n        /* \"#utility.yul\":8445:8455   */\n      dup5\n        /* \"#utility.yul\":8427:8456   */\n      tag_63\n      jump\t// in\n    tag_179:\n        /* \"#utility.yul\":8417:8425   */\n      dup2\n        /* \"#utility.yul\":8413:8457   */\n      add\n        /* \"#utility.yul\":8610:8612   */\n      0x20\n        /* \"#utility.yul\":8598:8608   */\n      dup6\n        /* \"#utility.yul\":8595:8613   */\n      lt\n        /* \"#utility.yul\":8592:8641   */\n      iszero\n      tag_180\n      jumpi\n        /* \"#utility.yul\":8631:8639   */\n      dup2\n        /* \"#utility.yul\":8616:8639   */\n      swap1\n      pop\n        /* \"#utility.yul\":8592:8641   */\n    tag_180:\n        /* \"#utility.yul\":8654:8734   */\n      tag_181\n        /* \"#utility.yul\":8710:8732   */\n      tag_182\n        /* \"#utility.yul\":8728:8731   */\n      dup6\n        /* \"#utility.yul\":8710:8732   */\n      tag_63\n      jump\t// in\n    tag_182:\n        /* \"#utility.yul\":8700:8708   */\n      dup4\n        /* \"#utility.yul\":8696:8733   */\n      add\n        /* \"#utility.yul\":8683:8694   */\n      dup3\n        /* \"#utility.yul\":8654:8734   */\n      tag_72\n      jump\t// in\n    tag_181:\n        /* \"#utility.yul\":8313:8744   */\n      pop\n      pop\n        /* \"#utility.yul\":8298:8744   */\n    tag_177:\n        /* \"#utility.yul\":8208:8751   */\n      pop\n      pop\n      pop\n      jump\t// out\n        /* \"#utility.yul\":8757:8874   */\n    tag_74:\n        /* \"#utility.yul\":8811:8819   */\n      0x00\n        /* \"#utility.yul\":8861:8866   */\n      dup3\n        /* \"#utility.yul\":8855:8859   */\n      dup3\n        /* \"#utility.yul\":8851:8867   */\n      shr\n        /* \"#utility.yul\":8830:8867   */\n      swap1\n      pop\n        /* \"#utility.yul\":8757:8874   */\n      swap3\n      swap2\n      pop\n      pop\n      jump\t// out\n        /* \"#utility.yul\":8880:9049   */\n    tag_75:\n        /* \"#utility.yul\":8924:8930   */\n      0x00\n        /* \"#utility.yul\":8957:9008   */\n      tag_185\n        /* \"#utility.yul\":9005:9006   */\n      0x00\n        /* \"#utility.yul\":9001:9007   */\n      not\n        /* \"#utility.yul\":8993:8998   */\n      dup5\n        /* \"#utility.yul\":8990:8991   */\n      0x08\n        /* \"#utility.yul\":8986:8999   */\n      mul\n        /* \"#utility.yul\":8957:9008   */\n      tag_74\n      jump\t// in\n    tag_185:\n        /* \"#utility.yul\":8953:9009   */\n      not\n        /* \"#utility.yul\":9038:9042   */\n      dup1\n        /* \"#utility.yul\":9032:9036   */\n      dup4\n        /* \"#utility.yul\":9028:9043   */\n      and\n        /* \"#utility.yul\":9018:9043   */\n      swap2\n      pop\n        /* \"#utility.yul\":8931:9049   */\n      pop\n        /* \"#utility.yul\":8880:9049   */\n      swap3\n      swap2\n      pop\n      pop\n      jump\t// out\n        /* \"#utility.yul\":9054:9349   */\n    tag_76:\n        /* \"#utility.yul\":9130:9134   */\n      0x00\n        /* \"#utility.yul\":9276:9305   */\n      tag_187\n        /* \"#utility.yul\":9301:9304   */\n      dup4\n        /* \"#utility.yul\":9295:9299   */\n      dup4\n        /* \"#utility.yul\":9276:9305   */\n      tag_75\n      jump\t// in\n    tag_187:\n        /* \"#utility.yul\":9268:9305   */\n      swap2\n      pop\n        /* \"#utility.yul\":9338:9341   */\n      dup3\n        /* \"#utility.yul\":9335:9336   */\n      0x02\n        /* \"#utility.yul\":9331:9342   */\n      mul\n        /* \"#utility.yul\":9325:9329   */\n      dup3\n        /* \"#utility.yul\":9322:9343   */\n      or\n        /* \"#utility.yul\":9314:9343   */\n      swap1\n      pop\n        /* \"#utility.yul\":9054:9349   */\n      swap3\n      swap2\n      pop\n      pop\n      jump\t// out\n        /* \"#utility.yul\":9354:10749   */\n    tag_27:\n        /* \"#utility.yul\":9471:9508   */\n      tag_189\n        /* \"#utility.yul\":9504:9507   */\n      dup3\n        /* \"#utility.yul\":9471:9508   */\n      tag_55\n      jump\t// in\n    tag_189:\n        /* \"#utility.yul\":9573:9591   */\n      0xffffffffffffffff\n        /* \"#utility.yul\":9565:9571   */\n      dup2\n        /* \"#utility.yul\":9562:9592   */\n      gt\n        /* \"#utility.yul\":9559:9615   */\n      iszero\n      tag_190\n      jumpi\n        /* \"#utility.yul\":9595:9613   */\n      tag_191\n      tag_44\n      jump\t// in\n    tag_191:\n        /* \"#utility.yul\":9559:9615   */\n    tag_190:\n        /* \"#utility.yul\":9639:9677   */\n      tag_192\n        /* \"#utility.yul\":9671:9675   */\n      dup3\n        /* \"#utility.yul\":9665:9676   */\n      sload\n        /* \"#utility.yul\":9639:9677   */\n      tag_61\n      jump\t// in\n    tag_192:\n        /* \"#utility.yul\":9724:9791   */\n      tag_193\n        /* \"#utility.yul\":9784:9790   */\n      dup3\n        /* \"#utility.yul\":9776:9782   */\n      dup3\n        /* \"#utility.yul\":9770:9774   */\n      dup6\n        /* \"#utility.yul\":9724:9791   */\n      tag_73\n      jump\t// in\n    tag_193:\n        /* \"#utility.yul\":9818:9819   */\n      0x00\n        /* \"#utility.yul\":9842:9846   */\n      0x20\n        /* \"#utility.yul\":9829:9846   */\n      swap1\n      pop\n        /* \"#utility.yul\":9874:9876   */\n      0x1f\n        /* \"#utility.yul\":9866:9872   */\n      dup4\n        /* \"#utility.yul\":9863:9877   */\n      gt\n        /* \"#utility.yul\":9891:9892   */\n      0x01\n        /* \"#utility.yul\":9886:10504   */\n      dup2\n      eq\n      tag_195\n      jumpi\n        /* \"#utility.yul\":10548:10549   */\n      0x00\n        /* \"#utility.yul\":10565:10571   */\n      dup5\n        /* \"#utility.yul\":10562:10639   */\n      iszero\n      tag_196\n      jumpi\n        /* \"#utility.yul\":10614:10623   */\n      dup3\n        /* \"#utility.yul\":10609:10612   */\n      dup8\n        /* \"#utility.yul\":10605:10624   */\n      add\n        /* \"#utility.yul\":10599:10625   */\n      mload\n        /* \"#utility.yul\":10590:10625   */\n      swap1\n      pop\n        /* \"#utility.yul\":10562:10639   */\n    tag_196:\n        /* \"#utility.yul\":10665:10732   */\n      tag_197\n        /* \"#utility.yul\":10725:10731   */\n      dup6\n        /* \"#utility.yul\":10718:10723   */\n      dup3\n        /* \"#utility.yul\":10665:10732   */\n      tag_76\n      jump\t// in\n    tag_197:\n        /* \"#utility.yul\":10659:10663   */\n      dup7\n        /* \"#utility.yul\":10652:10733   */\n      sstore\n        /* \"#utility.yul\":10521:10743   */\n      pop\n        /* \"#utility.yul\":9856:10743   */\n      jump(tag_194)\n        /* \"#utility.yul\":9886:10504   */\n    tag_195:\n        /* \"#utility.yul\":9938:9942   */\n      0x1f\n        /* \"#utility.yul\":9934:9943   */\n      not\n        /* \"#utility.yul\":9926:9932   */\n      dup5\n        /* \"#utility.yul\":9922:9944   */\n      and\n        /* \"#utility.yul\":9972:10009   */\n      tag_198\n        /* \"#utility.yul\":10004:10008   */\n      dup7\n        /* \"#utility.yul\":9972:10009   */\n      tag_62\n      jump\t// in\n    tag_198:\n        /* \"#utility.yul\":10031:10032   */\n      0x00\n        /* \"#utility.yul\":10045:10253   */\n    tag_199:\n        /* \"#utility.yul\":10059:10066   */\n      dup3\n        /* \"#utility.yul\":10056:10057   */\n      dup2\n        /* \"#utility.yul\":10053:10067   */\n      lt\n        /* \"#utility.yul\":10045:10253   */\n      iszero\n      tag_201\n      jumpi\n        /* \"#utility.yul\":10138:10147   */\n      dup5\n        /* \"#utility.yul\":10133:10136   */\n      dup10\n        /* \"#utility.yul\":10129:10148   */\n      add\n        /* \"#utility.yul\":10123:10149   */\n      mload\n        /* \"#utility.yul\":10115:10121   */\n      dup3\n        /* \"#utility.yul\":10108:10150   */\n      sstore\n        /* \"#utility.yul\":10189:10190   */\n      0x01\n        /* \"#utility.yul\":10181:10187   */\n      dup3\n        /* \"#utility.yul\":10177:10191   */\n      add\n        /* \"#utility.yul\":10167:10191   */\n      swap2\n      pop\n        /* \"#utility.yul\":10236:10238   */\n      0x20\n        /* \"#utility.yul\":10225:10234   */\n      dup6\n        /* \"#utility.yul\":10221:10239   */\n      add\n        /* \"#utility.yul\":10208:10239   */\n      swap5\n      pop\n        /* \"#utility.yul\":10082:10086   */\n      0x20\n        /* \"#utility.yul\":10079:10080   */\n      dup2\n        /* \"#utility.yul\":10075:10087   */\n      add\n        /* \"#utility.yul\":10070:10087   */\n      swap1\n      pop\n        /* \"#utility.yul\":10045:10253   */\n      jump(tag_199)\n    tag_201:\n        /* \"#utility.yul\":10281:10287   */\n      dup7\n        /* \"#utility.yul\":10272:10279   */\n      dup4\n        /* \"#utility.yul\":10269:10288   */\n      lt\n        /* \"#utility.yul\":10266:10445   */\n      iszero\n      tag_202\n      jumpi\n        /* \"#utility.yul\":10339:10348   */\n      dup5\n        /* \"#utility.yul\":10334:10337   */\n      dup10\n        /* \"#utility.yul\":10330:10349   */\n      add\n        /* \"#utility.yul\":10324:10350   */\n      mload\n        /* \"#utility.yul\":10382:10430   */\n      tag_203\n        /* \"#utility.yul\":10424:10428   */\n      0x1f\n        /* \"#utility.yul\":10416:10422   */\n      dup10\n        /* \"#utility.yul\":10412:10429   */\n      and\n        /* \"#utility.yul\":10401:10410   */\n      dup3\n        /* \"#utility.yul\":10382:10430   */\n      tag_75\n      jump\t// in\n    tag_203:\n        /* \"#utility.yul\":10374:10380   */\n      dup4\n        /* \"#utility.yul\":10367:10431   */\n      sstore\n        /* \"#utility.yul\":10289:10445   */\n      pop\n        /* \"#utility.yul\":10266:10445   */\n    tag_202:\n        /* \"#utility.yul\":10491:10492   */\n      0x01\n        /* \"#utility.yul\":10487:10488   */\n      0x02\n        /* \"#utility.yul\":10479:10485   */\n      dup9\n        /* \"#utility.yul\":10475:10489   */\n      mul\n        /* \"#utility.yul\":10471:10493   */\n      add\n        /* \"#utility.yul\":10465:10469   */\n      dup9\n        /* \"#utility.yul\":10458:10494   */\n      sstore\n        /* \"#utility.yul\":9893:10504   */\n      pop\n      pop\n      pop\n        /* \"#utility.yul\":9856:10743   */\n    tag_194:\n      pop\n        /* \"#utility.yul\":9446:10749   */\n      pop\n      pop\n      pop\n        /* \"#utility.yul\":9354:10749   */\n      pop\n      pop\n      jump\t// out\n        /* \"#utility.yul\":10755:10935   */\n    tag_34:\n        /* \"#utility.yul\":10803:10880   */\n      0x4e487b7100000000000000000000000000000000000000000000000000000000\n        /* \"#utility.yul\":10800:10801   */\n      0x00\n        /* \"#utility.yul\":10793:10881   */\n      mstore\n        /* \"#utility.yul\":10900:10904   */\n      0x32\n        /* \"#utility.yul\":10897:10898   */\n      0x04\n        /* \"#utility.yul\":10890:10905   */\n      mstore\n        /* \"#utility.yul\":10924:10928   */\n      0x24\n        /* \"#utility.yul\":10921:10922   */\n      0x00\n        /* \"#utility.yul\":10914:10929   */\n      revert\n        /* \"#utility.yul\":10965:11839   */\n    tag_77:\n        /* \"#utility.yul\":11068:11071   */\n      0x00\n        /* \"#utility.yul\":11105:11110   */\n      dup2\n        /* \"#utility.yul\":11099:11111   */\n      sload\n        /* \"#utility.yul\":11134:11170   */\n      tag_206\n        /* \"#utility.yul\":11160:11169   */\n      dup2\n        /* \"#utility.yul\":11134:11170   */\n      tag_61\n      jump\t// in\n    tag_206:\n        /* \"#utility.yul\":11186:11275   */\n      tag_207\n        /* \"#utility.yul\":11268:11274   */\n      dup2\n        /* \"#utility.yul\":11263:11266   */\n      dup7\n        /* \"#utility.yul\":11186:11275   */\n      tag_56\n      jump\t// in\n    tag_207:\n        /* \"#utility.yul\":11179:11275   */\n      swap5\n      pop\n        /* \"#utility.yul\":11306:11307   */\n      0x01\n        /* \"#utility.yul\":11295:11304   */\n      dup3\n        /* \"#utility.yul\":11291:11308   */\n      and\n        /* \"#utility.yul\":11322:11323   */\n      0x00\n        /* \"#utility.yul\":11317:11483   */\n      dup2\n      eq\n      tag_209\n      jumpi\n        /* \"#utility.yul\":11497:11498   */\n      0x01\n        /* \"#utility.yul\":11492:11833   */\n      dup2\n      eq\n      tag_210\n      jumpi\n        /* \"#utility.yul\":11284:11833   */\n      jump(tag_208)\n        /* \"#utility.yul\":11317:11483   */\n    tag_209:\n        /* \"#utility.yul\":11401:11405   */\n      0xff\n        /* \"#utility.yul\":11397:11406   */\n      not\n        /* \"#utility.yul\":11386:11395   */\n      dup4\n        /* \"#utility.yul\":11382:11407   */\n      and\n        /* \"#utility.yul\":11377:11380   */\n      dup7\n        /* \"#utility.yul\":11370:11408   */\n      mstore\n        /* \"#utility.yul\":11463:11469   */\n      dup2\n        /* \"#utility.yul\":11456:11470   */\n      iszero\n        /* \"#utility.yul\":11449:11471   */\n      iszero\n        /* \"#utility.yul\":11441:11447   */\n      dup3\n        /* \"#utility.yul\":11437:11472   */\n      mul\n        /* \"#utility.yul\":11432:11435   */\n      dup7\n        /* \"#utility.yul\":11428:11473   */\n      add\n        /* \"#utility.yul\":11421:11473   */\n      swap4\n      pop\n        /* \"#utility.yul\":11317:11483   */\n      jump(tag_208)\n        /* \"#utility.yul\":11492:11833   */\n    tag_210:\n        /* \"#utility.yul\":11559:11597   */\n      tag_211\n        /* \"#utility.yul\":11591:11596   */\n      dup6\n        /* \"#utility.yul\":11559:11597   */\n      tag_62\n      jump\t// in\n    tag_211:\n        /* \"#utility.yul\":11619:11620   */\n      0x00\n        /* \"#utility.yul\":11633:11787   */\n    tag_212:\n        /* \"#utility.yul\":11647:11653   */\n      dup4\n        /* \"#utility.yul\":11644:11645   */\n      dup2\n        /* \"#utility.yul\":11641:11654   */\n      lt\n        /* \"#utility.yul\":11633:11787   */\n      iszero\n      tag_214\n      jumpi\n        /* \"#utility.yul\":11721:11728   */\n      dup2\n        /* \"#utility.yul\":11715:11729   */\n      sload\n        /* \"#utility.yul\":11711:11712   */\n      dup2\n        /* \"#utility.yul\":11706:11709   */\n      dup10\n        /* \"#utility.yul\":11702:11713   */\n      add\n        /* \"#utility.yul\":11695:11730   */\n      mstore\n        /* \"#utility.yul\":11771:11772   */\n      0x01\n        /* \"#utility.yul\":11762:11769   */\n      dup3\n        /* \"#utility.yul\":11758:11773   */\n      add\n        /* \"#utility.yul\":11747:11773   */\n      swap2\n      pop\n        /* \"#utility.yul\":11669:11673   */\n      0x20\n        /* \"#utility.yul\":11666:11667   */\n      dup2\n        /* \"#utility.yul\":11662:11674   */\n      add\n        /* \"#utility.yul\":11657:11674   */\n      swap1\n      pop\n        /* \"#utility.yul\":11633:11787   */\n      jump(tag_212)\n    tag_214:\n        /* \"#utility.yul\":11816:11822   */\n      dup4\n        /* \"#utility.yul\":11811:11814   */\n      dup9\n        /* \"#utility.yul\":11807:11823   */\n      add\n        /* \"#utility.yul\":11800:11823   */\n      swap6\n      pop\n        /* \"#utility.yul\":11499:11833   */\n      pop\n      pop\n        /* \"#utility.yul\":11284:11833   */\n    tag_208:\n      pop\n        /* \"#utility.yul\":11072:11839   */\n      pop\n      pop\n        /* \"#utility.yul\":10965:11839   */\n      swap3\n      swap2\n      pop\n      pop\n      jump\t// out\n        /* \"#utility.yul\":11845:12114   */\n    tag_37:\n        /* \"#utility.yul\":11974:11977   */\n      0x00\n        /* \"#utility.yul\":11996:12088   */\n      tag_216\n        /* \"#utility.yul\":12084:12087   */\n      dup3\n        /* \"#utility.yul\":12075:12081   */\n      dup5\n        /* \"#utility.yul\":11996:12088   */\n      tag_77\n      jump\t// in\n    tag_216:\n        /* \"#utility.yul\":11989:12088   */\n      swap2\n      pop\n        /* \"#utility.yul\":12105:12108   */\n      dup2\n        /* \"#utility.yul\":12098:12108   */\n      swap1\n      pop\n        /* \"#utility.yul\":11845:12114   */\n      swap3\n      swap2\n      pop\n      pop\n      jump\t// out\n\n    auxdata: 0xa2646970667358221220bb1b552cc07744e097def306b27670fa29399ac178b3ce89ec501d968cb98d7464736f6c634300081e0033\n}\n",
				"bytecode": {
					"linkReferences": {},
					"object": "6080604052348015600e575f5ffd5b5061085d8061001c5f395ff3fe608060405234801561000f575f5ffd5b506004361061003f575f3560e01c8063805265e514610043578063a638580314610073578063b9830ff11461008f575b5f5ffd5b61005d600480360381019061005891906102d4565b610099565b60405161006a9190610333565b60405180910390f35b61008d60048036038101906100889190610376565b6100bf565b005b610097610128565b005b5f5f826040516100a99190610422565b9081526020016040518091039020549050919050565b805f836040516100cf9190610422565b90815260200160405180910390205f8282546100eb9190610465565b92505081905550600182908060018154018082558091505060019003905f5260205f20015f9091909190915090816101239190610695565b505050565b5f5f90505b600180549050811015610184575f5f600183815481106101505761014f610764565b5b905f5260205f20016040516101659190610811565b908152602001604051809103902081905550808060010191505061012d565b50565b5f604051905090565b5f5ffd5b5f5ffd5b5f5ffd5b5f5ffd5b5f601f19601f8301169050919050565b7f4e487b71000000000000000000000000000000000000000000000000000000005f52604160045260245ffd5b6101e6826101a0565b810181811067ffffffffffffffff82111715610205576102046101b0565b5b80604052505050565b5f610217610187565b905061022382826101dd565b919050565b5f67ffffffffffffffff821115610242576102416101b0565b5b61024b826101a0565b9050602081019050919050565b828183375f83830152505050565b5f61027861027384610228565b61020e565b9050828152602081018484840111156102945761029361019c565b5b61029f848285610258565b509392505050565b5f82601f8301126102bb576102ba610198565b5b81356102cb848260208601610266565b91505092915050565b5f602082840312156102e9576102e8610190565b5b5f82013567ffffffffffffffff81111561030657610305610194565b5b610312848285016102a7565b91505092915050565b5f819050919050565b61032d8161031b565b82525050565b5f6020820190506103465f830184610324565b92915050565b6103558161031b565b811461035f575f5ffd5b50565b5f813590506103708161034c565b92915050565b5f5f6040838503121561038c5761038b610190565b5b5f83013567ffffffffffffffff8111156103a9576103a8610194565b5b6103b5858286016102a7565b92505060206103c685828601610362565b9150509250929050565b5f81519050919050565b5f81905092915050565b8281835e5f83830152505050565b5f6103fc826103d0565b61040681856103da565b93506104168185602086016103e4565b80840191505092915050565b5f61042d82846103f2565b915081905092915050565b7f4e487b71000000000000000000000000000000000000000000000000000000005f52601160045260245ffd5b5f61046f8261031b565b915061047a8361031b565b925082820190508082111561049257610491610438565b5b92915050565b7f4e487b71000000000000000000000000000000000000000000000000000000005f52602260045260245ffd5b5f60028204905060018216806104dc57607f821691505b6020821081036104ef576104ee610498565b5b50919050565b5f819050815f5260205f209050919050565b5f6020601f8301049050919050565b5f82821b905092915050565b5f600883026105517fffffffffffffffffffffffffffffffffffffffffffffffffffffffffffffffff82610516565b61055b8683610516565b95508019841693508086168417925050509392505050565b5f819050919050565b5f61059661059161058c8461031b565b610573565b61031b565b9050919050565b5f819050919050565b6105af8361057c565b6105c36105bb8261059d565b848454610522565b825550505050565b5f5f905090565b6105da6105cb565b6105e58184846105a6565b505050565b5b81811015610608576105fd5f826105d2565b6001810190506105eb565b5050565b601f82111561064d5761061e816104f5565b61062784610507565b81016020851015610636578190505b61064a61064285610507565b8301826105ea565b50505b505050565b5f82821c905092915050565b5f61066d5f1984600802610652565b1980831691505092915050565b5f610685838361065e565b9150826002028217905092915050565b61069e826103d0565b67ffffffffffffffff8111156106b7576106b66101b0565b5b6106c182546104c5565b6106cc82828561060c565b5f60209050601f8311600181146106fd575f84156106eb578287015190505b6106f5858261067a565b86555061075c565b601f19841661070b866104f5565b5f5b828110156107325784890151825560018201915060208501945060208101905061070d565b8683101561074f578489015161074b601f89168261065e565b8355505b6001600288020188555050505b505050505050565b7f4e487b71000000000000000000000000000000000000000000000000000000005f52603260045260245ffd5b5f815461079d816104c5565b6107a781866103da565b9450600182165f81146107c157600181146107d657610808565b60ff1983168652811515820286019350610808565b6107df856104f5565b5f5b83811015610800578154818901526001820191506020810190506107e1565b838801955050505b50505092915050565b5f61081c8284610791565b91508190509291505056fea2646970667358221220bb1b552cc07744e097def306b27670fa29399ac178b3ce89ec501d968cb98d7464736f6c634300081e0033",
					"opcodes": "PUSH1 0x80 PUSH1 0x40 MSTORE CALLVALUE DUP1 ISZERO PUSH1 0xE JUMPI PUSH0 PUSH0 REVERT JUMPDEST POP PUSH2 0x85D DUP1 PUSH2 0x1C PUSH0 CODECOPY PUSH0 RETURN INVALID PUSH1 0x80 PUSH1 0x40 MSTORE CALLVALUE DUP1 ISZERO PUSH2 0xF JUMPI PUSH0 PUSH0 REVERT JUMPDEST POP PUSH1 0x4 CALLDATASIZE LT PUSH2 0x3F JUMPI PUSH0 CALLDATALOAD PUSH1 0xE0 SHR DUP1 PUSH4 0x805265E5 EQ PUSH2 0x43 JUMPI DUP1 PUSH4 0xA6385803 EQ PUSH2 0x73 JUMPI DUP1 PUSH4 0xB9830FF1 EQ PUSH2 0x8F JUMPI JUMPDEST PUSH0 PUSH0 REVERT JUMPDEST PUSH2 0x5D PUSH1 0x4 DUP1 CALLDATASIZE SUB DUP2 ADD SWAP1 PUSH2 0x58 SWAP2 SWAP1 PUSH2 0x2D4 JUMP JUMPDEST PUSH2 0x99 JUMP JUMPDEST PUSH1 0x40 MLOAD PUSH2 0x6A SWAP2 SWAP1 PUSH2 0x333 JUMP JUMPDEST PUSH1 0x40 MLOAD DUP1 SWAP2 SUB SWAP1 RETURN JUMPDEST PUSH2 0x8D PUSH1 0x4 DUP1 CALLDATASIZE SUB DUP2 ADD SWAP1 PUSH2 0x88 SWAP2 SWAP1 PUSH2 0x376 JUMP JUMPDEST PUSH2 0xBF JUMP JUMPDEST STOP JUMPDEST PUSH2 0x97 PUSH2 0x128 JUMP JUMPDEST STOP JUMPDEST PUSH0 PUSH0 DUP3 PUSH1 0x40 MLOAD PUSH2 0xA9 SWAP2 SWAP1 PUSH2 0x422 JUMP JUMPDEST SWAP1 DUP2 MSTORE PUSH1 0x20 ADD PUSH1 0x40 MLOAD DUP1 SWAP2 SUB SWAP1 KECCAK256 SLOAD SWAP1 POP SWAP2 SWAP1 POP JUMP JUMPDEST DUP1 PUSH0 DUP4 PUSH1 0x40 MLOAD PUSH2 0xCF SWAP2 SWAP1 PUSH2 0x422 JUMP JUMPDEST SWAP1 DUP2 MSTORE PUSH1 0x20 ADD PUSH1 0x40 MLOAD DUP1 SWAP2 SUB SWAP1 KECCAK256 PUSH0 DUP3 DUP3 SLOAD PUSH2 0xEB SWAP2 SWAP1 PUSH2 0x465 JUMP JUMPDEST SWAP3 POP POP DUP2 SWAP1 SSTORE POP PUSH1 0x1 DUP3 SWAP1 DUP1 PUSH1 0x1 DUP2 SLOAD ADD DUP1 DUP3 SSTORE DUP1 SWAP2 POP POP PUSH1 0x1 SWAP1 SUB SWAP1 PUSH0 MSTORE PUSH1 0x20 PUSH0 KECCAK256 ADD PUSH0 SWAP1 SWAP2 SWAP1 SWAP2 SWAP1 SWAP2 POP SWAP1 DUP2 PUSH2 0x123 SWAP2 SWAP1 PUSH2 0x695 JUMP JUMPDEST POP POP POP JUMP JUMPDEST PUSH0 PUSH0 SWAP1 POP JUMPDEST PUSH1 0x1 DUP1 SLOAD SWAP1 POP DUP2 LT ISZERO PUSH2 0x184 JUMPI PUSH0 PUSH0 PUSH1 0x1 DUP4 DUP2 SLOAD DUP2 LT PUSH2 0x150 JUMPI PUSH2 0x14F PUSH2 0x764 JUMP JUMPDEST JUMPDEST SWAP1 PUSH0 MSTORE PUSH1 0x20 PUSH0 KECCAK256 ADD PUSH1 0x40 MLOAD PUSH2 0x165 SWAP2 SWAP1 PUSH2 0x811 JUMP JUMPDEST SWAP1 DUP2 MSTORE PUSH1 0x20 ADD PUSH1 0x40 MLOAD DUP1 SWAP2 SUB SWAP1 KECCAK256 DUP2 SWAP1 SSTORE POP DUP1 DUP1 PUSH1 0x1 ADD SWAP2 POP POP PUSH2 0x12D JUMP JUMPDEST POP JUMP JUMPDEST PUSH0 PUSH1 0x40 MLOAD SWAP1 POP SWAP1 JUMP JUMPDEST PUSH0 PUSH0 REVERT JUMPDEST PUSH0 PUSH0 REVERT JUMPDEST PUSH0 PUSH0 REVERT JUMPDEST PUSH0 PUSH0 REVERT JUMPDEST PUSH0 PUSH1 0x1F NOT PUSH1 0x1F DUP4 ADD AND SWAP1 POP SWAP2 SWAP1 POP JUMP JUMPDEST PUSH32 0x4E487B7100000000000000000000000000000000000000000000000000000000 PUSH0 MSTORE PUSH1 0x41 PUSH1 0x4 MSTORE PUSH1 0x24 PUSH0 REVERT JUMPDEST PUSH2 0x1E6 DUP3 PUSH2 0x1A0 JUMP JUMPDEST DUP2 ADD DUP2 DUP2 LT PUSH8 0xFFFFFFFFFFFFFFFF DUP3 GT OR ISZERO PUSH2 0x205 JUMPI PUSH2 0x204 PUSH2 0x1B0 JUMP JUMPDEST JUMPDEST DUP1 PUSH1 0x40 MSTORE POP POP POP JUMP JUMPDEST PUSH0 PUSH2 0x217 PUSH2 0x187 JUMP JUMPDEST SWAP1 POP PUSH2 0x223 DUP3 DUP3 PUSH2 0x1DD JUMP JUMPDEST SWAP2 SWAP1 POP JUMP JUMPDEST PUSH0 PUSH8 0xFFFFFFFFFFFFFFFF DUP3 GT ISZERO PUSH2 0x242 JUMPI PUSH2 0x241 PUSH2 0x1B0 JUMP JUMPDEST JUMPDEST PUSH2 0x24B DUP3 PUSH2 0x1A0 JUMP JUMPDEST SWAP1 POP PUSH1 0x20 DUP2 ADD SWAP1 POP SWAP2 SWAP1 POP JUMP JUMPDEST DUP3 DUP2 DUP4 CALLDATACOPY PUSH0 DUP4 DUP4 ADD MSTORE POP POP POP JUMP JUMPDEST PUSH0 PUSH2 0x278 PUSH2 0x273 DUP5 PUSH2 0x228 JUMP JUMPDEST PUSH2 0x20E JUMP JUMPDEST SWAP1 POP DUP3 DUP2 MSTORE PUSH1 0x20 DUP2 ADD DUP5 DUP5 DUP5 ADD GT ISZERO PUSH2 0x294 JUMPI PUSH2 0x293 PUSH2 0x19C JUMP JUMPDEST JUMPDEST PUSH2 0x29F DUP5 DUP3 DUP6 PUSH2 0x258 JUMP JUMPDEST POP SWAP4 SWAP3 POP POP POP JUMP JUMPDEST PUSH0 DUP3 PUSH1 0x1F DUP4 ADD SLT PUSH2 0x2BB JUMPI PUSH2 0x2BA PUSH2 0x198 JUMP JUMPDEST JUMPDEST DUP2 CALLDATALOAD PUSH2 0x2CB DUP5 DUP3 PUSH1 0x20 DUP7 ADD PUSH2 0x266 JUMP JUMPDEST SWAP2 POP POP SWAP3 SWAP2 POP POP JUMP JUMPDEST PUSH0 PUSH1 0x20 DUP3 DUP5 SUB SLT ISZERO PUSH2 0x2E9 JUMPI PUSH2 0x2E8 PUSH2 0x190 JUMP JUMPDEST JUMPDEST PUSH0 DUP3 ADD CALLDATALOAD PUSH8 0xFFFFFFFFFFFFFFFF DUP2 GT ISZERO PUSH2 0x306 JUMPI PUSH2 0x305 PUSH2 0x194 JUMP JUMPDEST JUMPDEST PUSH2 0x312 DUP5 DUP3 DUP6 ADD PUSH2 0x2A7 JUMP JUMPDEST SWAP2 POP POP SWAP3 SWAP2 POP POP JUMP JUMPDEST PUSH0 DUP2 SWAP1 POP SWAP2 SWAP1 POP JUMP JUMPDEST PUSH2 0x32D DUP2 PUSH2 0x31B JUMP JUMPDEST DUP3 MSTORE POP POP JUMP JUMPDEST PUSH0 PUSH1 0x20 DUP3 ADD SWAP1 POP PUSH2 0x346 PUSH0 DUP4 ADD DUP5 PUSH2 0x324 JUMP JUMPDEST SWAP3 SWAP2 POP POP JUMP JUMPDEST PUSH2 0x355 DUP2 PUSH2 0x31B JUMP JUMPDEST DUP2 EQ PUSH2 0x35F JUMPI PUSH0 PUSH0 REVERT JUMPDEST POP JUMP JUMPDEST PUSH0 DUP2 CALLDATALOAD SWAP1 POP PUSH2 0x370 DUP2 PUSH2 0x34C JUMP JUMPDEST SWAP3 SWAP2 POP POP JUMP JUMPDEST PUSH0 PUSH0 PUSH1 0x40 DUP4 DUP6 SUB SLT ISZERO PUSH2 0x38C JUMPI PUSH2 0x38B PUSH2 0x190 JUMP JUMPDEST JUMPDEST PUSH0 DUP4 ADD CALLDATALOAD PUSH8 0xFFFFFFFFFFFFFFFF DUP2 GT ISZERO PUSH2 0x3A9 JUMPI PUSH2 0x3A8 PUSH2 0x194 JUMP JUMPDEST JUMPDEST PUSH2 0x3B5 DUP6 DUP3 DUP7 ADD PUSH2 0x2A7 JUMP JUMPDEST SWAP3 POP POP PUSH1 0x20 PUSH2 0x3C6 DUP6 DUP3 DUP7 ADD PUSH2 0x362 JUMP JUMPDEST SWAP2 POP POP SWAP3 POP SWAP3 SWAP1 POP JUMP JUMPDEST PUSH0 DUP2 MLOAD SWAP1 POP SWAP2 SWAP1 POP JUMP JUMPDEST PUSH0 DUP2 SWAP1 POP SWAP3 SWAP2 POP POP JUMP JUMPDEST DUP3 DUP2 DUP4 MCOPY PUSH0 DUP4 DUP4 ADD MSTORE POP POP POP JUMP JUMPDEST PUSH0 PUSH2 0x3FC DUP3 PUSH2 0x3D0 JUMP JUMPDEST PUSH2 0x406 DUP2 DUP6 PUSH2 0x3DA JUMP JUMPDEST SWAP4 POP PUSH2 0x416 DUP2 DUP6 PUSH1 0x20 DUP7 ADD PUSH2 0x3E4 JUMP JUMPDEST DUP1 DUP5 ADD SWAP2 POP POP SWAP3 SWAP2 POP POP JUMP JUMPDEST PUSH0 PUSH2 0x42D DUP3 DUP5 PUSH2 0x3F2 JUMP JUMPDEST SWAP2 POP DUP2 SWAP1 POP SWAP3 SWAP2 POP POP JUMP JUMPDEST PUSH32 0x4E487B7100000000000000000000000000000000000000000000000000000000 PUSH0 MSTORE PUSH1 0x11 PUSH1 0x4 MSTORE PUSH1 0x24 PUSH0 REVERT JUMPDEST PUSH0 PUSH2 0x46F DUP3 PUSH2 0x31B JUMP JUMPDEST SWAP2 POP PUSH2 0x47A DUP4 PUSH2 0x31B JUMP JUMPDEST SWAP3 POP DUP3 DUP3 ADD SWAP1 POP DUP1 DUP3 GT ISZERO PUSH2 0x492 JUMPI PUSH2 0x491 PUSH2 0x438 JUMP JUMPDEST JUMPDEST SWAP3 SWAP2 POP POP JUMP JUMPDEST PUSH32 0x4E487B7100000000000000000000000000000000000000000000000000000000 PUSH0 MSTORE PUSH1 0x22 PUSH1 0x4 MSTORE PUSH1 0x24 PUSH0 REVERT JUMPDEST PUSH0 PUSH1 0x2 DUP3 DIV SWAP1 POP PUSH1 0x1 DUP3 AND DUP1 PUSH2 0x4DC JUMPI PUSH1 0x7F DUP3 AND SWAP2 POP JUMPDEST PUSH1 0x20 DUP3 LT DUP2 SUB PUSH2 0x4EF JUMPI PUSH2 0x4EE PUSH2 0x498 JUMP JUMPDEST JUMPDEST POP SWAP2 SWAP1 POP JUMP JUMPDEST PUSH0 DUP2 SWAP1 POP DUP2 PUSH0 MSTORE PUSH1 0x20 PUSH0 KECCAK256 SWAP1 POP SWAP2 SWAP1 POP JUMP JUMPDEST PUSH0 PUSH1 0x20 PUSH1 0x1F DUP4 ADD DIV SWAP1 POP SWAP2 SWAP1 POP JUMP JUMPDEST PUSH0 DUP3 DUP3 SHL SWAP1 POP SWAP3 SWAP2 POP POP JUMP JUMPDEST PUSH0 PUSH1 0x8 DUP4 MUL PUSH2 0x551 PUSH32 0xFFFFFFFFFFFFFFFFFFFFFFFFFFFFFFFFFFFFFFFFFFFFFFFFFFFFFFFFFFFFFFFF DUP3 PUSH2 0x516 JUMP JUMPDEST PUSH2 0x55B DUP7 DUP4 PUSH2 0x516 JUMP JUMPDEST SWAP6 POP DUP1 NOT DUP5 AND SWAP4 POP DUP1 DUP7 AND DUP5 OR SWAP3 POP POP POP SWAP4 SWAP3 POP POP POP JUMP JUMPDEST PUSH0 DUP2 SWAP1 POP SWAP2 SWAP1 POP JUMP JUMPDEST PUSH0 PUSH2 0x596 PUSH2 0x591 PUSH2 0x58C DUP5 PUSH2 0x31B JUMP JUMPDEST PUSH2 0x573 JUMP JUMPDEST PUSH2 0x31B JUMP JUMPDEST SWAP1 POP SWAP2 SWAP1 POP JUMP JUMPDEST PUSH0 DUP2 SWAP1 POP SWAP2 SWAP1 POP JUMP JUMPDEST PUSH2 0x5AF DUP4 PUSH2 0x57C JUMP JUMPDEST PUSH2 0x5C3 PUSH2 0x5BB DUP3 PUSH2 0x59D JUMP JUMPDEST DUP5 DUP5 SLOAD PUSH2 0x522 JUMP JUMPDEST DUP3 SSTORE POP POP POP POP JUMP JUMPDEST PUSH0 PUSH0 SWAP1 POP SWAP1 JUMP JUMPDEST PUSH2 0x5DA PUSH2 0x5CB JUMP JUMPDEST PUSH2 0x5E5 DUP2 DUP5 DUP5 PUSH2 0x5A6 JUMP JUMPDEST POP POP POP JUMP JUMPDEST JUMPDEST DUP2 DUP2 LT ISZERO PUSH2 0x608 JUMPI PUSH2 0x5FD PUSH0 DUP3 PUSH2 0x5D2 JUMP JUMPDEST PUSH1 0x1 DUP2 ADD SWAP1 POP PUSH2 0x5EB JUMP JUMPDEST POP POP JUMP JUMPDEST PUSH1 0x1F DUP3 GT ISZERO PUSH2 0x64D JUMPI PUSH2 0x61E DUP2 PUSH2 0x4F5 JUMP JUMPDEST PUSH2 0x627 DUP5 PUSH2 0x507 JUMP JUMPDEST DUP2 ADD PUSH1 0x20 DUP6 LT ISZERO PUSH2 0x636 JUMPI DUP2 SWAP1 POP JUMPDEST PUSH2 0x64A PUSH2 0x642 DUP6 PUSH2 0x507 JUMP JUMPDEST DUP4 ADD DUP3 PUSH2 0x5EA JUMP JUMPDEST POP POP JUMPDEST POP POP POP JUMP JUMPDEST PUSH0 DUP3 DUP3 SHR SWAP1 POP SWAP3 SWAP2 POP POP JUMP JUMPDEST PUSH0 PUSH2 0x66D PUSH0 NOT DUP5 PUSH1 0x8 MUL PUSH2 0x652 JUMP JUMPDEST NOT DUP1 DUP4 AND SWAP2 POP POP SWAP3 SWAP2 POP POP JUMP JUMPDEST PUSH0 PUSH2 0x685 DUP4 DUP4 PUSH2 0x65E JUMP JUMPDEST SWAP2 POP DUP3 PUSH1 0x2 MUL DUP3 OR SWAP1 POP SWAP3 SWAP2 POP POP JUMP JUMPDEST PUSH2 0x69E DUP3 PUSH2 0x3D0 JUMP JUMPDEST PUSH8 0xFFFFFFFFFFFFFFFF DUP2 GT ISZERO PUSH2 0x6B7 JUMPI PUSH2 0x6B6 PUSH2 0x1B0 JUMP JUMPDEST JUMPDEST PUSH2 0x6C1 DUP3 SLOAD PUSH2 0x4C5 JUMP JUMPDEST PUSH2 0x6CC DUP3 DUP3 DUP6 PUSH2 0x60C JUMP JUMPDEST PUSH0 PUSH1 0x20 SWAP1 POP PUSH1 0x1F DUP4 GT PUSH1 0x1 DUP2 EQ PUSH2 0x6FD JUMPI PUSH0 DUP5 ISZERO PUSH2 0x6EB JUMPI DUP3 DUP8 ADD MLOAD SWAP1 POP JUMPDEST PUSH2 0x6F5 DUP6 DUP3 PUSH2 0x67A JUMP JUMPDEST DUP7 SSTORE POP PUSH2 0x75C JUMP JUMPDEST PUSH1 0x1F NOT DUP5 AND PUSH2 0x70B DUP7 PUSH2 0x4F5 JUMP JUMPDEST PUSH0 JUMPDEST DUP3 DUP2 LT ISZERO PUSH2 0x732 JUMPI DUP5 DUP10 ADD MLOAD DUP3 SSTORE PUSH1 0x1 DUP3 ADD SWAP2 POP PUSH1 0x20 DUP6 ADD SWAP5 POP PUSH1 0x20 DUP2 ADD SWAP1 POP PUSH2 0x70D JUMP JUMPDEST DUP7 DUP4 LT ISZERO PUSH2 0x74F JUMPI DUP5 DUP10 ADD MLOAD PUSH2 0x74B PUSH1 0x1F DUP10 AND DUP3 PUSH2 0x65E JUMP JUMPDEST DUP4 SSTORE POP JUMPDEST PUSH1 0x1 PUSH1 0x2 DUP9 MUL ADD DUP9 SSTORE POP POP POP JUMPDEST POP POP POP POP POP POP JUMP JUMPDEST PUSH32 0x4E487B7100000000000000000000000000000000000000000000000000000000 PUSH0 MSTORE PUSH1 0x32 PUSH1 0x4 MSTORE PUSH1 0x24 PUSH0 REVERT JUMPDEST PUSH0 DUP2 SLOAD PUSH2 0x79D DUP2 PUSH2 0x4C5 JUMP JUMPDEST PUSH2 0x7A7 DUP2 DUP7 PUSH2 0x3DA JUMP JUMPDEST SWAP5 POP PUSH1 0x1 DUP3 AND PUSH0 DUP2 EQ PUSH2 0x7C1 JUMPI PUSH1 0x1 DUP2 EQ PUSH2 0x7D6 JUMPI PUSH2 0x808 JUMP JUMPDEST PUSH1 0xFF NOT DUP4 AND DUP7 MSTORE DUP2 ISZERO ISZERO DUP3 MUL DUP7 ADD SWAP4 POP PUSH2 0x808 JUMP JUMPDEST PUSH2 0x7DF DUP6 PUSH2 0x4F5 JUMP JUMPDEST PUSH0 JUMPDEST DUP4 DUP2 LT ISZERO PUSH2 0x800 JUMPI DUP2 SLOAD DUP2 DUP10 ADD MSTORE PUSH1 0x1 DUP3 ADD SWAP2 POP PUSH1 0x20 DUP2 ADD SWAP1 POP PUSH2 0x7E1 JUMP JUMPDEST DUP4 DUP9 ADD SWAP6 POP POP POP JUMPDEST POP POP POP SWAP3 SWAP2 POP POP JUMP JUMPDEST PUSH0 PUSH2 0x81C DUP3 DUP5 PUSH2 0x791 JUMP JUMPDEST SWAP2 POP DUP2 SWAP1 POP SWAP3 SWAP2 POP POP JUMP INVALID LOG2 PUSH5 0x6970667358 0x22 SLT KECCAK256 0xBB SHL SSTORE 0x2C 0xC0 PUSH24 0x44E097DEF306B27670FA29399AC178B3CE89EC501D968CB9 DUP14 PUSH21 0x64736F6C634300081E003300000000000000000000 "
				},
				"gasEstimates": {
					"creation": {
						"codeDepositCost": "428200",
						"executionCost": "459",
						"totalCost": "428659"
					},
					"external": {
						"getVotes(string)": "infinite",
						"resetVotes()": "infinite",
						"vote(string,uint256)": "infinite"
					}
				},
				"methodIdentifiers": {
					"getVotes(string)": "805265e5",
					"resetVotes()": "b9830ff1",
					"vote(string,uint256)": "a6385803"
				}
			},
			"storageLayout": {
				"storage": [
					{
						"astId": 5,
						"contract": "task1/question1.sol:Voting",
						"label": "voteMapping",
						"offset": 0,
						"slot": "0",
						"type": "t_mapping(t_string_memory_ptr,t_uint256)"
					},
					{
						"astId": 8,
						"contract": "task1/question1.sol:Voting",
						"label": "allUser",
						"offset": 0,
						"slot": "1",
						"type": "t_array(t_string_storage)dyn_storage"
					}
				],
				"types": {
					"t_array(t_string_storage)dyn_storage": {
						"base": "t_string_storage",
						"encoding": "dynamic_array",
						"label": "string[]",
						"numberOfBytes": "32"
					},
					"t_mapping(t_string_memory_ptr,t_uint256)": {
						"encoding": "mapping",
						"key": "t_string_memory_ptr",
						"label": "mapping(string => uint256)",
						"numberOfBytes": "32",
						"value": "t_uint256"
					},
					"t_string_memory_ptr": {
						"encoding": "bytes",
						"label": "string",
						"numberOfBytes": "32"
					},
					"t_string_storage": {
						"encoding": "bytes",
						"label": "string",
						"numberOfBytes": "32"
					},
					"t_uint256": {
						"encoding": "inplace",
						"label": "uint256",
						"numberOfBytes": "32"
					}
				}
			},
			"userdoc": {
				"kind": "user",
				"methods": {},
				"version": 1
			}
		}
	}
}