{
	"data": {
		"bytecode": {
			"linkReferences": {},
			"object": "6080604052348015600e575f5ffd5b50610b738061001c5f395ff3fe608060405234801561000f575f5ffd5b5060043610610029575f3560e01c80638e2ce69a1461002d575b5f5ffd5b61004760048036038101906100429190610547565b61005d565b60405161005491906105e2565b60405180910390f35b60605f82108061006e5750610f9f82115b156100895760405180602001604052805f815250905061050b565b5f60405180602001604052805f81525090505f6103e8846100aa919061065c565b90505f8111156100fb575f5f90505b818160ff1610156100f957826040516020016100d591906106ec565b604051602081830303815290604052925080806100f19061071d565b9150506100b9565b505b6103e8816101099190610745565b846101149190610786565b93505f606485610124919061065c565b90505f811115610259576004811015610182575f5f90505b818160ff16101561017c578360405160200161015891906107df565b604051602081830303815290604052935080806101749061071d565b91505061013c565b50610258565b600481036101b1578260405160200161019b919061082a565b6040516020818303038152906040529250610257565b600981101561023357826040516020016101cb9190610875565b60405160208183030381529060405292505f5f90505b6005826101ee9190610786565b8160ff16101561022d578360405160200161020991906107df565b604051602081830303815290604052935080806102259061071d565b9150506101e1565b50610256565b8260405160200161024491906108c0565b60405160208183030381529060405292505b5b5b5b6064816102669190610745565b856102719190610786565b94505f600a86610281919061065c565b90505f8111156103b65760048110156102df575f5f90505b818160ff1610156102d957846040516020016102b5919061090b565b604051602081830303815290604052945080806102d19061071d565b915050610299565b506103b5565b6004810361030e57836040516020016102f89190610956565b60405160208183030381529060405293506103b4565b6009811015610390578360405160200161032891906109a1565b60405160208183030381529060405293505f5f90505b60058261034b9190610786565b8160ff16101561038a5784604051602001610366919061090b565b604051602081830303815290604052945080806103829061071d565b91505061033e565b506103b3565b836040516020016103a191906109ec565b60405160208183030381529060405293505b5b5b5b600a816103c39190610745565b866103ce9190610786565b95505f86111561050357600486101561042c575f5f90505b868160ff16101561042657846040516020016104029190610a37565b6040516020818303038152906040529450808061041e9061071d565b9150506103e6565b50610502565b6004860361045b57836040516020016104459190610a82565b6040516020818303038152906040529350610501565b60098610156104dd57836040516020016104759190610acd565b60405160208183030381529060405293505f5f90505b6005876104989190610786565b8160ff1610156104d757846040516020016104b39190610a37565b604051602081830303815290604052945080806104cf9061071d565b91505061048b565b50610500565b836040516020016104ee9190610b18565b60405160208183030381529060405293505b5b5b5b839450505050505b919050565b5f5ffd5b5f819050919050565b61052681610514565b8114610530575f5ffd5b50565b5f813590506105418161051d565b92915050565b5f6020828403121561055c5761055b610510565b5b5f61056984828501610533565b91505092915050565b5f81519050919050565b5f82825260208201905092915050565b8281835e5f83830152505050565b5f601f19601f8301169050919050565b5f6105b482610572565b6105be818561057c565b93506105ce81856020860161058c565b6105d78161059a565b840191505092915050565b5f6020820190508181035f8301526105fa81846105aa565b905092915050565b7f4e487b71000000000000000000000000000000000000000000000000000000005f52601260045260245ffd5b7f4e487b71000000000000000000000000000000000000000000000000000000005f52601160045260245ffd5b5f61066682610514565b915061067183610514565b92508261068157610680610602565b5b828204905092915050565b5f81905092915050565b5f6106a082610572565b6106aa818561068c565b93506106ba81856020860161058c565b80840191505092915050565b7f4d00000000000000000000000000000000000000000000000000000000000000815250565b5f6106f78284610696565b9150610702826106c6565b60018201915081905092915050565b5f60ff82169050919050565b5f61072782610711565b915060ff820361073a5761073961062f565b5b600182019050919050565b5f61074f82610514565b915061075a83610514565b925082820261076881610514565b9150828204841483151761077f5761077e61062f565b5b5092915050565b5f61079082610514565b915061079b83610514565b92508282039050818111156107b3576107b261062f565b5b92915050565b7f4300000000000000000000000000000000000000000000000000000000000000815250565b5f6107ea8284610696565b91506107f5826107b9565b60018201915081905092915050565b7f4344000000000000000000000000000000000000000000000000000000000000815250565b5f6108358284610696565b915061084082610804565b60028201915081905092915050565b7f4400000000000000000000000000000000000000000000000000000000000000815250565b5f6108808284610696565b915061088b8261084f565b60018201915081905092915050565b7f434d000000000000000000000000000000000000000000000000000000000000815250565b5f6108cb8284610696565b91506108d68261089a565b60028201915081905092915050565b7f5800000000000000000000000000000000000000000000000000000000000000815250565b5f6109168284610696565b9150610921826108e5565b60018201915081905092915050565b7f584c000000000000000000000000000000000000000000000000000000000000815250565b5f6109618284610696565b915061096c82610930565b60028201915081905092915050565b7f4c00000000000000000000000000000000000000000000000000000000000000815250565b5f6109ac8284610696565b91506109b78261097b565b60018201915081905092915050565b7f5843000000000000000000000000000000000000000000000000000000000000815250565b5f6109f78284610696565b9150610a02826109c6565b60028201915081905092915050565b7f4900000000000000000000000000000000000000000000000000000000000000815250565b5f610a428284610696565b9150610a4d82610a11565b60018201915081905092915050565b7f4956000000000000000000000000000000000000000000000000000000000000815250565b5f610a8d8284610696565b9150610a9882610a5c565b60028201915081905092915050565b7f5600000000000000000000000000000000000000000000000000000000000000815250565b5f610ad88284610696565b9150610ae382610aa7565b60018201915081905092915050565b7f4958000000000000000000000000000000000000000000000000000000000000815250565b5f610b238284610696565b9150610b2e82610af2565b6002820191508190509291505056fea26469706673582212205b6a797a3d40206b5f8ad8e9151072d8e46a3508bfc399d00ebfaacf7fbd1b4e64736f6c634300081e0033",
			"opcodes": "PUSH1 0x80 PUSH1 0x40 MSTORE CALLVALUE DUP1 ISZERO PUSH1 0xE JUMPI PUSH0 PUSH0 REVERT JUMPDEST POP PUSH2 0xB73 DUP1 PUSH2 0x1C PUSH0 CODECOPY PUSH0 RETURN INVALID PUSH1 0x80 PUSH1 0x40 MSTORE CALLVALUE DUP1 ISZERO PUSH2 0xF JUMPI PUSH0 PUSH0 REVERT JUMPDEST POP PUSH1 0x4 CALLDATASIZE LT PUSH2 0x29 JUMPI PUSH0 CALLDATALOAD PUSH1 0xE0 SHR DUP1 PUSH4 0x8E2CE69A EQ PUSH2 0x2D JUMPI JUMPDEST PUSH0 PUSH0 REVERT JUMPDEST PUSH2 0x47 PUSH1 0x4 DUP1 CALLDATASIZE SUB DUP2 ADD SWAP1 PUSH2 0x42 SWAP2 SWAP1 PUSH2 0x547 JUMP JUMPDEST PUSH2 0x5D JUMP JUMPDEST PUSH1 0x40 MLOAD PUSH2 0x54 SWAP2 SWAP1 PUSH2 0x5E2 JUMP JUMPDEST PUSH1 0x40 MLOAD DUP1 SWAP2 SUB SWAP1 RETURN JUMPDEST PUSH1 0x60 PUSH0 DUP3 LT DUP1 PUSH2 0x6E JUMPI POP PUSH2 0xF9F DUP3 GT JUMPDEST ISZERO PUSH2 0x89 JUMPI PUSH1 0x40 MLOAD DUP1 PUSH1 0x20 ADD PUSH1 0x40 MSTORE DUP1 PUSH0 DUP2 MSTORE POP SWAP1 POP PUSH2 0x50B JUMP JUMPDEST PUSH0 PUSH1 0x40 MLOAD DUP1 PUSH1 0x20 ADD PUSH1 0x40 MSTORE DUP1 PUSH0 DUP2 MSTORE POP SWAP1 POP PUSH0 PUSH2 0x3E8 DUP5 PUSH2 0xAA SWAP2 SWAP1 PUSH2 0x65C JUMP JUMPDEST SWAP1 POP PUSH0 DUP2 GT ISZERO PUSH2 0xFB JUMPI PUSH0 PUSH0 SWAP1 POP JUMPDEST DUP2 DUP2 PUSH1 0xFF AND LT ISZERO PUSH2 0xF9 JUMPI DUP3 PUSH1 0x40 MLOAD PUSH1 0x20 ADD PUSH2 0xD5 SWAP2 SWAP1 PUSH2 0x6EC JUMP JUMPDEST PUSH1 0x40 MLOAD PUSH1 0x20 DUP2 DUP4 SUB SUB DUP2 MSTORE SWAP1 PUSH1 0x40 MSTORE SWAP3 POP DUP1 DUP1 PUSH2 0xF1 SWAP1 PUSH2 0x71D JUMP JUMPDEST SWAP2 POP POP PUSH2 0xB9 JUMP JUMPDEST POP JUMPDEST PUSH2 0x3E8 DUP2 PUSH2 0x109 SWAP2 SWAP1 PUSH2 0x745 JUMP JUMPDEST DUP5 PUSH2 0x114 SWAP2 SWAP1 PUSH2 0x786 JUMP JUMPDEST SWAP4 POP PUSH0 PUSH1 0x64 DUP6 PUSH2 0x124 SWAP2 SWAP1 PUSH2 0x65C JUMP JUMPDEST SWAP1 POP PUSH0 DUP2 GT ISZERO PUSH2 0x259 JUMPI PUSH1 0x4 DUP2 LT ISZERO PUSH2 0x182 JUMPI PUSH0 PUSH0 SWAP1 POP JUMPDEST DUP2 DUP2 PUSH1 0xFF AND LT ISZERO PUSH2 0x17C JUMPI DUP4 PUSH1 0x40 MLOAD PUSH1 0x20 ADD PUSH2 0x158 SWAP2 SWAP1 PUSH2 0x7DF JUMP JUMPDEST PUSH1 0x40 MLOAD PUSH1 0x20 DUP2 DUP4 SUB SUB DUP2 MSTORE SWAP1 PUSH1 0x40 MSTORE SWAP4 POP DUP1 DUP1 PUSH2 0x174 SWAP1 PUSH2 0x71D JUMP JUMPDEST SWAP2 POP POP PUSH2 0x13C JUMP JUMPDEST POP PUSH2 0x258 JUMP JUMPDEST PUSH1 0x4 DUP2 SUB PUSH2 0x1B1 JUMPI DUP3 PUSH1 0x40 MLOAD PUSH1 0x20 ADD PUSH2 0x19B SWAP2 SWAP1 PUSH2 0x82A JUMP JUMPDEST PUSH1 0x40 MLOAD PUSH1 0x20 DUP2 DUP4 SUB SUB DUP2 MSTORE SWAP1 PUSH1 0x40 MSTORE SWAP3 POP PUSH2 0x257 JUMP JUMPDEST PUSH1 0x9 DUP2 LT ISZERO PUSH2 0x233 JUMPI DUP3 PUSH1 0x40 MLOAD PUSH1 0x20 ADD PUSH2 0x1CB SWAP2 SWAP1 PUSH2 0x875 JUMP JUMPDEST PUSH1 0x40 MLOAD PUSH1 0x20 DUP2 DUP4 SUB SUB DUP2 MSTORE SWAP1 PUSH1 0x40 MSTORE SWAP3 POP PUSH0 PUSH0 SWAP1 POP JUMPDEST PUSH1 0x5 DUP3 PUSH2 0x1EE SWAP2 SWAP1 PUSH2 0x786 JUMP JUMPDEST DUP2 PUSH1 0xFF AND LT ISZERO PUSH2 0x22D JUMPI DUP4 PUSH1 0x40 MLOAD PUSH1 0x20 ADD PUSH2 0x209 SWAP2 SWAP1 PUSH2 0x7DF JUMP JUMPDEST PUSH1 0x40 MLOAD PUSH1 0x20 DUP2 DUP4 SUB SUB DUP2 MSTORE SWAP1 PUSH1 0x40 MSTORE SWAP4 POP DUP1 DUP1 PUSH2 0x225 SWAP1 PUSH2 0x71D JUMP JUMPDEST SWAP2 POP POP PUSH2 0x1E1 JUMP JUMPDEST POP PUSH2 0x256 JUMP JUMPDEST DUP3 PUSH1 0x40 MLOAD PUSH1 0x20 ADD PUSH2 0x244 SWAP2 SWAP1 PUSH2 0x8C0 JUMP JUMPDEST PUSH1 0x40 MLOAD PUSH1 0x20 DUP2 DUP4 SUB SUB DUP2 MSTORE SWAP1 PUSH1 0x40 MSTORE SWAP3 POP JUMPDEST JUMPDEST JUMPDEST JUMPDEST PUSH1 0x64 DUP2 PUSH2 0x266 SWAP2 SWAP1 PUSH2 0x745 JUMP JUMPDEST DUP6 PUSH2 0x271 SWAP2 SWAP1 PUSH2 0x786 JUMP JUMPDEST SWAP5 POP PUSH0 PUSH1 0xA DUP7 PUSH2 0x281 SWAP2 SWAP1 PUSH2 0x65C JUMP JUMPDEST SWAP1 POP PUSH0 DUP2 GT ISZERO PUSH2 0x3B6 JUMPI PUSH1 0x4 DUP2 LT ISZERO PUSH2 0x2DF JUMPI PUSH0 PUSH0 SWAP1 POP JUMPDEST DUP2 DUP2 PUSH1 0xFF AND LT ISZERO PUSH2 0x2D9 JUMPI DUP5 PUSH1 0x40 MLOAD PUSH1 0x20 ADD PUSH2 0x2B5 SWAP2 SWAP1 PUSH2 0x90B JUMP JUMPDEST PUSH1 0x40 MLOAD PUSH1 0x20 DUP2 DUP4 SUB SUB DUP2 MSTORE SWAP1 PUSH1 0x40 MSTORE SWAP5 POP DUP1 DUP1 PUSH2 0x2D1 SWAP1 PUSH2 0x71D JUMP JUMPDEST SWAP2 POP POP PUSH2 0x299 JUMP JUMPDEST POP PUSH2 0x3B5 JUMP JUMPDEST PUSH1 0x4 DUP2 SUB PUSH2 0x30E JUMPI DUP4 PUSH1 0x40 MLOAD PUSH1 0x20 ADD PUSH2 0x2F8 SWAP2 SWAP1 PUSH2 0x956 JUMP JUMPDEST PUSH1 0x40 MLOAD PUSH1 0x20 DUP2 DUP4 SUB SUB DUP2 MSTORE SWAP1 PUSH1 0x40 MSTORE SWAP4 POP PUSH2 0x3B4 JUMP JUMPDEST PUSH1 0x9 DUP2 LT ISZERO PUSH2 0x390 JUMPI DUP4 PUSH1 0x40 MLOAD PUSH1 0x20 ADD PUSH2 0x328 SWAP2 SWAP1 PUSH2 0x9A1 JUMP JUMPDEST PUSH1 0x40 MLOAD PUSH1 0x20 DUP2 DUP4 SUB SUB DUP2 MSTORE SWAP1 PUSH1 0x40 MSTORE SWAP4 POP PUSH0 PUSH0 SWAP1 POP JUMPDEST PUSH1 0x5 DUP3 PUSH2 0x34B SWAP2 SWAP1 PUSH2 0x786 JUMP JUMPDEST DUP2 PUSH1 0xFF AND LT ISZERO PUSH2 0x38A JUMPI DUP5 PUSH1 0x40 MLOAD PUSH1 0x20 ADD PUSH2 0x366 SWAP2 SWAP1 PUSH2 0x90B JUMP JUMPDEST PUSH1 0x40 MLOAD PUSH1 0x20 DUP2 DUP4 SUB SUB DUP2 MSTORE SWAP1 PUSH1 0x40 MSTORE SWAP5 POP DUP1 DUP1 PUSH2 0x382 SWAP1 PUSH2 0x71D JUMP JUMPDEST SWAP2 POP POP PUSH2 0x33E JUMP JUMPDEST POP PUSH2 0x3B3 JUMP JUMPDEST DUP4 PUSH1 0x40 MLOAD PUSH1 0x20 ADD PUSH2 0x3A1 SWAP2 SWAP1 PUSH2 0x9EC JUMP JUMPDEST PUSH1 0x40 MLOAD PUSH1 0x20 DUP2 DUP4 SUB SUB DUP2 MSTORE SWAP1 PUSH1 0x40 MSTORE SWAP4 POP JUMPDEST JUMPDEST JUMPDEST JUMPDEST PUSH1 0xA DUP2 PUSH2 0x3C3 SWAP2 SWAP1 PUSH2 0x745 JUMP JUMPDEST DUP7 PUSH2 0x3CE SWAP2 SWAP1 PUSH2 0x786 JUMP JUMPDEST SWAP6 POP PUSH0 DUP7 GT ISZERO PUSH2 0x503 JUMPI PUSH1 0x4 DUP7 LT ISZERO PUSH2 0x42C JUMPI PUSH0 PUSH0 SWAP1 POP JUMPDEST DUP7 DUP2 PUSH1 0xFF AND LT ISZERO PUSH2 0x426 JUMPI DUP5 PUSH1 0x40 MLOAD PUSH1 0x20 ADD PUSH2 0x402 SWAP2 SWAP1 PUSH2 0xA37 JUMP JUMPDEST PUSH1 0x40 MLOAD PUSH1 0x20 DUP2 DUP4 SUB SUB DUP2 MSTORE SWAP1 PUSH1 0x40 MSTORE SWAP5 POP DUP1 DUP1 PUSH2 0x41E SWAP1 PUSH2 0x71D JUMP JUMPDEST SWAP2 POP POP PUSH2 0x3E6 JUMP JUMPDEST POP PUSH2 0x502 JUMP JUMPDEST PUSH1 0x4 DUP7 SUB PUSH2 0x45B JUMPI DUP4 PUSH1 0x40 MLOAD PUSH1 0x20 ADD PUSH2 0x445 SWAP2 SWAP1 PUSH2 0xA82 JUMP JUMPDEST PUSH1 0x40 MLOAD PUSH1 0x20 DUP2 DUP4 SUB SUB DUP2 MSTORE SWAP1 PUSH1 0x40 MSTORE SWAP4 POP PUSH2 0x501 JUMP JUMPDEST PUSH1 0x9 DUP7 LT ISZERO PUSH2 0x4DD JUMPI DUP4 PUSH1 0x40 MLOAD PUSH1 0x20 ADD PUSH2 0x475 SWAP2 SWAP1 PUSH2 0xACD JUMP JUMPDEST PUSH1 0x40 MLOAD PUSH1 0x20 DUP2 DUP4 SUB SUB DUP2 MSTORE SWAP1 PUSH1 0x40 MSTORE SWAP4 POP PUSH0 PUSH0 SWAP1 POP JUMPDEST PUSH1 0x5 DUP8 PUSH2 0x498 SWAP2 SWAP1 PUSH2 0x786 JUMP JUMPDEST DUP2 PUSH1 0xFF AND LT ISZERO PUSH2 0x4D7 JUMPI DUP5 PUSH1 0x40 MLOAD PUSH1 0x20 ADD PUSH2 0x4B3 SWAP2 SWAP1 PUSH2 0xA37 JUMP JUMPDEST PUSH1 0x40 MLOAD PUSH1 0x20 DUP2 DUP4 SUB SUB DUP2 MSTORE SWAP1 PUSH1 0x40 MSTORE SWAP5 POP DUP1 DUP1 PUSH2 0x4CF SWAP1 PUSH2 0x71D JUMP JUMPDEST SWAP2 POP POP PUSH2 0x48B JUMP JUMPDEST POP PUSH2 0x500 JUMP JUMPDEST DUP4 PUSH1 0x40 MLOAD PUSH1 0x20 ADD PUSH2 0x4EE SWAP2 SWAP1 PUSH2 0xB18 JUMP JUMPDEST PUSH1 0x40 MLOAD PUSH1 0x20 DUP2 DUP4 SUB SUB DUP2 MSTORE SWAP1 PUSH1 0x40 MSTORE SWAP4 POP JUMPDEST JUMPDEST JUMPDEST JUMPDEST DUP4 SWAP5 POP POP POP POP POP JUMPDEST SWAP2 SWAP1 POP JUMP JUMPDEST PUSH0 PUSH0 REVERT JUMPDEST PUSH0 DUP2 SWAP1 POP SWAP2 SWAP1 POP JUMP JUMPDEST PUSH2 0x526 DUP2 PUSH2 0x514 JUMP JUMPDEST DUP2 EQ PUSH2 0x530 JUMPI PUSH0 PUSH0 REVERT JUMPDEST POP JUMP JUMPDEST PUSH0 DUP2 CALLDATALOAD SWAP1 POP PUSH2 0x541 DUP2 PUSH2 0x51D JUMP JUMPDEST SWAP3 SWAP2 POP POP JUMP JUMPDEST PUSH0 PUSH1 0x20 DUP3 DUP5 SUB SLT ISZERO PUSH2 0x55C JUMPI PUSH2 0x55B PUSH2 0x510 JUMP JUMPDEST JUMPDEST PUSH0 PUSH2 0x569 DUP5 DUP3 DUP6 ADD PUSH2 0x533 JUMP JUMPDEST SWAP2 POP POP SWAP3 SWAP2 POP POP JUMP JUMPDEST PUSH0 DUP2 MLOAD SWAP1 POP SWAP2 SWAP1 POP JUMP JUMPDEST PUSH0 DUP3 DUP3 MSTORE PUSH1 0x20 DUP3 ADD SWAP1 POP SWAP3 SWAP2 POP POP JUMP JUMPDEST DUP3 DUP2 DUP4 MCOPY PUSH0 DUP4 DUP4 ADD MSTORE POP POP POP JUMP JUMPDEST PUSH0 PUSH1 0x1F NOT PUSH1 0x1F DUP4 ADD AND SWAP1 POP SWAP2 SWAP1 POP JUMP JUMPDEST PUSH0 PUSH2 0x5B4 DUP3 PUSH2 0x572 JUMP JUMPDEST PUSH2 0x5BE DUP2 DUP6 PUSH2 0x57C JUMP JUMPDEST SWAP4 POP PUSH2 0x5CE DUP2 DUP6 PUSH1 0x20 DUP7 ADD PUSH2 0x58C JUMP JUMPDEST PUSH2 0x5D7 DUP2 PUSH2 0x59A JUMP JUMPDEST DUP5 ADD SWAP2 POP POP SWAP3 SWAP2 POP POP JUMP JUMPDEST PUSH0 PUSH1 0x20 DUP3 ADD SWAP1 POP DUP2 DUP2 SUB PUSH0 DUP4 ADD MSTORE PUSH2 0x5FA DUP2 DUP5 PUSH2 0x5AA JUMP JUMPDEST SWAP1 POP SWAP3 SWAP2 POP POP JUMP JUMPDEST PUSH32 0x4E487B7100000000000000000000000000000000000000000000000000000000 PUSH0 MSTORE PUSH1 0x12 PUSH1 0x4 MSTORE PUSH1 0x24 PUSH0 REVERT JUMPDEST PUSH32 0x4E487B7100000000000000000000000000000000000000000000000000000000 PUSH0 MSTORE PUSH1 0x11 PUSH1 0x4 MSTORE PUSH1 0x24 PUSH0 REVERT JUMPDEST PUSH0 PUSH2 0x666 DUP3 PUSH2 0x514 JUMP JUMPDEST SWAP2 POP PUSH2 0x671 DUP4 PUSH2 0x514 JUMP JUMPDEST SWAP3 POP DUP3 PUSH2 0x681 JUMPI PUSH2 0x680 PUSH2 0x602 JUMP JUMPDEST JUMPDEST DUP3 DUP3 DIV SWAP1 POP SWAP3 SWAP2 POP POP JUMP JUMPDEST PUSH0 DUP2 SWAP1 POP SWAP3 SWAP2 POP POP JUMP JUMPDEST PUSH0 PUSH2 0x6A0 DUP3 PUSH2 0x572 JUMP JUMPDEST PUSH2 0x6AA DUP2 DUP6 PUSH2 0x68C JUMP JUMPDEST SWAP4 POP PUSH2 0x6BA DUP2 DUP6 PUSH1 0x20 DUP7 ADD PUSH2 0x58C JUMP JUMPDEST DUP1 DUP5 ADD SWAP2 POP POP SWAP3 SWAP2 POP POP JUMP JUMPDEST PUSH32 0x4D00000000000000000000000000000000000000000000000000000000000000 DUP2 MSTORE POP JUMP JUMPDEST PUSH0 PUSH2 0x6F7 DUP3 DUP5 PUSH2 0x696 JUMP JUMPDEST SWAP2 POP PUSH2 0x702 DUP3 PUSH2 0x6C6 JUMP JUMPDEST PUSH1 0x1 DUP3 ADD SWAP2 POP DUP2 SWAP1 POP SWAP3 SWAP2 POP POP JUMP JUMPDEST PUSH0 PUSH1 0xFF DUP3 AND SWAP1 POP SWAP2 SWAP1 POP JUMP JUMPDEST PUSH0 PUSH2 0x727 DUP3 PUSH2 0x711 JUMP JUMPDEST SWAP2 POP PUSH1 0xFF DUP3 SUB PUSH2 0x73A JUMPI PUSH2 0x739 PUSH2 0x62F JUMP JUMPDEST JUMPDEST PUSH1 0x1 DUP3 ADD SWAP1 POP SWAP2 SWAP1 POP JUMP JUMPDEST PUSH0 PUSH2 0x74F DUP3 PUSH2 0x514 JUMP JUMPDEST SWAP2 POP PUSH2 0x75A DUP4 PUSH2 0x514 JUMP JUMPDEST SWAP3 POP DUP3 DUP3 MUL PUSH2 0x768 DUP2 PUSH2 0x514 JUMP JUMPDEST SWAP2 POP DUP3 DUP3 DIV DUP5 EQ DUP4 ISZERO OR PUSH2 0x77F JUMPI PUSH2 0x77E PUSH2 0x62F JUMP JUMPDEST JUMPDEST POP SWAP3 SWAP2 POP POP JUMP JUMPDEST PUSH0 PUSH2 0x790 DUP3 PUSH2 0x514 JUMP JUMPDEST SWAP2 POP PUSH2 0x79B DUP4 PUSH2 0x514 JUMP JUMPDEST SWAP3 POP DUP3 DUP3 SUB SWAP1 POP DUP2 DUP2 GT ISZERO PUSH2 0x7B3 JUMPI PUSH2 0x7B2 PUSH2 0x62F JUMP JUMPDEST JUMPDEST SWAP3 SWAP2 POP POP JUMP JUMPDEST PUSH32 0x4300000000000000000000000000000000000000000000000000000000000000 DUP2 MSTORE POP JUMP JUMPDEST PUSH0 PUSH2 0x7EA DUP3 DUP5 PUSH2 0x696 JUMP JUMPDEST SWAP2 POP PUSH2 0x7F5 DUP3 PUSH2 0x7B9 JUMP JUMPDEST PUSH1 0x1 DUP3 ADD SWAP2 POP DUP2 SWAP1 POP SWAP3 SWAP2 POP POP JUMP JUMPDEST PUSH32 0x4344000000000000000000000000000000000000000000000000000000000000 DUP2 MSTORE POP JUMP JUMPDEST PUSH0 PUSH2 0x835 DUP3 DUP5 PUSH2 0x696 JUMP JUMPDEST SWAP2 POP PUSH2 0x840 DUP3 PUSH2 0x804 JUMP JUMPDEST PUSH1 0x2 DUP3 ADD SWAP2 POP DUP2 SWAP1 POP SWAP3 SWAP2 POP POP JUMP JUMPDEST PUSH32 0x4400000000000000000000000000000000000000000000000000000000000000 DUP2 MSTORE POP JUMP JUMPDEST PUSH0 PUSH2 0x880 DUP3 DUP5 PUSH2 0x696 JUMP JUMPDEST SWAP2 POP PUSH2 0x88B DUP3 PUSH2 0x84F JUMP JUMPDEST PUSH1 0x1 DUP3 ADD SWAP2 POP DUP2 SWAP1 POP SWAP3 SWAP2 POP POP JUMP JUMPDEST PUSH32 0x434D000000000000000000000000000000000000000000000000000000000000 DUP2 MSTORE POP JUMP JUMPDEST PUSH0 PUSH2 0x8CB DUP3 DUP5 PUSH2 0x696 JUMP JUMPDEST SWAP2 POP PUSH2 0x8D6 DUP3 PUSH2 0x89A JUMP JUMPDEST PUSH1 0x2 DUP3 ADD SWAP2 POP DUP2 SWAP1 POP SWAP3 SWAP2 POP POP JUMP JUMPDEST PUSH32 0x5800000000000000000000000000000000000000000000000000000000000000 DUP2 MSTORE POP JUMP JUMPDEST PUSH0 PUSH2 0x916 DUP3 DUP5 PUSH2 0x696 JUMP JUMPDEST SWAP2 POP PUSH2 0x921 DUP3 PUSH2 0x8E5 JUMP JUMPDEST PUSH1 0x1 DUP3 ADD SWAP2 POP DUP2 SWAP1 POP SWAP3 SWAP2 POP POP JUMP JUMPDEST PUSH32 0x584C000000000000000000000000000000000000000000000000000000000000 DUP2 MSTORE POP JUMP JUMPDEST PUSH0 PUSH2 0x961 DUP3 DUP5 PUSH2 0x696 JUMP JUMPDEST SWAP2 POP PUSH2 0x96C DUP3 PUSH2 0x930 JUMP JUMPDEST PUSH1 0x2 DUP3 ADD SWAP2 POP DUP2 SWAP1 POP SWAP3 SWAP2 POP POP JUMP JUMPDEST PUSH32 0x4C00000000000000000000000000000000000000000000000000000000000000 DUP2 MSTORE POP JUMP JUMPDEST PUSH0 PUSH2 0x9AC DUP3 DUP5 PUSH2 0x696 JUMP JUMPDEST SWAP2 POP PUSH2 0x9B7 DUP3 PUSH2 0x97B JUMP JUMPDEST PUSH1 0x1 DUP3 ADD SWAP2 POP DUP2 SWAP1 POP SWAP3 SWAP2 POP POP JUMP JUMPDEST PUSH32 0x5843000000000000000000000000000000000000000000000000000000000000 DUP2 MSTORE POP JUMP JUMPDEST PUSH0 PUSH2 0x9F7 DUP3 DUP5 PUSH2 0x696 JUMP JUMPDEST SWAP2 POP PUSH2 0xA02 DUP3 PUSH2 0x9C6 JUMP JUMPDEST PUSH1 0x2 DUP3 ADD SWAP2 POP DUP2 SWAP1 POP SWAP3 SWAP2 POP POP JUMP JUMPDEST PUSH32 0x4900000000000000000000000000000000000000000000000000000000000000 DUP2 MSTORE POP JUMP JUMPDEST PUSH0 PUSH2 0xA42 DUP3 DUP5 PUSH2 0x696 JUMP JUMPDEST SWAP2 POP PUSH2 0xA4D DUP3 PUSH2 0xA11 JUMP JUMPDEST PUSH1 0x1 DUP3 ADD SWAP2 POP DUP2 SWAP1 POP SWAP3 SWAP2 POP POP JUMP JUMPDEST PUSH32 0x4956000000000000000000000000000000000000000000000000000000000000 DUP2 MSTORE POP JUMP JUMPDEST PUSH0 PUSH2 0xA8D DUP3 DUP5 PUSH2 0x696 JUMP JUMPDEST SWAP2 POP PUSH2 0xA98 DUP3 PUSH2 0xA5C JUMP JUMPDEST PUSH1 0x2 DUP3 ADD SWAP2 POP DUP2 SWAP1 POP SWAP3 SWAP2 POP POP JUMP JUMPDEST PUSH32 0x5600000000000000000000000000000000000000000000000000000000000000 DUP2 MSTORE POP JUMP JUMPDEST PUSH0 PUSH2 0xAD8 DUP3 DUP5 PUSH2 0x696 JUMP JUMPDEST SWAP2 POP PUSH2 0xAE3 DUP3 PUSH2 0xAA7 JUMP JUMPDEST PUSH1 0x1 DUP3 ADD SWAP2 POP DUP2 SWAP1 POP SWAP3 SWAP2 POP POP JUMP JUMPDEST PUSH32 0x4958000000000000000000000000000000000000000000000000000000000000 DUP2 MSTORE POP JUMP JUMPDEST PUSH0 PUSH2 0xB23 DUP3 DUP5 PUSH2 0x696 JUMP JUMPDEST SWAP2 POP PUSH2 0xB2E DUP3 PUSH2 0xAF2 JUMP JUMPDEST PUSH1 0x2 DUP3 ADD SWAP2 POP DUP2 SWAP1 POP SWAP3 SWAP2 POP POP JUMP INVALID LOG2 PUSH5 0x6970667358 0x22 SLT KECCAK256 JUMPDEST PUSH11 0x797A3D40206B5F8AD8E915 LT PUSH19 0xD8E46A3508BFC399D00EBFAACF7FBD1B4E6473 PUSH16 0x6C634300081E00330000000000000000 "
		},
		"gasEstimates": {
			"creation": {
				"codeDepositCost": "586200",
				"executionCost": "617",
				"totalCost": "586817"
			},
			"external": {
				"parse(uint256)": "infinite"
			}
		},
		"methodIdentifiers": {
			"parse(uint256)": "8e2ce69a"
		}
	},
	"abi": [
		{
			"inputs": [
				{
					"internalType": "uint256",
					"name": "input",
					"type": "uint256"
				}
			],
			"name": "parse",
			"outputs": [
				{
					"internalType": "string",
					"name": "",
					"type": "string"
				}
			],
			"stateMutability": "pure",
			"type": "function"
		}
	]
}