{
	"data": {
		"bytecode": {
			"linkReferences": {},
			"object": "6080604052348015600e575f5ffd5b506040516019906074565b604051809103905ff0801580156031573d5f5f3e3d5ffd5b505f5f6101000a81548173ffffffffffffffffffffffffffffffffffffffff021916908373ffffffffffffffffffffffffffffffffffffffff1602179055506081565b61214680611a0683390190565b6119788061008e5f395ff3fe608060405234801561000f575f5ffd5b5060043610610034575f3560e01c8063824de20f14610038578063e23e74c214610056575b5f5ffd5b610040610074565b60405161004d9190610c29565b60405180910390f35b61005e61088f565b60405161006b9190610c29565b60405180910390f35b5f60405160200161008490610c96565b604051602081830303815290604052805190602001205f5f9054906101000a900473ffffffffffffffffffffffffffffffffffffffff1673ffffffffffffffffffffffffffffffffffffffff16630cbc513a60016040518263ffffffff1660e01b81526004016100f49190610cf5565b5f60405180830381865afa15801561010e573d5f5f3e3d5ffd5b505050506040513d5f823e3d601f19601f820116820180604052508101906101369190610e5b565b6040516020016101469190610edc565b604051602081830303815290604052805190602001201461019c576040517f08c379a000000000000000000000000000000000000000000000000000000000815260040161019390610f4c565b60405180910390fd5b6040516020016101ab90610fb4565b604051602081830303815290604052805190602001205f5f9054906101000a900473ffffffffffffffffffffffffffffffffffffffff1673ffffffffffffffffffffffffffffffffffffffff16630cbc513a60046040518263ffffffff1660e01b815260040161021b9190611001565b5f60405180830381865afa158015610235573d5f5f3e3d5ffd5b505050506040513d5f823e3d601f19601f8201168201806040525081019061025d9190610e5b565b60405160200161026d9190610edc565b60405160208183030381529060405280519060200120146102c3576040517f08c379a00000000000000000000000000000000000000000000000000000000081526004016102ba90611064565b60405180910390fd5b6040516020016102d2906110cc565b604051602081830303815290604052805190602001205f5f9054906101000a900473ffffffffffffffffffffffffffffffffffffffff1673ffffffffffffffffffffffffffffffffffffffff16630cbc513a60096040518263ffffffff1660e01b81526004016103429190611119565b5f60405180830381865afa15801561035c573d5f5f3e3d5ffd5b505050506040513d5f823e3d601f19601f820116820180604052508101906103849190610e5b565b6040516020016103949190610edc565b60405160208183030381529060405280519060200120146103ea576040517f08c379a00000000000000000000000000000000000000000000000000000000081526004016103e19061117c565b60405180910390fd5b6040516020016103f9906111e4565b604051602081830303815290604052805190602001205f5f9054906101000a900473ffffffffffffffffffffffffffffffffffffffff1673ffffffffffffffffffffffffffffffffffffffff16630cbc513a602a6040518263ffffffff1660e01b81526004016104699190611231565b5f60405180830381865afa158015610483573d5f5f3e3d5ffd5b505050506040513d5f823e3d601f19601f820116820180604052508101906104ab9190610e5b565b6040516020016104bb9190610edc565b6040516020818303038152906040528051906020012014610511576040517f08c379a000000000000000000000000000000000000000000000000000000000815260040161050890611294565b60405180910390fd5b604051602001610520906112fc565b604051602081830303815290604052805190602001205f5f9054906101000a900473ffffffffffffffffffffffffffffffffffffffff1673ffffffffffffffffffffffffffffffffffffffff16630cbc513a60636040518263ffffffff1660e01b81526004016105909190611349565b5f60405180830381865afa1580156105aa573d5f5f3e3d5ffd5b505050506040513d5f823e3d601f19601f820116820180604052508101906105d29190610e5b565b6040516020016105e29190610edc565b6040516020818303038152906040528051906020012014610638576040517f08c379a000000000000000000000000000000000000000000000000000000000815260040161062f906113ac565b60405180910390fd5b60405160200161064790611414565b604051602081830303815290604052805190602001205f5f9054906101000a900473ffffffffffffffffffffffffffffffffffffffff1673ffffffffffffffffffffffffffffffffffffffff16630cbc513a6101bc6040518263ffffffff1660e01b81526004016106b89190611461565b5f60405180830381865afa1580156106d2573d5f5f3e3d5ffd5b505050506040513d5f823e3d601f19601f820116820180604052508101906106fa9190610e5b565b60405160200161070a9190610edc565b6040516020818303038152906040528051906020012014610760576040517f08c379a0000000000000000000000000000000000000000000000000000000008152600401610757906114c4565b60405180910390fd5b60405160200161076f9061152c565b604051602081830303815290604052805190602001205f5f9054906101000a900473ffffffffffffffffffffffffffffffffffffffff1673ffffffffffffffffffffffffffffffffffffffff16630cbc513a6107e76040518263ffffffff1660e01b81526004016107e09190611579565b5f60405180830381865afa1580156107fa573d5f5f3e3d5ffd5b505050506040513d5f823e3d601f19601f820116820180604052508101906108229190610e5b565b6040516020016108329190610edc565b6040516020818303038152906040528051906020012014610888576040517f08c379a000000000000000000000000000000000000000000000000000000000815260040161087f906115dc565b60405180910390fd5b6001905090565b5f60405160200161089f90611644565b604051602081830303815290604052805190602001205f5f9054906101000a900473ffffffffffffffffffffffffffffffffffffffff1673ffffffffffffffffffffffffffffffffffffffff16630cbc513a610f9f6040518263ffffffff1660e01b81526004016109109190611691565b5f60405180830381865afa15801561092a573d5f5f3e3d5ffd5b505050506040513d5f823e3d601f19601f820116820180604052508101906109529190610e5b565b6040516020016109629190610edc565b60405160208183030381529060405280519060200120146109b8576040517f08c379a00000000000000000000000000000000000000000000000000000000081526004016109af906116f4565b60405180910390fd5b6040516020016109c79061175c565b604051602081830303815290604052805190602001205f5f9054906101000a900473ffffffffffffffffffffffffffffffffffffffff1673ffffffffffffffffffffffffffffffffffffffff16630cbc513a6103e86040518263ffffffff1660e01b8152600401610a3891906117a9565b5f60405180830381865afa158015610a52573d5f5f3e3d5ffd5b505050506040513d5f823e3d601f19601f82011682018060405250810190610a7a9190610e5b565b604051602001610a8a9190610edc565b6040516020818303038152906040528051906020012014610ae0576040517f08c379a0000000000000000000000000000000000000000000000000000000008152600401610ad79061180c565b60405180910390fd5b604051602001610aef90611874565b604051602081830303815290604052805190602001205f5f9054906101000a900473ffffffffffffffffffffffffffffffffffffffff1673ffffffffffffffffffffffffffffffffffffffff16630cbc513a6103846040518263ffffffff1660e01b8152600401610b6091906118c1565b5f60405180830381865afa158015610b7a573d5f5f3e3d5ffd5b505050506040513d5f823e3d601f19601f82011682018060405250810190610ba29190610e5b565b604051602001610bb29190610edc565b6040516020818303038152906040528051906020012014610c08576040517f08c379a0000000000000000000000000000000000000000000000000000000008152600401610bff90611924565b60405180910390fd5b6001905090565b5f8115159050919050565b610c2381610c0f565b82525050565b5f602082019050610c3c5f830184610c1a565b92915050565b5f81905092915050565b7f49000000000000000000000000000000000000000000000000000000000000005f82015250565b5f610c80600183610c42565b9150610c8b82610c4c565b600182019050919050565b5f610ca082610c74565b9150819050919050565b5f819050919050565b5f819050919050565b5f819050919050565b5f610cdf610cda610cd584610caa565b610cbc565b610cb3565b9050919050565b610cef81610cc5565b82525050565b5f602082019050610d085f830184610ce6565b92915050565b5f604051905090565b5f5ffd5b5f5ffd5b5f5ffd5b5f5ffd5b5f601f19601f8301169050919050565b7f4e487b71000000000000000000000000000000000000000000000000000000005f52604160045260245ffd5b610d6d82610d27565b810181811067ffffffffffffffff82111715610d8c57610d8b610d37565b5b80604052505050565b5f610d9e610d0e565b9050610daa8282610d64565b919050565b5f67ffffffffffffffff821115610dc957610dc8610d37565b5b610dd282610d27565b9050602081019050919050565b8281835e5f83830152505050565b5f610dff610dfa84610daf565b610d95565b905082815260208101848484011115610e1b57610e1a610d23565b5b610e26848285610ddf565b509392505050565b5f82601f830112610e4257610e41610d1f565b5b8151610e52848260208601610ded565b91505092915050565b5f60208284031215610e7057610e6f610d17565b5b5f82015167ffffffffffffffff811115610e8d57610e8c610d1b565b5b610e9984828501610e2e565b91505092915050565b5f81519050919050565b5f610eb682610ea2565b610ec08185610c42565b9350610ed0818560208601610ddf565b80840191505092915050565b5f610ee78284610eac565b915081905092915050565b5f82825260208201905092915050565b7f312073686f756c642062652049000000000000000000000000000000000000005f82015250565b5f610f36600d83610ef2565b9150610f4182610f02565b602082019050919050565b5f6020820190508181035f830152610f6381610f2a565b9050919050565b7f49560000000000000000000000000000000000000000000000000000000000005f82015250565b5f610f9e600283610c42565b9150610fa982610f6a565b600282019050919050565b5f610fbe82610f92565b9150819050919050565b5f819050919050565b5f610feb610fe6610fe184610fc8565b610cbc565b610cb3565b9050919050565b610ffb81610fd1565b82525050565b5f6020820190506110145f830184610ff2565b92915050565b7f342073686f756c642062652049560000000000000000000000000000000000005f82015250565b5f61104e600e83610ef2565b91506110598261101a565b602082019050919050565b5f6020820190508181035f83015261107b81611042565b9050919050565b7f49580000000000000000000000000000000000000000000000000000000000005f82015250565b5f6110b6600283610c42565b91506110c182611082565b600282019050919050565b5f6110d6826110aa565b9150819050919050565b5f819050919050565b5f6111036110fe6110f9846110e0565b610cbc565b610cb3565b9050919050565b611113816110e9565b82525050565b5f60208201905061112c5f83018461110a565b92915050565b7f392073686f756c642062652049580000000000000000000000000000000000005f82015250565b5f611166600e83610ef2565b915061117182611132565b602082019050919050565b5f6020820190508181035f8301526111938161115a565b9050919050565b7f584c4949000000000000000000000000000000000000000000000000000000005f82015250565b5f6111ce600483610c42565b91506111d98261119a565b600482019050919050565b5f6111ee826111c2565b9150819050919050565b5f819050919050565b5f61121b611216611211846111f8565b610cbc565b610cb3565b9050919050565b61122b81611201565b82525050565b5f6020820190506112445f830184611222565b92915050565b7f34322073686f756c6420626520584c49490000000000000000000000000000005f82015250565b5f61127e601183610ef2565b91506112898261124a565b602082019050919050565b5f6020820190508181035f8301526112ab81611272565b9050919050565b7f58434958000000000000000000000000000000000000000000000000000000005f82015250565b5f6112e6600483610c42565b91506112f1826112b2565b600482019050919050565b5f611306826112da565b9150819050919050565b5f819050919050565b5f61133361132e61132984611310565b610cbc565b610cb3565b9050919050565b61134381611319565b82525050565b5f60208201905061135c5f83018461133a565b92915050565b7f39392073686f756c6420626520584349580000000000000000000000000000005f82015250565b5f611396601183610ef2565b91506113a182611362565b602082019050919050565b5f6020820190508181035f8301526113c38161138a565b9050919050565b7f4344584c495600000000000000000000000000000000000000000000000000005f82015250565b5f6113fe600683610c42565b9150611409826113ca565b600682019050919050565b5f61141e826113f2565b9150819050919050565b5f819050919050565b5f61144b61144661144184611428565b610cbc565b610cb3565b9050919050565b61145b81611431565b82525050565b5f6020820190506114745f830184611452565b92915050565b7f3434342073686f756c64206265204344584c49560000000000000000000000005f82015250565b5f6114ae601483610ef2565b91506114b98261147a565b602082019050919050565b5f6020820190508181035f8301526114db816114a2565b9050919050565b7f4d4d5858494949000000000000000000000000000000000000000000000000005f82015250565b5f611516600783610c42565b9150611521826114e2565b600782019050919050565b5f6115368261150a565b9150819050919050565b5f819050919050565b5f61156361155e61155984611540565b610cbc565b610cb3565b9050919050565b61157381611549565b82525050565b5f60208201905061158c5f83018461156a565b92915050565b7f323032332073686f756c64206265204d4d5858494949000000000000000000005f82015250565b5f6115c6601683610ef2565b91506115d182611592565b602082019050919050565b5f6020820190508181035f8301526115f3816115ba565b9050919050565b7f4d4d4d434d5843495800000000000000000000000000000000000000000000005f82015250565b5f61162e600983610c42565b9150611639826115fa565b600982019050919050565b5f61164e82611622565b9150819050919050565b5f819050919050565b5f61167b61167661167184611658565b610cbc565b610cb3565b9050919050565b61168b81611661565b82525050565b5f6020820190506116a45f830184611682565b92915050565b7f333939392073686f756c64206265204d4d4d434d5843495800000000000000005f82015250565b5f6116de601883610ef2565b91506116e9826116aa565b602082019050919050565b5f6020820190508181035f83015261170b816116d2565b9050919050565b7f4d000000000000000000000000000000000000000000000000000000000000005f82015250565b5f611746600183610c42565b915061175182611712565b600182019050919050565b5f6117668261173a565b9150819050919050565b5f819050919050565b5f61179361178e61178984611770565b610cbc565b610cb3565b9050919050565b6117a381611779565b82525050565b5f6020820190506117bc5f83018461179a565b92915050565b7f313030302073686f756c64206265204d000000000000000000000000000000005f82015250565b5f6117f6601083610ef2565b9150611801826117c2565b602082019050919050565b5f6020820190508181035f830152611823816117ea565b9050919050565b7f434d0000000000000000000000000000000000000000000000000000000000005f82015250565b5f61185e600283610c42565b91506118698261182a565b600282019050919050565b5f61187e82611852565b9150819050919050565b5f819050919050565b5f6118ab6118a66118a184611888565b610cbc565b610cb3565b9050919050565b6118bb81611891565b82525050565b5f6020820190506118d45f8301846118b2565b92915050565b7f3930302073686f756c6420626520434d000000000000000000000000000000005f82015250565b5f61190e601083610ef2565b9150611919826118da565b602082019050919050565b5f6020820190508181035f83015261193b81611902565b905091905056fea2646970667358221220bd3ff7ab1e5a395395db8d90d98718331e9fbe6da45844905cb21b5c3f43b1ac64736f6c634300081e0033608060405234801561000f575f5ffd5b505f60405180604001604052806103e881526020016040518060400160405280600181526020017f4d00000000000000000000000000000000000000000000000000000000000000815250815250908060018154018082558091505060019003905f5260205f2090600202015f909190919091505f820151815f015560208201518160010190816100a091906109c0565b5050505f604051806040016040528061038481526020016040518060400160405280600281526020017f434d000000000000000000000000000000000000000000000000000000000000815250815250908060018154018082558091505060019003905f5260205f2090600202015f909190919091505f820151815f0155602082015181600101908161013391906109c0565b5050505f60405180604001604052806101f481526020016040518060400160405280600181526020017f4400000000000000000000000000000000000000000000000000000000000000815250815250908060018154018082558091505060019003905f5260205f2090600202015f909190919091505f820151815f015560208201518160010190816101c691906109c0565b5050505f604051806040016040528061019081526020016040518060400160405280600281526020017f4344000000000000000000000000000000000000000000000000000000000000815250815250908060018154018082558091505060019003905f5260205f2090600202015f909190919091505f820151815f0155602082015181600101908161025991906109c0565b5050505f6040518060400160405280606481526020016040518060400160405280600181526020017f4300000000000000000000000000000000000000000000000000000000000000815250815250908060018154018082558091505060019003905f5260205f2090600202015f909190919091505f820151815f015560208201518160010190816102eb91906109c0565b5050505f6040518060400160405280605a81526020016040518060400160405280600281526020017f5843000000000000000000000000000000000000000000000000000000000000815250815250908060018154018082558091505060019003905f5260205f2090600202015f909190919091505f820151815f0155602082015181600101908161037d91906109c0565b5050505f6040518060400160405280603281526020016040518060400160405280600181526020017f4c00000000000000000000000000000000000000000000000000000000000000815250815250908060018154018082558091505060019003905f5260205f2090600202015f909190919091505f820151815f0155602082015181600101908161040f91906109c0565b5050505f6040518060400160405280602881526020016040518060400160405280600281526020017f584c000000000000000000000000000000000000000000000000000000000000815250815250908060018154018082558091505060019003905f5260205f2090600202015f909190919091505f820151815f015560208201518160010190816104a191906109c0565b5050505f6040518060400160405280600a81526020016040518060400160405280600181526020017f5800000000000000000000000000000000000000000000000000000000000000815250815250908060018154018082558091505060019003905f5260205f2090600202015f909190919091505f820151815f0155602082015181600101908161053391906109c0565b5050505f6040518060400160405280600981526020016040518060400160405280600281526020017f4958000000000000000000000000000000000000000000000000000000000000815250815250908060018154018082558091505060019003905f5260205f2090600202015f909190919091505f820151815f015560208201518160010190816105c591906109c0565b5050505f6040518060400160405280600581526020016040518060400160405280600181526020017f5600000000000000000000000000000000000000000000000000000000000000815250815250908060018154018082558091505060019003905f5260205f2090600202015f909190919091505f820151815f0155602082015181600101908161065791906109c0565b5050505f6040518060400160405280600481526020016040518060400160405280600281526020017f4956000000000000000000000000000000000000000000000000000000000000815250815250908060018154018082558091505060019003905f5260205f2090600202015f909190919091505f820151815f015560208201518160010190816106e991906109c0565b5050505f6040518060400160405280600181526020016040518060400160405280600181526020017f4900000000000000000000000000000000000000000000000000000000000000815250815250908060018154018082558091505060019003905f5260205f2090600202015f909190919091505f820151815f0155602082015181600101908161077b91906109c0565b505050610a8f565b5f81519050919050565b7f4e487b71000000000000000000000000000000000000000000000000000000005f52604160045260245ffd5b7f4e487b71000000000000000000000000000000000000000000000000000000005f52602260045260245ffd5b5f60028204905060018216806107fe57607f821691505b602082108103610811576108106107ba565b5b50919050565b5f819050815f5260205f209050919050565b5f6020601f8301049050919050565b5f82821b905092915050565b5f600883026108737fffffffffffffffffffffffffffffffffffffffffffffffffffffffffffffffff82610838565b61087d8683610838565b95508019841693508086168417925050509392505050565b5f819050919050565b5f819050919050565b5f6108c16108bc6108b784610895565b61089e565b610895565b9050919050565b5f819050919050565b6108da836108a7565b6108ee6108e6826108c8565b848454610844565b825550505050565b5f5f905090565b6109056108f6565b6109108184846108d1565b505050565b5b81811015610933576109285f826108fd565b600181019050610916565b5050565b601f8211156109785761094981610817565b61095284610829565b81016020851015610961578190505b61097561096d85610829565b830182610915565b50505b505050565b5f82821c905092915050565b5f6109985f198460080261097d565b1980831691505092915050565b5f6109b08383610989565b9150826002028217905092915050565b6109c982610783565b67ffffffffffffffff8111156109e2576109e161078d565b5b6109ec82546107e7565b6109f7828285610937565b5f60209050601f831160018114610a28575f8415610a16578287015190505b610a2085826109a5565b865550610a87565b601f198416610a3686610817565b5f5b82811015610a5d57848901518255600182019150602085019450602081019050610a38565b86831015610a7a5784890151610a76601f891682610989565b8355505b6001600288020188555050505b505050505050565b6116aa80610a9c5f395ff3fe608060405234801561000f575f5ffd5b5060043610610055575f3560e01c80630cbc513a1461005957806342ea35d41461008957806348e0d233146100a8578063736c057c146100d8578063df7f710e14610108575b5f5ffd5b610073600480360381019061006e9190610e3c565b610126565b6040516100809190610ed7565b60405180910390f35b6100916102d3565b60405161009f929190610f06565b60405180910390f35b6100c260048036038101906100bd9190611059565b6102e2565b6040516100cf91906110ba565b60405180910390f35b6100f260048036038101906100ed9190611197565b610360565b6040516100ff91906112e1565b60405180910390f35b61011061041a565b60405161011d9190611405565b60405180910390f35b60605f821180156101385750610fa082105b610177576040517f08c379a000000000000000000000000000000000000000000000000000000000815260040161016e90611495565b60405180910390fd5b5f60405180602001604052805f81525090505f8390505f5f90505b5f805490508110156102c8575f5f82815481106101b2576101b16114b3565b5b905f5260205f2090600202016040518060400160405290815f82015481526020016001820180546101e29061150d565b80601f016020809104026020016040519081016040528092919081815260200182805461020e9061150d565b80156102595780601f1061023057610100808354040283529160200191610259565b820191905f5260205f20905b81548152906001019060200180831161023c57829003601f168201915b50505050508152505090505b805f015183106102ad57838160200151604051602001610286929190611577565b6040516020818303038152906040529350805f0151836102a691906115c7565b9250610265565b5f83036102ba57506102c8565b508080600101915050610192565b508192505050919050565b5f5f6001610f9f915091509091565b5f5f8290505f815190505f81036102fd575f9250505061035b565b5f5f90505b8181101561034c576103308382815181106103205761031f6114b3565b5b602001015160f81c60f81b61050e565b61033f575f935050505061035b565b8080600101915050610302565b5061035682610723565b925050505b919050565b60605f825167ffffffffffffffff81111561037e5761037d610f35565b5b6040519080825280602002602001820160405280156103b157816020015b606081526020019060019003908161039c5790505b5090505f5f90505b8351811015610410576103e58482815181106103d8576103d76114b3565b5b6020026020010151610126565b8282815181106103f8576103f76114b3565b5b602002602001018190525080806001019150506103b9565b5080915050919050565b60605f805480602002602001604051908101604052809291908181526020015f905b82821015610505578382905f5260205f2090600202016040518060400160405290815f82015481526020016001820180546104769061150d565b80601f01602080910402602001604051908101604052809291908181526020018280546104a29061150d565b80156104ed5780601f106104c4576101008083540402835291602001916104ed565b820191905f5260205f20905b8154815290600101906020018083116104d057829003601f168201915b5050505050815250508152602001906001019061043c565b50505050905090565b5f7f4900000000000000000000000000000000000000000000000000000000000000827effffffffffffffffffffffffffffffffffffffffffffffffffffffffffffff191614806105a057507f5600000000000000000000000000000000000000000000000000000000000000827effffffffffffffffffffffffffffffffffffffffffffffffffffffffffffff1916145b806105ec57507f5800000000000000000000000000000000000000000000000000000000000000827effffffffffffffffffffffffffffffffffffffffffffffffffffffffffffff1916145b8061063857507f4c00000000000000000000000000000000000000000000000000000000000000827effffffffffffffffffffffffffffffffffffffffffffffffffffffffffffff1916145b8061068457507f4300000000000000000000000000000000000000000000000000000000000000827effffffffffffffffffffffffffffffffffffffffffffffffffffffffffffff1916145b806106d057507f4400000000000000000000000000000000000000000000000000000000000000827effffffffffffffffffffffffffffffffffffffffffffffffffffffffffffff1916145b8061071c57507f4d00000000000000000000000000000000000000000000000000000000000000827effffffffffffffffffffffffffffffffffffffffffffffffffffffffffffff1916145b9050919050565b5f5f5f90505b6001835161073791906115c7565b811015610ded575f838281518110610752576107516114b3565b5b602001015160f81c60f81b90505f8460018461076e91906115fa565b8151811061077f5761077e6114b3565b5b602001015160f81c60f81b90507f4900000000000000000000000000000000000000000000000000000000000000827effffffffffffffffffffffffffffffffffffffffffffffffffffffffffffff191614801561086a57507f5600000000000000000000000000000000000000000000000000000000000000817effffffffffffffffffffffffffffffffffffffffffffffffffffffffffffff1916148061086957507f5800000000000000000000000000000000000000000000000000000000000000817effffffffffffffffffffffffffffffffffffffffffffffffffffffffffffff1916145b5b15610876575050610dda565b7f5800000000000000000000000000000000000000000000000000000000000000827effffffffffffffffffffffffffffffffffffffffffffffffffffffffffffff191614801561095457507f4c00000000000000000000000000000000000000000000000000000000000000817effffffffffffffffffffffffffffffffffffffffffffffffffffffffffffff1916148061095357507f4300000000000000000000000000000000000000000000000000000000000000817effffffffffffffffffffffffffffffffffffffffffffffffffffffffffffff1916145b5b15610960575050610dda565b7f4300000000000000000000000000000000000000000000000000000000000000827effffffffffffffffffffffffffffffffffffffffffffffffffffffffffffff1916148015610a3e57507f4400000000000000000000000000000000000000000000000000000000000000817effffffffffffffffffffffffffffffffffffffffffffffffffffffffffffff19161480610a3d57507f4d00000000000000000000000000000000000000000000000000000000000000817effffffffffffffffffffffffffffffffffffffffffffffffffffffffffffff1916145b5b15610a4a575050610dda565b7f4900000000000000000000000000000000000000000000000000000000000000827effffffffffffffffffffffffffffffffffffffffffffffffffffffffffffff19161480610adb57507f5800000000000000000000000000000000000000000000000000000000000000827effffffffffffffffffffffffffffffffffffffffffffffffffffffffffffff1916145b80610b2757507f4300000000000000000000000000000000000000000000000000000000000000827effffffffffffffffffffffffffffffffffffffffffffffffffffffffffffff1916145b80610b7357507f4d00000000000000000000000000000000000000000000000000000000000000827effffffffffffffffffffffffffffffffffffffffffffffffffffffffffffff1916145b15610c5b575f600190505f600185610b8b91906115fa565b90505b865181108015610bfe5750837effffffffffffffffffffffffffffffffffffffffffffffffffffffffffffff1916878281518110610bcf57610bce6114b3565b5b602001015160f81c60f81b7effffffffffffffffffffffffffffffffffffffffffffffffffffffffffffff1916145b15610c3a578180610c0e9061162d565b9250506003821115610c27575f95505050505050610df3565b8080610c329061162d565b915050610b8e565b50600181610c4891906115c7565b84610c5391906115fa565b935050610dd7565b7f5600000000000000000000000000000000000000000000000000000000000000827effffffffffffffffffffffffffffffffffffffffffffffffffffffffffffff19161480610cec57507f4c00000000000000000000000000000000000000000000000000000000000000827effffffffffffffffffffffffffffffffffffffffffffffffffffffffffffff1916145b80610d3857507f4400000000000000000000000000000000000000000000000000000000000000827effffffffffffffffffffffffffffffffffffffffffffffffffffffffffffff1916145b15610dd65760018551610d4b91906115c7565b83108015610dc55750817effffffffffffffffffffffffffffffffffffffffffffffffffffffffffffff191685600185610d8591906115fa565b81518110610d9657610d956114b3565b5b602001015160f81c60f81b7effffffffffffffffffffffffffffffffffffffffffffffffffffffffffffff1916145b15610dd5575f9350505050610df3565b5b5b50505b8080610de59061162d565b915050610729565b50600190505b919050565b5f604051905090565b5f5ffd5b5f5ffd5b5f819050919050565b610e1b81610e09565b8114610e25575f5ffd5b50565b5f81359050610e3681610e12565b92915050565b5f60208284031215610e5157610e50610e01565b5b5f610e5e84828501610e28565b91505092915050565b5f81519050919050565b5f82825260208201905092915050565b8281835e5f83830152505050565b5f601f19601f8301169050919050565b5f610ea982610e67565b610eb38185610e71565b9350610ec3818560208601610e81565b610ecc81610e8f565b840191505092915050565b5f6020820190508181035f830152610eef8184610e9f565b905092915050565b610f0081610e09565b82525050565b5f604082019050610f195f830185610ef7565b610f266020830184610ef7565b9392505050565b5f5ffd5b5f5ffd5b7f4e487b71000000000000000000000000000000000000000000000000000000005f52604160045260245ffd5b610f6b82610e8f565b810181811067ffffffffffffffff82111715610f8a57610f89610f35565b5b80604052505050565b5f610f9c610df8565b9050610fa88282610f62565b919050565b5f67ffffffffffffffff821115610fc757610fc6610f35565b5b610fd082610e8f565b9050602081019050919050565b828183375f83830152505050565b5f610ffd610ff884610fad565b610f93565b90508281526020810184848401111561101957611018610f31565b5b611024848285610fdd565b509392505050565b5f82601f8301126110405761103f610f2d565b5b8135611050848260208601610feb565b91505092915050565b5f6020828403121561106e5761106d610e01565b5b5f82013567ffffffffffffffff81111561108b5761108a610e05565b5b6110978482850161102c565b91505092915050565b5f8115159050919050565b6110b4816110a0565b82525050565b5f6020820190506110cd5f8301846110ab565b92915050565b5f67ffffffffffffffff8211156110ed576110ec610f35565b5b602082029050602081019050919050565b5f5ffd5b5f61111461110f846110d3565b610f93565b90508083825260208201905060208402830185811115611137576111366110fe565b5b835b81811015611160578061114c8882610e28565b845260208401935050602081019050611139565b5050509392505050565b5f82601f83011261117e5761117d610f2d565b5b813561118e848260208601611102565b91505092915050565b5f602082840312156111ac576111ab610e01565b5b5f82013567ffffffffffffffff8111156111c9576111c8610e05565b5b6111d58482850161116a565b91505092915050565b5f81519050919050565b5f82825260208201905092915050565b5f819050602082019050919050565b5f82825260208201905092915050565b5f61122182610e67565b61122b8185611207565b935061123b818560208601610e81565b61124481610e8f565b840191505092915050565b5f61125a8383611217565b905092915050565b5f602082019050919050565b5f611278826111de565b61128281856111e8565b935083602082028501611294856111f8565b805f5b858110156112cf57848403895281516112b0858261124f565b94506112bb83611262565b925060208a01995050600181019050611297565b50829750879550505050505092915050565b5f6020820190508181035f8301526112f9818461126e565b905092915050565b5f81519050919050565b5f82825260208201905092915050565b5f819050602082019050919050565b61133381610e09565b82525050565b5f604083015f83015161134e5f86018261132a565b50602083015184820360208601526113668282611217565b9150508091505092915050565b5f61137e8383611339565b905092915050565b5f602082019050919050565b5f61139c82611301565b6113a6818561130b565b9350836020820285016113b88561131b565b805f5b858110156113f357848403895281516113d48582611373565b94506113df83611386565b925060208a019950506001810190506113bb565b50829750879550505050505092915050565b5f6020820190508181035f83015261141d8184611392565b905092915050565b7f4e756d626572206d757374206265206265747765656e203120616e64203339395f8201527f3900000000000000000000000000000000000000000000000000000000000000602082015250565b5f61147f602183610e71565b915061148a82611425565b604082019050919050565b5f6020820190508181035f8301526114ac81611473565b9050919050565b7f4e487b71000000000000000000000000000000000000000000000000000000005f52603260045260245ffd5b7f4e487b71000000000000000000000000000000000000000000000000000000005f52602260045260245ffd5b5f600282049050600182168061152457607f821691505b602082108103611537576115366114e0565b5b50919050565b5f81905092915050565b5f61155182610e67565b61155b818561153d565b935061156b818560208601610e81565b80840191505092915050565b5f6115828285611547565b915061158e8284611547565b91508190509392505050565b7f4e487b71000000000000000000000000000000000000000000000000000000005f52601160045260245ffd5b5f6115d182610e09565b91506115dc83610e09565b92508282039050818111156115f4576115f361159a565b5b92915050565b5f61160482610e09565b915061160f83610e09565b92508282019050808211156116275761162661159a565b5b92915050565b5f61163782610e09565b91507fffffffffffffffffffffffffffffffffffffffffffffffffffffffffffffffff82036116695761166861159a565b5b60018201905091905056fea26469706673582212202879c9805e2afcf6d55b05932089d682d77683f2a2a81a0e476cc9ba929ed4e964736f6c634300081e0033",
			"opcodes": "PUSH1 0x80 PUSH1 0x40 MSTORE CALLVALUE DUP1 ISZERO PUSH1 0xE JUMPI PUSH0 PUSH0 REVERT JUMPDEST POP PUSH1 0x40 MLOAD PUSH1 0x19 SWAP1 PUSH1 0x74 JUMP JUMPDEST PUSH1 0x40 MLOAD DUP1 SWAP2 SUB SWAP1 PUSH0 CREATE DUP1 ISZERO DUP1 ISZERO PUSH1 0x31 JUMPI RETURNDATASIZE PUSH0 PUSH0 RETURNDATACOPY RETURNDATASIZE PUSH0 REVERT JUMPDEST POP PUSH0 PUSH0 PUSH2 0x100 EXP DUP2 SLOAD DUP2 PUSH20 0xFFFFFFFFFFFFFFFFFFFFFFFFFFFFFFFFFFFFFFFF MUL NOT AND SWAP1 DUP4 PUSH20 0xFFFFFFFFFFFFFFFFFFFFFFFFFFFFFFFFFFFFFFFF AND MUL OR SWAP1 SSTORE POP PUSH1 0x81 JUMP JUMPDEST PUSH2 0x2146 DUP1 PUSH2 0x1A06 DUP4 CODECOPY ADD SWAP1 JUMP JUMPDEST PUSH2 0x1978 DUP1 PUSH2 0x8E PUSH0 CODECOPY PUSH0 RETURN INVALID PUSH1 0x80 PUSH1 0x40 MSTORE CALLVALUE DUP1 ISZERO PUSH2 0xF JUMPI PUSH0 PUSH0 REVERT JUMPDEST POP PUSH1 0x4 CALLDATASIZE LT PUSH2 0x34 JUMPI PUSH0 CALLDATALOAD PUSH1 0xE0 SHR DUP1 PUSH4 0x824DE20F EQ PUSH2 0x38 JUMPI DUP1 PUSH4 0xE23E74C2 EQ PUSH2 0x56 JUMPI JUMPDEST PUSH0 PUSH0 REVERT JUMPDEST PUSH2 0x40 PUSH2 0x74 JUMP JUMPDEST PUSH1 0x40 MLOAD PUSH2 0x4D SWAP2 SWAP1 PUSH2 0xC29 JUMP JUMPDEST PUSH1 0x40 MLOAD DUP1 SWAP2 SUB SWAP1 RETURN JUMPDEST PUSH2 0x5E PUSH2 0x88F JUMP JUMPDEST PUSH1 0x40 MLOAD PUSH2 0x6B SWAP2 SWAP1 PUSH2 0xC29 JUMP JUMPDEST PUSH1 0x40 MLOAD DUP1 SWAP2 SUB SWAP1 RETURN JUMPDEST PUSH0 PUSH1 0x40 MLOAD PUSH1 0x20 ADD PUSH2 0x84 SWAP1 PUSH2 0xC96 JUMP JUMPDEST PUSH1 0x40 MLOAD PUSH1 0x20 DUP2 DUP4 SUB SUB DUP2 MSTORE SWAP1 PUSH1 0x40 MSTORE DUP1 MLOAD SWAP1 PUSH1 0x20 ADD KECCAK256 PUSH0 PUSH0 SWAP1 SLOAD SWAP1 PUSH2 0x100 EXP SWAP1 DIV PUSH20 0xFFFFFFFFFFFFFFFFFFFFFFFFFFFFFFFFFFFFFFFF AND PUSH20 0xFFFFFFFFFFFFFFFFFFFFFFFFFFFFFFFFFFFFFFFF AND PUSH4 0xCBC513A PUSH1 0x1 PUSH1 0x40 MLOAD DUP3 PUSH4 0xFFFFFFFF AND PUSH1 0xE0 SHL DUP2 MSTORE PUSH1 0x4 ADD PUSH2 0xF4 SWAP2 SWAP1 PUSH2 0xCF5 JUMP JUMPDEST PUSH0 PUSH1 0x40 MLOAD DUP1 DUP4 SUB DUP2 DUP7 GAS STATICCALL ISZERO DUP1 ISZERO PUSH2 0x10E JUMPI RETURNDATASIZE PUSH0 PUSH0 RETURNDATACOPY RETURNDATASIZE PUSH0 REVERT JUMPDEST POP POP POP POP PUSH1 0x40 MLOAD RETURNDATASIZE PUSH0 DUP3 RETURNDATACOPY RETURNDATASIZE PUSH1 0x1F NOT PUSH1 0x1F DUP3 ADD AND DUP3 ADD DUP1 PUSH1 0x40 MSTORE POP DUP2 ADD SWAP1 PUSH2 0x136 SWAP2 SWAP1 PUSH2 0xE5B JUMP JUMPDEST PUSH1 0x40 MLOAD PUSH1 0x20 ADD PUSH2 0x146 SWAP2 SWAP1 PUSH2 0xEDC JUMP JUMPDEST PUSH1 0x40 MLOAD PUSH1 0x20 DUP2 DUP4 SUB SUB DUP2 MSTORE SWAP1 PUSH1 0x40 MSTORE DUP1 MLOAD SWAP1 PUSH1 0x20 ADD KECCAK256 EQ PUSH2 0x19C JUMPI PUSH1 0x40 MLOAD PUSH32 0x8C379A000000000000000000000000000000000000000000000000000000000 DUP2 MSTORE PUSH1 0x4 ADD PUSH2 0x193 SWAP1 PUSH2 0xF4C JUMP JUMPDEST PUSH1 0x40 MLOAD DUP1 SWAP2 SUB SWAP1 REVERT JUMPDEST PUSH1 0x40 MLOAD PUSH1 0x20 ADD PUSH2 0x1AB SWAP1 PUSH2 0xFB4 JUMP JUMPDEST PUSH1 0x40 MLOAD PUSH1 0x20 DUP2 DUP4 SUB SUB DUP2 MSTORE SWAP1 PUSH1 0x40 MSTORE DUP1 MLOAD SWAP1 PUSH1 0x20 ADD KECCAK256 PUSH0 PUSH0 SWAP1 SLOAD SWAP1 PUSH2 0x100 EXP SWAP1 DIV PUSH20 0xFFFFFFFFFFFFFFFFFFFFFFFFFFFFFFFFFFFFFFFF AND PUSH20 0xFFFFFFFFFFFFFFFFFFFFFFFFFFFFFFFFFFFFFFFF AND PUSH4 0xCBC513A PUSH1 0x4 PUSH1 0x40 MLOAD DUP3 PUSH4 0xFFFFFFFF AND PUSH1 0xE0 SHL DUP2 MSTORE PUSH1 0x4 ADD PUSH2 0x21B SWAP2 SWAP1 PUSH2 0x1001 JUMP JUMPDEST PUSH0 PUSH1 0x40 MLOAD DUP1 DUP4 SUB DUP2 DUP7 GAS STATICCALL ISZERO DUP1 ISZERO PUSH2 0x235 JUMPI RETURNDATASIZE PUSH0 PUSH0 RETURNDATACOPY RETURNDATASIZE PUSH0 REVERT JUMPDEST POP POP POP POP PUSH1 0x40 MLOAD RETURNDATASIZE PUSH0 DUP3 RETURNDATACOPY RETURNDATASIZE PUSH1 0x1F NOT PUSH1 0x1F DUP3 ADD AND DUP3 ADD DUP1 PUSH1 0x40 MSTORE POP DUP2 ADD SWAP1 PUSH2 0x25D SWAP2 SWAP1 PUSH2 0xE5B JUMP JUMPDEST PUSH1 0x40 MLOAD PUSH1 0x20 ADD PUSH2 0x26D SWAP2 SWAP1 PUSH2 0xEDC JUMP JUMPDEST PUSH1 0x40 MLOAD PUSH1 0x20 DUP2 DUP4 SUB SUB DUP2 MSTORE SWAP1 PUSH1 0x40 MSTORE DUP1 MLOAD SWAP1 PUSH1 0x20 ADD KECCAK256 EQ PUSH2 0x2C3 JUMPI PUSH1 0x40 MLOAD PUSH32 0x8C379A000000000000000000000000000000000000000000000000000000000 DUP2 MSTORE PUSH1 0x4 ADD PUSH2 0x2BA SWAP1 PUSH2 0x1064 JUMP JUMPDEST PUSH1 0x40 MLOAD DUP1 SWAP2 SUB SWAP1 REVERT JUMPDEST PUSH1 0x40 MLOAD PUSH1 0x20 ADD PUSH2 0x2D2 SWAP1 PUSH2 0x10CC JUMP JUMPDEST PUSH1 0x40 MLOAD PUSH1 0x20 DUP2 DUP4 SUB SUB DUP2 MSTORE SWAP1 PUSH1 0x40 MSTORE DUP1 MLOAD SWAP1 PUSH1 0x20 ADD KECCAK256 PUSH0 PUSH0 SWAP1 SLOAD SWAP1 PUSH2 0x100 EXP SWAP1 DIV PUSH20 0xFFFFFFFFFFFFFFFFFFFFFFFFFFFFFFFFFFFFFFFF AND PUSH20 0xFFFFFFFFFFFFFFFFFFFFFFFFFFFFFFFFFFFFFFFF AND PUSH4 0xCBC513A PUSH1 0x9 PUSH1 0x40 MLOAD DUP3 PUSH4 0xFFFFFFFF AND PUSH1 0xE0 SHL DUP2 MSTORE PUSH1 0x4 ADD PUSH2 0x342 SWAP2 SWAP1 PUSH2 0x1119 JUMP JUMPDEST PUSH0 PUSH1 0x40 MLOAD DUP1 DUP4 SUB DUP2 DUP7 GAS STATICCALL ISZERO DUP1 ISZERO PUSH2 0x35C JUMPI RETURNDATASIZE PUSH0 PUSH0 RETURNDATACOPY RETURNDATASIZE PUSH0 REVERT JUMPDEST POP POP POP POP PUSH1 0x40 MLOAD RETURNDATASIZE PUSH0 DUP3 RETURNDATACOPY RETURNDATASIZE PUSH1 0x1F NOT PUSH1 0x1F DUP3 ADD AND DUP3 ADD DUP1 PUSH1 0x40 MSTORE POP DUP2 ADD SWAP1 PUSH2 0x384 SWAP2 SWAP1 PUSH2 0xE5B JUMP JUMPDEST PUSH1 0x40 MLOAD PUSH1 0x20 ADD PUSH2 0x394 SWAP2 SWAP1 PUSH2 0xEDC JUMP JUMPDEST PUSH1 0x40 MLOAD PUSH1 0x20 DUP2 DUP4 SUB SUB DUP2 MSTORE SWAP1 PUSH1 0x40 MSTORE DUP1 MLOAD SWAP1 PUSH1 0x20 ADD KECCAK256 EQ PUSH2 0x3EA JUMPI PUSH1 0x40 MLOAD PUSH32 0x8C379A000000000000000000000000000000000000000000000000000000000 DUP2 MSTORE PUSH1 0x4 ADD PUSH2 0x3E1 SWAP1 PUSH2 0x117C JUMP JUMPDEST PUSH1 0x40 MLOAD DUP1 SWAP2 SUB SWAP1 REVERT JUMPDEST PUSH1 0x40 MLOAD PUSH1 0x20 ADD PUSH2 0x3F9 SWAP1 PUSH2 0x11E4 JUMP JUMPDEST PUSH1 0x40 MLOAD PUSH1 0x20 DUP2 DUP4 SUB SUB DUP2 MSTORE SWAP1 PUSH1 0x40 MSTORE DUP1 MLOAD SWAP1 PUSH1 0x20 ADD KECCAK256 PUSH0 PUSH0 SWAP1 SLOAD SWAP1 PUSH2 0x100 EXP SWAP1 DIV PUSH20 0xFFFFFFFFFFFFFFFFFFFFFFFFFFFFFFFFFFFFFFFF AND PUSH20 0xFFFFFFFFFFFFFFFFFFFFFFFFFFFFFFFFFFFFFFFF AND PUSH4 0xCBC513A PUSH1 0x2A PUSH1 0x40 MLOAD DUP3 PUSH4 0xFFFFFFFF AND PUSH1 0xE0 SHL DUP2 MSTORE PUSH1 0x4 ADD PUSH2 0x469 SWAP2 SWAP1 PUSH2 0x1231 JUMP JUMPDEST PUSH0 PUSH1 0x40 MLOAD DUP1 DUP4 SUB DUP2 DUP7 GAS STATICCALL ISZERO DUP1 ISZERO PUSH2 0x483 JUMPI RETURNDATASIZE PUSH0 PUSH0 RETURNDATACOPY RETURNDATASIZE PUSH0 REVERT JUMPDEST POP POP POP POP PUSH1 0x40 MLOAD RETURNDATASIZE PUSH0 DUP3 RETURNDATACOPY RETURNDATASIZE PUSH1 0x1F NOT PUSH1 0x1F DUP3 ADD AND DUP3 ADD DUP1 PUSH1 0x40 MSTORE POP DUP2 ADD SWAP1 PUSH2 0x4AB SWAP2 SWAP1 PUSH2 0xE5B JUMP JUMPDEST PUSH1 0x40 MLOAD PUSH1 0x20 ADD PUSH2 0x4BB SWAP2 SWAP1 PUSH2 0xEDC JUMP JUMPDEST PUSH1 0x40 MLOAD PUSH1 0x20 DUP2 DUP4 SUB SUB DUP2 MSTORE SWAP1 PUSH1 0x40 MSTORE DUP1 MLOAD SWAP1 PUSH1 0x20 ADD KECCAK256 EQ PUSH2 0x511 JUMPI PUSH1 0x40 MLOAD PUSH32 0x8C379A000000000000000000000000000000000000000000000000000000000 DUP2 MSTORE PUSH1 0x4 ADD PUSH2 0x508 SWAP1 PUSH2 0x1294 JUMP JUMPDEST PUSH1 0x40 MLOAD DUP1 SWAP2 SUB SWAP1 REVERT JUMPDEST PUSH1 0x40 MLOAD PUSH1 0x20 ADD PUSH2 0x520 SWAP1 PUSH2 0x12FC JUMP JUMPDEST PUSH1 0x40 MLOAD PUSH1 0x20 DUP2 DUP4 SUB SUB DUP2 MSTORE SWAP1 PUSH1 0x40 MSTORE DUP1 MLOAD SWAP1 PUSH1 0x20 ADD KECCAK256 PUSH0 PUSH0 SWAP1 SLOAD SWAP1 PUSH2 0x100 EXP SWAP1 DIV PUSH20 0xFFFFFFFFFFFFFFFFFFFFFFFFFFFFFFFFFFFFFFFF AND PUSH20 0xFFFFFFFFFFFFFFFFFFFFFFFFFFFFFFFFFFFFFFFF AND PUSH4 0xCBC513A PUSH1 0x63 PUSH1 0x40 MLOAD DUP3 PUSH4 0xFFFFFFFF AND PUSH1 0xE0 SHL DUP2 MSTORE PUSH1 0x4 ADD PUSH2 0x590 SWAP2 SWAP1 PUSH2 0x1349 JUMP JUMPDEST PUSH0 PUSH1 0x40 MLOAD DUP1 DUP4 SUB DUP2 DUP7 GAS STATICCALL ISZERO DUP1 ISZERO PUSH2 0x5AA JUMPI RETURNDATASIZE PUSH0 PUSH0 RETURNDATACOPY RETURNDATASIZE PUSH0 REVERT JUMPDEST POP POP POP POP PUSH1 0x40 MLOAD RETURNDATASIZE PUSH0 DUP3 RETURNDATACOPY RETURNDATASIZE PUSH1 0x1F NOT PUSH1 0x1F DUP3 ADD AND DUP3 ADD DUP1 PUSH1 0x40 MSTORE POP DUP2 ADD SWAP1 PUSH2 0x5D2 SWAP2 SWAP1 PUSH2 0xE5B JUMP JUMPDEST PUSH1 0x40 MLOAD PUSH1 0x20 ADD PUSH2 0x5E2 SWAP2 SWAP1 PUSH2 0xEDC JUMP JUMPDEST PUSH1 0x40 MLOAD PUSH1 0x20 DUP2 DUP4 SUB SUB DUP2 MSTORE SWAP1 PUSH1 0x40 MSTORE DUP1 MLOAD SWAP1 PUSH1 0x20 ADD KECCAK256 EQ PUSH2 0x638 JUMPI PUSH1 0x40 MLOAD PUSH32 0x8C379A000000000000000000000000000000000000000000000000000000000 DUP2 MSTORE PUSH1 0x4 ADD PUSH2 0x62F SWAP1 PUSH2 0x13AC JUMP JUMPDEST PUSH1 0x40 MLOAD DUP1 SWAP2 SUB SWAP1 REVERT JUMPDEST PUSH1 0x40 MLOAD PUSH1 0x20 ADD PUSH2 0x647 SWAP1 PUSH2 0x1414 JUMP JUMPDEST PUSH1 0x40 MLOAD PUSH1 0x20 DUP2 DUP4 SUB SUB DUP2 MSTORE SWAP1 PUSH1 0x40 MSTORE DUP1 MLOAD SWAP1 PUSH1 0x20 ADD KECCAK256 PUSH0 PUSH0 SWAP1 SLOAD SWAP1 PUSH2 0x100 EXP SWAP1 DIV PUSH20 0xFFFFFFFFFFFFFFFFFFFFFFFFFFFFFFFFFFFFFFFF AND PUSH20 0xFFFFFFFFFFFFFFFFFFFFFFFFFFFFFFFFFFFFFFFF AND PUSH4 0xCBC513A PUSH2 0x1BC PUSH1 0x40 MLOAD DUP3 PUSH4 0xFFFFFFFF AND PUSH1 0xE0 SHL DUP2 MSTORE PUSH1 0x4 ADD PUSH2 0x6B8 SWAP2 SWAP1 PUSH2 0x1461 JUMP JUMPDEST PUSH0 PUSH1 0x40 MLOAD DUP1 DUP4 SUB DUP2 DUP7 GAS STATICCALL ISZERO DUP1 ISZERO PUSH2 0x6D2 JUMPI RETURNDATASIZE PUSH0 PUSH0 RETURNDATACOPY RETURNDATASIZE PUSH0 REVERT JUMPDEST POP POP POP POP PUSH1 0x40 MLOAD RETURNDATASIZE PUSH0 DUP3 RETURNDATACOPY RETURNDATASIZE PUSH1 0x1F NOT PUSH1 0x1F DUP3 ADD AND DUP3 ADD DUP1 PUSH1 0x40 MSTORE POP DUP2 ADD SWAP1 PUSH2 0x6FA SWAP2 SWAP1 PUSH2 0xE5B JUMP JUMPDEST PUSH1 0x40 MLOAD PUSH1 0x20 ADD PUSH2 0x70A SWAP2 SWAP1 PUSH2 0xEDC JUMP JUMPDEST PUSH1 0x40 MLOAD PUSH1 0x20 DUP2 DUP4 SUB SUB DUP2 MSTORE SWAP1 PUSH1 0x40 MSTORE DUP1 MLOAD SWAP1 PUSH1 0x20 ADD KECCAK256 EQ PUSH2 0x760 JUMPI PUSH1 0x40 MLOAD PUSH32 0x8C379A000000000000000000000000000000000000000000000000000000000 DUP2 MSTORE PUSH1 0x4 ADD PUSH2 0x757 SWAP1 PUSH2 0x14C4 JUMP JUMPDEST PUSH1 0x40 MLOAD DUP1 SWAP2 SUB SWAP1 REVERT JUMPDEST PUSH1 0x40 MLOAD PUSH1 0x20 ADD PUSH2 0x76F SWAP1 PUSH2 0x152C JUMP JUMPDEST PUSH1 0x40 MLOAD PUSH1 0x20 DUP2 DUP4 SUB SUB DUP2 MSTORE SWAP1 PUSH1 0x40 MSTORE DUP1 MLOAD SWAP1 PUSH1 0x20 ADD KECCAK256 PUSH0 PUSH0 SWAP1 SLOAD SWAP1 PUSH2 0x100 EXP SWAP1 DIV PUSH20 0xFFFFFFFFFFFFFFFFFFFFFFFFFFFFFFFFFFFFFFFF AND PUSH20 0xFFFFFFFFFFFFFFFFFFFFFFFFFFFFFFFFFFFFFFFF AND PUSH4 0xCBC513A PUSH2 0x7E7 PUSH1 0x40 MLOAD DUP3 PUSH4 0xFFFFFFFF AND PUSH1 0xE0 SHL DUP2 MSTORE PUSH1 0x4 ADD PUSH2 0x7E0 SWAP2 SWAP1 PUSH2 0x1579 JUMP JUMPDEST PUSH0 PUSH1 0x40 MLOAD DUP1 DUP4 SUB DUP2 DUP7 GAS STATICCALL ISZERO DUP1 ISZERO PUSH2 0x7FA JUMPI RETURNDATASIZE PUSH0 PUSH0 RETURNDATACOPY RETURNDATASIZE PUSH0 REVERT JUMPDEST POP POP POP POP PUSH1 0x40 MLOAD RETURNDATASIZE PUSH0 DUP3 RETURNDATACOPY RETURNDATASIZE PUSH1 0x1F NOT PUSH1 0x1F DUP3 ADD AND DUP3 ADD DUP1 PUSH1 0x40 MSTORE POP DUP2 ADD SWAP1 PUSH2 0x822 SWAP2 SWAP1 PUSH2 0xE5B JUMP JUMPDEST PUSH1 0x40 MLOAD PUSH1 0x20 ADD PUSH2 0x832 SWAP2 SWAP1 PUSH2 0xEDC JUMP JUMPDEST PUSH1 0x40 MLOAD PUSH1 0x20 DUP2 DUP4 SUB SUB DUP2 MSTORE SWAP1 PUSH1 0x40 MSTORE DUP1 MLOAD SWAP1 PUSH1 0x20 ADD KECCAK256 EQ PUSH2 0x888 JUMPI PUSH1 0x40 MLOAD PUSH32 0x8C379A000000000000000000000000000000000000000000000000000000000 DUP2 MSTORE PUSH1 0x4 ADD PUSH2 0x87F SWAP1 PUSH2 0x15DC JUMP JUMPDEST PUSH1 0x40 MLOAD DUP1 SWAP2 SUB SWAP1 REVERT JUMPDEST PUSH1 0x1 SWAP1 POP SWAP1 JUMP JUMPDEST PUSH0 PUSH1 0x40 MLOAD PUSH1 0x20 ADD PUSH2 0x89F SWAP1 PUSH2 0x1644 JUMP JUMPDEST PUSH1 0x40 MLOAD PUSH1 0x20 DUP2 DUP4 SUB SUB DUP2 MSTORE SWAP1 PUSH1 0x40 MSTORE DUP1 MLOAD SWAP1 PUSH1 0x20 ADD KECCAK256 PUSH0 PUSH0 SWAP1 SLOAD SWAP1 PUSH2 0x100 EXP SWAP1 DIV PUSH20 0xFFFFFFFFFFFFFFFFFFFFFFFFFFFFFFFFFFFFFFFF AND PUSH20 0xFFFFFFFFFFFFFFFFFFFFFFFFFFFFFFFFFFFFFFFF AND PUSH4 0xCBC513A PUSH2 0xF9F PUSH1 0x40 MLOAD DUP3 PUSH4 0xFFFFFFFF AND PUSH1 0xE0 SHL DUP2 MSTORE PUSH1 0x4 ADD PUSH2 0x910 SWAP2 SWAP1 PUSH2 0x1691 JUMP JUMPDEST PUSH0 PUSH1 0x40 MLOAD DUP1 DUP4 SUB DUP2 DUP7 GAS STATICCALL ISZERO DUP1 ISZERO PUSH2 0x92A JUMPI RETURNDATASIZE PUSH0 PUSH0 RETURNDATACOPY RETURNDATASIZE PUSH0 REVERT JUMPDEST POP POP POP POP PUSH1 0x40 MLOAD RETURNDATASIZE PUSH0 DUP3 RETURNDATACOPY RETURNDATASIZE PUSH1 0x1F NOT PUSH1 0x1F DUP3 ADD AND DUP3 ADD DUP1 PUSH1 0x40 MSTORE POP DUP2 ADD SWAP1 PUSH2 0x952 SWAP2 SWAP1 PUSH2 0xE5B JUMP JUMPDEST PUSH1 0x40 MLOAD PUSH1 0x20 ADD PUSH2 0x962 SWAP2 SWAP1 PUSH2 0xEDC JUMP JUMPDEST PUSH1 0x40 MLOAD PUSH1 0x20 DUP2 DUP4 SUB SUB DUP2 MSTORE SWAP1 PUSH1 0x40 MSTORE DUP1 MLOAD SWAP1 PUSH1 0x20 ADD KECCAK256 EQ PUSH2 0x9B8 JUMPI PUSH1 0x40 MLOAD PUSH32 0x8C379A000000000000000000000000000000000000000000000000000000000 DUP2 MSTORE PUSH1 0x4 ADD PUSH2 0x9AF SWAP1 PUSH2 0x16F4 JUMP JUMPDEST PUSH1 0x40 MLOAD DUP1 SWAP2 SUB SWAP1 REVERT JUMPDEST PUSH1 0x40 MLOAD PUSH1 0x20 ADD PUSH2 0x9C7 SWAP1 PUSH2 0x175C JUMP JUMPDEST PUSH1 0x40 MLOAD PUSH1 0x20 DUP2 DUP4 SUB SUB DUP2 MSTORE SWAP1 PUSH1 0x40 MSTORE DUP1 MLOAD SWAP1 PUSH1 0x20 ADD KECCAK256 PUSH0 PUSH0 SWAP1 SLOAD SWAP1 PUSH2 0x100 EXP SWAP1 DIV PUSH20 0xFFFFFFFFFFFFFFFFFFFFFFFFFFFFFFFFFFFFFFFF AND PUSH20 0xFFFFFFFFFFFFFFFFFFFFFFFFFFFFFFFFFFFFFFFF AND PUSH4 0xCBC513A PUSH2 0x3E8 PUSH1 0x40 MLOAD DUP3 PUSH4 0xFFFFFFFF AND PUSH1 0xE0 SHL DUP2 MSTORE PUSH1 0x4 ADD PUSH2 0xA38 SWAP2 SWAP1 PUSH2 0x17A9 JUMP JUMPDEST PUSH0 PUSH1 0x40 MLOAD DUP1 DUP4 SUB DUP2 DUP7 GAS STATICCALL ISZERO DUP1 ISZERO PUSH2 0xA52 JUMPI RETURNDATASIZE PUSH0 PUSH0 RETURNDATACOPY RETURNDATASIZE PUSH0 REVERT JUMPDEST POP POP POP POP PUSH1 0x40 MLOAD RETURNDATASIZE PUSH0 DUP3 RETURNDATACOPY RETURNDATASIZE PUSH1 0x1F NOT PUSH1 0x1F DUP3 ADD AND DUP3 ADD DUP1 PUSH1 0x40 MSTORE POP DUP2 ADD SWAP1 PUSH2 0xA7A SWAP2 SWAP1 PUSH2 0xE5B JUMP JUMPDEST PUSH1 0x40 MLOAD PUSH1 0x20 ADD PUSH2 0xA8A SWAP2 SWAP1 PUSH2 0xEDC JUMP JUMPDEST PUSH1 0x40 MLOAD PUSH1 0x20 DUP2 DUP4 SUB SUB DUP2 MSTORE SWAP1 PUSH1 0x40 MSTORE DUP1 MLOAD SWAP1 PUSH1 0x20 ADD KECCAK256 EQ PUSH2 0xAE0 JUMPI PUSH1 0x40 MLOAD PUSH32 0x8C379A000000000000000000000000000000000000000000000000000000000 DUP2 MSTORE PUSH1 0x4 ADD PUSH2 0xAD7 SWAP1 PUSH2 0x180C JUMP JUMPDEST PUSH1 0x40 MLOAD DUP1 SWAP2 SUB SWAP1 REVERT JUMPDEST PUSH1 0x40 MLOAD PUSH1 0x20 ADD PUSH2 0xAEF SWAP1 PUSH2 0x1874 JUMP JUMPDEST PUSH1 0x40 MLOAD PUSH1 0x20 DUP2 DUP4 SUB SUB DUP2 MSTORE SWAP1 PUSH1 0x40 MSTORE DUP1 MLOAD SWAP1 PUSH1 0x20 ADD KECCAK256 PUSH0 PUSH0 SWAP1 SLOAD SWAP1 PUSH2 0x100 EXP SWAP1 DIV PUSH20 0xFFFFFFFFFFFFFFFFFFFFFFFFFFFFFFFFFFFFFFFF AND PUSH20 0xFFFFFFFFFFFFFFFFFFFFFFFFFFFFFFFFFFFFFFFF AND PUSH4 0xCBC513A PUSH2 0x384 PUSH1 0x40 MLOAD DUP3 PUSH4 0xFFFFFFFF AND PUSH1 0xE0 SHL DUP2 MSTORE PUSH1 0x4 ADD PUSH2 0xB60 SWAP2 SWAP1 PUSH2 0x18C1 JUMP JUMPDEST PUSH0 PUSH1 0x40 MLOAD DUP1 DUP4 SUB DUP2 DUP7 GAS STATICCALL ISZERO DUP1 ISZERO PUSH2 0xB7A JUMPI RETURNDATASIZE PUSH0 PUSH0 RETURNDATACOPY RETURNDATASIZE PUSH0 REVERT JUMPDEST POP POP POP POP PUSH1 0x40 MLOAD RETURNDATASIZE PUSH0 DUP3 RETURNDATACOPY RETURNDATASIZE PUSH1 0x1F NOT PUSH1 0x1F DUP3 ADD AND DUP3 ADD DUP1 PUSH1 0x40 MSTORE POP DUP2 ADD SWAP1 PUSH2 0xBA2 SWAP2 SWAP1 PUSH2 0xE5B JUMP JUMPDEST PUSH1 0x40 MLOAD PUSH1 0x20 ADD PUSH2 0xBB2 SWAP2 SWAP1 PUSH2 0xEDC JUMP JUMPDEST PUSH1 0x40 MLOAD PUSH1 0x20 DUP2 DUP4 SUB SUB DUP2 MSTORE SWAP1 PUSH1 0x40 MSTORE DUP1 MLOAD SWAP1 PUSH1 0x20 ADD KECCAK256 EQ PUSH2 0xC08 JUMPI PUSH1 0x40 MLOAD PUSH32 0x8C379A000000000000000000000000000000000000000000000000000000000 DUP2 MSTORE PUSH1 0x4 ADD PUSH2 0xBFF SWAP1 PUSH2 0x1924 JUMP JUMPDEST PUSH1 0x40 MLOAD DUP1 SWAP2 SUB SWAP1 REVERT JUMPDEST PUSH1 0x1 SWAP1 POP SWAP1 JUMP JUMPDEST PUSH0 DUP2 ISZERO ISZERO SWAP1 POP SWAP2 SWAP1 POP JUMP JUMPDEST PUSH2 0xC23 DUP2 PUSH2 0xC0F JUMP JUMPDEST DUP3 MSTORE POP POP JUMP JUMPDEST PUSH0 PUSH1 0x20 DUP3 ADD SWAP1 POP PUSH2 0xC3C PUSH0 DUP4 ADD DUP5 PUSH2 0xC1A JUMP JUMPDEST SWAP3 SWAP2 POP POP JUMP JUMPDEST PUSH0 DUP2 SWAP1 POP SWAP3 SWAP2 POP POP JUMP JUMPDEST PUSH32 0x4900000000000000000000000000000000000000000000000000000000000000 PUSH0 DUP3 ADD MSTORE POP JUMP JUMPDEST PUSH0 PUSH2 0xC80 PUSH1 0x1 DUP4 PUSH2 0xC42 JUMP JUMPDEST SWAP2 POP PUSH2 0xC8B DUP3 PUSH2 0xC4C JUMP JUMPDEST PUSH1 0x1 DUP3 ADD SWAP1 POP SWAP2 SWAP1 POP JUMP JUMPDEST PUSH0 PUSH2 0xCA0 DUP3 PUSH2 0xC74 JUMP JUMPDEST SWAP2 POP DUP2 SWAP1 POP SWAP2 SWAP1 POP JUMP JUMPDEST PUSH0 DUP2 SWAP1 POP SWAP2 SWAP1 POP JUMP JUMPDEST PUSH0 DUP2 SWAP1 POP SWAP2 SWAP1 POP JUMP JUMPDEST PUSH0 DUP2 SWAP1 POP SWAP2 SWAP1 POP JUMP JUMPDEST PUSH0 PUSH2 0xCDF PUSH2 0xCDA PUSH2 0xCD5 DUP5 PUSH2 0xCAA JUMP JUMPDEST PUSH2 0xCBC JUMP JUMPDEST PUSH2 0xCB3 JUMP JUMPDEST SWAP1 POP SWAP2 SWAP1 POP JUMP JUMPDEST PUSH2 0xCEF DUP2 PUSH2 0xCC5 JUMP JUMPDEST DUP3 MSTORE POP POP JUMP JUMPDEST PUSH0 PUSH1 0x20 DUP3 ADD SWAP1 POP PUSH2 0xD08 PUSH0 DUP4 ADD DUP5 PUSH2 0xCE6 JUMP JUMPDEST SWAP3 SWAP2 POP POP JUMP JUMPDEST PUSH0 PUSH1 0x40 MLOAD SWAP1 POP SWAP1 JUMP JUMPDEST PUSH0 PUSH0 REVERT JUMPDEST PUSH0 PUSH0 REVERT JUMPDEST PUSH0 PUSH0 REVERT JUMPDEST PUSH0 PUSH0 REVERT JUMPDEST PUSH0 PUSH1 0x1F NOT PUSH1 0x1F DUP4 ADD AND SWAP1 POP SWAP2 SWAP1 POP JUMP JUMPDEST PUSH32 0x4E487B7100000000000000000000000000000000000000000000000000000000 PUSH0 MSTORE PUSH1 0x41 PUSH1 0x4 MSTORE PUSH1 0x24 PUSH0 REVERT JUMPDEST PUSH2 0xD6D DUP3 PUSH2 0xD27 JUMP JUMPDEST DUP2 ADD DUP2 DUP2 LT PUSH8 0xFFFFFFFFFFFFFFFF DUP3 GT OR ISZERO PUSH2 0xD8C JUMPI PUSH2 0xD8B PUSH2 0xD37 JUMP JUMPDEST JUMPDEST DUP1 PUSH1 0x40 MSTORE POP POP POP JUMP JUMPDEST PUSH0 PUSH2 0xD9E PUSH2 0xD0E JUMP JUMPDEST SWAP1 POP PUSH2 0xDAA DUP3 DUP3 PUSH2 0xD64 JUMP JUMPDEST SWAP2 SWAP1 POP JUMP JUMPDEST PUSH0 PUSH8 0xFFFFFFFFFFFFFFFF DUP3 GT ISZERO PUSH2 0xDC9 JUMPI PUSH2 0xDC8 PUSH2 0xD37 JUMP JUMPDEST JUMPDEST PUSH2 0xDD2 DUP3 PUSH2 0xD27 JUMP JUMPDEST SWAP1 POP PUSH1 0x20 DUP2 ADD SWAP1 POP SWAP2 SWAP1 POP JUMP JUMPDEST DUP3 DUP2 DUP4 MCOPY PUSH0 DUP4 DUP4 ADD MSTORE POP POP POP JUMP JUMPDEST PUSH0 PUSH2 0xDFF PUSH2 0xDFA DUP5 PUSH2 0xDAF JUMP JUMPDEST PUSH2 0xD95 JUMP JUMPDEST SWAP1 POP DUP3 DUP2 MSTORE PUSH1 0x20 DUP2 ADD DUP5 DUP5 DUP5 ADD GT ISZERO PUSH2 0xE1B JUMPI PUSH2 0xE1A PUSH2 0xD23 JUMP JUMPDEST JUMPDEST PUSH2 0xE26 DUP5 DUP3 DUP6 PUSH2 0xDDF JUMP JUMPDEST POP SWAP4 SWAP3 POP POP POP JUMP JUMPDEST PUSH0 DUP3 PUSH1 0x1F DUP4 ADD SLT PUSH2 0xE42 JUMPI PUSH2 0xE41 PUSH2 0xD1F JUMP JUMPDEST JUMPDEST DUP2 MLOAD PUSH2 0xE52 DUP5 DUP3 PUSH1 0x20 DUP7 ADD PUSH2 0xDED JUMP JUMPDEST SWAP2 POP POP SWAP3 SWAP2 POP POP JUMP JUMPDEST PUSH0 PUSH1 0x20 DUP3 DUP5 SUB SLT ISZERO PUSH2 0xE70 JUMPI PUSH2 0xE6F PUSH2 0xD17 JUMP JUMPDEST JUMPDEST PUSH0 DUP3 ADD MLOAD PUSH8 0xFFFFFFFFFFFFFFFF DUP2 GT ISZERO PUSH2 0xE8D JUMPI PUSH2 0xE8C PUSH2 0xD1B JUMP JUMPDEST JUMPDEST PUSH2 0xE99 DUP5 DUP3 DUP6 ADD PUSH2 0xE2E JUMP JUMPDEST SWAP2 POP POP SWAP3 SWAP2 POP POP JUMP JUMPDEST PUSH0 DUP2 MLOAD SWAP1 POP SWAP2 SWAP1 POP JUMP JUMPDEST PUSH0 PUSH2 0xEB6 DUP3 PUSH2 0xEA2 JUMP JUMPDEST PUSH2 0xEC0 DUP2 DUP6 PUSH2 0xC42 JUMP JUMPDEST SWAP4 POP PUSH2 0xED0 DUP2 DUP6 PUSH1 0x20 DUP7 ADD PUSH2 0xDDF JUMP JUMPDEST DUP1 DUP5 ADD SWAP2 POP POP SWAP3 SWAP2 POP POP JUMP JUMPDEST PUSH0 PUSH2 0xEE7 DUP3 DUP5 PUSH2 0xEAC JUMP JUMPDEST SWAP2 POP DUP2 SWAP1 POP SWAP3 SWAP2 POP POP JUMP JUMPDEST PUSH0 DUP3 DUP3 MSTORE PUSH1 0x20 DUP3 ADD SWAP1 POP SWAP3 SWAP2 POP POP JUMP JUMPDEST PUSH32 0x312073686F756C64206265204900000000000000000000000000000000000000 PUSH0 DUP3 ADD MSTORE POP JUMP JUMPDEST PUSH0 PUSH2 0xF36 PUSH1 0xD DUP4 PUSH2 0xEF2 JUMP JUMPDEST SWAP2 POP PUSH2 0xF41 DUP3 PUSH2 0xF02 JUMP JUMPDEST PUSH1 0x20 DUP3 ADD SWAP1 POP SWAP2 SWAP1 POP JUMP JUMPDEST PUSH0 PUSH1 0x20 DUP3 ADD SWAP1 POP DUP2 DUP2 SUB PUSH0 DUP4 ADD MSTORE PUSH2 0xF63 DUP2 PUSH2 0xF2A JUMP JUMPDEST SWAP1 POP SWAP2 SWAP1 POP JUMP JUMPDEST PUSH32 0x4956000000000000000000000000000000000000000000000000000000000000 PUSH0 DUP3 ADD MSTORE POP JUMP JUMPDEST PUSH0 PUSH2 0xF9E PUSH1 0x2 DUP4 PUSH2 0xC42 JUMP JUMPDEST SWAP2 POP PUSH2 0xFA9 DUP3 PUSH2 0xF6A JUMP JUMPDEST PUSH1 0x2 DUP3 ADD SWAP1 POP SWAP2 SWAP1 POP JUMP JUMPDEST PUSH0 PUSH2 0xFBE DUP3 PUSH2 0xF92 JUMP JUMPDEST SWAP2 POP DUP2 SWAP1 POP SWAP2 SWAP1 POP JUMP JUMPDEST PUSH0 DUP2 SWAP1 POP SWAP2 SWAP1 POP JUMP JUMPDEST PUSH0 PUSH2 0xFEB PUSH2 0xFE6 PUSH2 0xFE1 DUP5 PUSH2 0xFC8 JUMP JUMPDEST PUSH2 0xCBC JUMP JUMPDEST PUSH2 0xCB3 JUMP JUMPDEST SWAP1 POP SWAP2 SWAP1 POP JUMP JUMPDEST PUSH2 0xFFB DUP2 PUSH2 0xFD1 JUMP JUMPDEST DUP3 MSTORE POP POP JUMP JUMPDEST PUSH0 PUSH1 0x20 DUP3 ADD SWAP1 POP PUSH2 0x1014 PUSH0 DUP4 ADD DUP5 PUSH2 0xFF2 JUMP JUMPDEST SWAP3 SWAP2 POP POP JUMP JUMPDEST PUSH32 0x342073686F756C64206265204956000000000000000000000000000000000000 PUSH0 DUP3 ADD MSTORE POP JUMP JUMPDEST PUSH0 PUSH2 0x104E PUSH1 0xE DUP4 PUSH2 0xEF2 JUMP JUMPDEST SWAP2 POP PUSH2 0x1059 DUP3 PUSH2 0x101A JUMP JUMPDEST PUSH1 0x20 DUP3 ADD SWAP1 POP SWAP2 SWAP1 POP JUMP JUMPDEST PUSH0 PUSH1 0x20 DUP3 ADD SWAP1 POP DUP2 DUP2 SUB PUSH0 DUP4 ADD MSTORE PUSH2 0x107B DUP2 PUSH2 0x1042 JUMP JUMPDEST SWAP1 POP SWAP2 SWAP1 POP JUMP JUMPDEST PUSH32 0x4958000000000000000000000000000000000000000000000000000000000000 PUSH0 DUP3 ADD MSTORE POP JUMP JUMPDEST PUSH0 PUSH2 0x10B6 PUSH1 0x2 DUP4 PUSH2 0xC42 JUMP JUMPDEST SWAP2 POP PUSH2 0x10C1 DUP3 PUSH2 0x1082 JUMP JUMPDEST PUSH1 0x2 DUP3 ADD SWAP1 POP SWAP2 SWAP1 POP JUMP JUMPDEST PUSH0 PUSH2 0x10D6 DUP3 PUSH2 0x10AA JUMP JUMPDEST SWAP2 POP DUP2 SWAP1 POP SWAP2 SWAP1 POP JUMP JUMPDEST PUSH0 DUP2 SWAP1 POP SWAP2 SWAP1 POP JUMP JUMPDEST PUSH0 PUSH2 0x1103 PUSH2 0x10FE PUSH2 0x10F9 DUP5 PUSH2 0x10E0 JUMP JUMPDEST PUSH2 0xCBC JUMP JUMPDEST PUSH2 0xCB3 JUMP JUMPDEST SWAP1 POP SWAP2 SWAP1 POP JUMP JUMPDEST PUSH2 0x1113 DUP2 PUSH2 0x10E9 JUMP JUMPDEST DUP3 MSTORE POP POP JUMP JUMPDEST PUSH0 PUSH1 0x20 DUP3 ADD SWAP1 POP PUSH2 0x112C PUSH0 DUP4 ADD DUP5 PUSH2 0x110A JUMP JUMPDEST SWAP3 SWAP2 POP POP JUMP JUMPDEST PUSH32 0x392073686F756C64206265204958000000000000000000000000000000000000 PUSH0 DUP3 ADD MSTORE POP JUMP JUMPDEST PUSH0 PUSH2 0x1166 PUSH1 0xE DUP4 PUSH2 0xEF2 JUMP JUMPDEST SWAP2 POP PUSH2 0x1171 DUP3 PUSH2 0x1132 JUMP JUMPDEST PUSH1 0x20 DUP3 ADD SWAP1 POP SWAP2 SWAP1 POP JUMP JUMPDEST PUSH0 PUSH1 0x20 DUP3 ADD SWAP1 POP DUP2 DUP2 SUB PUSH0 DUP4 ADD MSTORE PUSH2 0x1193 DUP2 PUSH2 0x115A JUMP JUMPDEST SWAP1 POP SWAP2 SWAP1 POP JUMP JUMPDEST PUSH32 0x584C494900000000000000000000000000000000000000000000000000000000 PUSH0 DUP3 ADD MSTORE POP JUMP JUMPDEST PUSH0 PUSH2 0x11CE PUSH1 0x4 DUP4 PUSH2 0xC42 JUMP JUMPDEST SWAP2 POP PUSH2 0x11D9 DUP3 PUSH2 0x119A JUMP JUMPDEST PUSH1 0x4 DUP3 ADD SWAP1 POP SWAP2 SWAP1 POP JUMP JUMPDEST PUSH0 PUSH2 0x11EE DUP3 PUSH2 0x11C2 JUMP JUMPDEST SWAP2 POP DUP2 SWAP1 POP SWAP2 SWAP1 POP JUMP JUMPDEST PUSH0 DUP2 SWAP1 POP SWAP2 SWAP1 POP JUMP JUMPDEST PUSH0 PUSH2 0x121B PUSH2 0x1216 PUSH2 0x1211 DUP5 PUSH2 0x11F8 JUMP JUMPDEST PUSH2 0xCBC JUMP JUMPDEST PUSH2 0xCB3 JUMP JUMPDEST SWAP1 POP SWAP2 SWAP1 POP JUMP JUMPDEST PUSH2 0x122B DUP2 PUSH2 0x1201 JUMP JUMPDEST DUP3 MSTORE POP POP JUMP JUMPDEST PUSH0 PUSH1 0x20 DUP3 ADD SWAP1 POP PUSH2 0x1244 PUSH0 DUP4 ADD DUP5 PUSH2 0x1222 JUMP JUMPDEST SWAP3 SWAP2 POP POP JUMP JUMPDEST PUSH32 0x34322073686F756C6420626520584C4949000000000000000000000000000000 PUSH0 DUP3 ADD MSTORE POP JUMP JUMPDEST PUSH0 PUSH2 0x127E PUSH1 0x11 DUP4 PUSH2 0xEF2 JUMP JUMPDEST SWAP2 POP PUSH2 0x1289 DUP3 PUSH2 0x124A JUMP JUMPDEST PUSH1 0x20 DUP3 ADD SWAP1 POP SWAP2 SWAP1 POP JUMP JUMPDEST PUSH0 PUSH1 0x20 DUP3 ADD SWAP1 POP DUP2 DUP2 SUB PUSH0 DUP4 ADD MSTORE PUSH2 0x12AB DUP2 PUSH2 0x1272 JUMP JUMPDEST SWAP1 POP SWAP2 SWAP1 POP JUMP JUMPDEST PUSH32 0x5843495800000000000000000000000000000000000000000000000000000000 PUSH0 DUP3 ADD MSTORE POP JUMP JUMPDEST PUSH0 PUSH2 0x12E6 PUSH1 0x4 DUP4 PUSH2 0xC42 JUMP JUMPDEST SWAP2 POP PUSH2 0x12F1 DUP3 PUSH2 0x12B2 JUMP JUMPDEST PUSH1 0x4 DUP3 ADD SWAP1 POP SWAP2 SWAP1 POP JUMP JUMPDEST PUSH0 PUSH2 0x1306 DUP3 PUSH2 0x12DA JUMP JUMPDEST SWAP2 POP DUP2 SWAP1 POP SWAP2 SWAP1 POP JUMP JUMPDEST PUSH0 DUP2 SWAP1 POP SWAP2 SWAP1 POP JUMP JUMPDEST PUSH0 PUSH2 0x1333 PUSH2 0x132E PUSH2 0x1329 DUP5 PUSH2 0x1310 JUMP JUMPDEST PUSH2 0xCBC JUMP JUMPDEST PUSH2 0xCB3 JUMP JUMPDEST SWAP1 POP SWAP2 SWAP1 POP JUMP JUMPDEST PUSH2 0x1343 DUP2 PUSH2 0x1319 JUMP JUMPDEST DUP3 MSTORE POP POP JUMP JUMPDEST PUSH0 PUSH1 0x20 DUP3 ADD SWAP1 POP PUSH2 0x135C PUSH0 DUP4 ADD DUP5 PUSH2 0x133A JUMP JUMPDEST SWAP3 SWAP2 POP POP JUMP JUMPDEST PUSH32 0x39392073686F756C642062652058434958000000000000000000000000000000 PUSH0 DUP3 ADD MSTORE POP JUMP JUMPDEST PUSH0 PUSH2 0x1396 PUSH1 0x11 DUP4 PUSH2 0xEF2 JUMP JUMPDEST SWAP2 POP PUSH2 0x13A1 DUP3 PUSH2 0x1362 JUMP JUMPDEST PUSH1 0x20 DUP3 ADD SWAP1 POP SWAP2 SWAP1 POP JUMP JUMPDEST PUSH0 PUSH1 0x20 DUP3 ADD SWAP1 POP DUP2 DUP2 SUB PUSH0 DUP4 ADD MSTORE PUSH2 0x13C3 DUP2 PUSH2 0x138A JUMP JUMPDEST SWAP1 POP SWAP2 SWAP1 POP JUMP JUMPDEST PUSH32 0x4344584C49560000000000000000000000000000000000000000000000000000 PUSH0 DUP3 ADD MSTORE POP JUMP JUMPDEST PUSH0 PUSH2 0x13FE PUSH1 0x6 DUP4 PUSH2 0xC42 JUMP JUMPDEST SWAP2 POP PUSH2 0x1409 DUP3 PUSH2 0x13CA JUMP JUMPDEST PUSH1 0x6 DUP3 ADD SWAP1 POP SWAP2 SWAP1 POP JUMP JUMPDEST PUSH0 PUSH2 0x141E DUP3 PUSH2 0x13F2 JUMP JUMPDEST SWAP2 POP DUP2 SWAP1 POP SWAP2 SWAP1 POP JUMP JUMPDEST PUSH0 DUP2 SWAP1 POP SWAP2 SWAP1 POP JUMP JUMPDEST PUSH0 PUSH2 0x144B PUSH2 0x1446 PUSH2 0x1441 DUP5 PUSH2 0x1428 JUMP JUMPDEST PUSH2 0xCBC JUMP JUMPDEST PUSH2 0xCB3 JUMP JUMPDEST SWAP1 POP SWAP2 SWAP1 POP JUMP JUMPDEST PUSH2 0x145B DUP2 PUSH2 0x1431 JUMP JUMPDEST DUP3 MSTORE POP POP JUMP JUMPDEST PUSH0 PUSH1 0x20 DUP3 ADD SWAP1 POP PUSH2 0x1474 PUSH0 DUP4 ADD DUP5 PUSH2 0x1452 JUMP JUMPDEST SWAP3 SWAP2 POP POP JUMP JUMPDEST PUSH32 0x3434342073686F756C64206265204344584C4956000000000000000000000000 PUSH0 DUP3 ADD MSTORE POP JUMP JUMPDEST PUSH0 PUSH2 0x14AE PUSH1 0x14 DUP4 PUSH2 0xEF2 JUMP JUMPDEST SWAP2 POP PUSH2 0x14B9 DUP3 PUSH2 0x147A JUMP JUMPDEST PUSH1 0x20 DUP3 ADD SWAP1 POP SWAP2 SWAP1 POP JUMP JUMPDEST PUSH0 PUSH1 0x20 DUP3 ADD SWAP1 POP DUP2 DUP2 SUB PUSH0 DUP4 ADD MSTORE PUSH2 0x14DB DUP2 PUSH2 0x14A2 JUMP JUMPDEST SWAP1 POP SWAP2 SWAP1 POP JUMP JUMPDEST PUSH32 0x4D4D585849494900000000000000000000000000000000000000000000000000 PUSH0 DUP3 ADD MSTORE POP JUMP JUMPDEST PUSH0 PUSH2 0x1516 PUSH1 0x7 DUP4 PUSH2 0xC42 JUMP JUMPDEST SWAP2 POP PUSH2 0x1521 DUP3 PUSH2 0x14E2 JUMP JUMPDEST PUSH1 0x7 DUP3 ADD SWAP1 POP SWAP2 SWAP1 POP JUMP JUMPDEST PUSH0 PUSH2 0x1536 DUP3 PUSH2 0x150A JUMP JUMPDEST SWAP2 POP DUP2 SWAP1 POP SWAP2 SWAP1 POP JUMP JUMPDEST PUSH0 DUP2 SWAP1 POP SWAP2 SWAP1 POP JUMP JUMPDEST PUSH0 PUSH2 0x1563 PUSH2 0x155E PUSH2 0x1559 DUP5 PUSH2 0x1540 JUMP JUMPDEST PUSH2 0xCBC JUMP JUMPDEST PUSH2 0xCB3 JUMP JUMPDEST SWAP1 POP SWAP2 SWAP1 POP JUMP JUMPDEST PUSH2 0x1573 DUP2 PUSH2 0x1549 JUMP JUMPDEST DUP3 MSTORE POP POP JUMP JUMPDEST PUSH0 PUSH1 0x20 DUP3 ADD SWAP1 POP PUSH2 0x158C PUSH0 DUP4 ADD DUP5 PUSH2 0x156A JUMP JUMPDEST SWAP3 SWAP2 POP POP JUMP JUMPDEST PUSH32 0x323032332073686F756C64206265204D4D585849494900000000000000000000 PUSH0 DUP3 ADD MSTORE POP JUMP JUMPDEST PUSH0 PUSH2 0x15C6 PUSH1 0x16 DUP4 PUSH2 0xEF2 JUMP JUMPDEST SWAP2 POP PUSH2 0x15D1 DUP3 PUSH2 0x1592 JUMP JUMPDEST PUSH1 0x20 DUP3 ADD SWAP1 POP SWAP2 SWAP1 POP JUMP JUMPDEST PUSH0 PUSH1 0x20 DUP3 ADD SWAP1 POP DUP2 DUP2 SUB PUSH0 DUP4 ADD MSTORE PUSH2 0x15F3 DUP2 PUSH2 0x15BA JUMP JUMPDEST SWAP1 POP SWAP2 SWAP1 POP JUMP JUMPDEST PUSH32 0x4D4D4D434D584349580000000000000000000000000000000000000000000000 PUSH0 DUP3 ADD MSTORE POP JUMP JUMPDEST PUSH0 PUSH2 0x162E PUSH1 0x9 DUP4 PUSH2 0xC42 JUMP JUMPDEST SWAP2 POP PUSH2 0x1639 DUP3 PUSH2 0x15FA JUMP JUMPDEST PUSH1 0x9 DUP3 ADD SWAP1 POP SWAP2 SWAP1 POP JUMP JUMPDEST PUSH0 PUSH2 0x164E DUP3 PUSH2 0x1622 JUMP JUMPDEST SWAP2 POP DUP2 SWAP1 POP SWAP2 SWAP1 POP JUMP JUMPDEST PUSH0 DUP2 SWAP1 POP SWAP2 SWAP1 POP JUMP JUMPDEST PUSH0 PUSH2 0x167B PUSH2 0x1676 PUSH2 0x1671 DUP5 PUSH2 0x1658 JUMP JUMPDEST PUSH2 0xCBC JUMP JUMPDEST PUSH2 0xCB3 JUMP JUMPDEST SWAP1 POP SWAP2 SWAP1 POP JUMP JUMPDEST PUSH2 0x168B DUP2 PUSH2 0x1661 JUMP JUMPDEST DUP3 MSTORE POP POP JUMP JUMPDEST PUSH0 PUSH1 0x20 DUP3 ADD SWAP1 POP PUSH2 0x16A4 PUSH0 DUP4 ADD DUP5 PUSH2 0x1682 JUMP JUMPDEST SWAP3 SWAP2 POP POP JUMP JUMPDEST PUSH32 0x333939392073686F756C64206265204D4D4D434D584349580000000000000000 PUSH0 DUP3 ADD MSTORE POP JUMP JUMPDEST PUSH0 PUSH2 0x16DE PUSH1 0x18 DUP4 PUSH2 0xEF2 JUMP JUMPDEST SWAP2 POP PUSH2 0x16E9 DUP3 PUSH2 0x16AA JUMP JUMPDEST PUSH1 0x20 DUP3 ADD SWAP1 POP SWAP2 SWAP1 POP JUMP JUMPDEST PUSH0 PUSH1 0x20 DUP3 ADD SWAP1 POP DUP2 DUP2 SUB PUSH0 DUP4 ADD MSTORE PUSH2 0x170B DUP2 PUSH2 0x16D2 JUMP JUMPDEST SWAP1 POP SWAP2 SWAP1 POP JUMP JUMPDEST PUSH32 0x4D00000000000000000000000000000000000000000000000000000000000000 PUSH0 DUP3 ADD MSTORE POP JUMP JUMPDEST PUSH0 PUSH2 0x1746 PUSH1 0x1 DUP4 PUSH2 0xC42 JUMP JUMPDEST SWAP2 POP PUSH2 0x1751 DUP3 PUSH2 0x1712 JUMP JUMPDEST PUSH1 0x1 DUP3 ADD SWAP1 POP SWAP2 SWAP1 POP JUMP JUMPDEST PUSH0 PUSH2 0x1766 DUP3 PUSH2 0x173A JUMP JUMPDEST SWAP2 POP DUP2 SWAP1 POP SWAP2 SWAP1 POP JUMP JUMPDEST PUSH0 DUP2 SWAP1 POP SWAP2 SWAP1 POP JUMP JUMPDEST PUSH0 PUSH2 0x1793 PUSH2 0x178E PUSH2 0x1789 DUP5 PUSH2 0x1770 JUMP JUMPDEST PUSH2 0xCBC JUMP JUMPDEST PUSH2 0xCB3 JUMP JUMPDEST SWAP1 POP SWAP2 SWAP1 POP JUMP JUMPDEST PUSH2 0x17A3 DUP2 PUSH2 0x1779 JUMP JUMPDEST DUP3 MSTORE POP POP JUMP JUMPDEST PUSH0 PUSH1 0x20 DUP3 ADD SWAP1 POP PUSH2 0x17BC PUSH0 DUP4 ADD DUP5 PUSH2 0x179A JUMP JUMPDEST SWAP3 SWAP2 POP POP JUMP JUMPDEST PUSH32 0x313030302073686F756C64206265204D00000000000000000000000000000000 PUSH0 DUP3 ADD MSTORE POP JUMP JUMPDEST PUSH0 PUSH2 0x17F6 PUSH1 0x10 DUP4 PUSH2 0xEF2 JUMP JUMPDEST SWAP2 POP PUSH2 0x1801 DUP3 PUSH2 0x17C2 JUMP JUMPDEST PUSH1 0x20 DUP3 ADD SWAP1 POP SWAP2 SWAP1 POP JUMP JUMPDEST PUSH0 PUSH1 0x20 DUP3 ADD SWAP1 POP DUP2 DUP2 SUB PUSH0 DUP4 ADD MSTORE PUSH2 0x1823 DUP2 PUSH2 0x17EA JUMP JUMPDEST SWAP1 POP SWAP2 SWAP1 POP JUMP JUMPDEST PUSH32 0x434D000000000000000000000000000000000000000000000000000000000000 PUSH0 DUP3 ADD MSTORE POP JUMP JUMPDEST PUSH0 PUSH2 0x185E PUSH1 0x2 DUP4 PUSH2 0xC42 JUMP JUMPDEST SWAP2 POP PUSH2 0x1869 DUP3 PUSH2 0x182A JUMP JUMPDEST PUSH1 0x2 DUP3 ADD SWAP1 POP SWAP2 SWAP1 POP JUMP JUMPDEST PUSH0 PUSH2 0x187E DUP3 PUSH2 0x1852 JUMP JUMPDEST SWAP2 POP DUP2 SWAP1 POP SWAP2 SWAP1 POP JUMP JUMPDEST PUSH0 DUP2 SWAP1 POP SWAP2 SWAP1 POP JUMP JUMPDEST PUSH0 PUSH2 0x18AB PUSH2 0x18A6 PUSH2 0x18A1 DUP5 PUSH2 0x1888 JUMP JUMPDEST PUSH2 0xCBC JUMP JUMPDEST PUSH2 0xCB3 JUMP JUMPDEST SWAP1 POP SWAP2 SWAP1 POP JUMP JUMPDEST PUSH2 0x18BB DUP2 PUSH2 0x1891 JUMP JUMPDEST DUP3 MSTORE POP POP JUMP JUMPDEST PUSH0 PUSH1 0x20 DUP3 ADD SWAP1 POP PUSH2 0x18D4 PUSH0 DUP4 ADD DUP5 PUSH2 0x18B2 JUMP JUMPDEST SWAP3 SWAP2 POP POP JUMP JUMPDEST PUSH32 0x3930302073686F756C6420626520434D00000000000000000000000000000000 PUSH0 DUP3 ADD MSTORE POP JUMP JUMPDEST PUSH0 PUSH2 0x190E PUSH1 0x10 DUP4 PUSH2 0xEF2 JUMP JUMPDEST SWAP2 POP PUSH2 0x1919 DUP3 PUSH2 0x18DA JUMP JUMPDEST PUSH1 0x20 DUP3 ADD SWAP1 POP SWAP2 SWAP1 POP JUMP JUMPDEST PUSH0 PUSH1 0x20 DUP3 ADD SWAP1 POP DUP2 DUP2 SUB PUSH0 DUP4 ADD MSTORE PUSH2 0x193B DUP2 PUSH2 0x1902 JUMP JUMPDEST SWAP1 POP SWAP2 SWAP1 POP JUMP INVALID LOG2 PUSH5 0x6970667358 0x22 SLT KECCAK256 0xBD EXTCODEHASH 0xF7 0xAB 0x1E GAS CODECOPY MSTORE8 SWAP6 0xDB DUP14 SWAP1 0xD9 DUP8 XOR CALLER 0x1E SWAP16 0xBE PUSH14 0xA45844905CB21B5C3F43B1AC6473 PUSH16 0x6C634300081E00336080604052348015 PUSH2 0xF JUMPI PUSH0 PUSH0 REVERT JUMPDEST POP PUSH0 PUSH1 0x40 MLOAD DUP1 PUSH1 0x40 ADD PUSH1 0x40 MSTORE DUP1 PUSH2 0x3E8 DUP2 MSTORE PUSH1 0x20 ADD PUSH1 0x40 MLOAD DUP1 PUSH1 0x40 ADD PUSH1 0x40 MSTORE DUP1 PUSH1 0x1 DUP2 MSTORE PUSH1 0x20 ADD PUSH32 0x4D00000000000000000000000000000000000000000000000000000000000000 DUP2 MSTORE POP DUP2 MSTORE POP SWAP1 DUP1 PUSH1 0x1 DUP2 SLOAD ADD DUP1 DUP3 SSTORE DUP1 SWAP2 POP POP PUSH1 0x1 SWAP1 SUB SWAP1 PUSH0 MSTORE PUSH1 0x20 PUSH0 KECCAK256 SWAP1 PUSH1 0x2 MUL ADD PUSH0 SWAP1 SWAP2 SWAP1 SWAP2 SWAP1 SWAP2 POP PUSH0 DUP3 ADD MLOAD DUP2 PUSH0 ADD SSTORE PUSH1 0x20 DUP3 ADD MLOAD DUP2 PUSH1 0x1 ADD SWAP1 DUP2 PUSH2 0xA0 SWAP2 SWAP1 PUSH2 0x9C0 JUMP JUMPDEST POP POP POP PUSH0 PUSH1 0x40 MLOAD DUP1 PUSH1 0x40 ADD PUSH1 0x40 MSTORE DUP1 PUSH2 0x384 DUP2 MSTORE PUSH1 0x20 ADD PUSH1 0x40 MLOAD DUP1 PUSH1 0x40 ADD PUSH1 0x40 MSTORE DUP1 PUSH1 0x2 DUP2 MSTORE PUSH1 0x20 ADD PUSH32 0x434D000000000000000000000000000000000000000000000000000000000000 DUP2 MSTORE POP DUP2 MSTORE POP SWAP1 DUP1 PUSH1 0x1 DUP2 SLOAD ADD DUP1 DUP3 SSTORE DUP1 SWAP2 POP POP PUSH1 0x1 SWAP1 SUB SWAP1 PUSH0 MSTORE PUSH1 0x20 PUSH0 KECCAK256 SWAP1 PUSH1 0x2 MUL ADD PUSH0 SWAP1 SWAP2 SWAP1 SWAP2 SWAP1 SWAP2 POP PUSH0 DUP3 ADD MLOAD DUP2 PUSH0 ADD SSTORE PUSH1 0x20 DUP3 ADD MLOAD DUP2 PUSH1 0x1 ADD SWAP1 DUP2 PUSH2 0x133 SWAP2 SWAP1 PUSH2 0x9C0 JUMP JUMPDEST POP POP POP PUSH0 PUSH1 0x40 MLOAD DUP1 PUSH1 0x40 ADD PUSH1 0x40 MSTORE DUP1 PUSH2 0x1F4 DUP2 MSTORE PUSH1 0x20 ADD PUSH1 0x40 MLOAD DUP1 PUSH1 0x40 ADD PUSH1 0x40 MSTORE DUP1 PUSH1 0x1 DUP2 MSTORE PUSH1 0x20 ADD PUSH32 0x4400000000000000000000000000000000000000000000000000000000000000 DUP2 MSTORE POP DUP2 MSTORE POP SWAP1 DUP1 PUSH1 0x1 DUP2 SLOAD ADD DUP1 DUP3 SSTORE DUP1 SWAP2 POP POP PUSH1 0x1 SWAP1 SUB SWAP1 PUSH0 MSTORE PUSH1 0x20 PUSH0 KECCAK256 SWAP1 PUSH1 0x2 MUL ADD PUSH0 SWAP1 SWAP2 SWAP1 SWAP2 SWAP1 SWAP2 POP PUSH0 DUP3 ADD MLOAD DUP2 PUSH0 ADD SSTORE PUSH1 0x20 DUP3 ADD MLOAD DUP2 PUSH1 0x1 ADD SWAP1 DUP2 PUSH2 0x1C6 SWAP2 SWAP1 PUSH2 0x9C0 JUMP JUMPDEST POP POP POP PUSH0 PUSH1 0x40 MLOAD DUP1 PUSH1 0x40 ADD PUSH1 0x40 MSTORE DUP1 PUSH2 0x190 DUP2 MSTORE PUSH1 0x20 ADD PUSH1 0x40 MLOAD DUP1 PUSH1 0x40 ADD PUSH1 0x40 MSTORE DUP1 PUSH1 0x2 DUP2 MSTORE PUSH1 0x20 ADD PUSH32 0x4344000000000000000000000000000000000000000000000000000000000000 DUP2 MSTORE POP DUP2 MSTORE POP SWAP1 DUP1 PUSH1 0x1 DUP2 SLOAD ADD DUP1 DUP3 SSTORE DUP1 SWAP2 POP POP PUSH1 0x1 SWAP1 SUB SWAP1 PUSH0 MSTORE PUSH1 0x20 PUSH0 KECCAK256 SWAP1 PUSH1 0x2 MUL ADD PUSH0 SWAP1 SWAP2 SWAP1 SWAP2 SWAP1 SWAP2 POP PUSH0 DUP3 ADD MLOAD DUP2 PUSH0 ADD SSTORE PUSH1 0x20 DUP3 ADD MLOAD DUP2 PUSH1 0x1 ADD SWAP1 DUP2 PUSH2 0x259 SWAP2 SWAP1 PUSH2 0x9C0 JUMP JUMPDEST POP POP POP PUSH0 PUSH1 0x40 MLOAD DUP1 PUSH1 0x40 ADD PUSH1 0x40 MSTORE DUP1 PUSH1 0x64 DUP2 MSTORE PUSH1 0x20 ADD PUSH1 0x40 MLOAD DUP1 PUSH1 0x40 ADD PUSH1 0x40 MSTORE DUP1 PUSH1 0x1 DUP2 MSTORE PUSH1 0x20 ADD PUSH32 0x4300000000000000000000000000000000000000000000000000000000000000 DUP2 MSTORE POP DUP2 MSTORE POP SWAP1 DUP1 PUSH1 0x1 DUP2 SLOAD ADD DUP1 DUP3 SSTORE DUP1 SWAP2 POP POP PUSH1 0x1 SWAP1 SUB SWAP1 PUSH0 MSTORE PUSH1 0x20 PUSH0 KECCAK256 SWAP1 PUSH1 0x2 MUL ADD PUSH0 SWAP1 SWAP2 SWAP1 SWAP2 SWAP1 SWAP2 POP PUSH0 DUP3 ADD MLOAD DUP2 PUSH0 ADD SSTORE PUSH1 0x20 DUP3 ADD MLOAD DUP2 PUSH1 0x1 ADD SWAP1 DUP2 PUSH2 0x2EB SWAP2 SWAP1 PUSH2 0x9C0 JUMP JUMPDEST POP POP POP PUSH0 PUSH1 0x40 MLOAD DUP1 PUSH1 0x40 ADD PUSH1 0x40 MSTORE DUP1 PUSH1 0x5A DUP2 MSTORE PUSH1 0x20 ADD PUSH1 0x40 MLOAD DUP1 PUSH1 0x40 ADD PUSH1 0x40 MSTORE DUP1 PUSH1 0x2 DUP2 MSTORE PUSH1 0x20 ADD PUSH32 0x5843000000000000000000000000000000000000000000000000000000000000 DUP2 MSTORE POP DUP2 MSTORE POP SWAP1 DUP1 PUSH1 0x1 DUP2 SLOAD ADD DUP1 DUP3 SSTORE DUP1 SWAP2 POP POP PUSH1 0x1 SWAP1 SUB SWAP1 PUSH0 MSTORE PUSH1 0x20 PUSH0 KECCAK256 SWAP1 PUSH1 0x2 MUL ADD PUSH0 SWAP1 SWAP2 SWAP1 SWAP2 SWAP1 SWAP2 POP PUSH0 DUP3 ADD MLOAD DUP2 PUSH0 ADD SSTORE PUSH1 0x20 DUP3 ADD MLOAD DUP2 PUSH1 0x1 ADD SWAP1 DUP2 PUSH2 0x37D SWAP2 SWAP1 PUSH2 0x9C0 JUMP JUMPDEST POP POP POP PUSH0 PUSH1 0x40 MLOAD DUP1 PUSH1 0x40 ADD PUSH1 0x40 MSTORE DUP1 PUSH1 0x32 DUP2 MSTORE PUSH1 0x20 ADD PUSH1 0x40 MLOAD DUP1 PUSH1 0x40 ADD PUSH1 0x40 MSTORE DUP1 PUSH1 0x1 DUP2 MSTORE PUSH1 0x20 ADD PUSH32 0x4C00000000000000000000000000000000000000000000000000000000000000 DUP2 MSTORE POP DUP2 MSTORE POP SWAP1 DUP1 PUSH1 0x1 DUP2 SLOAD ADD DUP1 DUP3 SSTORE DUP1 SWAP2 POP POP PUSH1 0x1 SWAP1 SUB SWAP1 PUSH0 MSTORE PUSH1 0x20 PUSH0 KECCAK256 SWAP1 PUSH1 0x2 MUL ADD PUSH0 SWAP1 SWAP2 SWAP1 SWAP2 SWAP1 SWAP2 POP PUSH0 DUP3 ADD MLOAD DUP2 PUSH0 ADD SSTORE PUSH1 0x20 DUP3 ADD MLOAD DUP2 PUSH1 0x1 ADD SWAP1 DUP2 PUSH2 0x40F SWAP2 SWAP1 PUSH2 0x9C0 JUMP JUMPDEST POP POP POP PUSH0 PUSH1 0x40 MLOAD DUP1 PUSH1 0x40 ADD PUSH1 0x40 MSTORE DUP1 PUSH1 0x28 DUP2 MSTORE PUSH1 0x20 ADD PUSH1 0x40 MLOAD DUP1 PUSH1 0x40 ADD PUSH1 0x40 MSTORE DUP1 PUSH1 0x2 DUP2 MSTORE PUSH1 0x20 ADD PUSH32 0x584C000000000000000000000000000000000000000000000000000000000000 DUP2 MSTORE POP DUP2 MSTORE POP SWAP1 DUP1 PUSH1 0x1 DUP2 SLOAD ADD DUP1 DUP3 SSTORE DUP1 SWAP2 POP POP PUSH1 0x1 SWAP1 SUB SWAP1 PUSH0 MSTORE PUSH1 0x20 PUSH0 KECCAK256 SWAP1 PUSH1 0x2 MUL ADD PUSH0 SWAP1 SWAP2 SWAP1 SWAP2 SWAP1 SWAP2 POP PUSH0 DUP3 ADD MLOAD DUP2 PUSH0 ADD SSTORE PUSH1 0x20 DUP3 ADD MLOAD DUP2 PUSH1 0x1 ADD SWAP1 DUP2 PUSH2 0x4A1 SWAP2 SWAP1 PUSH2 0x9C0 JUMP JUMPDEST POP POP POP PUSH0 PUSH1 0x40 MLOAD DUP1 PUSH1 0x40 ADD PUSH1 0x40 MSTORE DUP1 PUSH1 0xA DUP2 MSTORE PUSH1 0x20 ADD PUSH1 0x40 MLOAD DUP1 PUSH1 0x40 ADD PUSH1 0x40 MSTORE DUP1 PUSH1 0x1 DUP2 MSTORE PUSH1 0x20 ADD PUSH32 0x5800000000000000000000000000000000000000000000000000000000000000 DUP2 MSTORE POP DUP2 MSTORE POP SWAP1 DUP1 PUSH1 0x1 DUP2 SLOAD ADD DUP1 DUP3 SSTORE DUP1 SWAP2 POP POP PUSH1 0x1 SWAP1 SUB SWAP1 PUSH0 MSTORE PUSH1 0x20 PUSH0 KECCAK256 SWAP1 PUSH1 0x2 MUL ADD PUSH0 SWAP1 SWAP2 SWAP1 SWAP2 SWAP1 SWAP2 POP PUSH0 DUP3 ADD MLOAD DUP2 PUSH0 ADD SSTORE PUSH1 0x20 DUP3 ADD MLOAD DUP2 PUSH1 0x1 ADD SWAP1 DUP2 PUSH2 0x533 SWAP2 SWAP1 PUSH2 0x9C0 JUMP JUMPDEST POP POP POP PUSH0 PUSH1 0x40 MLOAD DUP1 PUSH1 0x40 ADD PUSH1 0x40 MSTORE DUP1 PUSH1 0x9 DUP2 MSTORE PUSH1 0x20 ADD PUSH1 0x40 MLOAD DUP1 PUSH1 0x40 ADD PUSH1 0x40 MSTORE DUP1 PUSH1 0x2 DUP2 MSTORE PUSH1 0x20 ADD PUSH32 0x4958000000000000000000000000000000000000000000000000000000000000 DUP2 MSTORE POP DUP2 MSTORE POP SWAP1 DUP1 PUSH1 0x1 DUP2 SLOAD ADD DUP1 DUP3 SSTORE DUP1 SWAP2 POP POP PUSH1 0x1 SWAP1 SUB SWAP1 PUSH0 MSTORE PUSH1 0x20 PUSH0 KECCAK256 SWAP1 PUSH1 0x2 MUL ADD PUSH0 SWAP1 SWAP2 SWAP1 SWAP2 SWAP1 SWAP2 POP PUSH0 DUP3 ADD MLOAD DUP2 PUSH0 ADD SSTORE PUSH1 0x20 DUP3 ADD MLOAD DUP2 PUSH1 0x1 ADD SWAP1 DUP2 PUSH2 0x5C5 SWAP2 SWAP1 PUSH2 0x9C0 JUMP JUMPDEST POP POP POP PUSH0 PUSH1 0x40 MLOAD DUP1 PUSH1 0x40 ADD PUSH1 0x40 MSTORE DUP1 PUSH1 0x5 DUP2 MSTORE PUSH1 0x20 ADD PUSH1 0x40 MLOAD DUP1 PUSH1 0x40 ADD PUSH1 0x40 MSTORE DUP1 PUSH1 0x1 DUP2 MSTORE PUSH1 0x20 ADD PUSH32 0x5600000000000000000000000000000000000000000000000000000000000000 DUP2 MSTORE POP DUP2 MSTORE POP SWAP1 DUP1 PUSH1 0x1 DUP2 SLOAD ADD DUP1 DUP3 SSTORE DUP1 SWAP2 POP POP PUSH1 0x1 SWAP1 SUB SWAP1 PUSH0 MSTORE PUSH1 0x20 PUSH0 KECCAK256 SWAP1 PUSH1 0x2 MUL ADD PUSH0 SWAP1 SWAP2 SWAP1 SWAP2 SWAP1 SWAP2 POP PUSH0 DUP3 ADD MLOAD DUP2 PUSH0 ADD SSTORE PUSH1 0x20 DUP3 ADD MLOAD DUP2 PUSH1 0x1 ADD SWAP1 DUP2 PUSH2 0x657 SWAP2 SWAP1 PUSH2 0x9C0 JUMP JUMPDEST POP POP POP PUSH0 PUSH1 0x40 MLOAD DUP1 PUSH1 0x40 ADD PUSH1 0x40 MSTORE DUP1 PUSH1 0x4 DUP2 MSTORE PUSH1 0x20 ADD PUSH1 0x40 MLOAD DUP1 PUSH1 0x40 ADD PUSH1 0x40 MSTORE DUP1 PUSH1 0x2 DUP2 MSTORE PUSH1 0x20 ADD PUSH32 0x4956000000000000000000000000000000000000000000000000000000000000 DUP2 MSTORE POP DUP2 MSTORE POP SWAP1 DUP1 PUSH1 0x1 DUP2 SLOAD ADD DUP1 DUP3 SSTORE DUP1 SWAP2 POP POP PUSH1 0x1 SWAP1 SUB SWAP1 PUSH0 MSTORE PUSH1 0x20 PUSH0 KECCAK256 SWAP1 PUSH1 0x2 MUL ADD PUSH0 SWAP1 SWAP2 SWAP1 SWAP2 SWAP1 SWAP2 POP PUSH0 DUP3 ADD MLOAD DUP2 PUSH0 ADD SSTORE PUSH1 0x20 DUP3 ADD MLOAD DUP2 PUSH1 0x1 ADD SWAP1 DUP2 PUSH2 0x6E9 SWAP2 SWAP1 PUSH2 0x9C0 JUMP JUMPDEST POP POP POP PUSH0 PUSH1 0x40 MLOAD DUP1 PUSH1 0x40 ADD PUSH1 0x40 MSTORE DUP1 PUSH1 0x1 DUP2 MSTORE PUSH1 0x20 ADD PUSH1 0x40 MLOAD DUP1 PUSH1 0x40 ADD PUSH1 0x40 MSTORE DUP1 PUSH1 0x1 DUP2 MSTORE PUSH1 0x20 ADD PUSH32 0x4900000000000000000000000000000000000000000000000000000000000000 DUP2 MSTORE POP DUP2 MSTORE POP SWAP1 DUP1 PUSH1 0x1 DUP2 SLOAD ADD DUP1 DUP3 SSTORE DUP1 SWAP2 POP POP PUSH1 0x1 SWAP1 SUB SWAP1 PUSH0 MSTORE PUSH1 0x20 PUSH0 KECCAK256 SWAP1 PUSH1 0x2 MUL ADD PUSH0 SWAP1 SWAP2 SWAP1 SWAP2 SWAP1 SWAP2 POP PUSH0 DUP3 ADD MLOAD DUP2 PUSH0 ADD SSTORE PUSH1 0x20 DUP3 ADD MLOAD DUP2 PUSH1 0x1 ADD SWAP1 DUP2 PUSH2 0x77B SWAP2 SWAP1 PUSH2 0x9C0 JUMP JUMPDEST POP POP POP PUSH2 0xA8F JUMP JUMPDEST PUSH0 DUP2 MLOAD SWAP1 POP SWAP2 SWAP1 POP JUMP JUMPDEST PUSH32 0x4E487B7100000000000000000000000000000000000000000000000000000000 PUSH0 MSTORE PUSH1 0x41 PUSH1 0x4 MSTORE PUSH1 0x24 PUSH0 REVERT JUMPDEST PUSH32 0x4E487B7100000000000000000000000000000000000000000000000000000000 PUSH0 MSTORE PUSH1 0x22 PUSH1 0x4 MSTORE PUSH1 0x24 PUSH0 REVERT JUMPDEST PUSH0 PUSH1 0x2 DUP3 DIV SWAP1 POP PUSH1 0x1 DUP3 AND DUP1 PUSH2 0x7FE JUMPI PUSH1 0x7F DUP3 AND SWAP2 POP JUMPDEST PUSH1 0x20 DUP3 LT DUP2 SUB PUSH2 0x811 JUMPI PUSH2 0x810 PUSH2 0x7BA JUMP JUMPDEST JUMPDEST POP SWAP2 SWAP1 POP JUMP JUMPDEST PUSH0 DUP2 SWAP1 POP DUP2 PUSH0 MSTORE PUSH1 0x20 PUSH0 KECCAK256 SWAP1 POP SWAP2 SWAP1 POP JUMP JUMPDEST PUSH0 PUSH1 0x20 PUSH1 0x1F DUP4 ADD DIV SWAP1 POP SWAP2 SWAP1 POP JUMP JUMPDEST PUSH0 DUP3 DUP3 SHL SWAP1 POP SWAP3 SWAP2 POP POP JUMP JUMPDEST PUSH0 PUSH1 0x8 DUP4 MUL PUSH2 0x873 PUSH32 0xFFFFFFFFFFFFFFFFFFFFFFFFFFFFFFFFFFFFFFFFFFFFFFFFFFFFFFFFFFFFFFFF DUP3 PUSH2 0x838 JUMP JUMPDEST PUSH2 0x87D DUP7 DUP4 PUSH2 0x838 JUMP JUMPDEST SWAP6 POP DUP1 NOT DUP5 AND SWAP4 POP DUP1 DUP7 AND DUP5 OR SWAP3 POP POP POP SWAP4 SWAP3 POP POP POP JUMP JUMPDEST PUSH0 DUP2 SWAP1 POP SWAP2 SWAP1 POP JUMP JUMPDEST PUSH0 DUP2 SWAP1 POP SWAP2 SWAP1 POP JUMP JUMPDEST PUSH0 PUSH2 0x8C1 PUSH2 0x8BC PUSH2 0x8B7 DUP5 PUSH2 0x895 JUMP JUMPDEST PUSH2 0x89E JUMP JUMPDEST PUSH2 0x895 JUMP JUMPDEST SWAP1 POP SWAP2 SWAP1 POP JUMP JUMPDEST PUSH0 DUP2 SWAP1 POP SWAP2 SWAP1 POP JUMP JUMPDEST PUSH2 0x8DA DUP4 PUSH2 0x8A7 JUMP JUMPDEST PUSH2 0x8EE PUSH2 0x8E6 DUP3 PUSH2 0x8C8 JUMP JUMPDEST DUP5 DUP5 SLOAD PUSH2 0x844 JUMP JUMPDEST DUP3 SSTORE POP POP POP POP JUMP JUMPDEST PUSH0 PUSH0 SWAP1 POP SWAP1 JUMP JUMPDEST PUSH2 0x905 PUSH2 0x8F6 JUMP JUMPDEST PUSH2 0x910 DUP2 DUP5 DUP5 PUSH2 0x8D1 JUMP JUMPDEST POP POP POP JUMP JUMPDEST JUMPDEST DUP2 DUP2 LT ISZERO PUSH2 0x933 JUMPI PUSH2 0x928 PUSH0 DUP3 PUSH2 0x8FD JUMP JUMPDEST PUSH1 0x1 DUP2 ADD SWAP1 POP PUSH2 0x916 JUMP JUMPDEST POP POP JUMP JUMPDEST PUSH1 0x1F DUP3 GT ISZERO PUSH2 0x978 JUMPI PUSH2 0x949 DUP2 PUSH2 0x817 JUMP JUMPDEST PUSH2 0x952 DUP5 PUSH2 0x829 JUMP JUMPDEST DUP2 ADD PUSH1 0x20 DUP6 LT ISZERO PUSH2 0x961 JUMPI DUP2 SWAP1 POP JUMPDEST PUSH2 0x975 PUSH2 0x96D DUP6 PUSH2 0x829 JUMP JUMPDEST DUP4 ADD DUP3 PUSH2 0x915 JUMP JUMPDEST POP POP JUMPDEST POP POP POP JUMP JUMPDEST PUSH0 DUP3 DUP3 SHR SWAP1 POP SWAP3 SWAP2 POP POP JUMP JUMPDEST PUSH0 PUSH2 0x998 PUSH0 NOT DUP5 PUSH1 0x8 MUL PUSH2 0x97D JUMP JUMPDEST NOT DUP1 DUP4 AND SWAP2 POP POP SWAP3 SWAP2 POP POP JUMP JUMPDEST PUSH0 PUSH2 0x9B0 DUP4 DUP4 PUSH2 0x989 JUMP JUMPDEST SWAP2 POP DUP3 PUSH1 0x2 MUL DUP3 OR SWAP1 POP SWAP3 SWAP2 POP POP JUMP JUMPDEST PUSH2 0x9C9 DUP3 PUSH2 0x783 JUMP JUMPDEST PUSH8 0xFFFFFFFFFFFFFFFF DUP2 GT ISZERO PUSH2 0x9E2 JUMPI PUSH2 0x9E1 PUSH2 0x78D JUMP JUMPDEST JUMPDEST PUSH2 0x9EC DUP3 SLOAD PUSH2 0x7E7 JUMP JUMPDEST PUSH2 0x9F7 DUP3 DUP3 DUP6 PUSH2 0x937 JUMP JUMPDEST PUSH0 PUSH1 0x20 SWAP1 POP PUSH1 0x1F DUP4 GT PUSH1 0x1 DUP2 EQ PUSH2 0xA28 JUMPI PUSH0 DUP5 ISZERO PUSH2 0xA16 JUMPI DUP3 DUP8 ADD MLOAD SWAP1 POP JUMPDEST PUSH2 0xA20 DUP6 DUP3 PUSH2 0x9A5 JUMP JUMPDEST DUP7 SSTORE POP PUSH2 0xA87 JUMP JUMPDEST PUSH1 0x1F NOT DUP5 AND PUSH2 0xA36 DUP7 PUSH2 0x817 JUMP JUMPDEST PUSH0 JUMPDEST DUP3 DUP2 LT ISZERO PUSH2 0xA5D JUMPI DUP5 DUP10 ADD MLOAD DUP3 SSTORE PUSH1 0x1 DUP3 ADD SWAP2 POP PUSH1 0x20 DUP6 ADD SWAP5 POP PUSH1 0x20 DUP2 ADD SWAP1 POP PUSH2 0xA38 JUMP JUMPDEST DUP7 DUP4 LT ISZERO PUSH2 0xA7A JUMPI DUP5 DUP10 ADD MLOAD PUSH2 0xA76 PUSH1 0x1F DUP10 AND DUP3 PUSH2 0x989 JUMP JUMPDEST DUP4 SSTORE POP JUMPDEST PUSH1 0x1 PUSH1 0x2 DUP9 MUL ADD DUP9 SSTORE POP POP POP JUMPDEST POP POP POP POP POP POP JUMP JUMPDEST PUSH2 0x16AA DUP1 PUSH2 0xA9C PUSH0 CODECOPY PUSH0 RETURN INVALID PUSH1 0x80 PUSH1 0x40 MSTORE CALLVALUE DUP1 ISZERO PUSH2 0xF JUMPI PUSH0 PUSH0 REVERT JUMPDEST POP PUSH1 0x4 CALLDATASIZE LT PUSH2 0x55 JUMPI PUSH0 CALLDATALOAD PUSH1 0xE0 SHR DUP1 PUSH4 0xCBC513A EQ PUSH2 0x59 JUMPI DUP1 PUSH4 0x42EA35D4 EQ PUSH2 0x89 JUMPI DUP1 PUSH4 0x48E0D233 EQ PUSH2 0xA8 JUMPI DUP1 PUSH4 0x736C057C EQ PUSH2 0xD8 JUMPI DUP1 PUSH4 0xDF7F710E EQ PUSH2 0x108 JUMPI JUMPDEST PUSH0 PUSH0 REVERT JUMPDEST PUSH2 0x73 PUSH1 0x4 DUP1 CALLDATASIZE SUB DUP2 ADD SWAP1 PUSH2 0x6E SWAP2 SWAP1 PUSH2 0xE3C JUMP JUMPDEST PUSH2 0x126 JUMP JUMPDEST PUSH1 0x40 MLOAD PUSH2 0x80 SWAP2 SWAP1 PUSH2 0xED7 JUMP JUMPDEST PUSH1 0x40 MLOAD DUP1 SWAP2 SUB SWAP1 RETURN JUMPDEST PUSH2 0x91 PUSH2 0x2D3 JUMP JUMPDEST PUSH1 0x40 MLOAD PUSH2 0x9F SWAP3 SWAP2 SWAP1 PUSH2 0xF06 JUMP JUMPDEST PUSH1 0x40 MLOAD DUP1 SWAP2 SUB SWAP1 RETURN JUMPDEST PUSH2 0xC2 PUSH1 0x4 DUP1 CALLDATASIZE SUB DUP2 ADD SWAP1 PUSH2 0xBD SWAP2 SWAP1 PUSH2 0x1059 JUMP JUMPDEST PUSH2 0x2E2 JUMP JUMPDEST PUSH1 0x40 MLOAD PUSH2 0xCF SWAP2 SWAP1 PUSH2 0x10BA JUMP JUMPDEST PUSH1 0x40 MLOAD DUP1 SWAP2 SUB SWAP1 RETURN JUMPDEST PUSH2 0xF2 PUSH1 0x4 DUP1 CALLDATASIZE SUB DUP2 ADD SWAP1 PUSH2 0xED SWAP2 SWAP1 PUSH2 0x1197 JUMP JUMPDEST PUSH2 0x360 JUMP JUMPDEST PUSH1 0x40 MLOAD PUSH2 0xFF SWAP2 SWAP1 PUSH2 0x12E1 JUMP JUMPDEST PUSH1 0x40 MLOAD DUP1 SWAP2 SUB SWAP1 RETURN JUMPDEST PUSH2 0x110 PUSH2 0x41A JUMP JUMPDEST PUSH1 0x40 MLOAD PUSH2 0x11D SWAP2 SWAP1 PUSH2 0x1405 JUMP JUMPDEST PUSH1 0x40 MLOAD DUP1 SWAP2 SUB SWAP1 RETURN JUMPDEST PUSH1 0x60 PUSH0 DUP3 GT DUP1 ISZERO PUSH2 0x138 JUMPI POP PUSH2 0xFA0 DUP3 LT JUMPDEST PUSH2 0x177 JUMPI PUSH1 0x40 MLOAD PUSH32 0x8C379A000000000000000000000000000000000000000000000000000000000 DUP2 MSTORE PUSH1 0x4 ADD PUSH2 0x16E SWAP1 PUSH2 0x1495 JUMP JUMPDEST PUSH1 0x40 MLOAD DUP1 SWAP2 SUB SWAP1 REVERT JUMPDEST PUSH0 PUSH1 0x40 MLOAD DUP1 PUSH1 0x20 ADD PUSH1 0x40 MSTORE DUP1 PUSH0 DUP2 MSTORE POP SWAP1 POP PUSH0 DUP4 SWAP1 POP PUSH0 PUSH0 SWAP1 POP JUMPDEST PUSH0 DUP1 SLOAD SWAP1 POP DUP2 LT ISZERO PUSH2 0x2C8 JUMPI PUSH0 PUSH0 DUP3 DUP2 SLOAD DUP2 LT PUSH2 0x1B2 JUMPI PUSH2 0x1B1 PUSH2 0x14B3 JUMP JUMPDEST JUMPDEST SWAP1 PUSH0 MSTORE PUSH1 0x20 PUSH0 KECCAK256 SWAP1 PUSH1 0x2 MUL ADD PUSH1 0x40 MLOAD DUP1 PUSH1 0x40 ADD PUSH1 0x40 MSTORE SWAP1 DUP2 PUSH0 DUP3 ADD SLOAD DUP2 MSTORE PUSH1 0x20 ADD PUSH1 0x1 DUP3 ADD DUP1 SLOAD PUSH2 0x1E2 SWAP1 PUSH2 0x150D JUMP JUMPDEST DUP1 PUSH1 0x1F ADD PUSH1 0x20 DUP1 SWAP2 DIV MUL PUSH1 0x20 ADD PUSH1 0x40 MLOAD SWAP1 DUP2 ADD PUSH1 0x40 MSTORE DUP1 SWAP3 SWAP2 SWAP1 DUP2 DUP2 MSTORE PUSH1 0x20 ADD DUP3 DUP1 SLOAD PUSH2 0x20E SWAP1 PUSH2 0x150D JUMP JUMPDEST DUP1 ISZERO PUSH2 0x259 JUMPI DUP1 PUSH1 0x1F LT PUSH2 0x230 JUMPI PUSH2 0x100 DUP1 DUP4 SLOAD DIV MUL DUP4 MSTORE SWAP2 PUSH1 0x20 ADD SWAP2 PUSH2 0x259 JUMP JUMPDEST DUP3 ADD SWAP2 SWAP1 PUSH0 MSTORE PUSH1 0x20 PUSH0 KECCAK256 SWAP1 JUMPDEST DUP2 SLOAD DUP2 MSTORE SWAP1 PUSH1 0x1 ADD SWAP1 PUSH1 0x20 ADD DUP1 DUP4 GT PUSH2 0x23C JUMPI DUP3 SWAP1 SUB PUSH1 0x1F AND DUP3 ADD SWAP2 JUMPDEST POP POP POP POP POP DUP2 MSTORE POP POP SWAP1 POP JUMPDEST DUP1 PUSH0 ADD MLOAD DUP4 LT PUSH2 0x2AD JUMPI DUP4 DUP2 PUSH1 0x20 ADD MLOAD PUSH1 0x40 MLOAD PUSH1 0x20 ADD PUSH2 0x286 SWAP3 SWAP2 SWAP1 PUSH2 0x1577 JUMP JUMPDEST PUSH1 0x40 MLOAD PUSH1 0x20 DUP2 DUP4 SUB SUB DUP2 MSTORE SWAP1 PUSH1 0x40 MSTORE SWAP4 POP DUP1 PUSH0 ADD MLOAD DUP4 PUSH2 0x2A6 SWAP2 SWAP1 PUSH2 0x15C7 JUMP JUMPDEST SWAP3 POP PUSH2 0x265 JUMP JUMPDEST PUSH0 DUP4 SUB PUSH2 0x2BA JUMPI POP PUSH2 0x2C8 JUMP JUMPDEST POP DUP1 DUP1 PUSH1 0x1 ADD SWAP2 POP POP PUSH2 0x192 JUMP JUMPDEST POP DUP2 SWAP3 POP POP POP SWAP2 SWAP1 POP JUMP JUMPDEST PUSH0 PUSH0 PUSH1 0x1 PUSH2 0xF9F SWAP2 POP SWAP2 POP SWAP1 SWAP2 JUMP JUMPDEST PUSH0 PUSH0 DUP3 SWAP1 POP PUSH0 DUP2 MLOAD SWAP1 POP PUSH0 DUP2 SUB PUSH2 0x2FD JUMPI PUSH0 SWAP3 POP POP POP PUSH2 0x35B JUMP JUMPDEST PUSH0 PUSH0 SWAP1 POP JUMPDEST DUP2 DUP2 LT ISZERO PUSH2 0x34C JUMPI PUSH2 0x330 DUP4 DUP3 DUP2 MLOAD DUP2 LT PUSH2 0x320 JUMPI PUSH2 0x31F PUSH2 0x14B3 JUMP JUMPDEST JUMPDEST PUSH1 0x20 ADD ADD MLOAD PUSH1 0xF8 SHR PUSH1 0xF8 SHL PUSH2 0x50E JUMP JUMPDEST PUSH2 0x33F JUMPI PUSH0 SWAP4 POP POP POP POP PUSH2 0x35B JUMP JUMPDEST DUP1 DUP1 PUSH1 0x1 ADD SWAP2 POP POP PUSH2 0x302 JUMP JUMPDEST POP PUSH2 0x356 DUP3 PUSH2 0x723 JUMP JUMPDEST SWAP3 POP POP POP JUMPDEST SWAP2 SWAP1 POP JUMP JUMPDEST PUSH1 0x60 PUSH0 DUP3 MLOAD PUSH8 0xFFFFFFFFFFFFFFFF DUP2 GT ISZERO PUSH2 0x37E JUMPI PUSH2 0x37D PUSH2 0xF35 JUMP JUMPDEST JUMPDEST PUSH1 0x40 MLOAD SWAP1 DUP1 DUP3 MSTORE DUP1 PUSH1 0x20 MUL PUSH1 0x20 ADD DUP3 ADD PUSH1 0x40 MSTORE DUP1 ISZERO PUSH2 0x3B1 JUMPI DUP2 PUSH1 0x20 ADD JUMPDEST PUSH1 0x60 DUP2 MSTORE PUSH1 0x20 ADD SWAP1 PUSH1 0x1 SWAP1 SUB SWAP1 DUP2 PUSH2 0x39C JUMPI SWAP1 POP JUMPDEST POP SWAP1 POP PUSH0 PUSH0 SWAP1 POP JUMPDEST DUP4 MLOAD DUP2 LT ISZERO PUSH2 0x410 JUMPI PUSH2 0x3E5 DUP5 DUP3 DUP2 MLOAD DUP2 LT PUSH2 0x3D8 JUMPI PUSH2 0x3D7 PUSH2 0x14B3 JUMP JUMPDEST JUMPDEST PUSH1 0x20 MUL PUSH1 0x20 ADD ADD MLOAD PUSH2 0x126 JUMP JUMPDEST DUP3 DUP3 DUP2 MLOAD DUP2 LT PUSH2 0x3F8 JUMPI PUSH2 0x3F7 PUSH2 0x14B3 JUMP JUMPDEST JUMPDEST PUSH1 0x20 MUL PUSH1 0x20 ADD ADD DUP2 SWAP1 MSTORE POP DUP1 DUP1 PUSH1 0x1 ADD SWAP2 POP POP PUSH2 0x3B9 JUMP JUMPDEST POP DUP1 SWAP2 POP POP SWAP2 SWAP1 POP JUMP JUMPDEST PUSH1 0x60 PUSH0 DUP1 SLOAD DUP1 PUSH1 0x20 MUL PUSH1 0x20 ADD PUSH1 0x40 MLOAD SWAP1 DUP2 ADD PUSH1 0x40 MSTORE DUP1 SWAP3 SWAP2 SWAP1 DUP2 DUP2 MSTORE PUSH1 0x20 ADD PUSH0 SWAP1 JUMPDEST DUP3 DUP3 LT ISZERO PUSH2 0x505 JUMPI DUP4 DUP3 SWAP1 PUSH0 MSTORE PUSH1 0x20 PUSH0 KECCAK256 SWAP1 PUSH1 0x2 MUL ADD PUSH1 0x40 MLOAD DUP1 PUSH1 0x40 ADD PUSH1 0x40 MSTORE SWAP1 DUP2 PUSH0 DUP3 ADD SLOAD DUP2 MSTORE PUSH1 0x20 ADD PUSH1 0x1 DUP3 ADD DUP1 SLOAD PUSH2 0x476 SWAP1 PUSH2 0x150D JUMP JUMPDEST DUP1 PUSH1 0x1F ADD PUSH1 0x20 DUP1 SWAP2 DIV MUL PUSH1 0x20 ADD PUSH1 0x40 MLOAD SWAP1 DUP2 ADD PUSH1 0x40 MSTORE DUP1 SWAP3 SWAP2 SWAP1 DUP2 DUP2 MSTORE PUSH1 0x20 ADD DUP3 DUP1 SLOAD PUSH2 0x4A2 SWAP1 PUSH2 0x150D JUMP JUMPDEST DUP1 ISZERO PUSH2 0x4ED JUMPI DUP1 PUSH1 0x1F LT PUSH2 0x4C4 JUMPI PUSH2 0x100 DUP1 DUP4 SLOAD DIV MUL DUP4 MSTORE SWAP2 PUSH1 0x20 ADD SWAP2 PUSH2 0x4ED JUMP JUMPDEST DUP3 ADD SWAP2 SWAP1 PUSH0 MSTORE PUSH1 0x20 PUSH0 KECCAK256 SWAP1 JUMPDEST DUP2 SLOAD DUP2 MSTORE SWAP1 PUSH1 0x1 ADD SWAP1 PUSH1 0x20 ADD DUP1 DUP4 GT PUSH2 0x4D0 JUMPI DUP3 SWAP1 SUB PUSH1 0x1F AND DUP3 ADD SWAP2 JUMPDEST POP POP POP POP POP DUP2 MSTORE POP POP DUP2 MSTORE PUSH1 0x20 ADD SWAP1 PUSH1 0x1 ADD SWAP1 PUSH2 0x43C JUMP JUMPDEST POP POP POP POP SWAP1 POP SWAP1 JUMP JUMPDEST PUSH0 PUSH32 0x4900000000000000000000000000000000000000000000000000000000000000 DUP3 PUSH31 0xFFFFFFFFFFFFFFFFFFFFFFFFFFFFFFFFFFFFFFFFFFFFFFFFFFFFFFFFFFFFFF NOT AND EQ DUP1 PUSH2 0x5A0 JUMPI POP PUSH32 0x5600000000000000000000000000000000000000000000000000000000000000 DUP3 PUSH31 0xFFFFFFFFFFFFFFFFFFFFFFFFFFFFFFFFFFFFFFFFFFFFFFFFFFFFFFFFFFFFFF NOT AND EQ JUMPDEST DUP1 PUSH2 0x5EC JUMPI POP PUSH32 0x5800000000000000000000000000000000000000000000000000000000000000 DUP3 PUSH31 0xFFFFFFFFFFFFFFFFFFFFFFFFFFFFFFFFFFFFFFFFFFFFFFFFFFFFFFFFFFFFFF NOT AND EQ JUMPDEST DUP1 PUSH2 0x638 JUMPI POP PUSH32 0x4C00000000000000000000000000000000000000000000000000000000000000 DUP3 PUSH31 0xFFFFFFFFFFFFFFFFFFFFFFFFFFFFFFFFFFFFFFFFFFFFFFFFFFFFFFFFFFFFFF NOT AND EQ JUMPDEST DUP1 PUSH2 0x684 JUMPI POP PUSH32 0x4300000000000000000000000000000000000000000000000000000000000000 DUP3 PUSH31 0xFFFFFFFFFFFFFFFFFFFFFFFFFFFFFFFFFFFFFFFFFFFFFFFFFFFFFFFFFFFFFF NOT AND EQ JUMPDEST DUP1 PUSH2 0x6D0 JUMPI POP PUSH32 0x4400000000000000000000000000000000000000000000000000000000000000 DUP3 PUSH31 0xFFFFFFFFFFFFFFFFFFFFFFFFFFFFFFFFFFFFFFFFFFFFFFFFFFFFFFFFFFFFFF NOT AND EQ JUMPDEST DUP1 PUSH2 0x71C JUMPI POP PUSH32 0x4D00000000000000000000000000000000000000000000000000000000000000 DUP3 PUSH31 0xFFFFFFFFFFFFFFFFFFFFFFFFFFFFFFFFFFFFFFFFFFFFFFFFFFFFFFFFFFFFFF NOT AND EQ JUMPDEST SWAP1 POP SWAP2 SWAP1 POP JUMP JUMPDEST PUSH0 PUSH0 PUSH0 SWAP1 POP JUMPDEST PUSH1 0x1 DUP4 MLOAD PUSH2 0x737 SWAP2 SWAP1 PUSH2 0x15C7 JUMP JUMPDEST DUP2 LT ISZERO PUSH2 0xDED JUMPI PUSH0 DUP4 DUP3 DUP2 MLOAD DUP2 LT PUSH2 0x752 JUMPI PUSH2 0x751 PUSH2 0x14B3 JUMP JUMPDEST JUMPDEST PUSH1 0x20 ADD ADD MLOAD PUSH1 0xF8 SHR PUSH1 0xF8 SHL SWAP1 POP PUSH0 DUP5 PUSH1 0x1 DUP5 PUSH2 0x76E SWAP2 SWAP1 PUSH2 0x15FA JUMP JUMPDEST DUP2 MLOAD DUP2 LT PUSH2 0x77F JUMPI PUSH2 0x77E PUSH2 0x14B3 JUMP JUMPDEST JUMPDEST PUSH1 0x20 ADD ADD MLOAD PUSH1 0xF8 SHR PUSH1 0xF8 SHL SWAP1 POP PUSH32 0x4900000000000000000000000000000000000000000000000000000000000000 DUP3 PUSH31 0xFFFFFFFFFFFFFFFFFFFFFFFFFFFFFFFFFFFFFFFFFFFFFFFFFFFFFFFFFFFFFF NOT AND EQ DUP1 ISZERO PUSH2 0x86A JUMPI POP PUSH32 0x5600000000000000000000000000000000000000000000000000000000000000 DUP2 PUSH31 0xFFFFFFFFFFFFFFFFFFFFFFFFFFFFFFFFFFFFFFFFFFFFFFFFFFFFFFFFFFFFFF NOT AND EQ DUP1 PUSH2 0x869 JUMPI POP PUSH32 0x5800000000000000000000000000000000000000000000000000000000000000 DUP2 PUSH31 0xFFFFFFFFFFFFFFFFFFFFFFFFFFFFFFFFFFFFFFFFFFFFFFFFFFFFFFFFFFFFFF NOT AND EQ JUMPDEST JUMPDEST ISZERO PUSH2 0x876 JUMPI POP POP PUSH2 0xDDA JUMP JUMPDEST PUSH32 0x5800000000000000000000000000000000000000000000000000000000000000 DUP3 PUSH31 0xFFFFFFFFFFFFFFFFFFFFFFFFFFFFFFFFFFFFFFFFFFFFFFFFFFFFFFFFFFFFFF NOT AND EQ DUP1 ISZERO PUSH2 0x954 JUMPI POP PUSH32 0x4C00000000000000000000000000000000000000000000000000000000000000 DUP2 PUSH31 0xFFFFFFFFFFFFFFFFFFFFFFFFFFFFFFFFFFFFFFFFFFFFFFFFFFFFFFFFFFFFFF NOT AND EQ DUP1 PUSH2 0x953 JUMPI POP PUSH32 0x4300000000000000000000000000000000000000000000000000000000000000 DUP2 PUSH31 0xFFFFFFFFFFFFFFFFFFFFFFFFFFFFFFFFFFFFFFFFFFFFFFFFFFFFFFFFFFFFFF NOT AND EQ JUMPDEST JUMPDEST ISZERO PUSH2 0x960 JUMPI POP POP PUSH2 0xDDA JUMP JUMPDEST PUSH32 0x4300000000000000000000000000000000000000000000000000000000000000 DUP3 PUSH31 0xFFFFFFFFFFFFFFFFFFFFFFFFFFFFFFFFFFFFFFFFFFFFFFFFFFFFFFFFFFFFFF NOT AND EQ DUP1 ISZERO PUSH2 0xA3E JUMPI POP PUSH32 0x4400000000000000000000000000000000000000000000000000000000000000 DUP2 PUSH31 0xFFFFFFFFFFFFFFFFFFFFFFFFFFFFFFFFFFFFFFFFFFFFFFFFFFFFFFFFFFFFFF NOT AND EQ DUP1 PUSH2 0xA3D JUMPI POP PUSH32 0x4D00000000000000000000000000000000000000000000000000000000000000 DUP2 PUSH31 0xFFFFFFFFFFFFFFFFFFFFFFFFFFFFFFFFFFFFFFFFFFFFFFFFFFFFFFFFFFFFFF NOT AND EQ JUMPDEST JUMPDEST ISZERO PUSH2 0xA4A JUMPI POP POP PUSH2 0xDDA JUMP JUMPDEST PUSH32 0x4900000000000000000000000000000000000000000000000000000000000000 DUP3 PUSH31 0xFFFFFFFFFFFFFFFFFFFFFFFFFFFFFFFFFFFFFFFFFFFFFFFFFFFFFFFFFFFFFF NOT AND EQ DUP1 PUSH2 0xADB JUMPI POP PUSH32 0x5800000000000000000000000000000000000000000000000000000000000000 DUP3 PUSH31 0xFFFFFFFFFFFFFFFFFFFFFFFFFFFFFFFFFFFFFFFFFFFFFFFFFFFFFFFFFFFFFF NOT AND EQ JUMPDEST DUP1 PUSH2 0xB27 JUMPI POP PUSH32 0x4300000000000000000000000000000000000000000000000000000000000000 DUP3 PUSH31 0xFFFFFFFFFFFFFFFFFFFFFFFFFFFFFFFFFFFFFFFFFFFFFFFFFFFFFFFFFFFFFF NOT AND EQ JUMPDEST DUP1 PUSH2 0xB73 JUMPI POP PUSH32 0x4D00000000000000000000000000000000000000000000000000000000000000 DUP3 PUSH31 0xFFFFFFFFFFFFFFFFFFFFFFFFFFFFFFFFFFFFFFFFFFFFFFFFFFFFFFFFFFFFFF NOT AND EQ JUMPDEST ISZERO PUSH2 0xC5B JUMPI PUSH0 PUSH1 0x1 SWAP1 POP PUSH0 PUSH1 0x1 DUP6 PUSH2 0xB8B SWAP2 SWAP1 PUSH2 0x15FA JUMP JUMPDEST SWAP1 POP JUMPDEST DUP7 MLOAD DUP2 LT DUP1 ISZERO PUSH2 0xBFE JUMPI POP DUP4 PUSH31 0xFFFFFFFFFFFFFFFFFFFFFFFFFFFFFFFFFFFFFFFFFFFFFFFFFFFFFFFFFFFFFF NOT AND DUP8 DUP3 DUP2 MLOAD DUP2 LT PUSH2 0xBCF JUMPI PUSH2 0xBCE PUSH2 0x14B3 JUMP JUMPDEST JUMPDEST PUSH1 0x20 ADD ADD MLOAD PUSH1 0xF8 SHR PUSH1 0xF8 SHL PUSH31 0xFFFFFFFFFFFFFFFFFFFFFFFFFFFFFFFFFFFFFFFFFFFFFFFFFFFFFFFFFFFFFF NOT AND EQ JUMPDEST ISZERO PUSH2 0xC3A JUMPI DUP2 DUP1 PUSH2 0xC0E SWAP1 PUSH2 0x162D JUMP JUMPDEST SWAP3 POP POP PUSH1 0x3 DUP3 GT ISZERO PUSH2 0xC27 JUMPI PUSH0 SWAP6 POP POP POP POP POP POP PUSH2 0xDF3 JUMP JUMPDEST DUP1 DUP1 PUSH2 0xC32 SWAP1 PUSH2 0x162D JUMP JUMPDEST SWAP2 POP POP PUSH2 0xB8E JUMP JUMPDEST POP PUSH1 0x1 DUP2 PUSH2 0xC48 SWAP2 SWAP1 PUSH2 0x15C7 JUMP JUMPDEST DUP5 PUSH2 0xC53 SWAP2 SWAP1 PUSH2 0x15FA JUMP JUMPDEST SWAP4 POP POP PUSH2 0xDD7 JUMP JUMPDEST PUSH32 0x5600000000000000000000000000000000000000000000000000000000000000 DUP3 PUSH31 0xFFFFFFFFFFFFFFFFFFFFFFFFFFFFFFFFFFFFFFFFFFFFFFFFFFFFFFFFFFFFFF NOT AND EQ DUP1 PUSH2 0xCEC JUMPI POP PUSH32 0x4C00000000000000000000000000000000000000000000000000000000000000 DUP3 PUSH31 0xFFFFFFFFFFFFFFFFFFFFFFFFFFFFFFFFFFFFFFFFFFFFFFFFFFFFFFFFFFFFFF NOT AND EQ JUMPDEST DUP1 PUSH2 0xD38 JUMPI POP PUSH32 0x4400000000000000000000000000000000000000000000000000000000000000 DUP3 PUSH31 0xFFFFFFFFFFFFFFFFFFFFFFFFFFFFFFFFFFFFFFFFFFFFFFFFFFFFFFFFFFFFFF NOT AND EQ JUMPDEST ISZERO PUSH2 0xDD6 JUMPI PUSH1 0x1 DUP6 MLOAD PUSH2 0xD4B SWAP2 SWAP1 PUSH2 0x15C7 JUMP JUMPDEST DUP4 LT DUP1 ISZERO PUSH2 0xDC5 JUMPI POP DUP2 PUSH31 0xFFFFFFFFFFFFFFFFFFFFFFFFFFFFFFFFFFFFFFFFFFFFFFFFFFFFFFFFFFFFFF NOT AND DUP6 PUSH1 0x1 DUP6 PUSH2 0xD85 SWAP2 SWAP1 PUSH2 0x15FA JUMP JUMPDEST DUP2 MLOAD DUP2 LT PUSH2 0xD96 JUMPI PUSH2 0xD95 PUSH2 0x14B3 JUMP JUMPDEST JUMPDEST PUSH1 0x20 ADD ADD MLOAD PUSH1 0xF8 SHR PUSH1 0xF8 SHL PUSH31 0xFFFFFFFFFFFFFFFFFFFFFFFFFFFFFFFFFFFFFFFFFFFFFFFFFFFFFFFFFFFFFF NOT AND EQ JUMPDEST ISZERO PUSH2 0xDD5 JUMPI PUSH0 SWAP4 POP POP POP POP PUSH2 0xDF3 JUMP JUMPDEST JUMPDEST JUMPDEST POP POP JUMPDEST DUP1 DUP1 PUSH2 0xDE5 SWAP1 PUSH2 0x162D JUMP JUMPDEST SWAP2 POP POP PUSH2 0x729 JUMP JUMPDEST POP PUSH1 0x1 SWAP1 POP JUMPDEST SWAP2 SWAP1 POP JUMP JUMPDEST PUSH0 PUSH1 0x40 MLOAD SWAP1 POP SWAP1 JUMP JUMPDEST PUSH0 PUSH0 REVERT JUMPDEST PUSH0 PUSH0 REVERT JUMPDEST PUSH0 DUP2 SWAP1 POP SWAP2 SWAP1 POP JUMP JUMPDEST PUSH2 0xE1B DUP2 PUSH2 0xE09 JUMP JUMPDEST DUP2 EQ PUSH2 0xE25 JUMPI PUSH0 PUSH0 REVERT JUMPDEST POP JUMP JUMPDEST PUSH0 DUP2 CALLDATALOAD SWAP1 POP PUSH2 0xE36 DUP2 PUSH2 0xE12 JUMP JUMPDEST SWAP3 SWAP2 POP POP JUMP JUMPDEST PUSH0 PUSH1 0x20 DUP3 DUP5 SUB SLT ISZERO PUSH2 0xE51 JUMPI PUSH2 0xE50 PUSH2 0xE01 JUMP JUMPDEST JUMPDEST PUSH0 PUSH2 0xE5E DUP5 DUP3 DUP6 ADD PUSH2 0xE28 JUMP JUMPDEST SWAP2 POP POP SWAP3 SWAP2 POP POP JUMP JUMPDEST PUSH0 DUP2 MLOAD SWAP1 POP SWAP2 SWAP1 POP JUMP JUMPDEST PUSH0 DUP3 DUP3 MSTORE PUSH1 0x20 DUP3 ADD SWAP1 POP SWAP3 SWAP2 POP POP JUMP JUMPDEST DUP3 DUP2 DUP4 MCOPY PUSH0 DUP4 DUP4 ADD MSTORE POP POP POP JUMP JUMPDEST PUSH0 PUSH1 0x1F NOT PUSH1 0x1F DUP4 ADD AND SWAP1 POP SWAP2 SWAP1 POP JUMP JUMPDEST PUSH0 PUSH2 0xEA9 DUP3 PUSH2 0xE67 JUMP JUMPDEST PUSH2 0xEB3 DUP2 DUP6 PUSH2 0xE71 JUMP JUMPDEST SWAP4 POP PUSH2 0xEC3 DUP2 DUP6 PUSH1 0x20 DUP7 ADD PUSH2 0xE81 JUMP JUMPDEST PUSH2 0xECC DUP2 PUSH2 0xE8F JUMP JUMPDEST DUP5 ADD SWAP2 POP POP SWAP3 SWAP2 POP POP JUMP JUMPDEST PUSH0 PUSH1 0x20 DUP3 ADD SWAP1 POP DUP2 DUP2 SUB PUSH0 DUP4 ADD MSTORE PUSH2 0xEEF DUP2 DUP5 PUSH2 0xE9F JUMP JUMPDEST SWAP1 POP SWAP3 SWAP2 POP POP JUMP JUMPDEST PUSH2 0xF00 DUP2 PUSH2 0xE09 JUMP JUMPDEST DUP3 MSTORE POP POP JUMP JUMPDEST PUSH0 PUSH1 0x40 DUP3 ADD SWAP1 POP PUSH2 0xF19 PUSH0 DUP4 ADD DUP6 PUSH2 0xEF7 JUMP JUMPDEST PUSH2 0xF26 PUSH1 0x20 DUP4 ADD DUP5 PUSH2 0xEF7 JUMP JUMPDEST SWAP4 SWAP3 POP POP POP JUMP JUMPDEST PUSH0 PUSH0 REVERT JUMPDEST PUSH0 PUSH0 REVERT JUMPDEST PUSH32 0x4E487B7100000000000000000000000000000000000000000000000000000000 PUSH0 MSTORE PUSH1 0x41 PUSH1 0x4 MSTORE PUSH1 0x24 PUSH0 REVERT JUMPDEST PUSH2 0xF6B DUP3 PUSH2 0xE8F JUMP JUMPDEST DUP2 ADD DUP2 DUP2 LT PUSH8 0xFFFFFFFFFFFFFFFF DUP3 GT OR ISZERO PUSH2 0xF8A JUMPI PUSH2 0xF89 PUSH2 0xF35 JUMP JUMPDEST JUMPDEST DUP1 PUSH1 0x40 MSTORE POP POP POP JUMP JUMPDEST PUSH0 PUSH2 0xF9C PUSH2 0xDF8 JUMP JUMPDEST SWAP1 POP PUSH2 0xFA8 DUP3 DUP3 PUSH2 0xF62 JUMP JUMPDEST SWAP2 SWAP1 POP JUMP JUMPDEST PUSH0 PUSH8 0xFFFFFFFFFFFFFFFF DUP3 GT ISZERO PUSH2 0xFC7 JUMPI PUSH2 0xFC6 PUSH2 0xF35 JUMP JUMPDEST JUMPDEST PUSH2 0xFD0 DUP3 PUSH2 0xE8F JUMP JUMPDEST SWAP1 POP PUSH1 0x20 DUP2 ADD SWAP1 POP SWAP2 SWAP1 POP JUMP JUMPDEST DUP3 DUP2 DUP4 CALLDATACOPY PUSH0 DUP4 DUP4 ADD MSTORE POP POP POP JUMP JUMPDEST PUSH0 PUSH2 0xFFD PUSH2 0xFF8 DUP5 PUSH2 0xFAD JUMP JUMPDEST PUSH2 0xF93 JUMP JUMPDEST SWAP1 POP DUP3 DUP2 MSTORE PUSH1 0x20 DUP2 ADD DUP5 DUP5 DUP5 ADD GT ISZERO PUSH2 0x1019 JUMPI PUSH2 0x1018 PUSH2 0xF31 JUMP JUMPDEST JUMPDEST PUSH2 0x1024 DUP5 DUP3 DUP6 PUSH2 0xFDD JUMP JUMPDEST POP SWAP4 SWAP3 POP POP POP JUMP JUMPDEST PUSH0 DUP3 PUSH1 0x1F DUP4 ADD SLT PUSH2 0x1040 JUMPI PUSH2 0x103F PUSH2 0xF2D JUMP JUMPDEST JUMPDEST DUP2 CALLDATALOAD PUSH2 0x1050 DUP5 DUP3 PUSH1 0x20 DUP7 ADD PUSH2 0xFEB JUMP JUMPDEST SWAP2 POP POP SWAP3 SWAP2 POP POP JUMP JUMPDEST PUSH0 PUSH1 0x20 DUP3 DUP5 SUB SLT ISZERO PUSH2 0x106E JUMPI PUSH2 0x106D PUSH2 0xE01 JUMP JUMPDEST JUMPDEST PUSH0 DUP3 ADD CALLDATALOAD PUSH8 0xFFFFFFFFFFFFFFFF DUP2 GT ISZERO PUSH2 0x108B JUMPI PUSH2 0x108A PUSH2 0xE05 JUMP JUMPDEST JUMPDEST PUSH2 0x1097 DUP5 DUP3 DUP6 ADD PUSH2 0x102C JUMP JUMPDEST SWAP2 POP POP SWAP3 SWAP2 POP POP JUMP JUMPDEST PUSH0 DUP2 ISZERO ISZERO SWAP1 POP SWAP2 SWAP1 POP JUMP JUMPDEST PUSH2 0x10B4 DUP2 PUSH2 0x10A0 JUMP JUMPDEST DUP3 MSTORE POP POP JUMP JUMPDEST PUSH0 PUSH1 0x20 DUP3 ADD SWAP1 POP PUSH2 0x10CD PUSH0 DUP4 ADD DUP5 PUSH2 0x10AB JUMP JUMPDEST SWAP3 SWAP2 POP POP JUMP JUMPDEST PUSH0 PUSH8 0xFFFFFFFFFFFFFFFF DUP3 GT ISZERO PUSH2 0x10ED JUMPI PUSH2 0x10EC PUSH2 0xF35 JUMP JUMPDEST JUMPDEST PUSH1 0x20 DUP3 MUL SWAP1 POP PUSH1 0x20 DUP2 ADD SWAP1 POP SWAP2 SWAP1 POP JUMP JUMPDEST PUSH0 PUSH0 REVERT JUMPDEST PUSH0 PUSH2 0x1114 PUSH2 0x110F DUP5 PUSH2 0x10D3 JUMP JUMPDEST PUSH2 0xF93 JUMP JUMPDEST SWAP1 POP DUP1 DUP4 DUP3 MSTORE PUSH1 0x20 DUP3 ADD SWAP1 POP PUSH1 0x20 DUP5 MUL DUP4 ADD DUP6 DUP2 GT ISZERO PUSH2 0x1137 JUMPI PUSH2 0x1136 PUSH2 0x10FE JUMP JUMPDEST JUMPDEST DUP4 JUMPDEST DUP2 DUP2 LT ISZERO PUSH2 0x1160 JUMPI DUP1 PUSH2 0x114C DUP9 DUP3 PUSH2 0xE28 JUMP JUMPDEST DUP5 MSTORE PUSH1 0x20 DUP5 ADD SWAP4 POP POP PUSH1 0x20 DUP2 ADD SWAP1 POP PUSH2 0x1139 JUMP JUMPDEST POP POP POP SWAP4 SWAP3 POP POP POP JUMP JUMPDEST PUSH0 DUP3 PUSH1 0x1F DUP4 ADD SLT PUSH2 0x117E JUMPI PUSH2 0x117D PUSH2 0xF2D JUMP JUMPDEST JUMPDEST DUP2 CALLDATALOAD PUSH2 0x118E DUP5 DUP3 PUSH1 0x20 DUP7 ADD PUSH2 0x1102 JUMP JUMPDEST SWAP2 POP POP SWAP3 SWAP2 POP POP JUMP JUMPDEST PUSH0 PUSH1 0x20 DUP3 DUP5 SUB SLT ISZERO PUSH2 0x11AC JUMPI PUSH2 0x11AB PUSH2 0xE01 JUMP JUMPDEST JUMPDEST PUSH0 DUP3 ADD CALLDATALOAD PUSH8 0xFFFFFFFFFFFFFFFF DUP2 GT ISZERO PUSH2 0x11C9 JUMPI PUSH2 0x11C8 PUSH2 0xE05 JUMP JUMPDEST JUMPDEST PUSH2 0x11D5 DUP5 DUP3 DUP6 ADD PUSH2 0x116A JUMP JUMPDEST SWAP2 POP POP SWAP3 SWAP2 POP POP JUMP JUMPDEST PUSH0 DUP2 MLOAD SWAP1 POP SWAP2 SWAP1 POP JUMP JUMPDEST PUSH0 DUP3 DUP3 MSTORE PUSH1 0x20 DUP3 ADD SWAP1 POP SWAP3 SWAP2 POP POP JUMP JUMPDEST PUSH0 DUP2 SWAP1 POP PUSH1 0x20 DUP3 ADD SWAP1 POP SWAP2 SWAP1 POP JUMP JUMPDEST PUSH0 DUP3 DUP3 MSTORE PUSH1 0x20 DUP3 ADD SWAP1 POP SWAP3 SWAP2 POP POP JUMP JUMPDEST PUSH0 PUSH2 0x1221 DUP3 PUSH2 0xE67 JUMP JUMPDEST PUSH2 0x122B DUP2 DUP6 PUSH2 0x1207 JUMP JUMPDEST SWAP4 POP PUSH2 0x123B DUP2 DUP6 PUSH1 0x20 DUP7 ADD PUSH2 0xE81 JUMP JUMPDEST PUSH2 0x1244 DUP2 PUSH2 0xE8F JUMP JUMPDEST DUP5 ADD SWAP2 POP POP SWAP3 SWAP2 POP POP JUMP JUMPDEST PUSH0 PUSH2 0x125A DUP4 DUP4 PUSH2 0x1217 JUMP JUMPDEST SWAP1 POP SWAP3 SWAP2 POP POP JUMP JUMPDEST PUSH0 PUSH1 0x20 DUP3 ADD SWAP1 POP SWAP2 SWAP1 POP JUMP JUMPDEST PUSH0 PUSH2 0x1278 DUP3 PUSH2 0x11DE JUMP JUMPDEST PUSH2 0x1282 DUP2 DUP6 PUSH2 0x11E8 JUMP JUMPDEST SWAP4 POP DUP4 PUSH1 0x20 DUP3 MUL DUP6 ADD PUSH2 0x1294 DUP6 PUSH2 0x11F8 JUMP JUMPDEST DUP1 PUSH0 JUMPDEST DUP6 DUP2 LT ISZERO PUSH2 0x12CF JUMPI DUP5 DUP5 SUB DUP10 MSTORE DUP2 MLOAD PUSH2 0x12B0 DUP6 DUP3 PUSH2 0x124F JUMP JUMPDEST SWAP5 POP PUSH2 0x12BB DUP4 PUSH2 0x1262 JUMP JUMPDEST SWAP3 POP PUSH1 0x20 DUP11 ADD SWAP10 POP POP PUSH1 0x1 DUP2 ADD SWAP1 POP PUSH2 0x1297 JUMP JUMPDEST POP DUP3 SWAP8 POP DUP8 SWAP6 POP POP POP POP POP POP SWAP3 SWAP2 POP POP JUMP JUMPDEST PUSH0 PUSH1 0x20 DUP3 ADD SWAP1 POP DUP2 DUP2 SUB PUSH0 DUP4 ADD MSTORE PUSH2 0x12F9 DUP2 DUP5 PUSH2 0x126E JUMP JUMPDEST SWAP1 POP SWAP3 SWAP2 POP POP JUMP JUMPDEST PUSH0 DUP2 MLOAD SWAP1 POP SWAP2 SWAP1 POP JUMP JUMPDEST PUSH0 DUP3 DUP3 MSTORE PUSH1 0x20 DUP3 ADD SWAP1 POP SWAP3 SWAP2 POP POP JUMP JUMPDEST PUSH0 DUP2 SWAP1 POP PUSH1 0x20 DUP3 ADD SWAP1 POP SWAP2 SWAP1 POP JUMP JUMPDEST PUSH2 0x1333 DUP2 PUSH2 0xE09 JUMP JUMPDEST DUP3 MSTORE POP POP JUMP JUMPDEST PUSH0 PUSH1 0x40 DUP4 ADD PUSH0 DUP4 ADD MLOAD PUSH2 0x134E PUSH0 DUP7 ADD DUP3 PUSH2 0x132A JUMP JUMPDEST POP PUSH1 0x20 DUP4 ADD MLOAD DUP5 DUP3 SUB PUSH1 0x20 DUP7 ADD MSTORE PUSH2 0x1366 DUP3 DUP3 PUSH2 0x1217 JUMP JUMPDEST SWAP2 POP POP DUP1 SWAP2 POP POP SWAP3 SWAP2 POP POP JUMP JUMPDEST PUSH0 PUSH2 0x137E DUP4 DUP4 PUSH2 0x1339 JUMP JUMPDEST SWAP1 POP SWAP3 SWAP2 POP POP JUMP JUMPDEST PUSH0 PUSH1 0x20 DUP3 ADD SWAP1 POP SWAP2 SWAP1 POP JUMP JUMPDEST PUSH0 PUSH2 0x139C DUP3 PUSH2 0x1301 JUMP JUMPDEST PUSH2 0x13A6 DUP2 DUP6 PUSH2 0x130B JUMP JUMPDEST SWAP4 POP DUP4 PUSH1 0x20 DUP3 MUL DUP6 ADD PUSH2 0x13B8 DUP6 PUSH2 0x131B JUMP JUMPDEST DUP1 PUSH0 JUMPDEST DUP6 DUP2 LT ISZERO PUSH2 0x13F3 JUMPI DUP5 DUP5 SUB DUP10 MSTORE DUP2 MLOAD PUSH2 0x13D4 DUP6 DUP3 PUSH2 0x1373 JUMP JUMPDEST SWAP5 POP PUSH2 0x13DF DUP4 PUSH2 0x1386 JUMP JUMPDEST SWAP3 POP PUSH1 0x20 DUP11 ADD SWAP10 POP POP PUSH1 0x1 DUP2 ADD SWAP1 POP PUSH2 0x13BB JUMP JUMPDEST POP DUP3 SWAP8 POP DUP8 SWAP6 POP POP POP POP POP POP SWAP3 SWAP2 POP POP JUMP JUMPDEST PUSH0 PUSH1 0x20 DUP3 ADD SWAP1 POP DUP2 DUP2 SUB PUSH0 DUP4 ADD MSTORE PUSH2 0x141D DUP2 DUP5 PUSH2 0x1392 JUMP JUMPDEST SWAP1 POP SWAP3 SWAP2 POP POP JUMP JUMPDEST PUSH32 0x4E756D626572206D757374206265206265747765656E203120616E6420333939 PUSH0 DUP3 ADD MSTORE PUSH32 0x3900000000000000000000000000000000000000000000000000000000000000 PUSH1 0x20 DUP3 ADD MSTORE POP JUMP JUMPDEST PUSH0 PUSH2 0x147F PUSH1 0x21 DUP4 PUSH2 0xE71 JUMP JUMPDEST SWAP2 POP PUSH2 0x148A DUP3 PUSH2 0x1425 JUMP JUMPDEST PUSH1 0x40 DUP3 ADD SWAP1 POP SWAP2 SWAP1 POP JUMP JUMPDEST PUSH0 PUSH1 0x20 DUP3 ADD SWAP1 POP DUP2 DUP2 SUB PUSH0 DUP4 ADD MSTORE PUSH2 0x14AC DUP2 PUSH2 0x1473 JUMP JUMPDEST SWAP1 POP SWAP2 SWAP1 POP JUMP JUMPDEST PUSH32 0x4E487B7100000000000000000000000000000000000000000000000000000000 PUSH0 MSTORE PUSH1 0x32 PUSH1 0x4 MSTORE PUSH1 0x24 PUSH0 REVERT JUMPDEST PUSH32 0x4E487B7100000000000000000000000000000000000000000000000000000000 PUSH0 MSTORE PUSH1 0x22 PUSH1 0x4 MSTORE PUSH1 0x24 PUSH0 REVERT JUMPDEST PUSH0 PUSH1 0x2 DUP3 DIV SWAP1 POP PUSH1 0x1 DUP3 AND DUP1 PUSH2 0x1524 JUMPI PUSH1 0x7F DUP3 AND SWAP2 POP JUMPDEST PUSH1 0x20 DUP3 LT DUP2 SUB PUSH2 0x1537 JUMPI PUSH2 0x1536 PUSH2 0x14E0 JUMP JUMPDEST JUMPDEST POP SWAP2 SWAP1 POP JUMP JUMPDEST PUSH0 DUP2 SWAP1 POP SWAP3 SWAP2 POP POP JUMP JUMPDEST PUSH0 PUSH2 0x1551 DUP3 PUSH2 0xE67 JUMP JUMPDEST PUSH2 0x155B DUP2 DUP6 PUSH2 0x153D JUMP JUMPDEST SWAP4 POP PUSH2 0x156B DUP2 DUP6 PUSH1 0x20 DUP7 ADD PUSH2 0xE81 JUMP JUMPDEST DUP1 DUP5 ADD SWAP2 POP POP SWAP3 SWAP2 POP POP JUMP JUMPDEST PUSH0 PUSH2 0x1582 DUP3 DUP6 PUSH2 0x1547 JUMP JUMPDEST SWAP2 POP PUSH2 0x158E DUP3 DUP5 PUSH2 0x1547 JUMP JUMPDEST SWAP2 POP DUP2 SWAP1 POP SWAP4 SWAP3 POP POP POP JUMP JUMPDEST PUSH32 0x4E487B7100000000000000000000000000000000000000000000000000000000 PUSH0 MSTORE PUSH1 0x11 PUSH1 0x4 MSTORE PUSH1 0x24 PUSH0 REVERT JUMPDEST PUSH0 PUSH2 0x15D1 DUP3 PUSH2 0xE09 JUMP JUMPDEST SWAP2 POP PUSH2 0x15DC DUP4 PUSH2 0xE09 JUMP JUMPDEST SWAP3 POP DUP3 DUP3 SUB SWAP1 POP DUP2 DUP2 GT ISZERO PUSH2 0x15F4 JUMPI PUSH2 0x15F3 PUSH2 0x159A JUMP JUMPDEST JUMPDEST SWAP3 SWAP2 POP POP JUMP JUMPDEST PUSH0 PUSH2 0x1604 DUP3 PUSH2 0xE09 JUMP JUMPDEST SWAP2 POP PUSH2 0x160F DUP4 PUSH2 0xE09 JUMP JUMPDEST SWAP3 POP DUP3 DUP3 ADD SWAP1 POP DUP1 DUP3 GT ISZERO PUSH2 0x1627 JUMPI PUSH2 0x1626 PUSH2 0x159A JUMP JUMPDEST JUMPDEST SWAP3 SWAP2 POP POP JUMP JUMPDEST PUSH0 PUSH2 0x1637 DUP3 PUSH2 0xE09 JUMP JUMPDEST SWAP2 POP PUSH32 0xFFFFFFFFFFFFFFFFFFFFFFFFFFFFFFFFFFFFFFFFFFFFFFFFFFFFFFFFFFFFFFFF DUP3 SUB PUSH2 0x1669 JUMPI PUSH2 0x1668 PUSH2 0x159A JUMP JUMPDEST JUMPDEST PUSH1 0x1 DUP3 ADD SWAP1 POP SWAP2 SWAP1 POP JUMP INVALID LOG2 PUSH5 0x6970667358 0x22 SLT KECCAK256 0x28 PUSH26 0xC9805E2AFCF6D55B05932089D682D77683F2A2A81A0E476CC9BA SWAP3 SWAP15 0xD4 0xE9 PUSH5 0x736F6C6343 STOP ADDMOD 0x1E STOP CALLER "
		},
		"gasEstimates": {
			"creation": {
				"codeDepositCost": "1304000",
				"executionCost": "infinite",
				"totalCost": "infinite"
			},
			"external": {
				"testBasicConversions()": "infinite",
				"testEdgeCases()": "infinite"
			}
		},
		"methodIdentifiers": {
			"testBasicConversions()": "824de20f",
			"testEdgeCases()": "e23e74c2"
		}
	},
	"abi": [
		{
			"inputs": [],
			"stateMutability": "nonpayable",
			"type": "constructor"
		},
		{
			"inputs": [],
			"name": "testBasicConversions",
			"outputs": [
				{
					"internalType": "bool",
					"name": "",
					"type": "bool"
				}
			],
			"stateMutability": "view",
			"type": "function"
		},
		{
			"inputs": [],
			"name": "testEdgeCases",
			"outputs": [
				{
					"internalType": "bool",
					"name": "",
					"type": "bool"
				}
			],
			"stateMutability": "view",
			"type": "function"
		}
	]
}