{
	"data": {
		"bytecode": {
			"linkReferences": {},
			"object": "608060405234801561000f575f5ffd5b5060015f5f7f49000000000000000000000000000000000000000000000000000000000000007effffffffffffffffffffffffffffffffffffffffffffffffffffffffffffff191681526020019081526020015f208190555060055f5f7f56000000000000000000000000000000000000000000000000000000000000007effffffffffffffffffffffffffffffffffffffffffffffffffffffffffffff191681526020019081526020015f2081905550600a5f5f7f58000000000000000000000000000000000000000000000000000000000000007effffffffffffffffffffffffffffffffffffffffffffffffffffffffffffff191681526020019081526020015f208190555060325f5f7f4c000000000000000000000000000000000000000000000000000000000000007effffffffffffffffffffffffffffffffffffffffffffffffffffffffffffff191681526020019081526020015f208190555060645f5f7f43000000000000000000000000000000000000000000000000000000000000007effffffffffffffffffffffffffffffffffffffffffffffffffffffffffffff191681526020019081526020015f20819055506101f45f5f7f44000000000000000000000000000000000000000000000000000000000000007effffffffffffffffffffffffffffffffffffffffffffffffffffffffffffff191681526020019081526020015f20819055506103e85f5f7f4d000000000000000000000000000000000000000000000000000000000000007effffffffffffffffffffffffffffffffffffffffffffffffffffffffffffff191681526020019081526020015f2081905550610508806102875f395ff3fe608060405234801561000f575f5ffd5b5060043610610029575f3560e01c8063bc62d8d81461002d575b5f5ffd5b6100476004803603810190610042919061034f565b61005d565b60405161005491906103b2565b60405180910390f35b5f5f83838080601f0160208091040260200160405190810160405280939291908181526020018383808284375f81840152601f19601f8201169050808301925050505050505090505f5f90505f5f90505b82518110156102d9575f8382815181106100cb576100ca6103cb565b5b602001015160f81c60f81b90505f5f5f837effffffffffffffffffffffffffffffffffffffffffffffffffffffffffffff19167effffffffffffffffffffffffffffffffffffffffffffffffffffffffffffff191681526020019081526020015f205490505f8103610144575f955050505050506102e0565b5f5f9050600186516101569190610425565b8410156101de575f5f8760018761016d9190610458565b8151811061017e5761017d6103cb565b5b602001015160f81c60f81b7effffffffffffffffffffffffffffffffffffffffffffffffffffffffffffff19167effffffffffffffffffffffffffffffffffffffffffffffffffffffffffffff191681526020019081526020015f205490505b808210156102ac575f5f9050600183148015610205575060058214806102045750600a82145b5b1561021d5782826102169190610425565b9050610283565b600a83148015610238575060328214806102375750606482145b5b156102505782826102499190610425565b9050610282565b60648314801561026d57506101f482148061026c57506103e882145b5b1561028157828261027e9190610425565b90505b5b5b5f8103610299575f9750505050505050506102e0565b80925084806102a79061048b565b955050505b5f8211156102c35781856102c09190610458565b94505b50505080806102d19061048b565b9150506100ae565b5080925050505b92915050565b5f5ffd5b5f5ffd5b5f5ffd5b5f5ffd5b5f5ffd5b5f5f83601f84011261030f5761030e6102ee565b5b8235905067ffffffffffffffff81111561032c5761032b6102f2565b5b602083019150836001820283011115610348576103476102f6565b5b9250929050565b5f5f60208385031215610365576103646102e6565b5b5f83013567ffffffffffffffff811115610382576103816102ea565b5b61038e858286016102fa565b92509250509250929050565b5f819050919050565b6103ac8161039a565b82525050565b5f6020820190506103c55f8301846103a3565b92915050565b7f4e487b71000000000000000000000000000000000000000000000000000000005f52603260045260245ffd5b7f4e487b71000000000000000000000000000000000000000000000000000000005f52601160045260245ffd5b5f61042f8261039a565b915061043a8361039a565b9250828203905081811115610452576104516103f8565b5b92915050565b5f6104628261039a565b915061046d8361039a565b9250828201905080821115610485576104846103f8565b5b92915050565b5f6104958261039a565b91507fffffffffffffffffffffffffffffffffffffffffffffffffffffffffffffffff82036104c7576104c66103f8565b5b60018201905091905056fea2646970667358221220edf5064433e593702d3e0836501005bd645184fcbbe2437ca83c947c42e7a86b64736f6c634300081e0033",
			"opcodes": "PUSH1 0x80 PUSH1 0x40 MSTORE CALLVALUE DUP1 ISZERO PUSH2 0xF JUMPI PUSH0 PUSH0 REVERT JUMPDEST POP PUSH1 0x1 PUSH0 PUSH0 PUSH32 0x4900000000000000000000000000000000000000000000000000000000000000 PUSH31 0xFFFFFFFFFFFFFFFFFFFFFFFFFFFFFFFFFFFFFFFFFFFFFFFFFFFFFFFFFFFFFF NOT AND DUP2 MSTORE PUSH1 0x20 ADD SWAP1 DUP2 MSTORE PUSH1 0x20 ADD PUSH0 KECCAK256 DUP2 SWAP1 SSTORE POP PUSH1 0x5 PUSH0 PUSH0 PUSH32 0x5600000000000000000000000000000000000000000000000000000000000000 PUSH31 0xFFFFFFFFFFFFFFFFFFFFFFFFFFFFFFFFFFFFFFFFFFFFFFFFFFFFFFFFFFFFFF NOT AND DUP2 MSTORE PUSH1 0x20 ADD SWAP1 DUP2 MSTORE PUSH1 0x20 ADD PUSH0 KECCAK256 DUP2 SWAP1 SSTORE POP PUSH1 0xA PUSH0 PUSH0 PUSH32 0x5800000000000000000000000000000000000000000000000000000000000000 PUSH31 0xFFFFFFFFFFFFFFFFFFFFFFFFFFFFFFFFFFFFFFFFFFFFFFFFFFFFFFFFFFFFFF NOT AND DUP2 MSTORE PUSH1 0x20 ADD SWAP1 DUP2 MSTORE PUSH1 0x20 ADD PUSH0 KECCAK256 DUP2 SWAP1 SSTORE POP PUSH1 0x32 PUSH0 PUSH0 PUSH32 0x4C00000000000000000000000000000000000000000000000000000000000000 PUSH31 0xFFFFFFFFFFFFFFFFFFFFFFFFFFFFFFFFFFFFFFFFFFFFFFFFFFFFFFFFFFFFFF NOT AND DUP2 MSTORE PUSH1 0x20 ADD SWAP1 DUP2 MSTORE PUSH1 0x20 ADD PUSH0 KECCAK256 DUP2 SWAP1 SSTORE POP PUSH1 0x64 PUSH0 PUSH0 PUSH32 0x4300000000000000000000000000000000000000000000000000000000000000 PUSH31 0xFFFFFFFFFFFFFFFFFFFFFFFFFFFFFFFFFFFFFFFFFFFFFFFFFFFFFFFFFFFFFF NOT AND DUP2 MSTORE PUSH1 0x20 ADD SWAP1 DUP2 MSTORE PUSH1 0x20 ADD PUSH0 KECCAK256 DUP2 SWAP1 SSTORE POP PUSH2 0x1F4 PUSH0 PUSH0 PUSH32 0x4400000000000000000000000000000000000000000000000000000000000000 PUSH31 0xFFFFFFFFFFFFFFFFFFFFFFFFFFFFFFFFFFFFFFFFFFFFFFFFFFFFFFFFFFFFFF NOT AND DUP2 MSTORE PUSH1 0x20 ADD SWAP1 DUP2 MSTORE PUSH1 0x20 ADD PUSH0 KECCAK256 DUP2 SWAP1 SSTORE POP PUSH2 0x3E8 PUSH0 PUSH0 PUSH32 0x4D00000000000000000000000000000000000000000000000000000000000000 PUSH31 0xFFFFFFFFFFFFFFFFFFFFFFFFFFFFFFFFFFFFFFFFFFFFFFFFFFFFFFFFFFFFFF NOT AND DUP2 MSTORE PUSH1 0x20 ADD SWAP1 DUP2 MSTORE PUSH1 0x20 ADD PUSH0 KECCAK256 DUP2 SWAP1 SSTORE POP PUSH2 0x508 DUP1 PUSH2 0x287 PUSH0 CODECOPY PUSH0 RETURN INVALID PUSH1 0x80 PUSH1 0x40 MSTORE CALLVALUE DUP1 ISZERO PUSH2 0xF JUMPI PUSH0 PUSH0 REVERT JUMPDEST POP PUSH1 0x4 CALLDATASIZE LT PUSH2 0x29 JUMPI PUSH0 CALLDATALOAD PUSH1 0xE0 SHR DUP1 PUSH4 0xBC62D8D8 EQ PUSH2 0x2D JUMPI JUMPDEST PUSH0 PUSH0 REVERT JUMPDEST PUSH2 0x47 PUSH1 0x4 DUP1 CALLDATASIZE SUB DUP2 ADD SWAP1 PUSH2 0x42 SWAP2 SWAP1 PUSH2 0x34F JUMP JUMPDEST PUSH2 0x5D JUMP JUMPDEST PUSH1 0x40 MLOAD PUSH2 0x54 SWAP2 SWAP1 PUSH2 0x3B2 JUMP JUMPDEST PUSH1 0x40 MLOAD DUP1 SWAP2 SUB SWAP1 RETURN JUMPDEST PUSH0 PUSH0 DUP4 DUP4 DUP1 DUP1 PUSH1 0x1F ADD PUSH1 0x20 DUP1 SWAP2 DIV MUL PUSH1 0x20 ADD PUSH1 0x40 MLOAD SWAP1 DUP2 ADD PUSH1 0x40 MSTORE DUP1 SWAP4 SWAP3 SWAP2 SWAP1 DUP2 DUP2 MSTORE PUSH1 0x20 ADD DUP4 DUP4 DUP1 DUP3 DUP5 CALLDATACOPY PUSH0 DUP2 DUP5 ADD MSTORE PUSH1 0x1F NOT PUSH1 0x1F DUP3 ADD AND SWAP1 POP DUP1 DUP4 ADD SWAP3 POP POP POP POP POP POP POP SWAP1 POP PUSH0 PUSH0 SWAP1 POP PUSH0 PUSH0 SWAP1 POP JUMPDEST DUP3 MLOAD DUP2 LT ISZERO PUSH2 0x2D9 JUMPI PUSH0 DUP4 DUP3 DUP2 MLOAD DUP2 LT PUSH2 0xCB JUMPI PUSH2 0xCA PUSH2 0x3CB JUMP JUMPDEST JUMPDEST PUSH1 0x20 ADD ADD MLOAD PUSH1 0xF8 SHR PUSH1 0xF8 SHL SWAP1 POP PUSH0 PUSH0 PUSH0 DUP4 PUSH31 0xFFFFFFFFFFFFFFFFFFFFFFFFFFFFFFFFFFFFFFFFFFFFFFFFFFFFFFFFFFFFFF NOT AND PUSH31 0xFFFFFFFFFFFFFFFFFFFFFFFFFFFFFFFFFFFFFFFFFFFFFFFFFFFFFFFFFFFFFF NOT AND DUP2 MSTORE PUSH1 0x20 ADD SWAP1 DUP2 MSTORE PUSH1 0x20 ADD PUSH0 KECCAK256 SLOAD SWAP1 POP PUSH0 DUP2 SUB PUSH2 0x144 JUMPI PUSH0 SWAP6 POP POP POP POP POP POP PUSH2 0x2E0 JUMP JUMPDEST PUSH0 PUSH0 SWAP1 POP PUSH1 0x1 DUP7 MLOAD PUSH2 0x156 SWAP2 SWAP1 PUSH2 0x425 JUMP JUMPDEST DUP5 LT ISZERO PUSH2 0x1DE JUMPI PUSH0 PUSH0 DUP8 PUSH1 0x1 DUP8 PUSH2 0x16D SWAP2 SWAP1 PUSH2 0x458 JUMP JUMPDEST DUP2 MLOAD DUP2 LT PUSH2 0x17E JUMPI PUSH2 0x17D PUSH2 0x3CB JUMP JUMPDEST JUMPDEST PUSH1 0x20 ADD ADD MLOAD PUSH1 0xF8 SHR PUSH1 0xF8 SHL PUSH31 0xFFFFFFFFFFFFFFFFFFFFFFFFFFFFFFFFFFFFFFFFFFFFFFFFFFFFFFFFFFFFFF NOT AND PUSH31 0xFFFFFFFFFFFFFFFFFFFFFFFFFFFFFFFFFFFFFFFFFFFFFFFFFFFFFFFFFFFFFF NOT AND DUP2 MSTORE PUSH1 0x20 ADD SWAP1 DUP2 MSTORE PUSH1 0x20 ADD PUSH0 KECCAK256 SLOAD SWAP1 POP JUMPDEST DUP1 DUP3 LT ISZERO PUSH2 0x2AC JUMPI PUSH0 PUSH0 SWAP1 POP PUSH1 0x1 DUP4 EQ DUP1 ISZERO PUSH2 0x205 JUMPI POP PUSH1 0x5 DUP3 EQ DUP1 PUSH2 0x204 JUMPI POP PUSH1 0xA DUP3 EQ JUMPDEST JUMPDEST ISZERO PUSH2 0x21D JUMPI DUP3 DUP3 PUSH2 0x216 SWAP2 SWAP1 PUSH2 0x425 JUMP JUMPDEST SWAP1 POP PUSH2 0x283 JUMP JUMPDEST PUSH1 0xA DUP4 EQ DUP1 ISZERO PUSH2 0x238 JUMPI POP PUSH1 0x32 DUP3 EQ DUP1 PUSH2 0x237 JUMPI POP PUSH1 0x64 DUP3 EQ JUMPDEST JUMPDEST ISZERO PUSH2 0x250 JUMPI DUP3 DUP3 PUSH2 0x249 SWAP2 SWAP1 PUSH2 0x425 JUMP JUMPDEST SWAP1 POP PUSH2 0x282 JUMP JUMPDEST PUSH1 0x64 DUP4 EQ DUP1 ISZERO PUSH2 0x26D JUMPI POP PUSH2 0x1F4 DUP3 EQ DUP1 PUSH2 0x26C JUMPI POP PUSH2 0x3E8 DUP3 EQ JUMPDEST JUMPDEST ISZERO PUSH2 0x281 JUMPI DUP3 DUP3 PUSH2 0x27E SWAP2 SWAP1 PUSH2 0x425 JUMP JUMPDEST SWAP1 POP JUMPDEST JUMPDEST JUMPDEST PUSH0 DUP2 SUB PUSH2 0x299 JUMPI PUSH0 SWAP8 POP POP POP POP POP POP POP POP PUSH2 0x2E0 JUMP JUMPDEST DUP1 SWAP3 POP DUP5 DUP1 PUSH2 0x2A7 SWAP1 PUSH2 0x48B JUMP JUMPDEST SWAP6 POP POP POP JUMPDEST PUSH0 DUP3 GT ISZERO PUSH2 0x2C3 JUMPI DUP2 DUP6 PUSH2 0x2C0 SWAP2 SWAP1 PUSH2 0x458 JUMP JUMPDEST SWAP5 POP JUMPDEST POP POP POP DUP1 DUP1 PUSH2 0x2D1 SWAP1 PUSH2 0x48B JUMP JUMPDEST SWAP2 POP POP PUSH2 0xAE JUMP JUMPDEST POP DUP1 SWAP3 POP POP POP JUMPDEST SWAP3 SWAP2 POP POP JUMP JUMPDEST PUSH0 PUSH0 REVERT JUMPDEST PUSH0 PUSH0 REVERT JUMPDEST PUSH0 PUSH0 REVERT JUMPDEST PUSH0 PUSH0 REVERT JUMPDEST PUSH0 PUSH0 REVERT JUMPDEST PUSH0 PUSH0 DUP4 PUSH1 0x1F DUP5 ADD SLT PUSH2 0x30F JUMPI PUSH2 0x30E PUSH2 0x2EE JUMP JUMPDEST JUMPDEST DUP3 CALLDATALOAD SWAP1 POP PUSH8 0xFFFFFFFFFFFFFFFF DUP2 GT ISZERO PUSH2 0x32C JUMPI PUSH2 0x32B PUSH2 0x2F2 JUMP JUMPDEST JUMPDEST PUSH1 0x20 DUP4 ADD SWAP2 POP DUP4 PUSH1 0x1 DUP3 MUL DUP4 ADD GT ISZERO PUSH2 0x348 JUMPI PUSH2 0x347 PUSH2 0x2F6 JUMP JUMPDEST JUMPDEST SWAP3 POP SWAP3 SWAP1 POP JUMP JUMPDEST PUSH0 PUSH0 PUSH1 0x20 DUP4 DUP6 SUB SLT ISZERO PUSH2 0x365 JUMPI PUSH2 0x364 PUSH2 0x2E6 JUMP JUMPDEST JUMPDEST PUSH0 DUP4 ADD CALLDATALOAD PUSH8 0xFFFFFFFFFFFFFFFF DUP2 GT ISZERO PUSH2 0x382 JUMPI PUSH2 0x381 PUSH2 0x2EA JUMP JUMPDEST JUMPDEST PUSH2 0x38E DUP6 DUP3 DUP7 ADD PUSH2 0x2FA JUMP JUMPDEST SWAP3 POP SWAP3 POP POP SWAP3 POP SWAP3 SWAP1 POP JUMP JUMPDEST PUSH0 DUP2 SWAP1 POP SWAP2 SWAP1 POP JUMP JUMPDEST PUSH2 0x3AC DUP2 PUSH2 0x39A JUMP JUMPDEST DUP3 MSTORE POP POP JUMP JUMPDEST PUSH0 PUSH1 0x20 DUP3 ADD SWAP1 POP PUSH2 0x3C5 PUSH0 DUP4 ADD DUP5 PUSH2 0x3A3 JUMP JUMPDEST SWAP3 SWAP2 POP POP JUMP JUMPDEST PUSH32 0x4E487B7100000000000000000000000000000000000000000000000000000000 PUSH0 MSTORE PUSH1 0x32 PUSH1 0x4 MSTORE PUSH1 0x24 PUSH0 REVERT JUMPDEST PUSH32 0x4E487B7100000000000000000000000000000000000000000000000000000000 PUSH0 MSTORE PUSH1 0x11 PUSH1 0x4 MSTORE PUSH1 0x24 PUSH0 REVERT JUMPDEST PUSH0 PUSH2 0x42F DUP3 PUSH2 0x39A JUMP JUMPDEST SWAP2 POP PUSH2 0x43A DUP4 PUSH2 0x39A JUMP JUMPDEST SWAP3 POP DUP3 DUP3 SUB SWAP1 POP DUP2 DUP2 GT ISZERO PUSH2 0x452 JUMPI PUSH2 0x451 PUSH2 0x3F8 JUMP JUMPDEST JUMPDEST SWAP3 SWAP2 POP POP JUMP JUMPDEST PUSH0 PUSH2 0x462 DUP3 PUSH2 0x39A JUMP JUMPDEST SWAP2 POP PUSH2 0x46D DUP4 PUSH2 0x39A JUMP JUMPDEST SWAP3 POP DUP3 DUP3 ADD SWAP1 POP DUP1 DUP3 GT ISZERO PUSH2 0x485 JUMPI PUSH2 0x484 PUSH2 0x3F8 JUMP JUMPDEST JUMPDEST SWAP3 SWAP2 POP POP JUMP JUMPDEST PUSH0 PUSH2 0x495 DUP3 PUSH2 0x39A JUMP JUMPDEST SWAP2 POP PUSH32 0xFFFFFFFFFFFFFFFFFFFFFFFFFFFFFFFFFFFFFFFFFFFFFFFFFFFFFFFFFFFFFFFF DUP3 SUB PUSH2 0x4C7 JUMPI PUSH2 0x4C6 PUSH2 0x3F8 JUMP JUMPDEST JUMPDEST PUSH1 0x1 DUP3 ADD SWAP1 POP SWAP2 SWAP1 POP JUMP INVALID LOG2 PUSH5 0x6970667358 0x22 SLT KECCAK256 0xED CREATE2 MOD PREVRANDAO CALLER JUMPF 0x9370 0x2D RETURNDATACOPY ADDMOD CALLDATASIZE POP LT SDIV 0xBD PUSH5 0x5184FCBBE2 NUMBER PUSH29 0xA83C947C42E7A86B64736F6C634300081E003300000000000000000000 "
		},
		"gasEstimates": {
			"creation": {
				"codeDepositCost": "257600",
				"executionCost": "155684",
				"totalCost": "413284"
			},
			"external": {
				"parse(string)": "infinite"
			}
		},
		"methodIdentifiers": {
			"parse(string)": "bc62d8d8"
		}
	},
	"abi": [
		{
			"inputs": [],
			"stateMutability": "nonpayable",
			"type": "constructor"
		},
		{
			"inputs": [
				{
					"internalType": "string",
					"name": "input",
					"type": "string"
				}
			],
			"name": "parse",
			"outputs": [
				{
					"internalType": "uint256",
					"name": "",
					"type": "uint256"
				}
			],
			"stateMutability": "view",
			"type": "function"
		}
	]
}